:020000040010EA
:1020000000000040AD72100099721000814D100068
:102010009D7210009F721000A1721000000000005D
:102020000000000000000000000000000972100025
:10203000A572100000000000717210008172100083
:10204000834D1000874D1000AB721000914D1000B1
:102050008F4D10009D4D10008B4D1000994D1000BC
:10206000AB721000AB721000AB721000A54D1000E7
:10207000AB721000954D1000A34D1000AB72100014
:10208000AB721000A14D10009F4D1000AB721000FC
:10209000044B05481B1A062B02D9044B03B1184701
:1020A000704700BF2342FF3F2042FF3F0000000077
:1020B00005490648091A891001EBD171491002D06F
:1020C000034B03B1184770472042FF3F2042FF3FB8
:1020D0000000000010B5064C237843B9FFF7D8FF85
:1020E000044B13B10448AFF300800123237010BDEB
:1020F0002042FF3F00000000E8ED100008B5084B4B
:102100001BB108490848AFF300800848036813B9B9
:10211000BDE80840CCE7064B002BF9D09847F7E71D
:10212000000000002442FF3FE8ED10002042FF3F86
:10213000000000000368184708B10B68036070478F
:102140007047000038B5064D002404F5B4702844EB
:10215000183C05F0F1F814F5C07FF6D138BD00BF8A
:102160003C42FF3F10B52F4B96B01A785AB100226F
:102170002D481A7000F006FC0F2302222B492A4832
:1021800000F0CCFC04E0012227481A7000F0FAFBB2
:10219000274C2849284804F0A3FF214602A808F04C
:1021A0006EF802AA2549244804F09AFF01231A4632
:1021B00002A91D4800F0B2FC204608F068F8235C34
:1021C0002044417810F8012C009102A81C4907F026
:1021D000B9FF02AA1949184804F082FF0A23012214
:1021E0001849114800F09AFC204608F050F80446BF
:1021F000144808F04CF8621E431E134902A807F069
:10220000A1FF02AA0D490C4804F06AFF02231A46F6
:102210000C49054800F082FC0C49074804F060FFB7
:1022200016B010BD6846FF3F6C46FF3F60DB1000F4
:102230000847FF3F62DB10005044FF3F69DB10009E
:102240006DDB10001445FF3F76DB100063DB1000F0
:1022500010B50446403000F0EFFA204610BD0000F3
:1022600000F1080373B5044603600D4681B10846CA
:1022700008F00DF80F2805EB000601900BD900229D
:1022800001A9204605F03CF8019B2060A36002E014
:10229000074805F025F832462946206805F05DF824
:1022A0002046019B226800216360D15402B070BDBA
:1022B00080DB10000EB433B505AB53F8044B0C496A
:1022C0000546019305F054F818B9019A21460948CA
:1022D00007E00949284605F04BF820B92146019A44
:1022E000064804F037FF02B0BDE8304003B0704745
:1022F000AADB1000CC44FF3FAFDB10005044FF3F8F
:10230000C36810B504460BB19B689847204610BDC2
:1023100038B505460446064B45F8283B04F058FA04
:102320002846FFF7EDFF204604F09EFA204638BD10
:1023300070E6100010B50446FFF7EAFF204604F0EF
:1023400059FD204610BD000070B50546074B0646F6
:1023500045F8103B45B100F13004AC4204D0103CCC
:102360002046FFF7CDFFF8E7304670BD38E6100095
:1023700010B50446FFF7E8FF204604F03BFD204679
:1023800010BD000010B504460A4B4C3003F120028A
:1023900040F84C3C7C3340F8182C40F8143C04F0D6
:1023A0002AFF04F1340004F089FE2046FFF7CCFF39
:1023B000204610BDACE51000A0F13400E2E7A0F12A
:1023C0003800DFE738B5CB6804460D460BB15B68D3
:1023D0009847EB682046E36038BD000030B52A48D6
:1023E0008BB000F01FFB2949274800F0B1FB2848BB
:1023F00004F0D2FD244800F0C5FA264B694600934C
:10240000254B04A80393FFF7DDFF2448FFF778FF6F
:1024100004A92248FFF7D6FF214A0023214804F0EF
:10242000BFF904A8FFF76CFF6846FFF769FF1E4D70
:102430001E491F4804F054FE1E4CA86C05F04AFFCC
:102440001D4904A8FFF70CFF22461C4904A8FFF70A
:1024500031FF04A804F070FF204607F018FF204465
:1024600010F8013C002BE3D0154A1649104804F03F
:1024700054FE134A14490E4804F032FE104A124921
:10248000124804F02DFED2E76C46FF3FB4DB10008B
:10249000000040406521100054DB1000A045FF3FC4
:1024A000400D03007845FF3F9844FF3FC1DB10001B
:1024B000CC44FF3F0847FF3FAADB1000D8DB1000E9
:1024C0001445FF3FDBDB1000DEDB10005044FF3F14
:1024D00010B50446FFF756FF204604F08BFC20465B
:1024E00010BDA0F13400F3E7A0F13800F0E70000E0
:1024F00073B556495648FFF7B3FE564A56495448F5
:1025000004F043FC554B002203F5C070194643F814
:10251000042C43F8083C01F8182B19615A611A760B
:10252000303383424FF00004F0D14A4A4C492046F0
:1025300004F02BFC45494B48FFF792FE454A4649BB
:10254000484804F022FC41494748FFF789FE414AC8
:102550004149454804F019FC3C494448FFF780FED6
:102560003C4A3D494148424D04F00FFC414804F0CB
:1025700035FE4FF0FF36374A3F493E4804F005FC30
:102580000096042306220521284604F04DF8EC624B
:1025900085F830406C63314605F12C0000F01FFBDC
:1025A000009620230222032105F1400000F09EF84E
:1025B000284A3249284604F0E8FB4FF416532146D6
:1025C00001222F4803F08AFF224A2E492C4804F0AA
:1025D000DCFB4FF4E1332C4D009309222346082104
:1025E0002A4803F05FFF2A4E1A4A2649274804F07A
:1025F000CCFB284604F010F92E606C632846254D6C
:10260000144A254904F0C1FB284604F005F92E6060
:102610006C632846214D0F4A1F4904F0B6FB28463B
:1026200004F0FAF86C630B4A1B4928462E6004F04C
:10263000ACFB1B48074A084900F1080380E8180072
:10264000047202B0BDE8704004F09FBBCDE81000FA
:10265000BC43FF3FA040FF3F657310004442FF3F73
:10266000452110000444FF3FD443FF3F5046FF3F45
:102670006C46FF3FE845FF3FF77110005122100004
:102680001C44FF3F852310007845FF3F9844FF3FDF
:1026900070E610001846FF3F11231000B045FF3FC1
:1026A000EC43FF3F0848094A08B5121A002106F01A
:1026B000AAF800F003FD05F0DDFF02F067FD00F071
:1026C000F5FC04F064FB00BF2042FF3F6C61FF3F5C
:1026D000022801DD04F0E0BA0120704708B50120AE
:1026E00004F055FB08B5FFF7F9FF000038B50446C4
:1026F0001D4603F059FD9DF9101004F1200003F070
:102700004BFE20462577024903F06CFD204638BD7C
:1027100040420F0008B572B603F064FD62B608BD12
:102720001FB572B600238DF80C108DF80D20017FB7
:1027300003AA0093022303F081FD62B605B05DF8A1
:1027400004FB30B585B004AA044602F8011D72B638
:102750000125017F2B46009503F070FD00230093B7
:10276000217F2B460DF10E02204603F087FD62B655
:102770009DF80E0005B030BDF8B51C46D3B2072B4E
:1027800006460D46174604D95C221149114800F04F
:1027900049FB1DB1012D1AD1032500E00225294670
:1027A0003046FFF7CEFF3CB1012C01D0C2B208E0A9
:1027B00004FA07F2024303E00122BA4020EA0202CF
:1027C000D2B229463046BDE8F840FFF7A9BFF8BDB0
:1027D000E6DB10000BDC1000F8B51C46D3B2072B6B
:1027E00006460D46174604D97B221149114800F0D0
:1027F00019FB1DB1012D1AD1072500E00625294638
:102800003046FFF79EFF1CB1012C06D0C2B208E093
:102810000122BA4020EA020202E004FA07F202436F
:10282000D2B229463046BDE8F840FFF779BFF8BD7F
:10283000E6DB10000BDC100010B50446203003F07E
:102840007BFD204610BD481E012809D8501E0F28C8
:1028500006D802290ABF3F3218701A70012070474B
:102860000020704710B500F140040123022200212E
:102870002046FFF781FF142004F076FB012004F0CE
:1028800073FB0023204602221946FFF775FF142030
:1028900004F06AFBBDE81040012004F065BB10B5F0
:1028A0000446012004F060FB04F1400001230222F1
:1028B0000021FFF761FFBDE81040142004F054BB75
:1028C00038B50C4605464FF4FA7004F04DFB2CB1B8
:1028D000012C0AD123460322002102E0234621468F
:1028E000032205F14000FFF747FF142004F03CFBF2
:1028F000BDE838404FF4FA7004F036BB10B504461A
:102900000821002203F0BAFE2046BDE8104001492C
:1029100003F0CCBE20A1070010B504460821002218
:1029200003F0ACFE2046BDE81040014903F0BEBEF6
:1029300040420F0038B504460D4611484FF0FF31B4
:1029400004F053FC2046FFF7D9FF2046FFF78AFF2B
:1029500020460021FFF7B4FF2946204603F0BCFEC5
:102960002046FFF79CFF012D204604BFA563E563C9
:10297000FFF7D2FFBDE83840014804F039BC00BF82
:10298000E845FF3F0121FFF7D5BF73B50DF1070300
:1029900004461546FFF757FF50B1A1639DF8071095
:1029A0002046E56341F08001FFF7C4FF002001E00D
:1029B0004FF0FF3002B070BD10B504463021FFF774
:1029C000B9FF022004F0F4FA20463021FFF7B2FFED
:1029D00020463021FFF7AEFF20463921FFF7AAFF3E
:1029E00020461421FFF7A6FF20465621FFF7A2FF3D
:1029F00020466D21FFF79EFF20467021FFF79AFFCA
:102A000020460C21FFF796FF20460621FFF792FF94
:102A100020460121FFF78EFFBDE810400A2004F098
:102A2000C7BA000038B5044600F1400528460F49F2
:102A3000FFF770FE0023194628460222FFF7CCFE5E
:102A40000023194603222846FFF7C6FE2046FFF75B
:102A500026FF2046FFF752FF2046FFF7ADFF012279
:102A60002046BDE838401146FFF78FBF40420F00B7
:102A70002DE9F041161E04460D4648DD002946D0DA
:102A80004FF0FF31244804F0B0FB2046FFF736FF3B
:102A90002046FFF7E7FE01212046FFF711FF2E44F5
:102AA0004FF00108E36B15F8017B102B09DC0A2FAE
:102AB00007D03946204603F00FFEE36B0133E36392
:102AC00017E0A16B012201310229C8BF0121A163D6
:102AD000C4F83C802046FFF758FF2046FFF70EFF62
:102AE00001212046FFF7ECFE2046FFF7BBFE0A2F30
:102AF000DFD1B542D6D12046FFF7D1FE2046FFF701
:102B00000BFF054804F074FB0020BDE8F0814FF096
:102B1000FF30BDE8F08100BFE845FF3F70B50646D5
:102B200014460D4611B94FF0FF3070BD1A462146CC
:102B3000FFF72BFF0028F6D12B465A1B13F8014B49
:102B4000002CFAD129463046FFF792FF204670BD8F
:102B500070B504460D46FFF715FF012329462046B0
:102B6000BDE870401A46FFF7D9BF70B50E4604465F
:102B7000154602F025F9013609D02046002102F061
:102B800049F929462046BDE8704002F03FB970BDC2
:102B900038B50C4601220546FFF7E7FF0F2C06D19A
:102BA00021462846BDE838400122FFF7DEBF38BD88
:102BB00070B50E460446154602F002F901360DD0F6
:102BC0002946204602F038F92046012102F022F978
:102BD0002046BDE87040012102F018B970BD002206
:102BE000FFF7E6BF014800F0A4B800BF38DC1000D2
:102BF00010B50446013001D110BD0C3191F90030FF
:102C00005A1C0BD09C42F8D12046896802F068FF1C
:102C10002046BDE81040012102F074BF0248BDE823
:102C2000104000F0A1B900BF40DC1000884208B598
:102C30000AD0431C07D0013106D0044800F094F9B3
:102C40004FF0FF3008BD084608BD00BF51DC100042
:102C500091F900305A1C05D0834201D14868704771
:102C60000C31F5E718467047421C10B5044607D0F2
:102C7000FFF7EEFF431C044602D1024800F074F94E
:102C8000204610BD62DC10000368D0B544685B6864
:102C9000D4E9026798470022B04242EA00023B466C
:102CA00002D2003247F10103C4E90223D0BD2DE96D
:102CB00070430646FFF7E8FF71684B68ABB1D1E996
:102CC0000245D3E90023AB4208BFA2420BD3B2EBCB
:102CD000040863EB0509B9F1000F08BFB8F1E04F34
:102CE00003D2121B03E0002201E04FF0E042336800
:102CF00088681B691044BDE870431847436870B585
:102D00001D7C04460E468DB903681B6898476368AE
:102D1000002000210122C3E902011D6020465D6000
:102D20001A74FFF7B1FF2046FFF7C1FF63681E600A
:102D300070BD036870B5DB680446984763685B68DC
:102D4000A3B12046FFF7A0FF65686E68D5E90201D0
:102D5000D6E90023994208BF904207D3F3686B601D
:102D60002B68002BEAD0B0689847E7E72046BDE81B
:102D70007040FFF79CBF2DE9F84305460C46164608
:102D80001F46DDF8208000F0A5F82846FFF77CFFFD
:102D90006968C4E900674B68C4F80880002243B141
:102DA000D3E900894F4508BF464502D31A46DB6880
:102DB000F5E7E3600AB94C6000E0D4602846FFF70D
:102DC00076FFBDE8F84300F0B1B838B505460C46CB
:102DD00000F080F86A685368A34206D1DB68284691
:102DE0005360FFF764FF06E0134623B1DA689442AC
:102DF000FAD1E268DA60BDE8384000F097B810B563
:102E00000446FFF741FF6368D3E9020110BD0000EB
:102E100000487047B4DC10000148FFF78ABF00BFCC
:102E2000B4DC100070B504460D46164600F052F8AA
:102E300033462A462146034800F038F8BDE8704082
:102E400000F002B8BCDC100008B500F043F8962092
:102E500004F0AEF8962004F0ABF8F8E730B50D4674
:102E60000446A1B000F036F82B4622468021684681
:102E700008F02AFA051E03DC00F058F821B030BD36
:102E8000084B1B6823B909220821074802F0C8FF34
:102E900000241DF804100448013403F0B8F8A542DA
:102EA000F7D1E9E7784DFF3F5C61FF3F0FB407B50D
:102EB00004A951F8040B0191FFF7D0FF03B05DF8AE
:102EC00004EB04B07047EFF3108000F0010080F0D5
:102ED0000100704738B5FFF7F6FF054672B60E4C95
:102EE000236823B980F001030C4ADBB21370236816
:102EF000013304D145220A490A48FFF793FF2368AA
:102F00002BB125B1492206490748FFF78BFF2368FB
:102F10000133236038BD00BFA047FF3FA447FF3FF8
:102F2000EDDC10001DDD100043DD100010B50A4C73
:102F3000236883B1FFF7C7FF20B15A220749084829
:102F4000FFF770FF2368013B236023681BB9054B23
:102F50001B7803B962B610BDA047FF3FEDDC10003F
:102F600043DD1000A447FF3F0FB413B5084B1A7898
:102F70004AB9012405A904981C700191FFF76EFF5E
:102F8000204603F004FF02B0BDE8104004B07047D3
:102F9000A547FF3F38B51548154B0B250360154B6A
:102FA0001C244560C460836001F016F9124B186060
:102FB0001248134BC46080E82800124B836001F074
:102FC0000BF9114B18601148114BC46080E82800C0
:102FD000104B836001F000F90F4B186005F04AFBBD
:102FE000BDE838400021084600F060B81461FF3F9A
:102FF00057DD1000DC60FF3FD860FF3FC860FF3F37
:1030000067DD1000F860FF3FA050FF3F4861FF3FC1
:1030100074DD1000AC60FF3FA860FF3F094A0A481A
:10302000C2F180431946B3F5806F28BF4FF4806129
:103030005B1A016005499818086005490B60054B4B
:103040001A6070477061FF3FAC47FF3FA847FF3FE2
:10305000A44EFF3FA84FFF3F7047704708B50D4A89
:103060000D4B002113614FF4805353614823D3600B
:103070000A4B0B489360182393610A4B136001F0CD
:10308000E1FD10B90848FFF76FFFBDE8084000F008
:1030900063BA00BF2461FF3FA850FF3F5850FF3F75
:1030A000952F10007EDD10008ADD100008B5FFF7B7
:1030B000D3FFBDE80840FFF791B9000010B5FFF756
:1030C000ADFF0A4B0A499A680A48043A52F8044F7D
:1030D00041F8044F8142F9D1074A9A60FFF7BDFFDA
:1030E00000F0F4F9BDE81040FFF7B8BF00ED00E0D4
:1030F000FC3FFF3F8C40FF3F0040FF3F02F0A0BF7E
:1031000008B5024C23689847FCE700BFA440FF3F86
:1031100008B5FFF7F5FFFCE708B505460C4601F0DA
:10312000ADFD6B1E0246042B24D8DFE803F0030D2F
:1031300013191E00204601F089FD22460346012195
:103140000F48FFF711FF19E0234602210D48FFF752
:103150000BFF13E0234603210B48FFF705FF0DE0AB
:1031600004210A48FFF700FF08E005210848FFF79F
:10317000FBFE03E029460748FFF7F6FEFEE700BF27
:10318000A6DD1000F7DD10004DDE1000B2DE1000ED
:103190000DDF10006DDF100008B5014610B11320DF
:1031A00001F0C2FC002008BD10B5044600F031F863
:1031B000EFF305832BB9EFF3108313B9EFF311830A
:1031C0003BB16FF00501002000F016F86FF005002C
:1031D00010BD2046DFF804C000DF10BD993110009B
:1031E0007047704770477047704770477047704727
:1031F0007047704770477047704770477047704717
:103200007047704770477047704770477047704706
:1032100070477047704770477047704770477047F6
:1032200070477047704770477047704770477047E6
:1032300070477047704770477047704770477047D6
:1032400070477047704770477047704770477047C6
:103250007047000070B56348017A0446012900F008
:10326000BD8011B14FF0FF3009E05F4DA82208305A
:1032700005F0C9FA6B6D472B06D86FF00A00FFF70F
:10328000B5FF4FF0FF3070BDEA68002AEAD02B8A04
:10329000002BE7D0EE6AA4F85C30AB68296B3046AF
:1032A0006266A36400F08AF908B1C4F888606E69A8
:1032B000A969304600F082F908B1E66702E0D4F867
:1032C0008830E367EE69296A304600F077F910B17B
:1032D000C4F8806003E0D4F88830C4F880306E6AA7
:1032E000A96A304600F06AF910B1C4F8846003E0BE
:1032F000D4F88830C4F884306E6B46B1F368B26895
:103300003168304600F0D5F908B1C4F88C60AE6B76
:1033100046B1F368B2683168304600F0CAF908B1C6
:10332000C4F89060EE6B46B1F368B268316830461D
:1033300000F0BFF908B1C4F894602E6C46B1F36890
:10334000B2683168304600F0B4F908B1C4F898604A
:103350006E6C46B1F368B2683168304600F0A9F986
:1033600008B1C4F89C60AE6C46B1F368B2683168CD
:10337000304600F09EF908B1C4F8A060EE6C46B18A
:10338000F368B2683168304600F093F908B1C4F8C8
:10339000A4602D6D45B1EB68AA682968284600F045
:1033A00088F908B1C4F8A850104AFF2382F82230E7
:1033B00092F82230D16863F0FF03DB43B3FA83F362
:1033C000C1F30221C3F120038B4298BF4B1CFE21A5
:1033D00001FA03F3DBB2D37701232372FFF708FF6F
:1033E000002070BDA840FF3FECDF100000ED00E0C2
:1033F00010B5034C207AFFF7FCFE207A10BD00BF09
:10340000A840FF3F38B52A4C237A012B02D06FF039
:1034100006000BE0236B274D6BB9AA6D19462648B1
:1034200001F080FA206330B94FF0FF30FFF7DEFE85
:103430004FF0FF3038BD6B6E5BB1236D4BB91D4A49
:103440001946D26D1D4801F06DFA194B1865002818
:10345000EAD01B4801F0DBF80028E5D001F0F4F9D0
:103460002B68DB074CBF0223032383F31488154B1F
:103470001B68E36000F0B4FF0028A0610FDB00F1DF
:10348000604303F56143FF2283F8002342110123C7
:1034900000F01F0003FA00F00B4B43F8220000F08D
:1034A000B9FF02232372FFF7A6FE002038BD00BF3C
:1034B000A840FF3FECDF100011311000354D100027
:1034C000CC40FF3F5841FF3F00E100E008B5FFF767
:1034D0008EFEEFF305832BB9EFF3108313B9EFF3EF
:1034E000118333B16FF00500FFF780FE6FF0050028
:1034F00008BDDFF820C0EFF3148313F0020F06D1EC
:10350000EFF30883203B23F0070383F3098800DFF0
:1035100008BD00BF5532100008B5EFF305832BB985
:10352000EFF3108313B9EFF3118333B14FF0FF3092
:10353000FFF75FFE4FF0FF3008BDEFF31483DB07AA
:1035400003D4BDE80840FFF753BFDFF808C000DF31
:1035500008BD00BFF133100008B5FFF74BFEEFF3D5
:1035600005832BB9EFF3108313B9EFF3118333B154
:103570006FF00500FFF73AFE6FF0050008BDFFF79A
:10358000CBFF022805D00B4B1B6813B15B6803B15E
:103590009847DFF824C0EFF3148313F0020F06D12D
:1035A000EFF30883203B23F0070383F3098800DF50
:1035B00008BD00BF5861FF3F0534100038B50C4608
:1035C000034630B140EA010212F0070201D1172987
:1035D00006D8184600222146FFF702FE002038BD1B
:1035E000A1F1080410251960456025188560225056
:1035F000C2600122FFF7F4FD012038BDF8B518B113
:1036000011B132F0030304D00023FFF7EAFD0020DC
:10361000F8BD0F3121F0070100F108052E68D5F83B
:1036200004E0731B2EF003041B1B994205D9346878
:103630003546002CF2D12346E7E7436842EA01070A
:103640000B444360BEF1000F03D16F6005F1080425
:1036500005E02B192E515F6003F108042B6023460F
:10366000FFF7BFFD2046F8BD38B500B121B90022F3
:10367000FFF7B8FD002038BDA1F1080500F10803EF
:103680000022AB4205D01C681A46002CEFD023461E
:10369000F7E75C6824F003054468641B44600AB9DA
:1036A0005A6001E01B6813600122FFF79BFD0120B7
:1036B00038BD2DE9F0410D4617461C460646F8B1C7
:1036C00001B312B323B302FB01F84FF0000E3160D7
:1036D000C0F804E003EB080EF3607361B260C0F859
:1036E00010E0FFF780FD2346013D03D0DA191A6090
:1036F0001346F9E7C7EB080025500120BDE8F0812B
:10370000BDE8F0810846BDE8F0811046BDE8F081D3
:103710001846BDE8F08138B5054620B90146FFF7E7
:1037200063FD284638BD031D026853E8001F8A4226
:1037300002D8BFF32F8F04E0481C43E8000404B113
:10374000F3E72B688B420ED905F1140353E8000F01
:1037500010B9BFF32F8F04E0026843E8002101B1E4
:10376000F4E7044600E0002428462146FFF73CFD2C
:10377000204638BD38B528B1C3688B4202D80369EA
:10378000994206D36FF00302FFF72FFD6FF003009D
:1037900038BD031D53E8002F12B9BFF32F8F04E08B
:1037A000541E43E8004505B1F4E782B100F114036B
:1037B0001A680A60BFF35F8F53E8002F0C689442C9
:1037C000F6D143E8001505B1F2E7002401E06FF0FF
:1037D00002042246FFF709FD204638BD036B30B5D1
:1037E000A3B1CD780024DA78AA4204D25A681C46E4
:1037F0001AB11346F7E71A4623464A608B600AB1AE
:10380000916000E0C16223B1596003E04B608B60BE
:10381000C1620163283050E8003F5A1C40E8002193
:1038200001B1F8E730BD4B688A680BB19A6000E0DF
:10383000C2628A680AB15360704703637047000030
:103840002DE9F74F804600B131B96FF00301002038
:10385000FFF7F1FC00208EE0033121F0030303F1B8
:103860000C090193B9FA89F1B0FA80F30B441F2BCC
:10387000EBDD09FB00FAE2B19468D2F800B01669FA
:1038800050693CB1A30702D1D368332B05D86FF040
:103890000801DCE7D368002BF9D13EB116F0030331
:1038A00001D182455FD96FF00901D0E700285ED0D1
:1038B000F9E793461646314BD3F8A80010B1FFF74D
:1038C0002AFF05E001223421D3F88800FFF796FE95
:1038D000044620B96FF00401FFF7ADFC41E026BBC0
:1038E0000125264F00225146D7F88400FFF786FEB7
:1038F000064690B96FF00401FFF79DFC002DA9D09A
:10390000D7F8A85021461DB12846FFF733FFA1E79D
:10391000D7F88800FFF7A8FE9CE75246002104F084
:1039200072FF45F00200C0B200E001200823019AB6
:103930002370012363700023A070A3606262A362FE
:10394000E36223634A463346C4F804B0414604F1B7
:103950000C00FFF7AEFE0A4A084B20469A67FFF7B5
:103960006CFC204607E0002CA5D01846DEE7002CB2
:10397000A1D00546B5E703B0BDE8F08FA840FF3FF2
:10398000813A10002DE9F0410E4690461D4604464E
:1039900018B10378082B00D141B920466FF003011C
:1039A000FFF749FC6FF00300BDE8F081437823B9CD
:1039B0006FF00201FFF73FFC5CE0836803B35B78C4
:1039C000832B1DD1FFF73EFC204600F020FE05466C
:1039D0000122002100F076FF284600F0F7FE0546A0
:1039E000626A3146806804F0E8FEEB680BB183F848
:1039F00000802046A968FFF72AFC0020BDE8F0817E
:103A000004F10C00FFF787FE0746B8B1626A314641
:103A10000C3004F0D2FE07233B70002501237B709D
:103A200039462046BD7087F80380FFF7D7FE204651
:103A30003146FFF707FC2846BDE8F081B5B12A46BC
:103A400031462046FFF7FBFB0C4B2046D96900F0BE
:103A5000CBFD2946932001F067F8EFF309836FF05F
:103A600001009E60C3F80C80BDE8F081314620461D
:103A7000FFF7E9FB6FF00200BDE8F081A840FF3FCF
:103A8000F8B543780446002B7AD08678002E3ED0D5
:103A9000C5686B78002B73D001460026284605F1D7
:103AA0000C07FFF7C0FE667021463846FFF762FE3E
:103AB000AB68002B64D05B78932B61D13846FFF75D
:103AC0002AFE044600285BD0284600F0A0FD0746E9
:103AD0003246314600F0F6FE384600F077FE0746E3
:103AE0006A6A816804F10C0004F067FE0723237002
:103AF00001236370A670FB6821462846E370FFF738
:103B00006DFEB9682846BDE8F840FFF79BBB8568A5
:103B10006B78ABB3AB684BB35B78832B26D1416832
:103B20002846FFF78FFB284600F071FD0746324616
:103B3000314600F0C7FE384600F048FE06466A6A85
:103B400004F10C01806804F038FEF3680BB1E278F0
:103B50001A70B1682846FFF77AFB0023637021468C
:103B600005F10C00BDE8F840FFF704BE6168284687
:103B7000FFF768FB21462846BDE8F840FFF72EBE58
:103B8000F8BD10B500F1280353E8002F12B9BFF3B8
:103B90002F8F04E0511E43E8001404B1F4E70AB982
:103BA000002010BDC06A01230028F9D0821CD2E891
:103BB0004F1FC2E8443F04B1F9E711F0FF0F01D0F5
:103BC0008068F1E710BD00002DE9F0410D46174671
:103BD0009846044618B10378082B00D141B9204615
:103BE0006FF00301FFF727FB6FF00300BDE8F081E2
:103BF000437823B96FF00201FFF71DFB3EE0FFF7AA
:103C0000C0FF0646E8B101462046FFF70CFE626A97
:103C100006F10C01284604F0D0FD0FB1F3783B709B
:103C200029462046002504F10C07FFF710FB7570AC
:103C300031463846FFF79EFDA3681BBB0020BDE858
:103C4000F081B8F1000F15D0424629462046FFF713
:103C5000FCFA234B2046D96900F0C6FC414683207C
:103C600000F062FFEFF309836FF001009D60DF60F9
:103C7000BDE8F08129462046FFF7EAFA6FF002001E
:103C8000BDE8F0815B78932BD8D13846FFF743FD30
:103C900006460028D2D0204600F0B9FC0746294647
:103CA000012200F00FFE384600F090FD0746626AE0
:103CB000816806F10C0004F080FD072333700123B6
:103CC0007370B570FB683146F3702046FFF786FDD0
:103CD0002046B968FFF7B6FA2846BDE8F08100BF74
:103CE000A840FF3F70B506460D461446FFF7A4FAFC
:103CF000EFF305832BB9EFF3108313B9EFF31183BF
:103D000033B16FF005010020FFF795FA002070BD78
:103D1000304629462246DFF820C0EFF3148313F023
:103D2000020F06D1EFF30883203B23F0070383F350
:103D3000098800DF70BD00BF413810002DE9F04157
:103D400004460F4690461D46FFF778FAEFF30583C9
:103D500033B9EFF310831BB9EFF31183002B3CD081
:103D600024B12378082B01D107B145B120466FF06B
:103D70000301FFF760FA6FF00300BDE8F08163789C
:103D80002BB96FF002012046FFF755FA21E004F14C
:103D90000C00FFF7C0FC0646B8B1626A39460C3029
:103DA00004F00BFD07233370012373703046B570A8
:103DB00086F803807760B46000F0E0FA2046394668
:103DC000FFF73FFA2846BDE8F08139462046FFF765
:103DD0003AFA6FF00200BDE8F081204639464246CB
:103DE0002B46DFF808C000DFBDE8F0818539100000
:103DF000F8B504460D4617461E46FFF725FAEFF3C1
:103E000005832BB9EFF3108313B9EFF31183A3B339
:103E100024B12378082B01D105B13EB120466FF0C3
:103E20000301FFF708FA6FF00300F8BD63782BB9C0
:103E30006FF002012046FFF7FEF91BE02046FFF776
:103E4000A0FE064690B100F10C01626A284604F01B
:103E5000B4FC0FB1F3783B7029462046FFF7F7F921
:103E60003046F46000F08AFA0020F8BD294620466A
:103E7000FFF7EEF96FF00200F8BD204629463A46FA
:103E80003346DFF808C000DFF8BD00BFC93B1000B3
:103E900070B530B390E86000846864B114F0030337
:103EA00002D1C2681B2A0AD86FF008010020FFF770
:103EB000B4F9002070BDC368ABB1F5E7012304225B
:103EC0002270A370012200236270E6706560A36017
:103ED000E3602361636123762046FFF7A0F9204663
:103EE00070BD054606460A4BD3F89C0010B1FFF79B
:103EF00012FC05E001221C21D3F88800FFF77EFBAD
:103F000004460028DAD16FF00401FFF786F9E6E7EE
:103F1000A840FF3FF8B5314B0546DE690F4636B97C
:103F20006FF00701FFF779F94FF0FF30F8BD10B1DE
:103F30000378042B07D028466FF00301FFF76DF9D3
:103F40006FF00300F8BD437813B96FF0020116E07B
:103F5000047E54B9F36A0121C66043610461F062D2
:103F60000176FFF760F92046F8BDC378DA0710D56F
:103F7000C26896420DD1FF2C04D16FF00F01FFF7FC
:103F80004CF928E0611CC9B20176FFF74CF900201A
:103F9000F8BDEFB19B070CD5EB6896F8202093F99C
:103FA000200051B2884204DA83F82020E86800F04B
:103FB00049FB39462846FFF734F93146284600F0D8
:103FC00013FB3946532000F0AFFD6FF00100F8BD40
:103FD0002846FFF729F96FF00200F8BDA840FF3F1F
:103FE00038B5354B0446DD6935B96FF00701FFF789
:103FF00014F94FF0FF3038BD10B10378042B07D00F
:1040000020466FF00301FFF708F96FF0030038BD99
:10401000437813B96FF0020109E0C3689D4202D0F2
:104020006FF00D0103E0017E31B96FF00E01FFF773
:10403000F4F86FF0020038BD0139C9B20176FFF71C
:10404000F5F8237E002B34D163690BB122691A6124
:1040500022690AB1536100E0EB62E3789B0710D557
:1040600095F82130EA6A52B1916831B191F9201086
:104070005BB28B42B8BF0B46DBB25269F3E785F8FF
:104080002030A36893B1204600F0C1FA0546002213
:10409000114600F017FCEB6A012163610023E56023
:1040A00023612046EC622176FFF7BDF8002000F086
:1040B000DBFB002038BD00BFA840FF3F10B5044621
:1040C00010B10378042B07D020466FF00301FFF7EF
:1040D000A4F86FF0030010BD437833B96FF002010C
:1040E000FFF79BF86FF0020010BD00234370037EC2
:1040F000002B32D06369C0680BB122691A61226952
:104100000AB1536100E0C362E3789A0716D590F8CC
:104110002130C26A52B1916831B191F920105BB27D
:104120008B42B8BF0B46DBB25269F3E790F8202010
:10413000934203D080F8203000F084FAA3681BB9C2
:10414000002000F091FB08E0204600F060FA002219
:104150006FF0020100F0B6FBF0E7A378DB070BD5A8
:10416000084B2146D3F89C0010B1FFF703FB03E096
:10417000D3F88800FFF778FA2046FFF759F80020B7
:1041800010BD00BFA840FF3F2DE9F04104460026C6
:104190000127FCB1E378D4F814801B0718D52676E4
:1041A00000212046FFF742F8A3688BB1204600F0BB
:1041B0002EFA05460022114600F084FBEB6AE5600A
:1041C000636126610121EC6220462776FFF72BF818
:1041D0004446DEE7BDE8F08110B50446FFF71EF85F
:1041E000EFF305832BB9EFF3108313B9EFF31183CA
:1041F00033B16FF005010020FFF70FF8002010BD6C
:104200002046DFF820C0EFF3148313F0020F06D12D
:10421000EFF30883203B23F0070383F3098800DFD3
:1042200010BD00BF913E100038B504460D46FEF7A4
:10423000F7FFEFF305832BB9EFF3108313B9EFF317
:1042400011833BB120466FF00501FEF7E6FF6FF0EA
:10425000050038BD20462946DFF804C000DF38BD20
:10426000153F100010B50446FEF7DFFFEFF305839E
:104270002BB9EFF3108313B9EFF311833BB1204651
:104280006FF00501FEF7C9FF6FF0050010BD204675
:10429000DFF804C000DF10BDE13F100010B5044698
:1042A000FEF7C5FFEFF305832BB9EFF3108313B9C6
:1042B000EFF311833BB120466FF00501FEF7ADFF30
:1042C0006FF0050010BD2046DFF804C000DF10BD10
:1042D000BD40100010B5D0E85F3F5A1C914200D895
:1042E0000022C0E8542F04B1F5E798B210BD0000D9
:1042F00070B51F4D2C461F4EB5F85C10D6E85F3FD9
:1043000013B9BFF32F8F04E05A1EC6E8502F00B137
:10431000F4E79BB23BB31848FFF7DCFF6B6E53F832
:10432000200000B30378013B062BE5D801A252F828
:1043300023F000BF51431000F94210005543100014
:10434000F9421000594310005D4310006143100012
:10435000A36E06E0E36E04E0236F02E0636F00E00B
:10436000A36F9847C7E70020BDE8704000F07CBA13
:10437000A840FF3F0641FF3F0A41FF3F70B5164C82
:104380000546B4F85C1004F15E02D2E85F3F994242
:1043900002D8BFF32F8F04E0581CC2E8560F06B1B5
:1043A000F3E79BB28B4210D204F16000FFF792FF5B
:1043B000636E43F82050637A23B9084B4FF0805264
:1043C0005A6070BD0123E37270BD2946BDE870409C
:1043D0000220FEF7A1BE00BFA840FF3F00ED00E0B5
:1043E000084B094ADB6852684FF0FF30B3FBF2F329
:1043F000064A013B536000239360054BFF2283F87C
:1044000023207047A840FF3FECDF100010E000E0E1
:1044100000ED00E0014B07221A60704710E000E059
:10442000014B1B68704700BF10E000E038B5FFF794
:10443000F7FF1D4BD3E904019A6D013041F10001F2
:10444000C3E904011D4602B1904700F061F9002064
:1044500000F00AFAAA6C144B22B3196C186A814254
:1044600002D018645A6438BD5A6C0AB1013A5A64D1
:104470006B6C0D4CB3B9237A022B13D1E56A8DB165
:1044800095F9202091F920309A420BD1284600F06E
:10449000CFF8206C00F0E8F8284600F0D5F9A36CBE
:1044A0002564636438BD00BFA840FF3F10B5034BCF
:1044B000DC692046FEF7A4FE204610BDA840FF3F61
:1044C00008B5FEF7A2FEDFF810C000DF4FF0FF31A5
:1044D0000020FEF791FEFEE7714B100012F0020F74
:1044E00010B502F0010222D100F1280382B153E895
:1044F000000F00EA01028A4203D0BFF32F8F002091
:1045000005E020EA010243E8002404B1EFE710BD12
:1045100053E8000F084203D1BFF32F8F002005E0BE
:1045200020EA010243E8002404B1F1E710BD806AEB
:1045300001EA00031AB1994218BF002010BD002BF8
:1045400008BF002010BD000010B500234370837821
:1045500004469A070CD513F0100F016B0E4B04D0D4
:10456000D3F88C00FFF706F902E0D86FFFF77CF86C
:10457000A378DB070ED5084B2146D3F8900018B17D
:10458000BDE81040FFF7F6B8D3F88800BDE810404A
:10459000FFF76AB810BD00BFA840FF3F10B5044642
:1045A00010B10378012B05D020460021FEF727FE2D
:1045B000002010BD4378002BF6D04168FEF71FFEA7
:1045C000606810BD074A10B5936B002413B11C46F8
:1045D0001B69FBE7C161446103610CB1206110BD3F
:1045E000906310BDA840FF3F10B579B1836891F981
:1045F000202033B193F92040944202DB18469B6897
:10460000F7E7C8608B60816003B1D96010BD836833
:104610002BB19A68826002B1D0600022DA6018463D
:10462000704720B10378012B01D1C068F9E77047CA
:10463000C36833B182689A60826802B1D360002394
:10464000C360704710B5014604462378012B03D19F
:10465000E468002CF9D110BD0846FFF7E9FF2046B9
:10466000BDE81040FFF7C0BF012301464370014879
:10467000FFF7BABFCC40FF3F4B1C30B402460C469C
:1046800002D130BCFFF79EBF0C4900204B6B33B109
:10469000DD69AC4203D31846641B1B69F7E7D4619C
:1046A0005061136108B1026100E04A631BB1D9692E
:1046B0005A610C1BDC6130BC704700BFA840FF3F53
:1046C000C16910B54B1C42690CD11AB90F4B9B6BD9
:1046D00098421AD1036903B15A6142697AB90B4A07
:1046E000936310BD1AB9094B5B6B98420DD10369F6
:1046F0001BB1DC695A612144D96142691AB1136165
:104700000023436110BD014A536310BDA840FF3F21
:1047100038B52D4B5C6B1D46002C54D0E369013B32
:10472000E361002B4FD16378532B27D008D8332B6C
:104730001BD0432B1CD0132B31D1FEF76BFD2EE089
:10474000732B21D007D8632B29D12046FFF769FFAF
:10475000FEF76FFD23E0832B1CD0932B1FD1204647
:10476000FFF75FFFFEF76CFD19E0FEF750FD16E066
:104770002046FFF756FFFEF74FFD10E02046FFF7FB
:1047800050FFFEF74FFD0AE02046FFF74AFFFEF715
:1047900051FD04E02046FFF744FFFEF757FDA36BF1
:1047A0002046196AFEF72FFD2046FFF741FF2046FD
:1047B000FFF75AFF246924B1E369002BB3D000232B
:1047C00063616C6338BD38BDA840FF3F806B20300B
:1047D0007047000010B50123094A437090F920107A
:1047E000D36A243233B193F920408C4202DD1A4659
:1047F0009B68F7E7C2608360906003B1D86010BD2A
:10480000A840FF3F044B1B682BB11B691BB1034A37
:10481000126A506C184770475861FF3FA840FF3F2D
:10482000074BD96951B10B6B8A6B934203D21A685B
:10483000044B9A4202D00120FEF76EBC704700BFC5
:10484000A840FF3FA52E5AE210B50446022343704C
:10485000044B1862FFF7E4FF2046BDE81040FEF766
:10486000D3BC00BFA840FF3F10B5154B04461A7AD1
:10487000D96970B9022ADC6A21D101B3FCB194F97B
:10488000202091F920309A4219DD2046FFF7D0FE12
:1048900008E0022A0ED169B190F9202091F9203068
:1048A0009A4207DD0846FFF795FF2046BDE8104015
:1048B000FFF7CABF2046BDE81040FFF7D5BE10BDC8
:1048C000A840FF3F70B504460E461546FEF79BFC18
:1048D000A36B20461E62FFF7F3FE20461DB1BDE824
:1048E0007040FFF7C1BFBDE87040FFF7BDBE38B5EF
:1048F00043780446332B13D190F82320416AFFF705
:10490000EDFD054660B1014600222046FFF7DAFFC3
:104910002A4694F82310606ABDE83840FEF778BC58
:1049200038BD00002DE9F04F85B003910293814618
:1049300010B96FF003011EE082B3946802F1100514
:10494000E0CD3CB1A30702D1D368472B05D86FF067
:1049500008010FE0D368002BF9D12DB1680700D111
:104960007EB96FF00A0105E047B17B1E372B06D9EF
:104970006FF00B010020FEF73FFC56E018273EB118
:1049800002E0002FF1D118277107EAD1472EE8D9AC
:104990001368D2F804B00193CCB904E0164615466A
:1049A0009346182701925A4BD3F8900010B1FEF7A6
:1049B000B2FE05E001224821D3F88800FEF71EFE72
:1049C000044638B96FF00401FEF716FC9BE04FF087
:1049D000000A01E04FF0010A8DBBDFF83481A6B96F
:1049E0004C4AD8F88C00566D78B1FEF794FE054617
:1049F00040B96FF004010020FEF7FEFBBAF1000F92
:104A00000CD112E04AF0100A17E02A463146D8F8D5
:104A10007C00FEF7F3FD054678B9EAE7D8F8905038
:104A2000214625B12846FEF7A5FE00206CE0384B54
:104A3000D3F88800FEF718FEF7E74AF0020A019B58
:104A4000012263600023A360E36023616361A361CB
:104A5000E36184F823306362A362E362A6F140035A
:104A60002B44A3632C4B22706270FFB2FD2284F8AA
:104A700002A084F803B084F8207084F8217084F8D0
:104A8000222025636663C4F83C902B60214B1B6891
:104A90005B0711D504352A46B608A6F111034FF07D
:104AA000CC311BB142F8041B013BFAE706F180460A
:104AB000113E05EB860500E0A56B2B4605F134029F
:104AC000002143F8041B9342FBD1144B144A6B633F
:104AD0004FF08073EB63039BC5F838902B620C4B4F
:104AE00020469A66FEF78AFB0E4B1B6833B19B6823
:104AF00023B1029920469847606401E0029B6364F9
:104B00002046FFF7B1FE204605B0BDE8F08F00BF9C
:104B1000A840FF3FECDF1000A52E5AE2C144100070
:104B2000EF4810005861FF3FF8B5104D0746EC699B
:104B30000E46CCB12B7A022B04D02046FFF778FD2D
:104B40000020F8BDE86A80B12046FEF75BFB3146E5
:104B500020466770FFF790FD05F12400FFF757FD31
:104B6000FFF772FE0120F8BD2046F8BDA840FF3FC8
:104B700070B51C4DEC69002C32D0E06AFFF704FBE5
:104B8000A06930B100221146FFF79CFEA069FEF734
:104B900038FB2B7A134E022B22D1F36A03B3EFF3C7
:104BA0000983A36306F12400FFF731FDFFF74CFEF4
:104BB0000023F361E378DB0701D5A3691BB120462D
:104BC000FFF7C2FC07E004226270E360F36BA360AE
:104BD00003B1DC60EC632046BDE87040FEF716BB15
:104BE00070BD00BFA840FF3FF8B507460E4615460A
:104BF0001C46FEF702FBEFF305832BB9EFF310839E
:104C000013B9EFF3118333B16FF005010020FEF704
:104C1000F3FA0020F8BD384631462A462346DFF82D
:104C200020C0EFF3148414F0020F06D1EFF30884D0
:104C3000203C24F0070484F3098800DFF8BD00BF9E
:104C4000254910000023FFF7CFBF000008B5034639
:104C5000EFF305822AB9EFF3108212B9EFF3118254
:104C60002AB118460021FEF7CAFA002008BDDFF875
:104C700008C000DF08BD00BF9D45100008B5EFF378
:104C800005832BB9EFF3108313B9EFF3118323B12D
:104C90000020FEF7B5FA002008BDDFF808C000DFED
:104CA00008BD00BFAD4410000C4A30B5D36C0024E1
:104CB00033B11D69A94203D31C46491BDB68F7E7E2
:104CC00001618460C3601BB11D699860691A196134
:104CD0000CB1E06030BDD06430BD00BFA840FF3FE4
:104CE00070B5134DEC6C14B323690126013B2361AD
:104CF0002369E3B9E3680BB1A2689A60EB6400230F
:104D00001A4604F11801686DFFF718F818B121462A
:104D10000320FEF701FAE378012B04D161692046F4
:104D2000FFF7C2FF00E06670EC6C002CE0D170BDB4
:104D3000A840FF3F0F4B13B51A6E0821586EFEF7BF
:104D4000D1FF0D4C606590B10C4BA3654FF0FF3364
:104D500000226946606DFFF74BF80028F6D19DE808
:104D60000300FEF758FA0198009B9847EEE702B05F
:104D700010BD00BFECDF1000A840FF3FE14C100069
:104D8000FEE700F069BC00F0E3BC00F063B8FEE7AA
:104D900001F016B801F02CB800F0F2BEFEE7FEE715
:104DA000FEE7FEE7FEE7431C10B5044605D00021F0
:104DB00000F096FE0120A04010BD002010BD0000B4
:104DC00038B505460F4B0C46036029710846FFF7BE
:104DD000EAFF0D4BA8601A69A10022F480521A6103
:104DE0001A6901F1804122F080521A6101F5E03127
:104DF0000A78012060F384020A701A6942F0805236
:104E00001A6138BD00C0004000B0014090F90400B4
:104E100000F078BE074A136923F48053136119B96F
:104E200003688268DA607047012902BF03688268FC
:104E30009A60704700B00140054A136923F480531B
:104E400013610368826809B11A6070475A6070473D
:104E500000B001402DE9F0472C4ADFF8C08013690B
:104E60002B4E23F48053136100231C46D8F80420F2
:104E7000002A46D0D8F804700A220121D8F804008C
:104E800001FA02F5054224D00A3A072A25D8DFE8BC
:104E900002F0042424243A06080A00241DE0022417
:104EA0001BE0032419E01B4DDFF86C9005F1200A8C
:104EB000002355F8040F48B1D9F800300121984774
:104EC000D9F8003002212868984701235545F0D1D0
:104ED00002E00132122AD1D16BB956F8240060B138
:104EE0000D4D01212B6898472B68022156F82400AC
:104EF0009847002302E0012300E00346C8F8307021
:104F0000B4E7BDE8F0870124E7E700BF00B0014047
:104F1000084DFF3F144DFF3F504DFF3F00C0004084
:104F200010B54C1C02D14FF0FF3010BD01248C4055
:104F300001600A394460072932D8DFE801F0043102
:104F40003131070A0D1023490B6029E021494B60DC
:104F500026E020498B6023E01E49CB6020E01D49FC
:104F60000C690CB90B611BE04C690CB94B6117E083
:104F70008C690CB98B6113E0CC690CB9CB610FE083
:104F80000C6A0CB90B620BE04C6A0CB94B6207E07F
:104F90008C6A0CB98B6203E0CC6A002CC3D1CB6263
:104FA0000D490B6923F480530B6141680B4B8360FF
:104FB000D9601963996119621961094B00201A605F
:104FC000084B202283F806234022C3F880211A6070
:104FD00010BD00BF084DFF3F00B0014000C00040C1
:104FE000504DFF3F00E100E0064A0021136923F421
:104FF00080531361836842685A610268024B43F828
:105000002210704700B00140084DFF3F82B00023DE
:1050100001930190019B23B100BF019B013B0193D0
:10502000F8E702B070470000F8B50646174C0025B7
:105030001227954228D2A760C820FFF7E7FF4B5DF3
:10504000132B0AD110231120A360A360A360A060DA
:10505000A360A360A060A06001E00135A360C82048
:10506000FFF7D4FF1623C820A360FFF7CFFF3068F7
:105070000368DB06FCD4C820FFF7C8FF33681B6851
:105080005B07D6D50220F8BD0020F8BD00700040B7
:1050900000F028B900F0C6B900F0D7B900F0E3B9C4
:1050A0002DE9F3410646019117461C46FFF7F4FF30
:1050B000019B02A943F0010341F8043D012206F1DE
:1050C0000C00FFF7B1FF054628BB01467A1E1A4FB8
:1050D0004FF013088C421DD9C7F80880C820FFF78D
:1050E00095FFF3681868800703D418684007F9D55E
:1050F00002257B6801318C4202F8013F84BF1023F6
:10510000BB60F3681868000611D41B685B07E1D523
:10511000022500E025B13046FFF7C0FF284608E031
:10512000089B13B13046FFF7B9FF204601E0032585
:10513000F1E702B0BDE8F081007000402DE9F341D5
:10514000054602AE46F8041D05F10C0790461C46C4
:10515000FFF7A2FF314601223846FFF765FF0646FA
:1051600030B9224641463846FFF75EFF064620B179
:105170002846FFF793FF304605E0089B13B1284609
:10518000FFF78CFF204602B0BDE8F0817FB5002418
:105190004E4BADF800408DF802401A694C4922F49C
:1051A00080521A618A68204642F00C028A601A69AD
:1051B0002F2122F080521A61464A20269160D16048
:1051C0001A69052122F480321A61434A032591604D
:1051D000D1601A69414942F480321A611A6922F099
:1051E00080021A61A3F5A0331A7C42F080021A747F
:1051F0001A7C42F040021A741A7C42F020021A749F
:1052000000F010F9072320468DF801308DF800607A
:105210008DF80240FFF740FF032269460C20FFF79C
:1052200003FF2046FFF73AFF20468DF800608DF817
:1052300001508DF80240FFF72FFF2A4669460C20E7
:10524000FFF7F2FE2046FFF729FF4FF6FF70FFF74A
:10525000DDFE8DF800602046FF268DF801508DF8A8
:105260000260FFF719FF2A4669460C20FFF7DCFEB3
:105270002046FFF713FF1A4A01AB516810688DF8FA
:10528000016003C31189927A19809A7006238DF800
:1052900000308DF802600020FFF7FEFE01AB191907
:1052A00001220C20FFF7C0FE032269460C20FFF705
:1052B000BBFE0020FFF7F2FE01344FF6FF70FFF750
:1052C000A5FE0C2CE7D104B070BD00BF00B00140BA
:1052D00000C0004000C001400000014040420F00FB
:1052E000B8E01000F8B50D46044645492846164674
:1052F000FDF7BAFC434907463046FDF7B5FC0146C9
:105300003846FDF793FCE060013004D149223E4964
:105310003E48FDF787FDE3680022DA60E2683C4B17
:105320009A423C4A3C4B11690BBF21F0800121F4A9
:105330000051116111610CBF20224FF48022C3F88B
:1053400080211A60E268137C43F040031374E26822
:10535000137C43F02003137400F07EFB2F4BE268B4
:10536000B0FBF3F0137C8008023860F3040313747D
:10537000E368C0F34710586121492846FDF738FC1F
:1053800030462049FDF734FC2846052100F0BAFBE1
:105390003046052100F0B6FB1E4BA8001A6900F14B
:1053A000804022F080521A6100F5E0300778012237
:1053B000B10062F3840701F18041077001F5E0312B
:1053C000087802FA05F562F3840008701969144838
:1053D00041F080511961196902FA06F621F48051F1
:1053E000196181682E430E4386601A6942F4805227
:1053F0001A61E268137C43F080031374F8BD00BFA8
:10540000D4E110004CE21000C3E010000FE11000E6
:105410000070004000B0014000E100E0A086010003
:1054200000C0004038B505460C4600F015FBB0FB47
:10543000F4F0EA688008137C023860F30403137404
:10544000EB68C0F34710586138BD10B50446C26818
:105450001368DB07FCD5012001F086FDE368152207
:105460009A60002010BD10B50446C2681368DB07BF
:10547000FCD5012001F078FDE36814229A601B68D6
:1054800013F0340F14BF6FF00100002010BD00F0C6
:1054900091BB08B500F0E0FB08BD00F00FBC00F0C8
:1054A000C5BB00F0CFBB00002DE9F74F8A4606468A
:1054B0005F49504691461C469DF93080FDF7D4FB6C
:1054C0005C4905464846FDF7CFFB5B490190204605
:1054D000FDF7CAFB594907464046FDF7C5FB019B4E
:1054E000834619462846FDF7A1FB5946054638462E
:1054F000FDF79CFB01462846FDF798FB3060013024
:1055000004D143224E494F48FDF78CFC4E4D326882
:105510004E4B20469A422B6947490CBF23F040036B
:1055200023F400732B612B69012723F480332B6153
:10553000FDF75EFB3E495046FDF75AFB2B6907FA23
:1055400004F023F480532B61414B07FA08F2996869
:10555000024307FA0AF002430A439A60DA6807FA3C
:1055600009F10A43DA602B69204623F08053A40036
:105570002B61002104F1804400F0C4FA04F5E0340A
:105580000221504600F0BEFA2378B9F1FF3F67F3DD
:1055900084032370237967F3840323710BD0254997
:1055A0004846FDF725FB0521484600F0ABFA237A73
:1055B00067F384032372B8F1FF3F11D01F494046BF
:1055C000FDF716FB0221404600F09CFA237B0122E6
:1055D00062F384031D4A2373137D6FF30303137572
:1055E000194B00241A6942F080521A611A6942F478
:1055F00080521A611A6942F480321A613368DC60A1
:1056000000F02AFA134B0122B0FBF3F03368400894
:10561000013898609A62DA62FF22DC615A621022D5
:105620005A61336825229C61DA6003B0BDE8F08FCF
:10563000C4E2100074E11000A4E11000F4E21000D4
:1056400027E110000FE1100000B0014000600040B1
:1056500000C0004040420F0000224FF08043DA605B
:10566000024A136801331360704700BF544DFF3F77
:10567000164BD4211A6922F001021A611A6922F02C
:1056800002021A614FF6FF724FF080431A60996070
:1056900003F580531A6054229A600D4B0D499A68A5
:1056A00011649B680C4A02215A640C4B102283F847
:1056B0000023202283F801230122C3F88021C3F8AC
:1056C00080111A601960064B1A60704700B00140E3
:1056D00000ED00E0595610005157100000E100E0C5
:1056E0005C4DFF3F024B1B680BB9FFF7C1BF704712
:1056F0005C4DFF3F08B5134B1B680BB9FFF7B8FFB4
:1057000011494FF0804201205368C1F88000BFF377
:105710004F8FBFF36F8F916811F4807F18BF002304
:105720000A491FBFD3600B6801330B6018BF536871
:105730000868054AC3F57F43FF330121116043EA3E
:10574000004008BD5C4DFF3F00E100E0544DFF3FCD
:1057500070B5104C0026104BE6601D68FFF7CAFFBD
:10576000281AB04207DC238966F3C7132381BDE8FA
:105770007040FDF751BB4FF6FF739842A8BF184623
:10578000238966F3C71323812060238943F08003B4
:10579000238170BD00100040584DFF3F024B1A8915
:1057A0006FF3C7121A81704700100040014B0022AE
:1057B000DA607047001000400E4B10B504461860C8
:1057C000FFF798FF201A002804DC0B4B0222C3F8D5
:1057D000002110BD4FF6FF74A042A8BF2046074B22
:1057E0001A896FF3C7121A8118601A8942F0800271
:1057F0001A8110BD584DFF3F00E100E0001000404D
:105800004FF4FD53DA6D013200F092805A68013294
:105810001EBF5968484A51629B6801331FBF4FF44D
:10582000FD539A68444B1A624FF4FD53DA68120C28
:10583000120412F5803F1EBFD968404AD1621B692D
:105840001B0C1B0413F5803F1FBF4FF4FD531A6957
:105850003A4B9A62384B4FF4FD52506BB3F88C10B0
:1058600060F30B21A3F88C10936B1B0C1B0413F536
:10587000803F18BF916B324B18BF5961D16B1961D2
:10588000116CD960526C120C120412F5803F07D0D3
:105890004FF4FD52506C2B4A118960F30D21118198
:1058A0004FF4FD52916C9960D16C1960106D2649CE
:1058B0000860116AD961516A996191695962D26926
:1058C0001A624FF420521168013107D0516801313A
:1058D00004D010681849486252680A624FF4205296
:1058E000916801311FBF92681449C2F30B02CA626A
:1058F0004FF42052916801311FBF92680F49C2F3E3
:105900000B02CA624FF420521169013105D01069AF
:105910000C4A118960F30D2111814FF42052516915
:10592000013107D051699A8A61F303029A8201E03A
:1059300000207047012070470040014000B0014046
:10594000809001400041014000100140284B82B08E
:105950001A7842F001021A705A68D007FCD5254B1C
:105960001A886FF345121A8000238DF807309DF8CE
:105970000730092B04D89DF807300133DBB2F4E778
:105980001B4B1A7842F008021A705A689106FCD52F
:105990005A68D206FCD4174B1A8842F020021A80AB
:1059A0001A886FF304121A8000238DF807309DF8CF
:1059B0000730092B04D89DF807300133DBB2F4E738
:1059C0000B4B1A7842F004021A705A681007FCD583
:1059D0005968074A4907FBD406490B8843F0080376
:1059E0000B804FF0FF3313610023536102B0704707
:1059F00000B0014000D00140144A136923F0005365
:105A00001361134B196921F010011961196921F013
:105A1000020119610F4BA02159614FF4C871D9607F
:105A200019886FF34101198019886FF38201198079
:105A3000198841F080011980198841F040011980CE
:105A4000136943F000531361704700BF00B0014079
:105A500000ED00E000D00140004870470048E80138
:105A600038B51C4C1C4D1F23C4F88030C4F880315D
:105A70004FF020636B60194BAB60FFF7C1FEFFF77F
:105A800065FFFFF7B9FF2023EB77D02285F822309E
:105A900085F82330E02384F8033384F8043384F852
:105AA000053384F8063384F8073384F8092384F82F
:105AB0000A2384F80B3384F80C3384F80D3384F80C
:105AC0000F3384F80E3384F8103384F8113384F8DC
:105AD000123338BD00E100E000ED00E000201000CE
:105AE000074B80001A6900F1804022F4803200F5F3
:105AF00080301A6101601A6942F480321A6170477D
:105B000000B001401D4A8000136900F1804023F07D
:105B1000805300F5E0301361052929D8DFE801F052
:105B200003070B0F172003786FF345130AE0037880
:105B30006FF345130EE003786FF3451313E003781A
:105B400043F02003037003786FF301030FE0037841
:105B500043F0200303700378012262F3010306E09F
:105B6000037843F020030370037843F003030370CA
:105B7000024A136943F080531361704700B001403B
:105B80000A498020C1F88000BFF34F8FBFF36F8FA9
:105B9000074B03229A611A6922F00C021A6108600D
:105BA0005A6912F4E06FFBD1FDF71CB800E100E088
:105BB00000F0004030B5174B17491A69002422F451
:105BC00000421A611A78002542F010021A70A3F5FB
:105BD000404300221A615A601A60DA609A60C1E993
:105BE00000455A6103229A6159690C4AC905FBD4E0
:105BF00013690B4943F0030313610A4B9B68D96592
:105C0000094B8021C3F8801119605369DB05FCD46E
:105C100030BD00BF00B00140604DFF3F00F00040CC
:105C2000815B100000ED00E000E100E0044B802209
:105C3000C3F88020BFF34F8FBFF36F8F704700BF53
:105C400000E100E0034B03229A615A6912F4C06F2D
:105C5000FBD1704700F0004070B5134B5C681A68C8
:105C60005968013A8C42C2F30E02F7D10F4DA2FBE4
:105C70000523D00B40EA4340D90BE5FB04010D4658
:105C800004460B4BD3E900018D4208BF84421E46F7
:105C900004D2EE2207490848FDF7C4F8C6E90045DA
:105CA0002046294670BD00BF00F0004040420F0072
:105CB000604DFF3F78E31000BBE31000F8B50646E7
:105CC000FFF7CAFF331A002B2B4F03DC8023C7F8E2
:105CD0000031F8BDB04234464FF0000502D9341C03
:105CE00045F10105254A00232046294602F052F8D5
:105CF0008023C7F88030BFF34F8FBFF36F8F204EE4
:105D00007368984207D0F060336923F0040343F0CE
:105D10000803336127E00025E9030023174AE00365
:105D200041EA544102F036F83368C0F30E009BB2EA
:105D300083420BD002D2C21A042A07DD83420AD959
:105D40001B1AC3F5FF437F33042B04DC0A4B80226C
:105D5000C3F8002107E00A4A9060136923F00803A2
:105D600043F004031361044B80221A60044A536910
:105D700013F4E07FFBD1F8BD00E100E040420F00EA
:105D800000F000400C4B70B5064653F821000D465C
:105D90001C4678B1720603D5084B01211B68984751
:105DA000F30707D5054B54F825001B680021BDE813
:105DB0007040184770BD00BF684DFF3F704DFF3FFA
:105DC00010B40A494A694B68D4B213F002004B6818
:105DD0001CBF02F04000C0B2DB0744BF02F001026A
:105DE00010432040002110BCFFF7CCBF0050004002
:105DF00010B40A494A694B68D4B213F002004B68E8
:105E00001CBF02F04000C0B2DB0744BF02F0010239
:105E100010432040012110BCFFF7B4BF00800040B8
:105E20002DE9F04188460446564940461546FCF7A0
:105E30001BFF554906462846FCF716FF014630462B
:105E4000FCF7F4FE2060013004D150224F49504845
:105E5000FCF7E8FF4B494046FCF7CAFE4A49284692
:105E6000FCF7C6FE22684B4B9A4208D14A4B0122EE
:105E70001A6020686168494B03C3A0681860454BED
:105E80002268474E9A4203F5983305D11A6922F4E5
:105E900080721A610D2307E042498A4206D11A69CD
:105EA00022F020021A610323337004E06F22374985
:105EB0003D48FCF7B7FF3D4B4FEA88011A6901F1F5
:105EC000804122F480521A611A69072022F480323C
:105ED0001A611A6922F080521A6101F5803210604D
:105EE000AA0002F1804202F5803701F5E031386006
:105EF00002F5E03208602721116001272C4907FADA
:105F000008F207FA05F58A60CD601A6942F08052FE
:105F10001A611A6942F480321A611A6942F4805295
:105F20001A61FFF799FD4FF41653B0FBF3F02368A5
:105F300000098022DA60C2B21A60C0F3072003228F
:105F40005860DA608F229A609A69DA61114A934246
:105F500007D1114B61681F602068104B03C3A06814
:105F60001860327853B2002B09DB012102F01F02C6
:105F700001FA02F25B090F49603341F82320BDE8C2
:105F8000F08100BFA0E2100028E21000DAE3100068
:105F900024E4100000800040784DFF3F5C61FF3F2B
:105FA000744DFF3F005000404AE4100000B0014033
:105FB00000C0004000E100E038B505460C46FFF7A0
:105FC0004BFDB0FBF4F02B6800091A7B42F0800215
:105FD0001A73C2B2C0F307201A6058601A7B6FF3BD
:105FE000C7121A7338BD0000034B19608168034B58
:105FF00043F82120704700BF704DFF3F684DFF3FC1
:1060000003685A69D207FCD51868C0B270470368A4
:106010005A699206FCD5196070470000064A136958
:1060200023F004031361054B1A886FF300021A80F2
:10603000BFF36F8F30BF704700ED00E000D001402C
:10604000FFF7ECBF10B49DF90440019410BCFFF7BA
:106050002BBA000070B5164602680546137B0C4645
:106060006FF300031373A1F10802182A05D8214B1E
:10607000D340DB0701D5032E04D95E221E491F48F9
:10608000FCF7D0FE102C05D0202C05D0082C08BF22
:10609000002402E0012400E002242A68137B64F358
:1060A000871313732A68137B43F020031373721E44
:1060B000022A86BF00221046114B29689EBF9856BF
:1060C000104B9A560B7B60F304130B7329680B7B00
:1060D00062F3C3030B732A68137B43F00403137347
:1060E0002B681A7B42F002021A731A7B42F00102FB
:1060F0001A7370BD0101000150E4100097E4100014
:1061000002E5100005E5100038B50D460468FFF7FC
:10611000A3FC054B29469D42A8BF1946B0FBF1F0F0
:1061200041080139A16038BD00093D0003681A69C2
:106130005007FCD519601A69D107FCD41A69920678
:10614000FCD4586870472DE9F047089F8046974275
:106150003D46894616469A46B8BF15460024AC42CD
:106160000DDAB442B4BF19F80410FF214046FFF71E
:10617000DDFFBC42B8BF0AF804000134EFE728464F
:10618000BDE8F087024A034B1A60FFF769BC00BF05
:106190000048E8015841FF3F704710B5044600F041
:1061A00029FE204610BD0000F8B5054604460E46FF
:1061B0001746094B142245F8043B0021284602F0FB
:1061C00022FB064B2846A3613A463146FEF760FFA4
:1061D000034B20461C60F8BD10E51000A0860100AE
:1061E0007C4DFF3F70B504460D4603681B68984719
:1061F000201DA5612946FEF74DFF044B20461C607B
:106200002368BDE870405B68184700BF7C4DFF3FC6
:1062100070B504460368084D1B6898472B689C427C
:1062200004D0A169201DFEF735FF2C6023682046AD
:10623000BDE870405B6818477C4DFF3FF7B50446EA
:106240000E4617461D4603681B6898472046FFF711
:10625000DFFF9DF82030314683F0010300933A467A
:106260002B46201DFEF76AFF236806465B68204622
:106270009847A81B18BF012003B0F0BDF7B504462E
:106280000E4617461D4603681B6898472046FFF7D1
:10629000BFFF9DF82030314683F0010300933A465A
:1062A0002B46201DFEF7FCFE236806465B68204651
:1062B0009847A81B18BF012003B0F0BD70B5044675
:1062C00054F8043B05467BB90C4E4FF0FF31306863
:1062D000FDF7AAFF2B6823B914B1204600F07EFF1A
:1062E0002C603068FDF7BEFF2B68A34204D05B2210
:1062F00003490448FCF796FD286870BDD860FF3F4D
:1063000020E510004FE5100008B50448FFF7D6FF60
:10631000BDE808404FF0FF3100F067BF804DFF3F00
:1063200008B50348FFF7CAFFBDE8084000F060BFAA
:10633000804DFF3F7047000010B50446074B40F802
:10634000103BFEF751FE04F12C00FBF7D9FF04F1DE
:106350001C00FBF7D5FF204610BD00BF6CE5100008
:1063600010B50446FFF7E8FF204600F043FD204645
:1063700010BD884238B504460D460AD0FBF7C0FF71
:106380003CB1EB681BB15B68294620469847EB6837
:10639000E360204638BD0000F0B504460D46174BBB
:1063A00085B00360164F0023164E43600372C3602E
:1063B0000361436183618362836369461C30009794
:1063C0000396FFF7D6FF6846FBF79AFF694604F18C
:1063D0002C0000970396FFF7CCFF6846FBF790FF71
:1063E0002346094A294604F11000FEF799FD201DB5
:1063F0002946FCF7CDFB204605B0F0BD6CE510004A
:106400003563100054DB100035641000C36810B50C
:1064100004462BB940F20E2204490548FCF702FD60
:10642000E3682046BDE810401B68184774E510007B
:106430009FE51000012908B502D0022902D008BD4D
:106440001C3000E02C30FFF7E1FF08BD03681B693A
:10645000184703689B69184703689B6A18474FF001
:10646000FF30704711207047704700F06DB8A0F101
:106470003400FFF7FABF00F06AB8A0F13400FFF76C
:10648000FABF4FF0FF314C3000F0AFBEA0F1340046
:10649000FFF7F7BF4C3000F0ABBEA0F13400FFF7C0
:1064A000F9BF000038B504461D46049B00F056F8BD
:1064B000294604F1340000F0D9FD074B04F14C00EB
:1064C00003F10802226003F1280284336263A363AC
:1064D00000F084FE204638BDA4E5100010B5044647
:1064E00000F03CF8002104F1340000F0BFFD074B40
:1064F00004F14C0003F10802226003F12802843306
:106500006263A36300F06AFE204610BDA4E510009C
:106510007047704770B50C010319DB694D1C0646C6
:1065200000EB05152BB940F20E2205490548FCF792
:1065300079FC3444E3692846BDE870401B6818477D
:1065400074E510009FE510000430FFF759BD10B549
:106550000C460430FFF75BFD204610BD2DE9F043EB
:106560000546044688469146184A85B045F8042BEE
:106570000021174F174E41606960A9601030036217
:10658000C160C161694600970396FFF7F2FE684655
:10659000FBF7B6FE694604F1200000970396FFF76B
:1065A000E8FE6846FBF7ACFE4A4641462846FFF740
:1065B00037FC216B2846FFF7FFFC28462246064998
:1065C000FFF712FD204605B0BDE8F08338E6100065
:1065D0001165100054DB100015651000704710B5F0
:1065E000044600F007FC204610BD000070B50446CC
:1065F00003680C4E9B68984733689C420BD0251D5E
:106600000023626A216A2846FFF724FDA16A284612
:10661000FFF77AFD346023682046BDE87040DB68F0
:10662000184700BFB44DFF3F2DE9F341054604462E
:106630000E46174698460F4B1C2245F8043B002196
:10664000284602F0E0F808232362002363620A4B25
:106650003A46A3629DF920303146009328464346CE
:10666000FFF7F0FC2046FFF7C1FF204602B0BDE86F
:10667000F08100BF50E6100040420F0070B50446A4
:106680000E46154603689B689847074B20462662CE
:10669000656200221A60FFF7A9FF23682046BDE863
:1066A0007040DB68184700BFB44DFF3F70B504462B
:1066B0000D4603689B689847064B2046A56200225A
:1066C0001A60FFF793FF23682046BDE87040DB683F
:1066D000184700BFB44DFF3F38B504460D46036868
:1066E0009B6898472046FFF781FF2946201DFFF74A
:1066F0001DFD054623682046DB689847284638BDBF
:10670000F7B504460D4616461F4603689B68984732
:106710002046FFF76BFF089B2946009332463B4615
:10672000201DFFF710FD054623682046DB689847CB
:10673000284603B0F0BD000008B50448FFF7BEFDD1
:10674000BDE808404FF0FF3100F04FBDB84DFF3FAE
:1067500008B50348FFF7B2FDBDE8084000F048BDAA
:10676000B84DFF3F70B5D0E90823D0E90245064691
:1067700012196B4100F068F8736B06F128042BB90D
:1067800040F20E2204490548FCF74CFB736B20468F
:10679000BDE870401B68184774E510009FE51000C5
:1067A000D0B5044616461F46FCF794FB204600F081
:1067B00055F8C4E90867A069FCF721FB321847EBDC
:1067C0000103204600F040F8BDE8D040FCF7AEBB26
:1067D0007FB506466D46FCF77DFB06F12804304682
:1067E00000F03CF80023AC4203930BD02046FBF7AB
:1067F00087FD3CB1039B1BB15B6869462046984707
:10680000039B73632846FBF77BFDFCF78FFB04B00B
:1068100070BD03689B681847094B10B500220360E0
:106820000023C0E902230023036143610446FCF70F
:10683000EFFA0449A061FCF761FA204610BD00BFE1
:1068400084E610001368100007B5009000F10801FD
:106850008069FCF790FA03B05DF804FB00F10801D1
:106860008069FCF7B2BA000010B50446024B036021
:10687000FFF7F4FF204610BD84E6100003680122F4
:106880001B6900211847036800221B69114618473D
:10689000007B704738B504460D460D4B036000235E
:1068A0004360A16002730B48FFF708FD4FF0FF3112
:1068B00000F09BFC25B1084B1A681C60626000E088
:1068C00065600448FFF7FAFC00F092FC204638BDF2
:1068D00098E61000F04DFF3FEC4DFF3F10B5044629
:1068E000124B03601248FFF7E9FC4FF0FF3100F054
:1068F0007CFCA3686BB10F4A13689C4202D16368A9
:10690000136006E05A68944201D01346FAE76268C1
:106910005A600748FFF7D2FC00F06AFC237B13B9EA
:10692000201F00F069FA204610BD00BF98E6100055
:10693000F04DFF3FEC4DFF3F10B50446FFF7CEFF93
:10694000204600F057FA204610BD0000F8B5074673
:1069500010480E46FFF7B2FC4FF0FF3100F045FC47
:106960000D4B1C6874B1A56855B1324639462846AE
:1069700003F095FC20B9284603F089FC864201D03B
:106980006468EFE70348FFF799FC00F031FC20460C
:10699000F8BD00BFF04DFF3FEC4DFF3F00207047BA
:1069A00000207047036870B51B690122002105466D
:1069B0009847041E0EDB2B6802221B690021284623
:1069C000984706462B6800221B69214628469847AF
:1069D000304670BD204670BD00F0E0B910B5002310
:1069E000036043600A7804462F2A13D14A788AB19B
:1069F000481C1946206023681A782F2A02D10133D7
:106A0000236004E01AB1013301312360F3E7FFF79B
:106A10009DFF6060204610BD00687047406808B563
:106A200020B1FFF735FF431E5842584108BD10B54D
:106A30000446FFF7F3FF10B1606800B1043810BDE1
:106A4000406808B520B1FFF723FFB0FA80F0400995
:106A500008BD10B50446FFF7F3FF10B1606800B140
:106A6000043810BD4068003018BF01207047F8B5E9
:106A700015460C4611B151F8087C00E00F467DB177
:106A8000284601F06DFE064658B1AF423A4621460F
:106A900028BF2A4601F091FE204601F069FE00E081
:106AA0002E463046F8BD38B502FB01F4204601F011
:106AB00057FE054618B12246002101F0A4FE2846E3
:106AC00038BD000038B50D4604461548FFF7F6FB03
:106AD0004FF0FF3100F089FB05F10801204601F07D
:106AE000DFFE104B80B1044699681A6844F8085BD1
:106AF0002A440D4419691A600131196159689D6071
:106B00008A4205D95A6003E004465A6901325A6143
:106B10000348FFF7D3FB00F06BFB204638BD00BFF6
:106B20003C4EFF3F244EFF3F38B50C4605460F480C
:106B3000FFF7C4FB4FF0FF3100F057FB5CB10C4B8B
:106B400054F8080C1A68A4F10801121A1A601A699C
:106B5000013A1A6100E02146284601F05DFE034833
:106B6000FFF7ACFBBDE8384000F042BB3C4EFF3FB6
:106B7000244EFF3F08B5084B1B685BB90821074846
:106B80000922FFF74DF9BDE808404FF4E131034811
:106B9000FFF712BA08BD00BF784DFF3F5C61FF3FB1
:106BA000022810B501DC002010BD0C4AC31E52F8AB
:106BB0002300002142F8231020B901F07BFA0923B9
:106BC000036008E003685B699847041EEBDA01F094
:106BD00071FA644204604FF0FF3010BDA84EFF3FD1
:106BE000022870B50D4614460DDC124B1B680BB91C
:106BF000FFF7C0FF2E19B5421AD015F8011B0E4839
:106C0000FFF705FAF7E70D4B033853F8200030B9CA
:106C100001F050FA092303604FF0FF3070BD0368A4
:106C2000DB689847041E03DA01F044FA634203600C
:106C3000204670BD784DFF3F5C61FF3FA84EFF3F8F
:106C4000022810B50C460ADC104B1B680BB9FFF785
:106C500091FF0F48FFF7D4F92070012010BD0D4BB4
:106C6000033853F8200030B901F024FA09230360F7
:106C70004FF0FF3010BD03689B689847041E03DA8D
:106C800001F018FA63420360204610BD784DFF3FC3
:106C90005C61FF3FA84EFF3F022810B515DD0D4B8C
:106CA000033853F8204024B901F004FA09230360A3
:106CB0000DE023682046DB699847041E07DA01F0DF
:106CC000F9F964420460002010BD012010BD204687
:106CD00010BD00BFA84EFF3F022810B503DC01F035
:106CE000E9F91D2307E00C4B033853F8200020B9C5
:106CF00001F0E0F90923036008E003681B69984785
:106D0000041E06DA01F0D6F9644204604FF0FF3049
:106D100010BD204610BD00BFA84EFF3F022808B599
:106D200004DC4FF400534B60002008BD01F0C2F9B1
:106D3000092303604FF0FF3008BD00000C4A10B576
:106D400013681844EFF30881884205D3094B0C22DD
:106D50001A604FF0FF3010BD0749096821B1074C98
:106D6000246821448842F1D21060184610BD00BF4B
:106D70005C41FF3F6861FF3FA44EFF3FA84FFF3FCC
:106D800008B508B1FCF760F8FEE70120704708B5C8
:106D9000FFF7F6FF002103F041B9000030B50C46C3
:106DA00085B002460A49054601A803F0CBF9214601
:106DB00001A801F08FFB044638B12B682846DB6937
:106DC000984710B12046FFF7E5FF204605B030BDDB
:106DD00005E7100010B501F0C3FC044610B90248E5
:106DE000FCF7C2F8204610BDA0E7100008B101F082
:106DF000BFBC7047FFF7FABF10B504460C48FFF759
:106E00005DFA4FF0FF3100F0F0F900231946094A0E
:106E100052F82300A04208BF42F823100133402B50
:106E2000F6D10348FFF74AFABDE8104000F0E0B998
:106E3000704EFF3FA84EFF3F2DE9FF47894644496A
:106E4000054603F012FA044610B9FFF793FE7BE003
:106E50004049284603F009FA18B9FFF78BFE0124D0
:106E600072E03D49284603F000FA18B9FFF782FEA8
:106E7000022469E03948FFF721FA4FF0FF3100F0B2
:106E8000B4F9374B0024364E53F82470B04667B13E
:106E90000134402CF7D101F00DF9182303602F487D
:106EA000FFF70CFA00F0A4F94CE04FF0FF332B4849
:106EB00046F82430FFF702FA00F09AF92B78019790
:106EC0003A2B07D102AA2749284603F05FF9029B13
:106ED000019332E0294602A8FFF780FD02A8FFF7E0
:106EE000C1FD054668B102A8FFF7AAFD074602A842
:106EF0001FB1FFF7AEFD01901FE0FFF798FD0546BB
:106F000030B901F0D7F80223036046F8245019E0A5
:106F1000036802A8D3F808A0FFF77EFD29F48033A8
:106F2000024601A92846D047054630B101F0C2F813
:106F30006D42056046F8247004E0019B48F8243057
:106F4000033401E04FF0FF34204604B0BDE8F08781
:106F5000ECE61000DCE71000F3E61000704EFF3F97
:106F6000A84EFF3F05E7100070B505464FF47A7450
:106F7000FEF7C0FB95FBF4F4002C064602DDFBF7A0
:106F8000A2FF28B9FEF7B6FB801BA842FAD370BD5A
:106F9000204600F037F9F5E708B5044900F084FD14
:106FA00000F0D2FEBDE80840FFF7DEBF00247449C0
:106FB0004FF47A735843FFF7D7BF70477047F8B55F
:106FC0000E4603680446DB6C8F1835469847BD4271
:106FD00008D0236815F8011B5B6C204698470130E8
:106FE000F5D12F46236820461B6D9847B81BF8BD86
:106FF000F8B50E4603680446DB6C8F183546984793
:10700000BD4208D0236820469B6C9847431C02D0A1
:1070100005F8010BF4E7236820461B6D9847A81B71
:10702000F8BD00207047704700207047002070476F
:1070300010B50446044B03604C3340F8043FFFF79F
:107040004DFC204610BD00BFECE71000A0F104008D
:10705000EEE700BF10B50446FFF7EAFF2046FFF752
:10706000C9FE204610BDA0F10400F3E710B50446A8
:107070000E4B002240F8043BFFF70CFC0C4B0D4973
:1070800023605C336360002363612046FFF7A4FC48
:10709000606110B1FFF77EFE05E001F00BF80168BA
:1070A0000548FBF761FF204610BD00BFA8E61000B1
:1070B00048E81000ACE81000AFE8100010B5044636
:1070C000064B03F10802643302604360406901F03B
:1070D00049F82046FFF7ACFF204610BD40E81000FD
:1070E0000EB477B50446036807AD55F8046BDB6C46
:1070F00098476069019501F0EDF8019A31466069A1
:1071000001F066FD0546236820461B6D984728461A
:1071100003B0BDE8704003B070470EB477B50446C5
:10712000036807AD55F8046BDB6C984760690195FF
:1071300001F0D0F8019A3146606902F005FB05467E
:10714000236820461B6D9847284603B0BDE8704071
:1071500003B0704770B504460D4616460368DB6CF5
:107160009847606901F0B6F829463246606902F036
:10717000EBFA0546236820461B6D9847284670BDEC
:10718000F8B504460D4600F114071C220021261D07
:10719000384601F038FB10220021304601F033FB65
:1071A0000B4BE760002D08BF1D461C2323610B23FA
:1071B0006560A3603046FDF70FF8206030B9BDE888
:1071C000F840312203490448FBF72CBEF8BD00BF4C
:1071D000CEE81000E7E810000DE9100010B50446F5
:1071E0000021FFF7CDFF204610BD0068FDF71CB859
:1071F0000068FDF737B810B504460068FDF74EF893
:10720000204610BDFBF7D0BFEFF30980816911F86C
:10721000021C01BB01B590E80F10E047BDE800502B
:107220008CE803001A4B93E80600914208BF7047B0
:1072300019B12CE9F00FC1F838C0FDF7E3FA144B8F
:1072400093E806001A60906BB0E8F00F80F30988AD
:107250006FF0020E704710B50E4A1368994206D8B7
:1072600052F821400FC8A047EFF30984206010BDF9
:1072700010B5FDF73DF8BDE81040EFF3098CD1E7FC
:1072800010B5FDF7D3F8BDE81040EFF3098CC9E75E
:10729000C440FF3F78E01000FEE7FEE7FEE7FEE7B0
:1072A000FEE7FEE7FEE7FEE7FEE7FEE70749084ADE
:1072B000084B9B1A05DD00240859105104349C42E8
:1072C000FADB05488047054800470000F4ED100050
:1072D000A040FF3F2042FF3F85611000A52610001F
:1072E00008B5FBF7FBF908B5FBF7F8F90AB101F0AF
:1072F00055BA104670470AB101F05FBA70470000F6
:1073000008B50B68B3F1004F02D30A48FFF7EBFF53
:10731000934209D95200934206D2B2F1004F2ABFDC
:107320006FF000430A600B600868BDE80840013058
:10733000FFF750BD11E91000034653F8080B9842BF
:1073400001D0FFF757BD7047012A10B502D10A7866
:10735000027010BDFFF7CFFF10BD08B5521AFFF73E
:10736000F3FF08BD10B50446FFF7E6FF204610BD49
:10737000F8B54568064608460F4602F088FF854284
:1073800004462A46394628BF02463068FFF7AEFF5A
:1073900000B9281BF8BD0000244B1A68D0075CBF59
:1073A00001221A60224B1A68D1075CBF01221A60C1
:1073B000204B1A68D2075CBF01221A601E4B1A6864
:1073C000D0075CBF01221A601C4B1A68D1075CBF52
:1073D00001221A601A4B1A68D2075CBF01221A6098
:1073E000184B1A68D0075CBF01221A60164B1A6846
:1073F000D1075CBF01221A60144B1A68D2075CBF28
:1074000001221A60124B1A68D0075CBF01221A6071
:10741000104B1A68D1075CBF01221A600E4B1A6824
:10742000D2075CBF01221A60704700BFD84FFF3FF0
:10743000D44FFF3FD04FFF3FCC4FFF3FC84FFF3FE0
:10744000C44FFF3FC04FFF3FBC4FFF3FB84FFF3F10
:10745000B44FFF3FB04FFF3FAC4FFF3F184B1A6890
:10746000D1075CBF01221A60164B1A68D2075CBFB5
:1074700001221A60144B1A68D0075CBF01221A60FF
:10748000124B1A68D1075CBF01221A60104B1A68B0
:10749000D2075CBF01221A600E4B1A68D0075CBF8E
:1074A00001221A600C4B1A68D1075CBF01221A60D6
:1074B0000A4B1A68D2075CBF01221A60704700BFEE
:1074C000F84FFF3FF44FFF3FF04FFF3FEC4FFF3FC0
:1074D000E84FFF3FE44FFF3FE04FFF3FDC4FFF3FF0
:1074E000244B1A68D0075CBF01221A60224B1A682D
:1074F000D1075CBF01221A60204B1A68D2075CBF1B
:1075000001221A601E4B1A68D0075CBF01221A6064
:107510001C4B1A68D1075CBF01221A601A4B1A680B
:10752000D2075CBF01221A60184B1A68D0075CBFF3
:1075300001221A60164B1A68D1075CBF01221A603B
:10754000144B1A68D2075CBF01221A60124B1A68EA
:10755000D0075CBF01221A60104B1A68D1075CBFCC
:1075600001221A600E4B1A68D2075CBF01221A6012
:10757000704700BF2850FF3F2450FF3F2050FF3F7F
:107580001C50FF3F1850FF3F1450FF3F1050FF3F6B
:107590000C50FF3F0850FF3F0450FF3F0050FF3F9B
:1075A000FC4FFF3F184B1A68D1075CBF01221A60DD
:1075B000164B1A68D2075CBF01221A60144B1A6876
:1075C000D0075CBF01221A60124B1A68D1075CBF5A
:1075D00001221A60104B1A68D2075CBF01221A60A0
:1075E0000E4B1A68D0075CBF01221A600C4B1A6858
:1075F000D1075CBF01221A600A4B1A68D2075CBF30
:1076000001221A60704700BF4850FF3F4450FF3FBF
:107610004050FF3F3C50FF3F3850FF3F3450FF3F4A
:107620003050FF3F2C50FF3F81F0004102E000BF8F
:1076300083F0004330B54FEA41044FEA430594EA32
:10764000050F08BF90EA020F1FBF54EA000C55EA6D
:10765000020C7FEA645C7FEA655C00F0E2804FEA3E
:107660005454D4EB5555B8BF6D420CDD2C4480EA20
:10767000020281EA030382EA000083EA010180EA50
:10768000020281EA0303362D88BF30BD11F0004F9E
:107690004FEA01314FF4801C4CEA113102D04042D4
:1076A00061EB410113F0004F4FEA03334CEA13330F
:1076B00002D0524263EB430394EA050F00F0A78027
:1076C000A4F10104D5F1200E0DDB02FA0EFC22FA22
:1076D00005F2801841F1000103FA0EF2801843FA16
:1076E00005F359410EE0A5F120050EF1200E012A07
:1076F00003FA0EFC28BF4CF0020C43FA05F3C01845
:1077000051EBE37101F0004507D54FF0000EDCF1BD
:10771000000C7EEB00006EEB0101B1F5801F1BD366
:10772000B1F5001F0CD349085FEA30004FEA3C0C6A
:1077300004F101044FEA445212F5800F80F09A8060
:10774000BCF1004F08BF5FEA500C50F1000041EB64
:10775000045141EA050130BD5FEA4C0C404141EB68
:10776000010111F4801FA4F10104E9D191F0000F8F
:1077700004BF01460020B1FA81F308BF2033A3F112
:107780000B03B3F120020CDA0C3208DD02F1140C09
:10779000C2F10C0201FA0CF021FA02F10CE002F144
:1077A0001402D8BFC2F1200C01FA02F120FA0CFC3D
:1077B000DCBF41EA0C019040E41AA2BF01EB045186
:1077C000294330BD6FEA04041F3C1CDA0C340EDC84
:1077D00004F11404C4F1200220FA04F001FA02F3C7
:1077E00040EA030021FA04F345EA030130BDC4F185
:1077F0000C04C4F1200220FA02F001FA04F340EA7A
:107800000300294630BD21FA04F0294630BD94F02A
:10781000000F83F4801306BF81F480110134013D11
:107820004EE77FEA645C18BF7FEA655C29D094EA82
:10783000050F08BF90EA020F05D054EA000C04BF00
:107840001946104630BD91EA030F1EBF00210020EB
:1078500030BD5FEA545C05D14000494128BF41F08A
:10786000004130BD14F580043CBF01F5801130BDEE
:1078700001F0004545F0FE4141F470014FF0000079
:1078800030BD7FEA645C1ABF194610467FEA655C2A
:107890001CBF0B46024650EA013406BF52EA0335CC
:1078A00091EA030F41F4002130BD00BF90F0000FBA
:1078B00004BF0021704730B54FF4806404F13204F6
:1078C0004FF000054FF0000150E700BF90F0000FAF
:1078D00004BF0021704730B54FF4806404F13204D6
:1078E00010F0004548BF40424FF000013EE700BFA6
:1078F00042004FEAE2014FEA31014FEA02701FBF36
:1079000012F07F4393F07F4F81F06051704792F007
:10791000000F14BF93F07F4F704730B54FF4607481
:1079200001F0004521F0004120E700BF50EA0102CC
:1079300008BF704730B54FF000050AE050EA010279
:1079400008BF704730B511F0004502D5404261EBE9
:1079500041014FF4806404F132045FEA915C3FF42A
:10796000DCAE4FF003025FEADC0C18BF03325FEAC3
:10797000DC0C18BF033202EBDC02C2F1200300FA78
:1079800003FC20FA02F001FA03FE40EA0E0021FA9D
:1079900002F11444C1E600BF4FF0FF3C06E000BF17
:1079A0004FF0010C02E000BF4FF0010C4DF804CD88
:1079B0004FEA410C7FEA6C5C4FEA430C18BF7FEA48
:1079C0006C5C1BD001B050EA410C0CBF52EA430C76
:1079D00091EA030F02BF90EA020F0020704710F1F6
:1079E000000F91EA030F58BF994208BF90422CBF85
:1079F000D8176FEAE37040F0010070474FEA410C7E
:107A00007FEA6C5C02D150EA013C07D14FEA430C9B
:107A10007FEA6C5CD6D152EA033CD3D05DF8040B0C
:107A2000704700BF8446104662468C46194663463E
:107A300000E000BF01B5FFF7B7FF002848BF10F115
:107A4000000F01BD4DF808EDFFF7F4FF0CBF01205A
:107A500000205DF808FB00BF4DF808EDFFF7EAFFD6
:107A600034BF012000205DF808FB00BF4DF808ED91
:107A7000FFF7E0FF94BF012000205DF808FB00BF86
:107A80004DF808EDFFF7CEFF94BF012000205DF810
:107A900008FB00BF4DF808EDFFF7C4FF34BF01201D
:107AA00000205DF808FB00BF4FF0FF0C1CEAD0522D
:107AB0001EBF1CEAD15392EA0C0F93EA0C0F6FD051
:107AC0001A4480EA010C400218BF5FEA41211ED02F
:107AD0004FF0006343EA501043EA5111A0FB01311B
