:020000040010EA
:1020000000000040BD871000A98710006163100028
:10201000AD871000AF871000B187100000000000EE
:102020000000000000000000000000001987100000
:10203000B587100000000000818710009187100014
:102040006363100067631000BB87100071631000AA
:102050006F6310007D6310006B63100079631000E4
:10206000BB871000BB871000BB8710008563100082
:10207000BB8710007563100083631000BB871000DE
:10208000BB871000816310007F631000BB871000C6
:10209000044B05481B1A062B02D9044B03B1184701
:1020A000704700BFA365FF3FA065FF3F0000000031
:1020B00005490648091A891001EBD171491002D06F
:1020C000034B03B118477047A065FF3FA065FF3F72
:1020D0000000000010B5064C237843B9FFF7D8FF85
:1020E000044B13B10448AFF300800123237010BDEB
:1020F000A065FF3F000000001001110008B5084B6B
:102100001BB108490848AFF300800848036813B9B9
:10211000BDE80840CCE7064B002BF9D09847F7E71D
:1021200000000000A465FF3F10011100A065FF3F03
:10213000000000007047704738B5064D002404F5D4
:10214000B4702844183C06F079FB14F5C07FF6D132
:1021500038BD00BFBC65FF3F10B5044606F004F96A
:10216000204610BD10B50446403001F02FFD20463A
:1021700010BD000038B505460446074B45F8283B1E
:1021800005F0E0FD636B13B19B6828469847204635
:1021900005F024FE204638BD94F9100010B5044621
:1021A000054A08302060114606F059FB22680023DA
:1021B00063601370204610BD30ED100010B504466A
:1021C00006F0D2F8204610BD10B50446FFF7D2FF46
:1021D000204606F0C9F8204610BD00007FB50F4D1F
:1021E0000F4C2D238DF80C30002608238DF80D3070
:1021F00003AA296800960223204605F007FB38232E
:102200008DF80C303F238DF80D300096022303AA81
:102210002968204605F0FAFA04B070BDA440FF3FDB
:102220006C67FF3FF0B5144D8DB0144C0CAA00261E
:10223000322302F8243D07462968009601232046F0
:1022400005F0E4FA022302AA29680096204605F068
:10225000FDFA02A807F0F4FB9DF809207860084910
:1022600004A809F003FA01231A4604A9054801F05D
:102270001FFE0DB0F0BD00BFA440FF3F6C67FF3FE5
:1022800010EC10002068FF3FF0B5144D8DB0144CD9
:102290000CAA0026342302F8243D0746296800963C
:1022A0000123204605F0B2FA022302AA296800960B
:1022B000204605F0CBFA02A807F0C2FB9DF80920E2
:1022C000B860084904A809F0D1F90A23012204A939
:1022D000054801F0EDFD0DB0F0BD00BFA440FF3F8B
:1022E0006C67FF3F15EC10002068FF3FF0B5144D00
:1022F0008DB0144C0CAA0026362302F8243D074664
:10230000296800960123204605F080FA022302AADC
:1023100029680096204605F099FA02A807F090FB7C
:102320009DF80920F860084904A809F09FF90123E5
:10233000022204A9054801F0BBFD0DB0F0BD00BFAD
:10234000A440FF3F6C67FF3F1AEC10002068FF3F7E
:1023500010B50446FFF766FF2046FFF795FF2046BD
:10236000BDE81040FFF7C2BF08B5FFF7F1FFBDE8B9
:102370000840322006F0B2B8014B0360704700BF3E
:1023800008EC100073B53C48FFF708FF3B4A3C4996
:10239000394805F0B4FF3B4B002203F5C0701946E5
:1023A00043F8042C43F8083C01F8182B19615A61D2
:1023B0001A76303383424FF00005F0D12F4A32496C
:1023C000284605F09CFF3148FFF7E8FE2B4A2C49D0
:1023D0002E4805F094FF2E48FFF7E0FE274A2849D3
:1023E0002B4805F08CFF2B48FFF7D8FE234A2449E1
:1023F000284805F084FF284806F078F91F4A274945
:10240000254805F07CFF264C02220321254805F0D3
:10241000B3F91A4A2449234805F071FF204605F014
:10242000B5FC224B656323602046214C4FF0FF36FC
:10243000124A204905F063FF042306220096052175
:10244000204605F0ABFB314604F12C00E56284F830
:102450003050656301F0B2FE009620230222032172
:1024600004F1400001F0EEFA2046044A124902B09D
:10247000BDE8704005F043BF3C67FF3FA040FF3F11
:1024800069881000C465FF3F39211000C067FF3F15
:102490005467FF3F0868FF3FD867FF3F078710007A
:1024A0008867FF3F6C67FF3F3521100094F91000EB
:1024B0002068FF3F75211000652110000368184750
:1024C00008B10B68036070477047000038B5064DCF
:1024D000002404F5B4702844183C06F0AFF914F554
:1024E000C07FF6D138BD00BF146BFF3F024A1368AE
:1024F00001331360704700BF8C70FF3F10B5044676
:10250000034B40F8043B01F061FB204610BD00BFC7
:102510006CEC100010B50446FFF7F0FF204605F004
:1025200023FF204610BD000000F1080373B50446E8
:1025300003600D4681B1084609F03DF90F2805EB0F
:10254000000601900BD9002201A9204606F05AF995
:10255000019B2060A36002E0074806F049F932467B
:102560002946206806F07BF92046019B226800215D
:102570006360D15402B070BD80EC100008B504480F
:1025800000F086FDBDE80840024800F0A3BB00BF94
:10259000986DFF3F9070FF3F08B590E80600044833
:1025A00001F0F2FC034B1860143818BF012008BD7D
:1025B000206FFF3F5875FF3F08B5014604220348CE
:1025C00001F0E2FC024B186008BD00BF206FFF3F26
:1025D0005875FF3F70B50026A8B0334632463146E5
:1025E0000B48FFF7C1FE0B4902A809F0DCF802A96D
:1025F000094800F0A7FB33463246084900960FA869
:1026000009F034F80FA8FFF7D7FF28B070BD00BF5E
:10261000A06EFF3FAAEC10009070FF3FB3EC1000DB
:1026200008B5084801F004FD58B1142206490548D0
:1026300001F020FD054B04491860054809F0B3F886
:10264000012008BD206FFF3FC46FFF3F5875FF3F5B
:102650002570FF3FC36810B504460BB19B689847CF
:10266000204610BD38B5CB6804460D460BB15B68FB
:102670009847EB682046E36038BD00002DE97F43B2
:10268000154606466846FFF7EDFF1049284606F056
:1026900079FC6C4606F004FE06F12805A54280464A
:1026A000894607D02846FFF7D5FF1DB16946284661
:1026B000FFF7D8FF42464B46304605F02BFB20463D
:1026C000FFF7C8FF04B0BDE8708300BF0024744961
:1026D0001FB5164801F070FB1549144801F002FCC3
:1026E0004FF0804005F012FFFFF748FF1148FFF759
:1026F00075FD114C114B124A694612480093039420
:10270000FFF7BCFF6846FFF7A5FF0F4B4FF07E5267
:1027100069460E4800930394FFF7B0FF6846FFF741
:1027200099FF024801F0F8FAFEE700BF946CFF3F02
:10273000CDEC1000A06EFF3F74EC1000312A1000A9
:102740009A99993E686EFF3FED241000606DFF3F3F
:1027500070B58E4992B009F06FFE05468C4E00248C
:10276000C5B10A2C16D01E20294600FB046009F0D2
:102770001AF82B462246874905A808F077FF05A9D5
:10278000854800F0DFFA8149002009F055FE013448
:102790000546E5E781497E4808F0FBFF002840D167
:1027A00001231A467A497E4801F082FB7D497E4822
:1027B00008F0EFFF044608B9012206E07B497A4899
:1027C00008F0E7FF044628B902460221724800F0EB
:1027D000CBFAD7E07649744808F0DBFF28B901222C
:1027E00011466D4800F0C0FACDE072496E4808F01D
:1027F000D0FF044610B902460121E7E76E496A4856
:1028000008F0C7FF044608B9012208E06B49664892
:1028100008F0BFFF0446002840F0B580024663215F
:10282000D4E767495A4808F0B4FF044600BB65493D
:102830005D4808F0AEFF98B96349644808F0A9FF05
:1028400020B9634905A808F0AEFF04E0614A624977
:1028500005A808F00BFF05A9604800F051FC91E0C5
:102860005F49514808F095FF002840F08B80E8E769
:102870005C49474808F08DFF002857D15A4905A800
:1028800008F091FF05A9444800F05CFA5749464812
:1028900008F07FFF0446A0B9554905A808F083FF5A
:1028A00005A93D4800F04EFA524B534A0093534B52
:1028B000694653480393FFF7E1FE6846FFF7CAFEF7
:1028C00060E05049384808F064FF044658B94E4962
:1028D00005A808F068FF05A92F4800F033FA48481A
:1028E00005F030FA4EE049492F4808F052FF98B9F8
:1028F00000231C461A4619464548FFF735FD224677
:102900004449684608F0B2FE6846FFF755FE69463E
:10291000214800F017FA36E03F4905A808F043FFC8
:1029200005A91D4800F00EFA01242BE03B49184888
:1029300008F02FFF38BB3A491B4808F02AFF50B96E
:10294000154800F0E3F9052005F0C8FD234800F024
:102950009FFB34490FE03449134808F01AFF002860
:10296000DAD11E4800F0B0FB052005F0B7FD0A489B
:1029700000F0B0F92D49684608F015FF6846FFF7EA
:102980001BFE00E0204612B070BD00BFD1EC10006D
:10299000BC68FF3FD3EC10009070FF3FDCEC1000F0
:1029A000946CFF3FE1EC1000DA68FF3FE7EC1000A9
:1029B000EEEC1000F5EC1000FDEC100003ED100043
:1029C0000AED10000FED100014ED1000F868FF3F45
:1029D0001DED10001669FF3F31ED1000986DFF3FAF
:1029E0003EED10004CED100053ED1000B0EC100067
:1029F000AAEC1000D5251000CDCC4C3F74EC100093
:102A0000E86EFF3F6CED100066ED100070ED1000F9
:102A1000A06EFF3F75ED10007DED100088ED1000F9
:102A20008BED100097ED10009EED1000AAED100048
:102A300010B594B0684600F095FF1A4B197849B16B
:102A400000216846197000F0A7FF0121684600F0D8
:102A5000C1FF08E0012468461C7000F0BBFF21465E
:102A6000684600F099FFFFF7DBFD012818D10E49F9
:102A700007A808F098FE07A901A8FFF755FD01A8CF
:102A8000FFF78AFD01A805F0D9FE07A8FFF760FE51
:102A900005486422202114B0BDE8104007F052BB65
:102AA00014B010BD2470FF3F2570FF3F73B55A4925
:102AB0005A48FFF739FD5A4A5A49584805F01FFC51
:102AC000594B002203F5C070194643F8042C43F813
:102AD000083C01F8182B19615A611A763033834289
:102AE0004FF00004F0D14E4A5049204605F007FC53
:102AF00049494F48FFF718FD494A4A494C4805F0F3
:102B0000FEFB45494B48FFF70FFD454A45494948FB
:102B100005F0F5FB40494848FFF706FD404A4149AA
:102B20004548464D05F0EBFB454805F0DFFD4FF00D
:102B3000FF363B4A4349424805F0E1FB0096042337
:102B400006220521284605F029F8EC6285F8304078
:102B50006C63314605F12C0001F030FB2023009618
:102B60000222032105F1400000F06CFF2C4A364997
:102B7000284605F0C4FB354800F05EF9284A344980
:102B8000324805F0BCFB334800F0CCFA244A324905
:102B9000304805F0B4FB314D3148FFF7EDFB314EC5
:102BA0001F4A31492E4805F0AAFB284605F0EEF8E9
:102BB0002E606C6328462D4D194A2D4905F09FFB68
:102BC000284605F0E3F82E606C632846294D144A28
:102BD000274905F094FB284605F0D8F82E606C6371
:102BE0002846254D0E4A224905F089FB284605F066
:102BF000CDF80B4A1E496C6328462E6005F07FFB1A
:102C00001E4801F089F9064A1D491C4802B0BDE87A
:102C1000704005F074BB00BF30ED1000306DFF3F19
:102C2000A040FF3F698810001C6BFF3FCD241000BF
:102C3000AC6FFF3F486DFF3F0C70FF3F946CFF3F50
:102C4000DC6FFF3F07871000652110009070FF3F89
:102C5000852C1000986DFF3F41301000E86EFF3F5B
:102C6000A06EFF3F94F9100037211000686EFF3FFF
:102C700075211000606DFF3FB06EFF3F206FFF3F7A
:102C8000FD2410007047000038B5064D002404F5FF
:102C9000B4702844183C05F0D1FD14F5C07FF6D17E
:102CA00038BD00BFF875FF3F10B5044605F05CFB6A
:102CB000204610BD10B50446054A08302060114674
:102CC00005F0CDFD2268002363601370204610BD1F
:102CD00030ED100038B505460B4C01F0EBFB01213F
:102CE000204603F087FB01F011FC01F0E3FB00211B
:102CF000204603F07BFB01F009FC0021204603F095
:102D00008BFB01232B7138BD0878FF3F38B5054692
:102D10000B4C01F0CFFB0121204603F06BFB01F0CF
:102D2000F5FB01F0C7FB0221204603F05FFB01F039
:102D3000EDFB0121204603F06FFB00232B7138BD12
:102D40000878FF3F38B50C46451D2946204608F057
:102D500020FD40B12146284608F025FD2046BDE86B
:102D6000384000F001BD38BD10B502299AB016D127
:102D700052B1224901A808F016FD01A800F0F4FCA8
:102D80001F4B2048196832E01F4901A808F00BFDCD
:102D900001A800F0E9FC4FF48B611C4827E00129F1
:102DA0000DD11B4C0AB11B4900E01B4901A808F0DA
:102DB000FAFC01A800F0D8FC2168184817E0632944
:102DC0001AD152B1164901A808F0EDFC01A800F093
:102DD000CBFC144B1448196809E0144901A808F009
:102DE000E2FC01A800F0C0FC114B1248196800F089
:102DF000C9FCC82005F096FB1AB010BDDAED100032
:102E0000A840FF3F6852FF3FF2ED1000AC40FF3F8B
:102E10006052FF3F0BEE10001FEE10003452FF3FD8
:102E200034EE10009452FF3FD840FF3F50EE1000A8
:102E30006452FF3F9852FF3F024A02600022C0F8EE
:102E400034217047BCED100073B53548FFF732FFF1
:102E5000344A3549324805F052FA344B002203F522
:102E6000C070194643F8042C43F8083C01F8182BAD
:102E700019615A611A76303383424FF00004F0D161
:102E8000284A2B49204605F03AFA2A48FFF712FF54
:102E9000244A2549274805F032FA2748FFF70AFF58
:102EA000204A2149244805F02AFA2448FFF702FF66
:102EB0001C4A1D492148224D05F021FA214805F000
:102EC00015FC4FF0FF36174A1F491E4805F017FA48
:102ED0000423062200960521284604F05FFE3146B1
:102EE00005F12C00EC6285F830406C6301F066F966
:102EF000202300960222032105F1400000F0A2FDEC
:102F0000084A1249284605F0FAF911480C210460D4
:102F10000471846002B0BDE8704001F028B900BFC0
:102F20007877FF3FA040FF3F698810000076FF3FA1
:102F3000892C1000A877FF3F9077FF3FF077FF3F85
:102F40005C75FF3FC077FF3F0787100065211000C9
:102F50000878FF3F38B5064D002404F5B4702844C6
:102F6000183C05F06BFC14F5C07FF6D138BD00BFEE
:102F70001478FF3F10B50446054A0830206011461A
:102F800005F06DFC2268002363601370204610BDBD
:102F900030ED100008B52048FFF7ECFF1F4A20492C
:102FA0001D4805F0ACF91F4B002203F5C07019460F
:102FB00043F8042C43F8083C01F8182B19615A61B6
:102FC0001A7630338342F2D1144A1749002005F0B3
:102FD00096F91648FFF7CEFF104A1149134805F03D
:102FE0008EF91348FFF7C6FF0C4A0D49104805F04B
:102FF00086F91048FFF7BEFF084A09490D4805F059
:103000007EF90D4805F072FBBDE80840034A0B4904
:10301000094805F074B900BF9479FF3FA040FF3F15
:10302000698810001C78FF3F552F1000C479FF3FBE
:10303000AC79FF3F0C7AFF3FDC79FF3F0787100038
:103040007047000038B5064D002404F5B4702844DC
:10305000183C05F0F3FB14F5C07FF6D138BD00BF76
:10306000247AFF3F10B5044605F07EF9204610BDD6
:1030700010B50446054A08302060114605F0EFFB04
:103080002268002363601370204610BD30ED1000ED
:1030900038B505460B4C01F00DFA0121204603F02E
:1030A000A9F901F033FA01F005FA0021204603F0F6
:1030B0009DF901F02BFA0021204603F0ADF9012320
:1030C0002B7138BDEC7BFF3F38B505460B4C01F04A
:1030D000F1F90121204603F08DF901F017FA01F012
:1030E000E9F90221204603F081F901F00FFA0121EC
:1030F000204603F091F900232B7138BDEC7BFF3F94
:1031000038B50C46451D2946204608F042FB40B123
:103110002146284608F047FB2046BDE8384000F02D
:1031200023BB38BD014B0360704700BF78EE100031
:1031300010B52448FFF79CFF234A2449214805F095
:10314000DEF8234B002203F5C070194643F8042C27
:1031500043F8083C01F8182B19615A611A7630338C
:1031600083424FF00004F0D1174A1A49204605F077
:10317000C6F81948FFF77CFF134A1449164805F0B2
:10318000BEF81648FFF774FF0F4A1049134805F0C0
:10319000B6F81348FFF76CFF0B4A0C49104805F0CE
:1031A000AEF8104805F0A2FA0F49074A0D4805F09D
:1031B000A6F80E481021046004718460BDE8104038
:1031C00000F0D5BFA47BFF3FA040FF3F69881000FF
:1031D0002C7AFF3F45301000D47BFF3FBC7BFF3F84
:1031E000287CFF3FF87BFF3F07871000EC7BFF3F09
:1031F00038B5064D002404F5B4702844183C05F099
:103200001DFB14F5C07FF6D138BD00BF407CFF3FE9
:1032100010B50446054A08302060114605F01FFB32
:103220002268002363601370204610BD30ED10004B
:1032300008B52048FFF7ECFF1F4A20491D4805F05C
:103240005EF81F4B002203F5C070194643F8042CAA
:1032500043F8083C01F8182B19615A611A7630338B
:103260008342F2D1144A1749002005F048F8164865
:10327000FFF7CEFF104A1149134805F040F81348F4
:10328000FFF7C6FF0C4A0D49104805F038F8104802
:10329000FFF7BEFF084A09490D4805F030F80D4810
:1032A00005F024FABDE80840034A0B49094805F037
:1032B00026B800BFC07DFF3FA040FF3F69881000D7
:1032C000487CFF3FF1311000F07DFF3FD87DFF3F8C
:1032D000387EFF3F087EFF3F0787100038B5064D58
:1032E000002404F5B4702844183C05F0A7FA14F53E
:1032F000C07FF6D138BD00BF507EFF3F00F108030C
:1033000073B5044603600D4681B1084608F053FAD0
:103310000F2805EB000601900BD9002201A92046D9
:1033200005F070FA019B2060A36002E0074805F0F9
:103330005FFA32462946206805F091FA2046019B43
:10334000226800216360D15402B070BD80EC10008F
:1033500073B556495648FFF7D1FF564A5649544867
:1033600004F0CDFF554B002203F5C070194643F819
:10337000042C43F8083C01F8182B19615A611A769D
:10338000303383424FF00004F0D14A4A4C49204682
:1033900004F0B5FF45494B48FFF7B0FF454A4649A1
:1033A000484804F0ACFF41494748FFF7A7FF414AAE
:1033B0004149454804F0A3FF3C494448FFF79EFFBC
:1033C0003C4A3D494148424D04F099FF414805F0CF
:1033D0008DF94FF0FF36374A3F493E4804F08FFFE2
:1033E0000096042306220521284604F0D7FBEC6250
:1033F00085F830406C63314605F12C0000F0DEFEAC
:10340000202300960222032105F1400000F01AFB60
:10341000284A3249284604F072FF3148FFF70CFD74
:10342000244A30492E4804F06AFF2F48FFF77AFEFD
:10343000204A2E492C4804F062FF2D4D2D48FEF7FE
:103440009BFF2D4E1B4A2D492A4804F058FF284661
:1034500004F09CFC2E606C632846294D154A2949CE
:1034600004F04DFF284604F091FC2E606C63284662
:10347000254D104A234904F042FF284604F086FCFB
:103480002E606C632846214D0A4A1E4904F037FF1E
:10349000284604F07BFC2846064A1A492E606C63D5
:1034A00002B0BDE8704004F02ABF00BF30ED10004C
:1034B0006C80FF3FA040FF3F69881000587EFF3FAF
:1034C000DD3210002882FF3F8480FF3FA882FF3F4B
:1034D000D07FFF3F7882FF3F0787100065211000F3
:1034E000C082FF3F852C10002081FF3F413010003B
:1034F000F081FF3FD880FF3F94F910003721100082
:103500004082FF3F75211000A080FF3FE880FF3F11
:1035100038B5064D002404F5B4702844183C05F075
:103520008DF914F5C07FF6D138BD00BF8887FF3F05
:1035300010B50446054A08302060114605F08FF9A1
:103540002268002363601370204610BD30ED100028
:1035500070B50546074B064645F8103B45B100F1EE
:103560003004AC4204D0103C2046FFF773F8F8E773
:10357000304670BD5CF9100010B50446FFF7E8FF57
:10358000204604F0F1FE204610BD000010B50446B0
:103590000A4B4C3003F1200240F84C3C7C3340F89D
:1035A000182C40F8143C05F0AEF804F1340005F096
:1035B0003FF82046FFF7CCFF204610BDD0F81000A2
:1035C000A0F13400E2E7A0F13800DFE710B50446CF
:1035D000FFF7DCFF204604F0C7FE204610BDA0F137
:1035E0003400F3E7A0F13800F0E7000073B53D4880
:1035F000FFF79EFF3C4A3D493A4804F080FE3C4BB1
:10360000002203F5C070194643F8042C43F8083C27
:1036100001F8182B19615A611A76303383424FF042
:103620000005F0D1304A3349284604F068FE32489C
:10363000FFF77EFF2C4A2D492F4804F060FE2F48EB
:10364000FFF776FF284A29492C4804F058FE2C48F9
:10365000FFF76EFF244A2549294804F050FE294C03
:10366000294805F043F8204A2849274804F047FE36
:10367000204604F08BFB264B65631B4A25492046F8
:103680002360254C04F03BFE4FF4165329460122DB
:10369000224804F0DDF94FF0FF36134A20491F4855
:1036A00004F02DFE0423062200960521204604F096
:1036B00075FA314604F12C00E56284F830506563F8
:1036C00000F07CFD009620230222032104F140003B
:1036D00000F0B8F92046044A124902B0BDE8704033
:1036E00004F00DBE0889FF3FA040FF3F698810002D
:1036F0009087FF3F113510007089FF3F2089FF3F01
:10370000348AFF3F3889FF3F048AFF3F0787100054
:1037100094F91000752110004C8AFF3F8889FF3F03
:103720008D3510006521100038B5064D002404F5D4
:10373000B4702844183C05F081F814F5C07FF6D128
:1037400038BD00BFE88AFF3F10B50446054A08307F
:103750002060114605F083F822680023636013702F
:10376000204610BD30ED1000024608B5034904485C
:1037700004F070FF003018BF012008BDD8EC100025
:10378000808DFF3F70B505460E460024B44207DC2D
:1037900055F824200649074804F05CFF0134F5E79A
:1037A0000D220549034804F055FF002070BD00BFFD
:1037B000D0EE1000808DFF3F7AED1000884238B5C2
:1037C00004460D460AD0FEF745FF3CB1EB681BB13D
:1037D0005B68294620469847EB68E360204638BD81
:1037E00073B53D48FFF7B0FF3C4A3D493A4804F005
:1037F00086FD3C4B002203F5C070194643F8042CAB
:1038000043F8083C01F8182B19615A611A763033D5
:1038100083424FF00005F0D1304A3349284604F086
:103820006EFD3248FFF790FF2C4A2D492F4804F0D7
:1038300066FD2F48FFF788FF284A29492C4804F0E5
:103840005EFD2C48FFF780FF244A254929482A4C71
:1038500004F055FD294804F049FF4FF0FF361F4A98
:103860002749264804F04BFD042306220096052133
:10387000204604F093F9E56284F8305065633146E0
:1038800004F12C0000F09AFC202300960222032170
:1038900004F1400000F0D6F820461A4C0F4A1A49AD
:1038A00004F02DFD204604F071FA184B65630B4AB5
:1038B00017492046236004F022FD29464FF4165391
:1038C0000122144804F0C4F8044A1349114802B014
:1038D000BDE8704004F013BD048DFF3FA040FF3FE2
:1038E00069881000F08AFF3F29371000348DFF3FB0
:1038F0001C8DFF3FF88DFF3F688CFF3FC88DFF3F59
:1039000007871000108EFF3F6521100094F910000A
:10391000752110004C8DFF3F8D3510000848094A75
:1039200008B5121A002106F00DFC00F0B7FE06F0F3
:103930004FFB02F01BFF00F0A9FE04F0E2FC00BF09
:10394000A065FF3FA4A8FF3F022801DD04F05EBC94
:103950000120704708B5012004F0D3FC08B5FFF73B
:10396000F9FF000038B50546094C0A49204600F029
:103970007DF8204600230222012100F0F7F82046BE
:1039800000230322012100F0F1F8284638BD00BFD2
:10399000488EFF3F40420F00012910B50A4606D06D
:1039A00002D3022906D010BD0023022209E0002321
:1039B000032207E000230121054800F0A7F80023B7
:1039C000032201210248BDE8104000F09FB800BF6B
:1039D000488EFF3F012910B50A4606D002D30229BE
:1039E00006D010BD0123022209E00B46032207E0A6
:1039F00001231946054800F089F8012303221946DE
:103A0000BDE81040014800F081B800BF488EFF3F7C
:103A100013B5094C4FF0FF330093022220230321FA
:103A2000204600F00FF82046044A054902B0BDE8E0
:103A3000104004F064BC00BF488EFF3FA040FF3F31
:103A4000CD3B100038B504461D4603F095FE9DF9A8
:103A5000101004F1200003F075FF2046257702497D
:103A600003F0A8FE204638BD40420F0008B572B6EC
:103A700003F0A0FE62B608BD1FB572B600238DF834
:103A80000C108DF80D20017F03AA0093022303F090
:103A9000BDFE62B605B05DF804FB30B585B004AA82
:103AA000044602F8011D72B60125017F2B460095E0
:103AB00003F0ACFE00230093217F2B460DF10E0294
:103AC000204603F0C3FE62B69DF80E0005B030BD7F
:103AD000D3B2072B70B506460D46144604D93322DF
:103AE0000849094800F08EFC0DB1012D07D1294687
:103AF0003046FFF7D2FF204100F0010070BD4FF0CB
:103B0000FF3070BDD3EE1000F8EE1000F8B51C4683
:103B1000D3B2072B06460D46174604D95C2211493D
:103B2000114800F06FFC1DB1012D1AD1032500E0F2
:103B3000022529463046FFF7B0FF3CB1012C01D0E9
:103B4000C2B208E004FA07F2024303E00122BA40DD
:103B500020EA0202D2B229463046BDE8F840FFF71B
:103B60008BBFF8BDD3EE1000F8EE1000F8B51C4680
:103B7000D3B2072B06460D46174604D97B221149BE
:103B8000114800F03FFC1DB1012D1AD1072500E0BE
:103B9000062529463046FFF780FF1CB1012C06D0D0
:103BA000C2B208E00122BA4020EA020202E004FAAE
:103BB00007F20243D2B229463046BDE8F840FFF78B
:103BC0005BBFF8BDD3EE1000F8EE100010B5044650
:103BD000203003F099FE204610BD481E012809D868
:103BE000501E0F2806D802290ABF3F3218701A70DB
:103BF000012070470020704710B500F140040123F8
:103C0000022200212046FFF781FF142004F066FC09
:103C1000012004F063FC0023204602221946FFF72E
:103C200075FF142004F05AFCBDE81040012004F098
:103C300055BC10B50446012004F050FC04F14000CE
:103C4000012302220021FFF761FFBDE8104014208C
:103C500004F044BC38B50C4605464FF4FA7004F045
:103C60003DFC2CB1012C0AD123460322002102E0A5
:103C700023462146032205F14000FFF747FF1420A9
:103C800004F02CFCBDE838404FF4FA7004F026BC78
:103C900010B504460821002203F0AAFF2046BDE823
:103CA0001040014903F0BCBF20A1070010B5044635
:103CB0000821002203F09CFF2046BDE81040014986
:103CC00003F0AEBF40420F0038B504460D46114820
:103CD0004FF0FF3104F011FD2046FFF7D9FF2046D9
:103CE000FFF78AFF20460021FFF7B4FF2946204650
:103CF00003F0ACFF2046FFF79CFF012D204604BFD8
:103D0000A563E563FFF7D2FFBDE83840014804F042
:103D1000F7BC00BFD867FF3F0121FFF7D5BF73B5E0
:103D20000DF1070304461546FFF757FF50B1A16395
:103D30009DF807102046E56341F08001FFF7C4FFBE
:103D4000002001E04FF0FF3002B070BD10B5044616
:103D50003021FFF7B9FF022004F0E4FB20463021B8
:103D6000FFF7B2FF20463021FFF7AEFF2046392192
:103D7000FFF7AAFF20461421FFF7A6FF2046562191
:103D8000FFF7A2FF20466D21FFF79EFF204670211E
:103D9000FFF79AFF20460C21FFF796FF20460621E9
:103DA000FFF792FF20460121FFF78EFFBDE810408C
:103DB0000A2004F0B7BB000038B5044600F1400506
:103DC00028460F49FFF752FE0023194628460222D3
:103DD000FFF7CCFE0023194603222846FFF7C6FE54
:103DE0002046FFF726FF2046FFF752FF2046FFF749
:103DF000ADFF01222046BDE838401146FFF78FBFD6
:103E000040420F002DE9F041161E04460D4648DDE4
:103E1000002946D04FF0FF31244804F06EFC2046C4
:103E2000FFF736FF2046FFF7E7FE01212046FFF7A8
:103E300011FF2E444FF00108E36B15F8017B102BA6
:103E400009DC0A2F07D03946204603F0FFFEE36B5A
:103E50000133E36317E0A16B012201310229C8BFDE
:103E60000121A163C4F83C802046FFF758FF20469B
:103E7000FFF70EFF01212046FFF7ECFE2046FFF77B
:103E8000BBFE0A2FDFD1B542D6D12046FFF7D1FEC7
:103E90002046FFF70BFF054804F032FC0020BDE888
:103EA000F0814FF0FF30BDE8F08100BFD867FF3FE1
:103EB00070B5064614460D4611B94FF0FF3070BD7F
:103EC0001A462146FFF72BFF0028F6D12B465A1B36
:103ED00013F8014B002CFAD129463046FFF792FF28
:103EE000204670BD70B504460D46FFF715FF01234F
:103EF00029462046BDE870401A46FFF7D9BF002387
:103F00001A4601210430FFF701BE012300221946A1
:103F10000430FFF7FBBD000073B504460546184B9F
:103F2000022244F8043B1123009303214A23204634
:103F3000FFF788FD05F160064FF0FF33009306227E
:103F400004230521304603F029FE002230462021BB
:103F500003F04EFE30460B4903F062FE00231A4682
:103F600001212046FFF702FE2846FFF7CEFF002280
:103F7000204601231146FFF7F9FD284602B070BD27
:103F80006CEC100040420F002DE9F0410746154649
:103F90000C4621B95B222049204800F033FA142D49
:103FA00004D95C221C491E4800F02CFA4FF0FF3166
:103FB0001C4804F0A2FB07F160063846FFF79FFF9C
:103FC0001949304603F042FE0A2004F087FA04EB58
:103FD0000508444508D014F8011B304603F036FEAE
:103FE0000A2004F07BFAF4E71049304603F02EFE75
:103FF00006460A2004F072FA3846FFF786FF14F8E6
:10400000013CF6B2B34218BF4FF0FF35054804F04B
:1040100077FB2846BDE8F08111EF10001FEF10007C
:104020002BEF1000D867FF3F020000F0040000F003
:1040300038B50546094C4FF0FF31204604F05DFBD2
:1040400000221146281DFFF743FD0546204604F0D7
:1040500057FBB5FA85F0400938BD00BFD867FF3F70
:10406000002208B511460430FFF732FDB0FA80F0A7
:10407000400908BD2DE9F74F80469246894621B98F
:104080007D222A492A4800F0BDF9BAF1140F04D95B
:104090007E222649274800F0B5F94FF0FF31264827
:1040A00004F02BFB4046FFF7DBFFB0B34D46404624
:1040B00008F16006FFF723FF2049304603F0C6FDF4
:1040C0000A2004F00BFA1E4B1E4A09EB0A0B5D4551
:1040D00001920093C9EB050412D00021304603F091
:1040E000B5FD07460A2004F0F9F9009B9F4207D06E
:1040F000019A974202D005F8017BE8E74FF0FF34C0
:10410000544506D10E49304603F0A0FD0A2004F0C4
:10411000E5F94046FFF7F9FE00E00446064804F0E2
:10412000EFFA204603B0BDE8F08F00BF11EF10009A
:104130001FEF10002BEF1000D867FF3F010000F0C9
:10414000040000F0100000F070B50E46044615465D
:1041500002F026F9013609D02046002102F04AF982
:1041600029462046BDE8704002F040B970BD38B520
:104170000C4601220546FFF7E7FF0F2C06D121462A
:104180002846BDE838400122FFF7DEBF38BD70B5D4
:104190000E460446154602F003F901360DD02946B5
:1041A000204602F039F92046012102F023F9204689
:1041B000BDE87040012102F019B970BD0022FFF77F
:1041C000E6BF0000014800F0A4B800BF5CEF10009B
:1041D00010B50446013001D110BD0C3191F9003009
:1041E0005A1C0BD09C42F8D12046896802F068FF27
:1041F0002046BDE81040012102F074BF0248BDE82E
:10420000104000F0A1B900BF64EF1000884208B56B
:104210000AD0431C07D0013106D0044800F094F9BD
:104220004FF0FF3008BD084608BD00BF75EF100015
:1042300091F900305A1C05D0834201D1486870477B
:104240000C31F5E718467047421C10B5044607D0FC
:10425000FFF7EEFF431C044602D1024800F074F958
:10426000204610BD86EF10000368D0B544685B6837
:10427000D4E9026798470022B04242EA00023B4676
:1042800002D2003247F10103C4E90223D0BD2DE977
:1042900070430646FFF7E8FF71684B68ABB1D1E9A0
:1042A0000245D3E90023AB4208BFA2420BD3B2EBD5
:1042B000040863EB0509B9F1000F08BFB8F1E04F3E
:1042C00003D2121B03E0002201E04FF0E04233680A
:1042D00088681B691044BDE870431847436870B58F
:1042E0001D7C04460E468DB903681B6898476368B9
:1042F000002000210122C3E902011D6020465D600B
:104300001A74FFF7B1FF2046FFF7C1FF63681E6014
:1043100070BD036870B5DB680446984763685B68E6
:10432000A3B12046FFF7A0FF65686E68D5E90201DA
:10433000D6E90023994208BF904207D3F3686B6027
:104340002B68002BEAD0B0689847E7E72046BDE825
:104350007040FFF79CBF2DE9F84305460C46164612
:104360001F46DDF8208000F0A5F82846FFF77CFF07
:104370006968C4E900674B68C4F80880002243B14B
:10438000D3E900894F4508BF464502D31A46DB688A
:10439000F5E7E3600AB94C6000E0D4602846FFF717
:1043A00076FFBDE8F84300F0B1B838B505460C46D5
:1043B00000F080F86A685368A34206D1DB6828469B
:1043C0005360FFF764FF06E0134623B1DA689442B6
:1043D000FAD1E268DA60BDE8384000F097B810B56D
:1043E0000446FFF741FF6368D3E9020110BD0000F6
:1043F00000487047D8EF10000148FFF78ABF00BFA0
:10440000D8EF100070B504460D46164600F052F87D
:1044100033462A462146034800F038F8BDE870408C
:1044200000F002B8E0EF100008B500F043F8962065
:1044300004F078F8962004F075F8F8E730B50D46EA
:104440000446A1B000F036F82B462246802168468B
:1044500008F0C2F9051E03DC00F058F821B030BDA9
:10446000084B1B6823B909220821074802F0C8FF3E
:1044700000241DF804100448013403F0B8F8A542E4
:10448000F7D1E9E7B094FF3F94A8FF3F0FB407B519
:1044900004A951F8040B0191FFF7D0FF03B05DF8B8
:1044A00004EB04B07047EFF3108000F0010080F0DF
:1044B0000100704738B5FFF7F6FF054672B60E4C9F
:1044C000236823B980F001030C4ADBB21370236820
:1044D000013304D145220A490A48FFF793FF2368B4
:1044E0002BB125B1492206490748FFF78BFF236806
:1044F0000133236038BD00BFD88EFF3FDC8EFF3F05
:1045000011F0100041F0100067F0100010B50A4CD7
:10451000236883B1FFF7C7FF20B15A220749084833
:10452000FFF770FF2368013B236023681BB9054B2D
:104530001B7803B962B610BDD88EFF3F11F0100092
:1045400067F01000DC8EFF3F0FB413B5084B1A78EC
:104550004AB9012405A904981C700191FFF76EFF68
:10456000204603F0CEFE02B0BDE8104004B0704714
:10457000DD8EFF3F38B51548154B0B250360154BF5
:104580001C244560C460836001F016F9124B18606A
:104590001248134BC46080E82800124B836001F07E
:1045A0000BF9114B18601148114BC46080E82800CA
:1045B000104B836001F000F90F4B186005F008FD07
:1045C000BDE838400021084600F060B8BC97FF3FC6
:1045D0007BF010009097FF3F0898FF3FAC97FF3F9C
:1045E0008BF010000C98FF3F0498FF3FCC97FF3FE3
:1045F00098F010002898FF3FDC97FF3F094A0A48CF
:10460000C2F180431946B3F5806F28BF4FF4806133
:104610005B1A016005499818086005490B60054B55
:104620001A607047A8A8FF3FE48EFF3FE08EFF3F6F
:10463000DC95FF3FE096FF3F7047704708B50D4A95
:104640000D4B002113614FF4805353614823D36015
:104650000A4B0B489360182393610A4B136001F0D7
:10466000E1FD10B90848FFF76FFFBDE8084000F012
:1046700063BA00BFE097FF3F9098FF3F4498FF3F29
:1046800075451000A2F01000AEF0100008B5FFF75D
:10469000D3FFBDE80840FEF71BB8000010B5FFF7D8
:1046A000ADFF0A4B0A499A680A48043A52F8044F87
:1046B00041F8044F8142F9D1074A9A60FFF7BDFFE4
:1046C00000F0F4F9BDE81040FFF7B8BF00ED00E0DE
:1046D000FC3FFF3F8C40FF3F0040FF3F02F0A0BF88
:1046E00008B5024C23689847FCE700BFF863FF3F1A
:1046F00008B5FFF7F5FFFCE708B505460C4601F0E5
:10470000ADFD6B1E0246042B24D8DFE803F0030D39
:1047100013191E00204601F089FD2246034601219F
:104720000F48FFF711FF19E0234602210D48FFF75C
:104730000BFF13E0234603210B48FFF705FF0DE0B5
:1047400004210A48FFF700FF08E005210848FFF7A9
:10475000FBFE03E029460748FFF7F6FEFEE700BF31
:10476000CAF010001BF1100071F11000D6F110001A
:1047700031F2100091F2100008B5014610B113207B
:1047800001F0C2FC002008BD10B5044600F031F86D
:10479000EFF305832BB9EFF3108313B9EFF3118314
:1047A0003BB16FF00501002000F016F86FF0050036
:1047B00010BD2046DFF804C000DF10BD79471000AF
:1047C0007047704770477047704770477047704731
:1047D0007047704770477047704770477047704721
:1047E0007047704770477047704770477047704711
:1047F0007047704770477047704770477047704701
:1048000070477047704770477047704770477047F0
:1048100070477047704770477047704770477047E0
:1048200070477047704770477047704770477047D0
:104830007047000070B56348017A0446012900F012
:10484000BD8011B14FF0FF3009E05F4DA822083064
:1048500005F078FC6B6D472B06D86FF00A00FFF768
:10486000B5FF4FF0FF3070BDEA68002AEAD02B8A0E
:10487000002BE7D0EE6AA4F85C30AB68296B3046B9
:104880006266A36400F08AF908B1C4F888606E69B2
:10489000A969304600F082F908B1E66702E0D4F871
:1048A0008830E367EE69296A304600F077F910B185
:1048B000C4F8806003E0D4F88830C4F880306E6AB1
:1048C000A96A304600F06AF910B1C4F8846003E0C8
:1048D000D4F88830C4F884306E6B46B1F368B2689F
:1048E0003168304600F0D5F908B1C4F88C60AE6B81
:1048F00046B1F368B2683168304600F0CAF908B1D1
:10490000C4F89060EE6B46B1F368B2683168304627
:1049100000F0BFF908B1C4F894602E6C46B1F3689A
:10492000B2683168304600F0B4F908B1C4F8986054
:104930006E6C46B1F368B2683168304600F0A9F990
:1049400008B1C4F89C60AE6C46B1F368B2683168D7
:10495000304600F09EF908B1C4F8A060EE6C46B194
:10496000F368B2683168304600F093F908B1C4F8D2
:10497000A4602D6D45B1EB68AA682968284600F04F
:1049800088F908B1C4F8A850104AFF2382F82230F1
:1049900092F82230D16863F0FF03DB43B3FA83F36C
:1049A000C1F30221C3F120038B4298BF4B1CFE21AF
:1049B00001FA03F3DBB2D37701232372FFF708FF79
:1049C000002070BD0064FF3F10F3100000ED00E018
:1049D00010B5034C207AFFF7FCFE207A10BD00BF13
:1049E0000064FF3F38B52A4C237A012B02D06FF0C8
:1049F00006000BE0236B274D6BB9AA6D19462648BC
:104A000001F080FA206330B94FF0FF30FFF7DEFE8F
:104A10004FF0FF3038BD6B6E5BB1236D4BB91D4A53
:104A20001946D26D1D4801F06DFA194B1865002822
:104A3000EAD01B4801F0DBF80028E5D001F0F4F9DA
:104A40002B68DB074CBF0223032383F31488154B29
:104A50001B68E36000F0B4FF0028A0610FDB00F1E9
:104A6000604303F56143FF2283F8002342110123D1
:104A700000F01F0003FA00F00B4B43F8220000F097
:104A8000B9FF02232372FFF7A6FE002038BD00BF46
:104A90000064FF3F10F31000F14610001563100092
:104AA0002464FF3FB064FF3F00E100E008B5FFF77A
:104AB0008EFEEFF305832BB9EFF3108313B9EFF3F9
:104AC000118333B16FF00500FFF780FE6FF0050032
:104AD00008BDDFF820C0EFF3148313F0020F06D1F6
:104AE000EFF30883203B23F0070383F3098800DFFB
:104AF00008BD00BF3548100008B5EFF305832BB99A
:104B0000EFF3108313B9EFF3118333B14FF0FF309C
:104B1000FFF75FFE4FF0FF3008BDEFF31483DB07B4
:104B200003D4BDE80840FFF753BFDFF808C000DF3B
:104B300008BD00BFD149100008B5FFF74BFEEFF3E9
:104B400005832BB9EFF3108313B9EFF3118333B15E
:104B50006FF00500FFF73AFE6FF0050008BDFFF7A4
:104B6000CBFF022805D00B4B1B6813B15B6803B168
:104B70009847DFF824C0EFF3148313F0020F06D137
:104B8000EFF30883203B23F0070383F3098800DF5A
:104B900008BD00BF90A8FF3FE549100038B50C469E
:104BA000034630B140EA010212F0070201D1172991
:104BB00006D8184600222146FFF702FE002038BD25
:104BC000A1F1080410251960456025188560225060
:104BD000C2600122FFF7F4FD012038BDF8B518B11D
:104BE00011B132F0030304D00023FFF7EAFD0020E7
:104BF000F8BD0F3121F0070100F108052E68D5F846
:104C000004E0731B2EF003041B1B994205D9346882
:104C10003546002CF2D12346E7E7436842EA010714
:104C20000B444360BEF1000F03D16F6005F108042F
:104C300005E02B192E515F6003F108042B60234619
:104C4000FFF7BFFD2046F8BD38B500B121B90022FD
:104C5000FFF7B8FD002038BDA1F1080500F10803F9
:104C60000022AB4205D01C681A46002CEFD0234628
:104C7000F7E75C6824F003054468641B44600AB9E4
:104C80005A6001E01B6813600122FFF79BFD0120C1
:104C900038BD2DE9F0410D4617461C460646F8B1D1
:104CA00001B312B323B302FB01F84FF0000E3160E1
:104CB000C0F804E003EB080EF3607361B260C0F863
:104CC00010E0FFF780FD2346013D03D0DA191A609A
:104CD0001346F9E7C7EB080025500120BDE8F08135
:104CE000BDE8F0810846BDE8F0811046BDE8F081DE
:104CF0001846BDE8F08138B5054620B90146FFF7F2
:104D000063FD284638BD031D026853E8001F8A4230
:104D100002D8BFF32F8F04E0481C43E8000404B11D
:104D2000F3E72B688B420ED905F1140353E8000F0B
:104D300010B9BFF32F8F04E0026843E8002101B1EE
:104D4000F4E7044600E0002428462146FFF73CFD36
:104D5000204638BD38B528B1C3688B4202D80369F4
:104D6000994206D36FF00302FFF72FFD6FF00300A7
:104D700038BD031D53E8002F12B9BFF32F8F04E095
:104D8000541E43E8004505B1F4E782B100F1140375
:104D90001A680A60BFF35F8F53E8002F0C689442D3
:104DA000F6D143E8001505B1F2E7002401E06FF009
:104DB00002042246FFF709FD204638BD036B30B5DB
:104DC000A3B1CD780024DA78AA4204D25A681C46EE
:104DD0001AB11346F7E71A4623464A608B600AB1B8
:104DE000916000E0C16223B1596003E04B608B60C9
:104DF000C1620163283050E8003F5A1C40E800219E
:104E000001B1F8E730BD4B688A680BB19A6000E0E9
:104E1000C2628A680AB1536070470363704700003A
:104E20002DE9F74F804600B131B96FF00301002042
:104E3000FFF7F1FC00208EE0033121F0030303F1C2
:104E40000C090193B9FA89F1B0FA80F30B441F2BD6
:104E5000EBDD09FB00FAE2B19468D2F800B0166904
:104E600050693CB1A30702D1D368332B05D86FF04A
:104E70000801DCE7D368002BF9D13EB116F003033B
:104E800001D182455FD96FF00901D0E700285ED0DB
:104E9000F9E793461646314BD3F8A80010B1FFF757
:104EA0002AFF05E001223421D3F88800FFF796FE9F
:104EB000044620B96FF00401FFF7ADFC41E026BBCA
:104EC0000125264F00225146D7F88400FFF786FEC1
:104ED000064690B96FF00401FFF79DFC002DA9D0A4
:104EE000D7F8A85021461DB12846FFF733FFA1E7A8
:104EF000D7F88800FFF7A8FE9CE75246002105F08E
:104F000021F945F00200C0B200E001200823019A17
:104F10002370012363700023A070A3606262A36208
:104F2000E36223634A463346C4F804B0414604F1C1
:104F30000C00FFF7AEFE0A4A084B20469A67FFF7BF
:104F40006CFC204607E0002CA5D01846DEE7002CBC
:104F5000A1D00546B5E703B0BDE8F08F0064FF3F80
:104F6000615010002DE9F0410E4690461D46044662
:104F700018B10378082B00D141B920466FF0030126
:104F8000FFF749FC6FF00300BDE8F081437823B9D7
:104F90006FF00201FFF73FFC5CE0836803B35B78CE
:104FA000832B1DD1FFF73EFC204600F020FE054676
:104FB0000122002100F076FF284600F0F7FE0546AA
:104FC000626A3146806805F097F8EB680BB183F8A8
:104FD00000802046A968FFF72AFC0020BDE8F08188
:104FE00004F10C00FFF787FE0746B8B1626A31464C
:104FF0000C3005F081F807233B70002501237B70FE
:1050000039462046BD7087F80380FFF7D7FE20465B
:105010003146FFF707FC2846BDE8F081B5B12A46C6
:1050200031462046FFF7FBFB0C4B2046D96900F0C8
:10503000CBFD2946932001F067F8EFF309836FF069
:1050400001009E60C3F80C80BDE8F0813146204627
:10505000FFF7E9FB6FF00200BDE8F0810064FF3F5D
:10506000F8B543780446002B7AD08678002E3ED0DF
:10507000C5686B78002B73D001460026284605F1E1
:105080000C07FFF7C0FE667021463846FFF762FE48
:10509000AB68002B64D05B78932B61D13846FFF767
:1050A0002AFE044600285BD0284600F0A0FD0746F3
:1050B0003246314600F0F6FE384600F077FE0746ED
:1050C0006A6A816804F10C0005F016F80723237062
:1050D00001236370A670FB6821462846E370FFF742
:1050E0006DFEB9682846BDE8F840FFF79BBB8568B0
:1050F0006B78ABB3AB684BB35B78832B26D141683D
:105100002846FFF78FFB284600F071FD0746324620
:10511000314600F0C7FE384600F048FE06466A6A8F
:1051200004F10C01806804F0E7FFF3680BB1E2784A
:105130001A70B1682846FFF77AFB00236370214696
:1051400005F10C00BDE8F840FFF704BE6168284691
:10515000FFF768FB21462846BDE8F840FFF72EBE62
:10516000F8BD10B500F1280353E8002F12B9BFF3C2
:105170002F8F04E0511E43E8001404B1F4E70AB98C
:10518000002010BDC06A01230028F9D0821CD2E89B
:105190004F1FC2E8443F04B1F9E711F0FF0F01D0FF
:1051A0008068F1E710BD00002DE9F0410D4617467B
:1051B0009846044618B10378082B00D141B920461F
:1051C0006FF00301FFF727FB6FF00300BDE8F081EC
:1051D000437823B96FF00201FFF71DFB3EE0FFF7B4
:1051E000C0FF0646E8B101462046FFF70CFE626AA2
:1051F00006F10C01284604F07FFF0FB1F3783B70F5
:1052000029462046002504F10C07FFF710FB7570B6
:1052100031463846FFF79EFDA3681BBB0020BDE862
:10522000F081B8F1000F15D0424629462046FFF71D
:10523000FCFA234B2046D96900F0C6FC4146832086
:1052400000F062FFEFF309836FF001009D60DF6003
:10525000BDE8F08129462046FFF7EAFA6FF0020028
:10526000BDE8F0815B78932BD8D13846FFF743FD3A
:1052700006460028D2D0204600F0B9FC0746294651
:10528000012200F00FFE384600F090FD0746626AEA
:10529000816806F10C0004F02FFF0723337001230F
:1052A0007370B570FB683146F3702046FFF786FDDA
:1052B0002046B968FFF7B6FA2846BDE8F08100BF7E
:1052C0000064FF3F70B506460D461446FFF7A4FA8A
:1052D000EFF305832BB9EFF3108313B9EFF31183C9
:1052E00033B16FF005010020FFF795FA002070BD83
:1052F000304629462246DFF820C0EFF3148313F02E
:10530000020F06D1EFF30883203B23F0070383F35A
:10531000098800DF70BD00BF214E10002DE9F0416B
:1053200004460F4690461D46FFF778FAEFF30583D3
:1053300033B9EFF310831BB9EFF31183002B3CD08B
:1053400024B12378082B01D107B145B120466FF075
:105350000301FFF760FA6FF00300BDE8F0816378A6
:105360002BB96FF002012046FFF755FA21E004F156
:105370000C00FFF7C0FC0646B8B1626A39460C3033
:1053800004F0BAFE07233370012373703046B57002
:1053900086F803807760B46000F0E0FA2046394672
:1053A000FFF73FFA2846BDE8F08139462046FFF76F
:1053B0003AFA6FF00200BDE8F081204639464246D5
:1053C0002B46DFF808C000DFBDE8F081654F100014
:1053D000F8B504460D4617461E46FFF725FAEFF3CB
:1053E00005832BB9EFF3108313B9EFF31183A3B344
:1053F00024B12378082B01D105B13EB120466FF0CE
:105400000301FFF708FA6FF00300F8BD63782BB9CA
:105410006FF002012046FFF7FEF91BE02046FFF780
:10542000A0FE064690B100F10C01626A284604F025
:1054300063FE0FB1F3783B7029462046FFF7F7F97A
:105440003046F46000F08AFA0020F8BD2946204674
:10545000FFF7EEF96FF00200F8BD204629463A4604
:105460003346DFF808C000DFF8BD00BFA9511000C7
:1054700070B530B390E86000846864B114F0030341
:1054800002D1C2681B2A0AD86FF008010020FFF77A
:10549000B4F9002070BDC368ABB1F5E70123042265
:1054A0002270A370012200236270E6706560A36021
:1054B000E3602361636123762046FFF7A0F920466D
:1054C00070BD054606460A4BD3F89C0010B1FFF7A5
:1054D00012FC05E001221C21D3F88800FFF77EFBB7
:1054E00004460028DAD16FF00401FFF786F9E6E7F9
:1054F0000064FF3FF8B5314B0546DE690F4636B90B
:105500006FF00701FFF779F94FF0FF30F8BD10B1E8
:105510000378042B07D028466FF00301FFF76DF9DD
:105520006FF00300F8BD437813B96FF0020116E085
:10553000047E54B9F36A0121C66043610461F062DC
:105540000176FFF760F92046F8BDC378DA0710D579
:10555000C26896420DD1FF2C04D16FF00F01FFF706
:105560004CF928E0611CC9B20176FFF74CF9002024
:10557000F8BDEFB19B070CD5EB6896F8202093F9A6
:10558000200051B2884204DA83F82020E86800F055
:1055900049FB39462846FFF734F93146284600F0E2
:1055A00013FB3946532000F0AFFD6FF00100F8BD4A
:1055B0002846FFF729F96FF00200F8BD0064FF3FAD
:1055C00038B5354B0446DD6935B96FF00701FFF793
:1055D00014F94FF0FF3038BD10B10378042B07D019
:1055E00020466FF00301FFF708F96FF0030038BDA4
:1055F000437813B96FF0020109E0C3689D4202D0FD
:105600006FF00D0103E0017E31B96FF00E01FFF77D
:10561000F4F86FF0020038BD0139C9B20176FFF726
:10562000F5F8237E002B34D163690BB122691A612E
:1056300022690AB1536100E0EB62E3789B0710D561
:1056400095F82130EA6A52B1916831B191F9201090
:105650005BB28B42B8BF0B46DBB25269F3E785F809
:105660002030A36893B1204600F0C1FA054600221D
:10567000114600F017FCEB6A012163610023E5602D
:1056800023612046EC622176FFF7BDF8002000F090
:10569000DBFB002038BD00BF0064FF3F10B50446AF
:1056A00010B10378042B07D020466FF00301FFF7F9
:1056B000A4F86FF0030010BD437833B96FF0020116
:1056C000FFF79BF86FF0020010BD00234370037ECC
:1056D000002B32D06369C0680BB122691A6122695C
:1056E0000AB1536100E0C362E3789A0716D590F8D7
:1056F0002130C26A52B1916831B191F920105BB288
:105700008B42B8BF0B46DBB25269F3E790F820201A
:10571000934203D080F8203000F084FAA3681BB9CC
:10572000002000F091FB08E0204600F060FA002223
:105730006FF0020100F0B6FBF0E7A378DB070BD5B2
:10574000084B2146D3F89C0010B1FFF703FB03E0A0
:10575000D3F88800FFF778FA2046FFF759F80020C1
:1057600010BD00BF0064FF3F2DE9F0410446002654
:105770000127FCB1E378D4F814801B0718D52676EE
:1057800000212046FFF742F8A3688BB1204600F0C5
:105790002EFA05460022114600F084FBEB6AE56014
:1057A000636126610121EC6220462776FFF72BF822
:1057B0004446DEE7BDE8F08110B50446FFF71EF869
:1057C000EFF305832BB9EFF3108313B9EFF31183D4
:1057D00033B16FF005010020FFF70FF8002010BD76
:1057E0002046DFF820C0EFF3148313F0020F06D138
:1057F000EFF30883203B23F0070383F3098800DFDE
:1058000010BD00BF7154100038B504460D46FEF7B8
:10581000F7FFEFF305832BB9EFF3108313B9EFF321
:1058200011833BB120466FF00501FEF7E6FF6FF0F4
:10583000050038BD20462946DFF804C000DF38BD2A
:10584000F554100010B50446FEF7DFFFEFF30583B3
:105850002BB9EFF3108313B9EFF311833BB120465B
:105860006FF00501FEF7C9FF6FF0050010BD20467F
:10587000DFF804C000DF10BDC155100010B50446AC
:10588000FEF7C5FFEFF305832BB9EFF3108313B9D0
:10589000EFF311833BB120466FF00501FEF7ADFF3A
:1058A0006FF0050010BD2046DFF804C000DF10BD1A
:1058B0009D56100010B5D0E85F3F5A1C914200D8A9
:1058C0000022C0E8542F04B1F5E798B210BD0000E3
:1058D00070B51F4D2C461F4EB5F85C10D6E85F3FE3
:1058E00013B9BFF32F8F04E05A1EC6E8502F00B142
:1058F000F4E79BB23BB31848FFF7DCFF6B6E53F83D
:10590000200000B30378013B062BE5D801A252F832
:1059100023F000BF31591000D9581000355910003C
:10592000D9581000395910003D5910004159100044
:10593000A36E06E0E36E04E0236F02E0636F00E015
:10594000A36F9847C7E70020BDE8704000F07CBA1D
:105950000064FF3F5E64FF3F6264FF3F70B5164C1A
:105960000546B4F85C1004F15E02D2E85F3F99424C
:1059700002D8BFF32F8F04E0581CC2E8560F06B1BF
:10598000F3E79BB28B4210D204F16000FFF792FF65
:10599000636E43F82050637A23B9084B4FF080526E
:1059A0005A6070BD0123E37270BD2946BDE87040A6
:1059B0000220FEF7A1BE00BF0064FF3F00ED00E043
:1059C000084B094ADB6852684FF0FF30B3FBF2F333
:1059D000064A013B536000239360054BFF2283F886
:1059E000232070470064FF3F10F3100010E000E038
:1059F00000ED00E0014B07221A60704710E000E064
:105A0000014B1B68704700BF10E000E038B5FFF79E
:105A1000F7FF1D4BD3E904019A6D013041F10001FC
:105A2000C3E904011D4602B1904700F061F900206E
:105A300000F00AFAAA6C144B22B3196C186A81425E
:105A400002D018645A6438BD5A6C0AB1013A5A64DB
:105A50006B6C0D4CB3B9237A022B13D1E56A8DB16F
:105A600095F9202091F920309A420BD1284600F078
:105A7000CFF8206C00F0E8F8284600F0D5F9A36CC8
:105A80002564636438BD00BF0064FF3F10B5034B5D
:105A9000DC692046FEF7A4FE204610BD0064FF3FEF
:105AA00008B5FEF7A2FEDFF810C000DF4FF0FF31AF
:105AB0000020FEF791FEFEE75161100012F0020F88
:105AC00010B502F0010222D100F1280382B153E89F
:105AD000000F00EA01028A4203D0BFF32F8F00209B
:105AE00005E020EA010243E8002404B1EFE710BD1D
:105AF00053E8000F084203D1BFF32F8F002005E0C9
:105B000020EA010243E8002404B1F1E710BD806AF5
:105B100001EA00031AB1994218BF002010BD002B02
:105B200008BF002010BD000010B50023437083782B
:105B300004469A070CD513F0100F016B0E4B04D0DE
:105B4000D3F88C00FFF706F902E0D86FFFF77CF876
:105B5000A378DB070ED5084B2146D3F8900018B187
:105B6000BDE81040FFF7F6B8D3F88800BDE8104054
:105B7000FFF76AB810BD00BF0064FF3F10B50446D0
:105B800010B10378012B05D020460021FEF727FE37
:105B9000002010BD4378002BF6D04168FEF71FFEB1
:105BA000606810BD074A10B5936B002413B11C4602
:105BB0001B69FBE7C161446103610CB1206110BD49
:105BC000906310BD0064FF3F10B579B1836891F90F
:105BD000202033B193F92040944202DB18469B68A1
:105BE000F7E7C8608B60816003B1D96010BD83683E
:105BF0002BB19A68826002B1D0600022DA60184648
:105C0000704720B10378012B01D1C068F9E77047D4
:105C1000C36833B182689A60826802B1D36000239E
:105C2000C360704710B5014604462378012B03D1A9
:105C3000E468002CF9D110BD0846FFF7E9FF2046C3
:105C4000BDE81040FFF7C0BF012301464370014883
:105C5000FFF7BABF2464FF3F4B1C30B402460C462A
:105C600002D130BCFFF79EBF0C4900204B6B33B113
:105C7000DD69AC4203D31846641B1B69F7E7D461A6
:105C80005061136108B1026100E04A631BB1D96938
:105C90005A610C1BDC6130BC704700BF0064FF3FE1
:105CA000C16910B54B1C42690CD11AB90F4B9B6BE3
:105CB00098421AD1036903B15A6142697AB90B4A11
:105CC000936310BD1AB9094B5B6B98420DD1036900
:105CD0001BB1DC695A612144D96142691AB113616F
:105CE0000023436110BD014A536310BD0064FF3FB0
:105CF00038B52D4B5C6B1D46002C54D0E369013B3D
:105D0000E361002B4FD16378532B27D008D8332B76
:105D10001BD0432B1CD0132B31D1FEF76BFD2EE093
:105D2000732B21D007D8632B29D12046FFF769FFB9
:105D3000FEF76FFD23E0832B1CD0932B1FD1204651
:105D4000FFF75FFFFEF76CFD19E0FEF750FD16E070
:105D50002046FFF756FFFEF74FFD10E02046FFF705
:105D600050FFFEF74FFD0AE02046FFF74AFFFEF71F
:105D700051FD04E02046FFF744FFFEF757FDA36BFB
:105D80002046196AFEF72FFD2046FFF741FF204607
:105D9000FFF75AFF246924B1E369002BB3D0002335
:105DA00063616C6338BD38BD0064FF3F806B203099
:105DB0007047000010B50123094A437090F9201084
:105DC000D36A243233B193F920408C4202DD1A4663
:105DD0009B68F7E7C2608360906003B1D86010BD34
:105DE0000064FF3F044B1B682BB11B691BB1034AC6
:105DF000126A506C1847704790A8FF3F0064FF3F3D
:105E0000074BD96951B10B6B8A6B934203D21A6865
:105E1000044B9A4202D00120FEF76EBC704700BFCF
:105E20000064FF3FA52E5AE210B5044602234370DA
:105E3000044B1862FFF7E4FF2046BDE81040FEF770
:105E4000D3BC00BF0064FF3F10B5154B04461A7A5F
:105E5000D96970B9022ADC6A21D101B3FCB194F985
:105E6000202091F920309A4219DD2046FFF7D0FE1C
:105E700008E0022A0ED169B190F9202091F9203072
:105E80009A4207DD0846FFF795FF2046BDE810401F
:105E9000FFF7CABF2046BDE81040FFF7D5BE10BDD2
:105EA0000064FF3F70B504460E461546FEF79BFCA6
:105EB000A36B20461E62FFF7F3FE20461DB1BDE82E
:105EC0007040FFF7C1BFBDE87040FFF7BDBE38B5F9
:105ED00043780446332B13D190F82320416AFFF70F
:105EE000EDFD054660B1014600222046FFF7DAFFCE
:105EF0002A4694F82310606ABDE83840FEF778BC63
:105F000038BD00002DE9F04F85B003910293814622
:105F100010B96FF003011EE082B3946802F110051E
:105F2000E0CD3CB1A30702D1D368472B05D86FF071
:105F300008010FE0D368002BF9D12DB1680700D11B
:105F40007EB96FF00A0105E047B17B1E372B06D9F9
:105F50006FF00B010020FEF73FFC56E018273EB122
:105F600002E0002FF1D118277107EAD1472EE8D9B6
:105F70001368D2F804B00193CCB904E01646154674
:105F80009346182701925A4BD3F8900010B1FEF7B0
:105F9000B2FE05E001224821D3F88800FEF71EFE7C
:105FA000044638B96FF00401FEF716FC9BE04FF091
:105FB000000A01E04FF0010A8DBBDFF83481A6B979
:105FC0004C4AD8F88C00566D78B1FEF794FE054621
:105FD00040B96FF004010020FEF7FEFBBAF1000F9C
:105FE0000CD112E04AF0100A17E02A463146D8F8E0
:105FF0007C00FEF7F3FD054678B9EAE7D8F8905043
:10600000214625B12846FEF7A5FE00206CE0384B5E
:10601000D3F88800FEF718FEF7E74AF0020A019B62
:10602000012263600023A360E36023616361A361D5
:10603000E36184F823306362A362E362A6F1400364
:106040002B44A3632C4B22706270FFB2FD2284F8B4
:1060500002A084F803B084F8207084F8217084F8DA
:10606000222025636663C4F83C902B60214B1B689B
:106070005B0711D504352A46B608A6F111034FF087
:10608000CC311BB142F8041B013BFAE706F1804614
:10609000113E05EB860500E0A56B2B4605F13402A9
:1060A000002143F8041B9342FBD1144B144A6B6349
:1060B0004FF08073EB63039BC5F838902B620C4B59
:1060C00020469A66FEF78AFB0E4B1B6833B19B682D
:1060D00023B1029920469847606401E0029B636403
:1060E0002046FFF7B1FE204605B0BDE8F08F00BFA7
:1060F0000064FF3F10F31000A52E5AE2A15A1000D1
:10610000CF5E100090A8FF3FF8B5104D0746EC6930
:106110000E46CCB12B7A022B04D02046FFF778FD37
:106120000020F8BDE86A80B12046FEF75BFB3146EF
:1061300020466770FFF790FD05F12400FFF757FD3B
:10614000FFF772FE0120F8BD2046F8BD0064FF3F56
:1061500070B51C4DEC69002C32D0E06AFFF704FBEF
:10616000A06930B100221146FFF79CFEA069FEF73E
:1061700038FB2B7A134E022B22D1F36A03B3EFF3D1
:106180000983A36306F12400FFF731FDFFF74CFEFE
:106190000023F361E378DB0701D5A3691BB1204637
:1061A000FFF7C2FC07E004226270E360F36BA360B8
:1061B00003B1DC60EC632046BDE87040FEF716BB1F
:1061C00070BD00BF0064FF3FF8B507460E46154698
:1061D0001C46FEF702FBEFF305832BB9EFF31083A8
:1061E00013B9EFF3118333B16FF005010020FEF70F
:1061F000F3FA0020F8BD384631462A462346DFF838
:1062000020C0EFF3148414F0020F06D1EFF30884DA
:10621000203C24F0070484F3098800DFF8BD00BFA8
:10622000055F10000023FFF7CFBF000008B503464D
:10623000EFF305822AB9EFF3108212B9EFF311825E
:106240002AB118460021FEF7CAFA002008BDDFF87F
:1062500008C000DF08BD00BF7D5B100008B5EFF38C
:1062600005832BB9EFF3108313B9EFF3118323B137
:106270000020FEF7B5FA002008BDDFF808C000DFF7
:1062800008BD00BF8D5A10000C4A30B5D36C0024F5
:1062900033B11D69A94203D31C46491BDB68F7E7EC
:1062A00001618460C3601BB11D699860691A19613E
:1062B0000CB1E06030BDD06430BD00BF0064FF3F72
:1062C00070B5134DEC6C14B323690126013B2361B7
:1062D0002369E3B9E3680BB1A2689A60EB64002319
:1062E0001A4604F11801686DFFF718F818B1214635
:1062F0000320FEF701FAE378012B04D161692046FF
:10630000FFF7C2FF00E06670EC6C002CE0D170BDBE
:106310000064FF3F0F4B13B51A6E0821586EFEF74D
:10632000D1FF0D4C606590B10C4BA3654FF0FF336E
:1063300000226946606DFFF74BF80028F6D19DE812
:106340000300FEF758FA0198009B9847EEE702B069
:1063500010BD00BF10F310000064FF3FC1621000C9
:10636000FEE700F069BC00F0E3BC00F063B8FEE7B4
:1063700001F016B801F02CB800F0F2BEFEE7FEE71F
:10638000FEE7FEE7FEE7431C10B5044605D00021FA
:1063900000F096FE0120A04010BD002010BD0000BE
:1063A00038B505460F4B0C46036029710846FFF7C8
:1063B000EAFF0D4BA8601A69A10022F480521A610D
:1063C0001A6901F1804122F080521A6101F5E03131
:1063D0000A78012060F384020A701A6942F0805240
:1063E0001A6138BD00C0004000B0014090F90400BF
:1063F00000F078BE074A136923F48053136119B97A
:1064000003688268DA607047012902BF0368826806
:106410009A60704700B00140054A136923F4805325
:1064200013610368826809B11A6070475A60704747
:1064300000B001402DE9F0472C4ADFF8C080136915
:106440002B4E23F48053136100231C46D8F80420FC
:10645000002A46D0D8F804700A220121D8F8040096
:1064600001FA02F5054224D00A3A072A25D8DFE8C6
:1064700002F0042424243A06080A00241DE0022421
:106480001BE0032419E01B4DDFF86C9005F1200A96
:10649000002355F8040F48B1D9F80030012198477E
:1064A000D9F8003002212868984701235545F0D1DA
:1064B00002E00132122AD1D16BB956F8240060B142
:1064C0000D4D01212B6898472B68022156F82400B6
:1064D0009847002302E0012300E00346C8F830702B
:1064E000B4E7BDE8F0870124E7E700BF00B0014052
:1064F0004094FF3F4C94FF3F8894FF3F00C0004012
:1065000010B54C1C02D14FF0FF3010BD01248C405F
:1065100001600A394460072932D8DFE801F004310C
:106520003131070A0D1023490B6029E021494B60E6
:1065300026E020498B6023E01E49CB6020E01D4906
:106540000C690CB90B611BE04C690CB94B6117E08D
:106550008C690CB98B6113E0CC690CB9CB610FE08D
:106560000C6A0CB90B620BE04C6A0CB94B6207E089
:106570008C6A0CB98B6203E0CC6A002CC3D1CB626D
:106580000D490B6923F480530B6141680B4B836009
:10659000D9601963996119621961094B00201A6069
:1065A000084B202283F806234022C3F880211A607A
:1065B00010BD00BF4094FF3F00B0014000C000404C
:1065C0008894FF3F00E100E0064A0021136923F4AC
:1065D00080531361836842685A610268024B43F832
:1065E0002210704700B001404094FF3F82B000236A
:1065F00001930190019B23B100BF019B013B0193DB
:10660000F8E702B070470000F8B50646174C0025C1
:106610001227954228D2A760C820FFF7E7FF4B5DFD
:10662000132B0AD110231120A360A360A360A060E4
:10663000A360A360A060A06001E00135A360C82052
:10664000FFF7D4FF1623C820A360FFF7CFFF306801
:106650000368DB06FCD4C820FFF7C8FF33681B685B
:106660005B07D6D50220F8BD0020F8BD00700040C1
:1066700000F028B900F0C6B900F0D7B900F0E3B9CE
:106680002DE9F3410646019117461C46FFF7F4FF3A
:10669000019B02A943F0010341F8043D012206F1E8
:1066A0000C00FFF7B1FF054628BB01467A1E1A4FC2
:1066B0004FF013088C421DD9C7F80880C820FFF797
:1066C00095FFF3681868800703D418684007F9D568
:1066D00002257B6801318C4202F8013F84BF102300
:1066E000BB60F3681868000611D41B685B07E1D52E
:1066F000022500E025B13046FFF7C0FF284608E03C
:10670000089B13B13046FFF7B9FF204601E003258F
:10671000F1E702B0BDE8F081007000402DE9F341DF
:10672000054602AE46F8041D05F10C0790461C46CE
:10673000FFF7A2FF314601223846FFF765FF064604
:1067400030B9224641463846FFF75EFF064620B183
:106750002846FFF793FF304605E0089B13B1284613
:10676000FFF78CFF204602B0BDE8F0817FB5002422
:106770004E4BADF800408DF802401A694C4922F4A6
:1067800080521A618A68204642F00C028A601A69B7
:106790002F2122F080521A61464A20269160D16052
:1067A0001A69052122F480321A61434A0325916057
:1067B000D1601A69414942F480321A611A6922F0A3
:1067C00080021A61A3F5A0331A7C42F080021A7489
:1067D0001A7C42F040021A741A7C42F020021A74A9
:1067E00000F010F9072320468DF801308DF8006085
:1067F0008DF80240FFF740FF032269460C20FFF7A7
:1068000003FF2046FFF73AFF20468DF800608DF821
:1068100001508DF80240FFF72FFF2A4669460C20F1
:10682000FFF7F2FE2046FFF729FF4FF6FF70FFF754
:10683000DDFE8DF800602046FF268DF801508DF8B2
:106840000260FFF719FF2A4669460C20FFF7DCFEBD
:106850002046FFF713FF1A4A01AB516810688DF804
:10686000016003C31189927A19809A7006238DF80A
:1068700000308DF802600020FFF7FEFE01AB191911
:1068800001220C20FFF7C0FE032269460C20FFF70F
:10689000BBFE0020FFF7F2FE01344FF6FF70FFF75A
:1068A000A5FE0C2CE7D104B070BD00BF00B00140C4
:1068B00000C0004000C001400000014040420F0005
:1068C000DCF31000F8B50D46044645492846164647
:1068D000FDF7BAFC434907463046FDF7B5FC0146D3
:1068E0003846FDF793FCE060013004D149223E496F
:1068F0003E48FDF787FDE3680022DA60E2683C4B22
:106900009A423C4A3C4B11690BBF21F0800121F4B3
:106910000051116111610CBF20224FF48022C3F895
:1069200080211A60E268137C43F040031374E2682C
:10693000137C43F02003137400F07EFB2F4BE268BE
:10694000B0FBF3F0137C8008023860F30403137487
:10695000E368C0F34710586121492846FDF738FC29
:1069600030462049FDF734FC2846052100F0BAFBEB
:106970003046052100F0B6FB1E4BA8001A6900F155
:10698000804022F080521A6100F5E0300778012241
:10699000B10062F3840701F18041077001F5E03135
:1069A000087802FA05F562F3840008701969144842
:1069B00041F080511961196902FA06F621F48051FB
:1069C000196181682E430E4386601A6942F4805231
:1069D0001A61E268137C43F080031374F8BD00BFB2
:1069E000F8F4100070F51000E7F3100033F4100015
:1069F0000070004000B0014000E100E0A08601000E
:106A000000C0004038B505460C4600F015FBB0FB51
:106A1000F4F0EA688008137C023860F3040313740E
:106A2000EB68C0F34710586138BD10B50446C26822
:106A30001368DB07FCD5012001F050FDE368152247
:106A40009A60002010BD10B50446C2681368DB07C9
:106A5000FCD5012001F042FDE36814229A601B6816
:106A600013F0340F14BF6FF00100002010BD00F0D0
:106A700091BB08B500F0E0FB08BD00F00FBC00F0D2
:106A8000C5BB00F0CFBB00002DE9F74F8A46064694
:106A90005F49504691461C469DF93080FDF7D4FB76
:106AA0005C4905464846FDF7CFFB5B49019020460F
:106AB000FDF7CAFB594907464046FDF7C5FB019B58
:106AC000834619462846FDF7A1FB59460546384638
:106AD000FDF79CFB01462846FDF798FB306001302E
:106AE00004D143224E494F48FDF78CFC4E4D32688D
:106AF0004E4B20469A422B6947490CBF23F0400376
:106B000023F400732B612B69012723F480332B615D
:106B1000FDF75EFB3E495046FDF75AFB2B6907FA2D
:106B200004F023F480532B61414B07FA08F2996873
:106B3000024307FA0AF002430A439A60DA6807FA46
:106B400009F10A43DA602B69204623F08053A40040
:106B50002B61002104F1804400F0C4FA04F5E03414
:106B60000221504600F0BEFA2378B9F1FF3F67F3E7
:106B700084032370237967F3840323710BD02549A1
:106B80004846FDF725FB0521484600F0ABFA237A7D
:106B900067F384032372B8F1FF3F11D01F494046C9
:106BA000FDF716FB0221404600F09CFA237B0122F0
:106BB00062F384031D4A2373137D6FF3030313757C
:106BC000194B00241A6942F080521A611A6942F482
:106BD00080521A611A6942F480321A613368DC60AB
:106BE00000F02AFA134B0122B0FBF3F0336840089F
:106BF000013898609A62DA62FF22DC615A621022E0
:106C00005A61336825229C61DA6003B0BDE8F08FD9
:106C1000E8F5100098F41000C8F4100018F6100001
:106C20004BF4100033F4100000B00140006000404D
:106C300000C0004040420F0000224FF08043DA6065
:106C4000024A136801331360704700BF8C94FF3F02
:106C5000164BD4211A6922F001021A611A6922F036
:106C600002021A614FF6FF724FF080431A6099607A
:106C700003F580531A6054229A600D4B0D499A68AF
:106C800011649B680C4A02215A640C4B102283F851
:106C90000023202283F801230122C3F88021C3F8B6
:106CA00080111A601960064B1A60704700B00140ED
:106CB00000ED00E0396C1000316D100000E100E0E3
:106CC0009494FF3F024B1B680BB9FFF7C1BF70479D
:106CD0009494FF3F08B5134B1B680BB9FFF7B8FF3F
:106CE00011494FF0804201205368C1F88000BFF382
:106CF0004F8FBFF36F8F916811F4807F18BF00230F
:106D00000A491FBFD3600B6801330B6018BF53687B
:106D10000868054AC3F57F43FF330121116043EA48
:106D2000004008BD9494FF3F00E100E08C94FF3FD9
:106D300070B5104C0026104BE6601D68FFF7CAFFC7
:106D4000281AB04207DC238966F3C7132381BDE804
:106D50007040FDF751BB4FF6FF739842A8BF18462D
:106D6000238966F3C71323812060238943F08003BE
:106D7000238170BD001000409094FF3F024B1A89A0
:106D80006FF3C7121A81704700100040014B0022B8
:106D9000DA607047001000400E4B10B504461860D2
:106DA000FFF798FF201A002804DC0B4B0222C3F8DF
:106DB000002110BD4FF6FF74A042A8BF2046074B2C
:106DC0001A896FF3C7121A8118601A8942F080027B
:106DD0001A8110BD9094FF3F00E100E000100040D8
:106DE0004FF4FD53DA6D013200F092805A6801329F
:106DF0001EBF5968484A51629B6801331FBF4FF458
:106E0000FD539A68444B1A624FF4FD53DA68120C32
:106E1000120412F5803F1EBFD968404AD1621B6937
:106E20001B0C1B0413F5803F1FBF4FF4FD531A6961
:106E30003A4B9A62384B4FF4FD52506BB3F88C10BA
:106E400060F30B21A3F88C10936B1B0C1B0413F540
:106E5000803F18BF916B324B18BF5961D16B1961DC
:106E6000116CD960526C120C120412F5803F07D0DD
:106E70004FF4FD52506C2B4A118960F30D211181A2
:106E80004FF4FD52916C9960D16C1960106D2649D8
:106E90000860116AD961516A996191695962D26930
:106EA0001A624FF420521168013107D05168013144
:106EB00004D010681849486252680A624FF42052A0
:106EC000916801311FBF92681449C2F30B02CA6274
:106ED0004FF42052916801311FBF92680F49C2F3ED
:106EE0000B02CA624FF420521169013105D01069BA
:106EF0000C4A118960F30D2111814FF42052516920
:106F0000013107D051699A8A61F303029A8201E044
:106F100000207047012070470040014000B0014050
:106F2000809001400041014000100140284B82B098
:106F30001A7842F001021A705A68D007FCD5254B26
:106F40001A886FF345121A8000238DF807309DF8D8
:106F50000730092B04D89DF807300133DBB2F4E782
:106F60001B4B1A7842F008021A705A689106FCD539
:106F70005A68D206FCD4174B1A8842F020021A80B5
:106F80001A886FF304121A8000238DF807309DF8D9
:106F90000730092B04D89DF807300133DBB2F4E742
:106FA0000B4B1A7842F004021A705A681007FCD58D
:106FB0005968074A4907FBD406490B8843F0080380
:106FC0000B804FF0FF3313610023536102B0704711
:106FD00000B0014000D00140144A136923F000536F
:106FE0001361134B196921F010011961196921F01E
:106FF000020119610F4BA02159614FF4C871D9608A
:1070000019886FF34101198019886FF38201198083
:10701000198841F080011980198841F040011980D8
:10702000136943F000531361704700BF00B0014083
:1070300000ED00E000D00140004870470048E80142
:1070400038B51C4C1C4D1F23C4F88030C4F8803167
:107050004FF020636B60194BAB60FFF7C1FEFFF789
:1070600065FFFFF7B9FF2023EB77D02285F82230A8
:1070700085F82330E02384F8033384F8043384F85C
:10708000053384F8063384F8073384F8092384F839
:107090000A2384F80B3384F80C3384F80D3384F816
:1070A0000F3384F80E3384F8103384F8113384F8E6
:1070B000123338BD00E100E000ED00E000201000D8
:1070C000074B80001A6900F1804022F4803200F5FD
:1070D00080301A6101601A6942F480321A61704787
:1070E00000B001401D4A8000136900F1804023F088
:1070F000805300F5E0301361052929D8DFE801F05D
:1071000003070B0F172003786FF345130AE003788A
:107110006FF345130EE003786FF3451313E0037824
:1071200043F02003037003786FF301030FE003784B
:1071300043F0200303700378012262F3010306E0A9
:10714000037843F020030370037843F003030370D4
:10715000024A136943F080531361704700B0014045
:107160000A498020C1F88000BFF34F8FBFF36F8FB3
:10717000074B03229A611A6922F00C021A61086017
:107180005A6912F4E06FFBD1FDF71CB800E100E092
:1071900000F0004030B5174B17491A69002422F45B
:1071A00000421A611A78002542F010021A70A3F505
:1071B000404300221A615A601A60DA609A60C1E99D
:1071C00000455A6103229A6159690C4AC905FBD4EA
:1071D00013690B4943F0030313610A4B9B68D9659C
:1071E000094B8021C3F8801119605369DB05FCD479
:1071F00030BD00BF00B001409894FF3F00F0004058
:107200006171100000ED00E000E100E0044B80221D
:10721000C3F88020BFF34F8FBFF36F8F704700BF5D
:1072200000E100E0034B03229A615A6912F4C06F37
:10723000FBD1704700F0004070B5134B5C681A68D2
:107240005968013A8C42C2F30E02F7D10F4DA2FBEE
:107250000523D00B40EA4340D90BE5FB04010D4662
:1072600004460B4BD3E900018D4208BF84421E4601
:1072700004D2EE2207490848FDF7C4F8C6E90045E4
:107280002046294670BD00BF00F0004040420F007C
:107290009894FF3F9CF61000DFF61000F8B5064604
:1072A000FFF7CAFF331A002B2B4F03DC8023C7F8EC
:1072B0000031F8BDB04234464FF0000502D9341C0D
:1072C00045F10105254A00232046294601F0D0FF5B
:1072D0008023C7F88030BFF34F8FBFF36F8F204EEE
:1072E0007368984207D0F060336923F0040343F0D9
:1072F0000803336127E00025E9030023174AE00370
:1073000041EA544101F0B4FF3368C0F30E009BB270
:1073100083420BD002D2C21A042A07DD83420AD963
:107320001B1AC3F5FF437F33042B04DC0A4B802276
:10733000C3F8002107E00A4A9060136923F00803AC
:1073400043F004031361044B80221A60044A53691A
:1073500013F4E07FFBD1F8BD00E100E040420F00F4
:1073600000F000400C4B70B5064653F821000D4666
:107370001C4678B1720603D5084B01211B6898475B
:10738000F30707D5054B54F825001B680021BDE81D
:107390007040184770BD00BFA094FF3FA894FF3F06
:1073A00010B40A494A694B68D4B213F002004B6822
:1073B0001CBF02F04000C0B2DB0744BF02F0010274
:1073C00010432040002110BCFFF7CCBF005000400C
:1073D00010B40A494A694B68D4B213F002004B68F2
:1073E0001CBF02F04000C0B2DB0744BF02F0010244
:1073F00010432040012110BCFFF7B4BF00800040C3
:107400002DE9F04188460446564940461546FCF7AA
:107410001BFF554906462846FCF716FF0146304635
:10742000FCF7F4FE2060013004D150224F4950484F
:10743000FCF7E8FF4B494046FCF7CAFE4A4928469C
:10744000FCF7C6FE22684B4B9A4208D14A4B0122F8
:107450001A6020686168494B03C3A0681860454BF7
:107460002268474E9A4203F5983305D11A6922F4EF
:1074700080721A610D2307E042498A4206D11A69D7
:1074800022F020021A610323337004E06F2237498F
:107490003D48FCF7B7FF3D4B4FEA88011A6901F1FF
:1074A000804122F480521A611A69072022F4803246
:1074B0001A611A6922F080521A6101F58032106057
:1074C000AA0002F1804202F5803701F5E031386010
:1074D00002F5E03208602721116001272C4907FAE4
:1074E00008F207FA05F58A60CD601A6942F0805209
:1074F0001A611A6942F480321A611A6942F48052A0
:107500001A61FFF799FD4FF41653B0FBF3F02368AF
:1075100000098022DA60C2B21A60C0F30720032299
:107520005860DA608F229A609A69DA61114A934250
:1075300007D1114B61681F602068104B03C3A0681E
:107540001860327853B2002B09DB012102F01F02D0
:1075500001FA02F25B090F49603341F82320BDE8CC
:10756000F08100BFC4F510004CF51000FEF61000CD
:1075700048F7100000800040B094FF3F94A8FF3F00
:10758000AC94FF3F005000406EF7100000B0014087
:1075900000C0004000E100E038B505460C46FFF7AA
:1075A0004BFDB0FBF4F02B6800091A7B42F080021F
:1075B0001A73C2B2C0F307201A6058601A7B6FF3C7
:1075C000C7121A7338BD0000034B19608168034B62
:1075D00043F82120704700BFA894FF3FA094FF3FCD
:1075E00003685A69D207FCD51868C0B270470368AF
:1075F0005A699206FCD5196070470000064A136963
:1076000023F004031361054B1A886FF300021A80FC
:10761000BFF36F8F30BF704700ED00E000D0014036
:10762000FFF7ECBF10B49DF90440019410BCFFF7C4
:107630002BBA000070B5164602680546137B0C464F
:107640006FF300031373A1F10802182A05D8214B28
:10765000D340DB0701D5032E04D95E221E491F4803
:10766000FCF7D0FE102C05D0202C05D0082C08BF2C
:10767000002402E0012400E002242A68137B64F362
:10768000871313732A68137B43F020031373721E4E
:10769000022A86BF00221046114B29689EBF9856C9
:1076A000104B9A560B7B60F304130B7329680B7B0A
:1076B00062F3C3030B732A68137B43F00403137351
:1076C0002B681A7B42F002021A731A7B42F0010205
:1076D0001A7370BD0101000174F71000BBF71000B0
:1076E00026F8100029F8100038B50D460468FFF799
:1076F000A3FC054B29469D42A8BF1946B0FBF1F0FB
:1077000041080139A16038BD00093D0003681A69CC
:107710005007FCD519601A69D107FCD41A69920682
:10772000FCD4586870472DE9F047089F804697427F
:107730003D46894616469A46B8BF15460024AC42D7
:107740000DDAB442B4BF19F80410FF214046FFF728
:10775000DDFFBC42B8BF0AF804000134EFE7284659
:10776000BDE8F087024A034B1A60FFF769BC00BF0F
:107770000048E801B064FF3FF8B5054604460E46F0
:107780001746094B142245F8043B0021284602F015
:10779000D9FC064B2846A3613A463146FEF768FFFE
:1077A000034B20461C60F8BD34F81000A086010091
:1077B000B494FF3F70B504460D4603681B689847B4
:1077C000201DA5612946FEF755FF044B20461C608D
:1077D0002368BDE870405B68184700BFB494FF3F62
:1077E00070B504460368084D1B6898472B689C4297
:1077F00004D0A169201DFEF73DFF2C6023682046C0
:10780000BDE870405B681847B494FF3FF7B5044685
:107810000E4617461D4603681B6898472046FFF72B
:10782000DFFF9DF82030314683F0010300933A4694
:107830002B46201DFEF772FF236806465B68204634
:107840009847A81B18BF012003B0F0BDF7B5044648
:107850000E4617461D4603681B6898472046FFF7EB
:10786000BFFF9DF82030314683F0010300933A4674
:107870002B46201DFEF704FF236806465B68204662
:107880009847A81B18BF012003B0F0BD70B504468F
:1078900054F8043B05467BB90C4E4FF0FF3130687D
:1078A000FDF7B2FF2B6823B914B1204600F01EFF8C
:1078B0002C603068FDF7C6FF2B68A34204D05B2222
:1078C00003490448FCF79EFD286870BD0898FF3FF7
:1078D00044F8100073F8100008B50448FFF7D6FF0D
:1078E000BDE808404FF0FF3100F007BFB894FF3FFC
:1078F00008B50348FFF7CAFFBDE8084000F000BF25
:10790000B894FF3F7047000010B50446074B40F89D
:10791000103BFEF759FE04F12C00FAF79BFE04F130
:107920001C00FAF797FE204610BD00BF90F810002B
:1079300010B50446FFF7E8FF204600F015FD20468D
:1079400010BD0000F0B504460D46174B85B003602E
:10795000164F0023164E43600372C36003614361F8
:1079600083618362836369461C3000970396FBF74B
:1079700025FF6846FAF76EFE694604F12C00009771
:107980000396FBF71BFF6846FAF764FE2346094A95
:10799000294604F11000FEF7B3FD201D2946FCF72F
:1079A000E6FB204605B0F0BD90F810000579100008
:1079B00074EC1000E1791000C36810B504462BB9CF
:1079C00040F20E2204490548FCF71CFDE3682046FE
:1079D000BDE810401B68184798F81000C3F8100065
:1079E000012908B502D0022902D008BD1C3000E0F0
:1079F0002C30FFF7E1FF08BD03681B6918470368D7
:107A00009B69184703689B6A18474FF0FF3070471F
:107A100011207047704700F051B8A0F13400FFF713
:107A2000FABF00F04EB8A0F13400FFF7FABF4FF0F4
:107A3000FF314C3000F061BEA0F13400FFF7F7BF1A
:107A40004C3000F05DBEA0F13400FFF7F9BF00003C
:107A500010B5044600F03CF8002104F1340000F0B9
:107A6000BFFD074B04F14C0003F10802226003F153
:107A7000280284336263A36300F038FE204610BD01
:107A8000C8F810007047704770B50C010319DB6926
:107A90004D1C064600EB05152BB940F20E22054998
:107AA0000548FCF7AFFC3444E3692846BDE8704064
:107AB0001B68184798F81000C3F810000430FFF74F
:107AC0008FBD10B50C460430FFF791FD204610BD68
:107AD0002DE9F0430546044688469146184A85B08C
