:020000040010EA
:10200000000000407D81100069811000115D10000A
:102010006D8110006F8110007181100000000000C0
:10202000000000000000000000000000D980100047
:1020300075811000000000004181100051811000E6
:10204000135D1000175D10007B811000215D1000F2
:102050001F5D10002D5D10001B5D1000295D10003C
:102060007B8110007B8110007B811000355D1000AA
:102070007B811000255D1000335D10007B81100016
:102080007B811000315D10002F5D10007B811000FE
:10209000044B05481B1A062B02D9044B03B1184701
:1020A000704700BFA365FF3FA065FF3F0000000031
:1020B00005490648091A891001EBD171491002D06F
:1020C000034B03B118477047A065FF3FA065FF3F72
:1020D0000000000010B5064C237843B9FFF7D8FF85
:1020E000044B13B10448AFF300800123237010BDEB
:1020F000A065FF3F0000000098F9100008B5084BEC
:102100001BB108490848AFF300800848036813B9B9
:10211000BDE80840CCE7064B002BF9D09847F7E71D
:1021200000000000A465FF3F98F91000A065FF3F84
:10213000000000000368184708B10B68036070478F
:102140007047000038B5064D002404F5B4702844EB
:10215000183C06F053F814F5C07FF6D138BD00BF27
:102160001468FF3F024A136801331360704700BFD1
:10217000446DFF3F10B50446034B40F8043B01F0AB
:10218000FDF9204610BD00BFB0E5100010B50446B3
:10219000FFF7F0FF204605F0C7FD204610BD10B543
:1021A0000446403001F0EAF9204610BD00F1080372
:1021B00073B5044603600D4681B1084608F0D7FFA9
:1021C0000F2805EB000601900BD9002201A920463B
:1021D00005F0F8FF019B2060A36002E0074805F0CE
:1021E000E7FF32462946206806F019F82046019B91
:1021F000226800216360D15402B070BDC4E51000B4
:1022000008B5044800F0A0FABDE80840024800F014
:102210005FBC00BF486DFF3F986AFF3F30B538494B
:102220008FB009F0E5FD374D002460B1B4F5967F1D
:1022300009D00146281908F092FF3149002009F021
:10224000D7FD1E34F1E730492E4808F07EFF002804
:1022500052D101231A462B492C4801F001FB2C498D
:102260002C4808F072FF044608B9012206E02A490A
:10227000284808F06AFF044610B90246022121E00E
:102280002649244808F061FF044610B9012211468E
:1022900018E023491F4808F058FF044610B90246C9
:1022A00001210FE01F491B4808F04FFF044608B901
:1022B000012206E01C49174808F047FF044628B9E8
:1022C00002466321194800F06DFA16E018490D48DE
:1022D00008F03BFF044680B116490A4808F035FF74
:1022E000044650B1144901A808F039FF01A90F486C
:1022F00000F046FA012400E0002420460FB030BD73
:10230000EEE51000BC65FF3FF0E510009469FF3F6B
:10231000F5E51000DA65FF3FFBE5100002E610006E
:1023200009E6100011E6100017E61000486DFF3FA7
:102330001EE6100023E610002AE6100008B590E81B
:102340000600044801F0F8FA034B1860143818BF6F
:10235000012008BDD86BFF3F1072FF3F08B5084849
:1023600001F03EFB58B114220649054801F05AFB22
:10237000054B04491860054808F0F1FE012008BD2E
:10238000D86BFF3F7C6CFF3F1072FF3FDD6CFF3F5F
:1023900010B594B0684600F0BDFF214B197849B1E3
:1023A00000216846197000F0CFFF0121684600F057
:1023B000E9FF08E0012468461C7000F0E3FF2146B5
:1023C000684600F0C1FFFFF7C9FF0128044625D188
:1023D000144801F079F9144907A808F0C0FE234613
:1023E000022207A90F4801F03BFA07A901A8FFF74D
:1023F000DDFE01A8FFF7A2FF01A805F0FFFE07A977
:102400000A4800F0BDF907A8FFF708FF0648642254
:10241000202114B0BDE8104007F070BB14B010BD0F
:10242000DC6CFF3F9469FF3FDD6CFF3F486DFF3F71
:10243000C36810B504460BB19B689847204610BD91
:1024400038B505460446064B45F8283B05F05AF9D1
:102450002846FFF7EDFF204605F0A0F9204638BDDD
:1024600020F2100010B50446FFF7EAFF204605F001
:102470005BFC204610BD38B5CB6804460D460BB159
:102480005B689847EB682046E36038BD2DE97F43E1
:10249000154606466846FFF7EEFF1049284606F047
:1024A00051FA6C4606F0DCFB06F12805A542804691
:1024B000894607D02846FFF7BBFF1DB1694628466D
:1024C000FFF7D9FF42464B46304605F003F9204658
:1024D000FFF7AEFF04B0BDE8708300BF002474496D
:1024E0001FB5144801F040F9FFF78AFE1249114860
:1024F00001F0D0F94FF0804005F0E8FC0D4801F004
:10250000E3F80E4C0E4B0F4A69460F4800930394B4
:10251000FFF7BCFF6846FFF78BFF0C4B0C484FF0F2
:102520007E52694600930394FFF7B0FF6846FFF7B9
:102530007FFFFEE79469FF3F35E61000B8E5100025
:10254000912310009A99993E686BFF3F6521100016
:10255000606AFF3F73B550495048FFF727FE504A65
:1025600050494E4805F0ABFB4F4B002203F5C070BD
:10257000194643F8042C43F8083C01F8182B19615C
:102580005A611A76303383424FF00004F0D1444A46
:102590004649204605F093FB3F494548FFF706FEB4
:1025A0003F4A4049424805F08AFB3B494148FFF712
:1025B000FDFD3B4A3B493F4805F081FB36493E481B
:1025C000FFF7F4FD364A37493B483C4D05F077FBB1
:1025D0003B4805F06BFD4FF0FF36314A394938482A
:1025E00005F06DFB0096042306220521284604F021
:1025F000B5FFEC6285F830406C63314605F12C0084
:1026000001F0B4FA202300960222032105F14000D4
:1026100000F0F0FE224A2C49284605F050FB2B48DA
:1026200000F02AF91E4A2A49284805F048FB294D9E
:10263000294800F069FA294E194A2949264805F027
:102640003EFB284605F082F82E606C632846254D37
:10265000134A254905F033FB284605F077F82E602C
:102660006C632846214D0E4A1F4905F028FB284679
:1026700005F06CF80A4A1C496C6328462E6005F088
:102680001EFB1B4801F020F9054A1A49184802B000
:10269000BDE8704005F013BB7DF41000306AFF3FC9
:1026A000A040FF3F298210001C68FF3F4521100019
:1026B000646CFF3F486AFF3FC46CFF3F9469FF3F73
:1026C000946CFF3FC78010009F211000486DFF3FB2
:1026D000F9261000686BFF3F986AFF3F20F2100058
:1026E000812A1000606AFF3F41241000A06BFF3F69
:1026F000D86BFF3F752110007047000038B5064DBC
:10270000002404F5B4702844183C05F077FD14F556
:10271000C07FF6D138BD00BFB072FF3F10B5044690
:1027200005F002FB204610BD10B50446054A0830EE
:102730002060114605F073FD22680023636013706A
:10274000204610BD7DF4100038B505460B4C01F055
:1027500089FB0121204603F025FB01F0AFFB01F0CE
:1027600081FB0221204603F019FB01F0A7FB0121A8
:10277000204603F029FB00232B7138BDC074FF3FB6
:1027800038B50C46451D2946204608F0DEFC40B110
:102790002146284608F0E3FC2046BDE8384000F01A
:1027A000BBBC38BD10B502299AB016D152B122492E
:1027B00001A808F0D4FC01A800F0AEFC1F4B204893
:1027C000196832E01F4901A808F0C9FC01A800F00F
:1027D000A3FC1D4B1D48196827E001290DD11C4C95
:1027E0000AB11C4900E01C4901A808F0B8FC01A886
:1027F00000F092FC2168194817E063291AD152B100
:10280000174901A808F0ABFC01A800F085FC154BA6
:102810001548196809E0154901A808F0A0FC01A8AD
:1028200000F07AFC124B1348196800F083FCC820B2
:1028300005F058FB1AB010BD62E61000A440FF3F3F
:102840006852FF3F7AE610006452FF3FA840FF3F06
:102850005C52FF3F93E61000A7E610003052FF3FA6
:10286000BCE610009452FF3FD440FF3FD8E6100072
:102870006052FF3F9852FF3F024A02600022C0F8B8
:102880003421704744E6100073B53548FFF74CFF1C
:10289000344A3549324805F012FA344B002203F528
:1028A000C070194643F8042C43F8083C01F8182B73
:1028B00019615A611A76303383424FF00004F0D127
:1028C000284A2B49204605F0FAF92A48FFF72CFF41
:1028D000244A2549274805F0F2F92748FFF724FF45
:1028E000204A2149244805F0EAF92448FFF71CFF53
:1028F0001C4A1D492148224D05F0E1F9214805F007
:10290000D5FB4FF0FF36174A1F491E4805F0D7F98F
:102910000423062200960521284604F01FFE3146B6
:1029200005F12C00EC6285F830406C6301F01EF973
:10293000202300960222032105F1400000F05AFDF9
:10294000084A1249284605F0BAF911480C210460DA
:102950000471846002B0BDE8704001F0E0B800BFCF
:102960003074FF3FA040FF3F29821000B872FF3F44
:10297000FD2610006074FF3F4874FF3FA874FF3FBE
:102980001472FF3F7874FF3FC78010009F21100032
:10299000C074FF3F38B5064D002404F5B4702844D8
:1029A000183C05F02BFC14F5C07FF6D138BD00BFF4
:1029B000CC74FF3F10B50446054A0830206011462C
:1029C00005F02DFC2268002363601370204610BDC3
:1029D0007DF4100008B52048FFF7ECFF1F4A20499E
:1029E0001D4805F06CF91F4B002203F5C070194615
:1029F00043F8042C43F8083C01F8182B19615A617C
:102A00001A7630338342F2D1144A1749002005F078
:102A100056F91648FFF7CEFF104A1149134805F042
:102A20004EF91348FFF7C6FF0C4A0D49104805F050
:102A300046F91048FFF7BEFF084A09490D4805F05E
:102A40003EF90D4805F032FBBDE80840034A0B494A
:102A5000094805F034B900BF4C76FF3FA040FF3F66
:102A600029821000D474FF3F952910007C76FF3F27
:102A70006476FF3FC476FF3F9476FF3FC780100027
:102A80007047000038B5064D002404F5B4702844A2
:102A9000183C05F0B3FB14F5C07FF6D138BD00BF7C
:102AA000DC76FF3F10B5044605F03EF9204610BD28
:102AB00010B50446054A08302060114605F0AFFB0A
:102AC0002268002363601370204610BD7DF410005F
:102AD00038B505460B4C01F0C5F90121204603F03D
:102AE00061F901F0EBF901F0BDF90221204603F094
:102AF00055F901F0E3F90121204603F065F90023BF
:102B00002B7138BDA478FF3F014B0360704700BFB5
:102B100000E7100010B52448FFF7CAFF234A2449F4
:102B2000214805F0CCF8234B002203F5C07019466C
:102B300043F8042C43F8083C01F8182B19615A613A
:102B40001A76303383424FF00004F0D1174A1A4905
:102B5000204605F0B4F81948FFF7AAFF134A1449B4
:102B6000164805F0ACF81648FFF7A2FF0F4A1049C7
:102B7000134805F0A4F81348FFF79AFF0B4A0C49D5
:102B8000104805F09CF8104805F090FA0F49074AE4
:102B90000D4805F094F80E4810210460047184601B
:102BA000BDE8104000F0BBBF5C78FF3FA040FF3F96
:102BB00029821000E476FF3F852A10008C78FF3FC1
:102BC0007478FF3FE078FF3FB078FF3FC780100088
:102BD000A478FF3F38B5064D002404F5B4702844AE
:102BE000183C05F00BFB14F5C07FF6D138BD00BFD3
:102BF000F878FF3F10B50446054A083020601146BA
:102C000005F00DFB2268002363601370204610BDA1
:102C10007DF4100008B52048FFF7ECFF1F4A20495B
:102C20001D4805F04CF81F4B002203F5C0701946F3
:102C300043F8042C43F8083C01F8182B19615A6139
:102C40001A7630338342F2D1144A1749002005F036
:102C500036F81648FFF7CEFF104A1149134805F021
:102C60002EF81348FFF7C6FF0C4A0D49104805F02F
:102C700026F81048FFF7BEFF084A09490D4805F03D
:102C80001EF80D4805F012FABDE80840034A0B494A
:102C9000094805F014B800BF787AFF3FA040FF3F15
:102CA000298210000079FF3FD52B1000A87AFF3F42
:102CB000907AFF3FF07AFF3FC07AFF3FC780100055
:102CC00038B5064D002404F5B4702844183C05F0CE
:102CD00095FA14F5C07FF6D138BD00BF087BFF3FE1
:102CE00000F1080373B5044603600D4681B1084640
:102CF00008F03DFA0F2805EB000601900BD90022E1
:102D000001A9204605F05EFA019B2060A36002E065
:102D1000074805F04DFA32462946206805F07FFA4B
:102D20002046019B226800216360D15402B070BD2F
:102D3000C4E5100073B54C494C48FFF7D1FF4C4A2D
:102D40004C494A4804F0BBFF4B4B002203F5C070CE
:102D5000194643F8042C43F8083C01F8182B196174
:102D60005A611A76303383424FF00004F0D1404A62
:102D70004249204604F0A3FF3B494148FFF7B0FF1A
:102D80003B4A3C493E4804F09AFF37493D48FFF72B
:102D9000A7FF374A37493B4804F091FF32493A4888
:102DA000FFF79EFF324A33493748384D04F087FF1A
:102DB000374805F07BF94FF0FF362D4A3549344846
:102DC00004F07DFF0096042306220521284604F026
:102DD000C5FBEC6285F830406C63314605F12C0090
:102DE00000F0C4FE202300960222032105F14000DA
:102DF00000F000FB1E4A2849284604F060FF2748DF
:102E0000FFF73AFD1A4A2649244804F058FF254D99
:102E10002548FFF779FE254E154A2549224804F03A
:102E20004EFF284604F092FC2E606C632846214D2C
:102E30000F4A214904F043FF284604F087FC2E6026
:102E40006C6328461D4D0A4A1B4904F038FF28468A
:102E500004F07CFC2846064A17492E606C6302B0D9
:102E6000BDE8704004F02BBF7DF41000247DFF3FCF
:102E7000A040FF3F29821000107BFF3FC12C1000B3
:102E8000987EFF3F3C7DFF3F187FFF3F887CFF3FE0
:102E9000E87EFF3FC78010009F211000307FFF3F7A
:102EA000F9261000B07EFF3F907DFF3F20F210001A
:102EB000812A1000587DFF3F41241000607EFF3FB3
:102EC00038B5064D002404F5B4702844183C05F0CC
:102ED00095F914F5C07FF6D138BD00BFF883FF3FE8
:102EE00010B50446054A08302060114605F097F9F0
:102EF0002268002363601370204610BD7DF410002B
:102F000070B50546074B064645F8103B45B100F144
:102F10003004AC4204D0103C2046FFF789FAF8E7B1
:102F2000304670BDE8F1100010B50446FFF7E8FF29
:102F3000204604F0F9FE204610BD000010B50446FE
:102F40000A4B4C3003F1200240F84C3C7C3340F8F3
:102F5000182C40F8143C05F0B6F804F1340005F0E4
:102F600047F82046FFF7CCFF204610BD5CF110006B
:102F7000A0F13400E2E7A0F13800DFE710B5044625
:102F8000FFF7DCFF204604F0CFFE204610BDA0F185
:102F90003400F3E7A0F13800F0E7000073B53D48D6
:102FA000FFF79EFF3C4A3D493A4804F088FE3C4BFF
:102FB000002203F5C070194643F8042C43F8083C7E
:102FC00001F8182B19615A611A76303383424FF099
:102FD0000005F0D1304A3349284604F070FE3248EB
:102FE000FFF77EFF2C4A2D492F4804F068FE2F483A
:102FF000FFF776FF284A29492C4804F060FE2C4848
:10300000FFF76EFF244A2549294804F058FE294C51
:10301000294805F04BF8204A2849274804F04FFE7C
:10302000204604F093FB264B65631B4A2549204646
:103030002360254C04F043FE4FF416532946012229
:10304000224804F0E5F94FF0FF36134A20491F48A3
:1030500004F035FE0423062200960521204604F0E4
:103060007DFA314604F12C00E56284F83050656346
:1030700000F07CFD009620230222032104F1400091
:1030800000F0B8F92046044A124902B0BDE8704089
:1030900004F015BE7885FF3FA040FF3F2982100055
:1030A0000084FF3FC12E1000E085FF3F9085FF3F69
:1030B000A486FF3FA885FF3F7486FF3FC7801000AE
:1030C00020F2100041241000BC86FF3FF885FF3F2E
:1030D0003D2F10009F21100038B5064D002404F547
:1030E000B4702844183C05F089F814F5C07FF6D177
:1030F00038BD00BF5887FF3F10B50446054A083069
:103100002060114605F08BF822680023636013707D
:10311000204610BD7DF41000024608B5034904485E
:1031200004F078FF003018BF012008BD46E710000A
:103130002C8AFF3F70B505460E460024B44207DCDA
:1031400055F824200649074804F064FF0134F5E7E8
:103150000D220549034804F05DFF002070BD00BF4B
:1031600058E710002C8AFF3F5BE71000884238B513
:1031700004460D460AD0FFF75BF93CB1EB681BB182
:103180005B68294620469847EB68E360204638BDD7
:1031900073B53D48FFF7B0FF3C4A3D493A4804F05B
:1031A0008EFD3C4B002203F5C070194643F8042CF9
:1031B00043F8083C01F8182B19615A611A7630332C
:1031C00083424FF00005F0D1304A3349284604F0DD
:1031D00076FD3248FFF790FF2C4A2D492F4804F026
:1031E0006EFD2F48FFF788FF284A29492C4804F034
:1031F00066FD2C48FFF780FF244A254929482A4CC0
:1032000004F05DFD294804F051FF4FF0FF361F4ADE
:103210002749264804F053FD042306220096052181
:10322000204604F09BF9E56284F83050656331462E
:1032300004F12C0000F09AFC2023009602220321C6
:1032400004F1400000F0D6F820461A4C0F4A1A4903
:1032500004F035FD204604F079FA184B65630B4AFB
:1032600017492046236004F02AFD29464FF41653DF
:103270000122144804F0CCF8044A1349114802B062
:10328000BDE8704004F01BBD7489FF3FA040FF3FC4
:10329000298210006087FF3FD9301000E089FF3F8E
:1032A0008C89FF3FA48AFF3FD888FF3F748AFF3F85
:1032B000C7801000A889FF3F9F21100020F2100056
:1032C00041241000F889FF3F3D2F10000848094AAB
:1032D00008B5121A002106F011FC00F0B7FE06F046
:1032E00053FB02F01BFF00F0A9FE04F0EAFC00BF54
:1032F000A065FF3F14A5FF3F022801DD04F066BC76
:103300000120704708B5012004F0DBFC08B5FFF789
:10331000F9FF000038B50546094C0A49204600F07F
:103320007DF8204600230222012100F0F7F8204614
:1033300000230322012100F0F1F8284638BD00BF28
:10334000BC8AFF3F40420F00012910B50A4606D053
:1033500002D3022906D010BD0023022209E0002377
:10336000032207E000230121054800F0A7F800230D
:10337000032201210248BDE8104000F09FB800BFC1
:10338000BC8AFF3F012910B50A4606D002D30229A4
:1033900006D010BD0123022209E00B46032207E0FC
:1033A00001231946054800F089F801230322194634
:1033B000BDE81040014800F081B800BFBC8AFF3F63
:1033C00013B5094C4FF0FF33009302222023032151
:1033D000204600F00FF82046044A054902B0BDE837
:1033E000104004F06CBC00BFBC8AFF3FA040FF3F10
:1033F0007D35100038B504461D4603F09DFE9DF94D
:10340000101004F1200003F07DFF204625770249CB
:1034100003F0B0FE204638BD40420F0008B572B63A
:1034200003F0A8FE62B608BD1FB572B600238DF882
:103430000C108DF80D20017F03AA0093022303F0E6
:10344000C5FE62B605B05DF804FB30B585B004AAD0
:10345000044602F8011D72B60125017F2B46009536
:1034600003F0B4FE00230093217F2B460DF10E02E2
:10347000204603F0CBFE62B69DF80E0005B030BDCD
:10348000D3B2072B70B506460D46144604D9332235
:103490000849094800F08EFC0DB1012D07D12946DD
:1034A0003046FFF7D2FF204100F0010070BD4FF021
:1034B000FF3070BD5EE7100083E71000F8B51C46D2
:1034C000D3B2072B06460D46174604D95C22114994
:1034D000114800F06FFC1DB1012D1AD1032500E049
:1034E000022529463046FFF7B0FF3CB1012C01D040
:1034F000C2B208E004FA07F2024303E00122BA4034
:1035000020EA0202D2B229463046BDE8F840FFF771
:103510008BBFF8BD5EE7100083E71000F8B51C46CE
:10352000D3B2072B06460D46174604D97B22114914
:10353000114800F03FFC1DB1012D1AD1072500E014
:10354000062529463046FFF780FF1CB1012C06D026
:10355000C2B208E00122BA4020EA020202E004FA04
:1035600007F20243D2B229463046BDE8F840FFF7E1
:103570005BBFF8BD5EE7100083E7100010B504469E
:10358000203003F0A1FE204610BD481E012809D8B6
:10359000501E0F2806D802290ABF3F3218701A7031
:1035A000012070470020704710B500F1400401234E
:1035B000022200212046FFF781FF142004F06EFC58
:1035C000012004F06BFC0023204602221946FFF77D
:1035D00075FF142004F062FCBDE81040012004F0E7
:1035E0005DBC10B50446012004F058FC04F1400015
:1035F000012302220021FFF761FFBDE810401420E3
:1036000004F04CBC38B50C4605464FF4FA7004F093
:1036100045FC2CB1012C0AD123460322002102E0F3
:1036200023462146032205F14000FFF747FF1420FF
:1036300004F034FCBDE838404FF4FA7004F02EBCBE
:1036400010B504460821002203F0B2FF2046BDE871
:103650001040014903F0C4BF20A1070010B5044683
:103660000821002203F0A4FF2046BDE810400149D4
:1036700003F0B6BF40420F0038B504460D4611486E
:103680004FF0FF3104F019FD2046FFF7D9FF204627
:10369000FFF78AFF20460021FFF7B4FF29462046A6
:1036A00003F0B4FF2046FFF79CFF012D204604BF26
:1036B000A563E563FFF7D2FFBDE83840014804F099
:1036C000FFBC00BF946CFF3F0121FFF7D5BF73B56E
:1036D0000DF1070304461546FFF757FF50B1A163EC
:1036E0009DF807102046E56341F08001FFF7C4FF15
:1036F000002001E04FF0FF3002B070BD10B504466D
:103700003021FFF7B9FF022004F0ECFB2046302106
:10371000FFF7B2FF20463021FFF7AEFF20463921E8
:10372000FFF7AAFF20461421FFF7A6FF20465621E7
:10373000FFF7A2FF20466D21FFF79EFF2046702174
:10374000FFF79AFF20460C21FFF796FF204606213F
:10375000FFF792FF20460121FFF78EFFBDE81040E2
:103760000A2004F0BFBB000038B5044600F1400554
:1037700028460F49FFF752FE002319462846022229
:10378000FFF7CCFE0023194603222846FFF7C6FEAA
:103790002046FFF726FF2046FFF752FF2046FFF79F
:1037A000ADFF01222046BDE838401146FFF78FBF2C
:1037B00040420F002DE9F041161E04460D4648DD3B
:1037C000002946D04FF0FF31244804F076FC204613
:1037D000FFF736FF2046FFF7E7FE01212046FFF7FF
:1037E00011FF2E444FF00108E36B15F8017B102BFD
:1037F00009DC0A2F07D03946204603F007FFE36BA8
:103800000133E36317E0A16B012201310229C8BF34
:103810000121A163C4F83C802046FFF758FF2046F1
:10382000FFF70EFF01212046FFF7ECFE2046FFF7D1
:10383000BBFE0A2FDFD1B542D6D12046FFF7D1FE1D
:103840002046FFF70BFF054804F03AFC0020BDE8D6
:10385000F0814FF0FF30BDE8F08100BF946CFF3F76
:1038600070B5064614460D4611B94FF0FF3070BDD5
:103870001A462146FFF72BFF0028F6D12B465A1B8C
:1038800013F8014B002CFAD129463046FFF792FF7E
:10389000204670BD70B504460D46FFF715FF0123A5
:1038A00029462046BDE870401A46FFF7D9BF0023DD
:1038B0001A4601210430FFF701BE012300221946F8
:1038C0000430FFF7FBBD000073B504460546184BF6
:1038D000022244F8043B1123009303214A2320468B
:1038E000FFF788FD05F160064FF0FF3300930622D5
:1038F00004230521304603F031FE0022304620210A
:1039000003F056FE30460B4903F06AFE00231A46C8
:1039100001212046FFF702FE2846FFF7CEFF0022D6
:10392000204601231146FFF7F9FD284602B070BD7D
:10393000B0E5100040420F002DE9F0410746154662
:103940000C4621B95B222049204800F033FA142D9F
:1039500004D95C221C491E4800F02CFA4FF0FF31BC
:103960001C4804F0AAFB07F160063846FFF79FFFEA
:103970001949304603F04AFE0A2004F08FFA04EB9E
:103980000508444508D014F8011B304603F03EFEFC
:103990000A2004F083FAF4E71049304603F036FEBB
:1039A00006460A2004F07AFA3846FFF786FF14F834
:1039B000013CF6B2B34218BF4FF0FF35054804F0A2
:1039C0007FFB2846BDE8F0819CE71000AAE71000C5
:1039D000B6E71000946CFF3F020000F0040000F016
:1039E00038B50546094C4FF0FF31204604F065FB21
:1039F00000221146281DFFF743FD0546204604F02E
:103A00005FFBB5FA85F0400938BD00BF946CFF3FFD
:103A1000002208B511460430FFF732FDB0FA80F0FD
:103A2000400908BD2DE9F74F80469246894621B9E5
:103A30007D222A492A4800F0BDF9BAF1140F04D9B1
:103A40007E222649274800F0B5F94FF0FF3126487D
:103A500004F033FB4046FFF7DBFFB0B34D46404672
:103A600008F16006FFF723FF2049304603F0CEFD42
:103A70000A2004F013FA1E4B1E4A09EB0A0B5D459F
:103A800001920093C9EB050412D00021304603F0E7
:103A9000BDFD07460A2004F001FA009B9F4207D0B3
:103AA000019A974202D005F8017BE8E74FF0FF3416
:103AB000544506D10E49304603F0A8FD0A2004F013
:103AC000EDF94046FFF7F9FE00E00446064804F031
:103AD000F7FA204603B0BDE8F08F00BF9CE7100066
:103AE000AAE71000B6E71000946CFF3F010000F059
:103AF000040000F0100000F070B50E4604461546B4
:103B000002F026F9013609D02046002102F04AF9D8
:103B100029462046BDE8704002F040B970BD38B576
:103B20000C4601220546FFF7E7FF0F2C06D1214680
:103B30002846BDE838400122FFF7DEBF38BD70B52A
:103B40000E460446154602F003F901360DD029460B
:103B5000204602F039F92046012102F023F92046DF
:103B6000BDE87040012102F019B970BD0022FFF7D5
:103B7000E6BF0000014800F0A4B800BFE8E710006D
:103B800010B50446013001D110BD0C3191F900305F
:103B90005A1C0BD09C42F8D12046896802F068FF7D
:103BA0002046BDE81040012102F074BF0248BDE884
:103BB000104000F0A1B900BFF0E71000884208B53E
:103BC0000AD0431C07D0013106D0044800F094F914
:103BD0004FF0FF3008BD084608BD00BF01E81000E7
:103BE00091F900305A1C05D0834201D148687047D2
:103BF0000C31F5E718467047421C10B5044607D053
:103C0000FFF7EEFF431C044602D1024800F074F9AE
:103C1000204610BD12E810000368D0B544685B6808
:103C2000D4E9026798470022B04242EA00023B46CC
:103C300002D2003247F10103C4E90223D0BD2DE9CD
:103C400070430646FFF7E8FF71684B68ABB1D1E9F6
:103C50000245D3E90023AB4208BFA2420BD3B2EB2B
:103C6000040863EB0509B9F1000F08BFB8F1E04F94
:103C700003D2121B03E0002201E04FF0E042336860
:103C800088681B691044BDE870431847436870B5E5
:103C90001D7C04460E468DB903681B68984763680F
:103CA000002000210122C3E902011D6020465D6061
:103CB0001A74FFF7B1FF2046FFF7C1FF63681E606B
:103CC00070BD036870B5DB680446984763685B683D
:103CD000A3B12046FFF7A0FF65686E68D5E9020131
:103CE000D6E90023994208BF904207D3F3686B607E
:103CF0002B68002BEAD0B0689847E7E72046BDE87C
:103D00007040FFF79CBF2DE9F84305460C46164668
:103D10001F46DDF8208000F0A5F82846FFF77CFF5D
:103D20006968C4E900674B68C4F80880002243B1A1
:103D3000D3E900894F4508BF464502D31A46DB68E0
:103D4000F5E7E3600AB94C6000E0D4602846FFF76D
:103D500076FFBDE8F84300F0B1B838B505460C462B
:103D600000F080F86A685368A34206D1DB682846F1
:103D70005360FFF764FF06E0134623B1DA6894420C
:103D8000FAD1E268DA60BDE8384000F097B810B5C3
:103D90000446FFF741FF6368D3E9020110BD00004C
:103DA0000048704764E810000148FFF78ABF00BF71
:103DB00064E8100070B504460D46164600F052F84F
:103DC00033462A462146034800F038F8BDE87040E3
:103DD00000F002B86CE8100008B500F043F8962037
:103DE00004F080F8962004F07DF8F8E730B50D4631
:103DF0000446A1B000F036F82B46224680216846E2
:103E000008F0BCF9051E03DC00F058F821B030BD05
:103E1000084B1B6823B909220821074802F0C8FF94
:103E200000241DF804100448013403F0B8F8A5423A
:103E3000F7D1E9E72091FF3F04A5FF3F0FB407B595
:103E400004A951F8040B0191FFF7D0FF03B05DF80E
:103E500004EB04B07047EFF3108000F0010080F035
:103E60000100704738B5FFF7F6FF054672B60E4CF5
:103E7000236823B980F001030C4ADBB21370236876
:103E8000013304D145220A490A48FFF793FF23680A
:103E90002BB125B1492206490748FFF78BFF23685C
:103EA0000133236038BD00BF488BFF3F4C8BFF3F81
:103EB0009DE81000CDE81000F3E8100010B50A4CA2
:103EC000236883B1FFF7C7FF20B15A22074908488A
:103ED000FFF770FF2368013B236023681BB9054B84
:103EE0001B7803B962B610BD488BFF3F9DE81000F8
:103EF000F3E810004C8BFF3F0FB413B5084B1A7852
:103F00004AB9012405A904981C700191FFF76EFFBE
:103F1000204603F0D6FE02B0BDE8104004B0704762
:103F20004D8BFF3F38B51548154B0B250360154BDE
:103F30001C244560C460836001F016F9124B1860C0
:103F40001248134BC46080E82800124B836001F0D4
:103F50000BF9114B18601148114BC46080E8280020
:103F6000104B836001F000F90F4B186005F00CFD59
:103F7000BDE838400021084600F060B82C94FF3FAF
:103F800007E910000094FF3F7894FF3F1C94FF3F27
:103F900017E910007C94FF3F7494FF3F3C94FF3F6F
:103FA00024E910009894FF3F4C94FF3F094A0A48C7
:103FB000C2F180431946B3F5806F28BF4FF480618A
:103FC0005B1A016005499818086005490B60054BAC
:103FD0001A60704718A5FF3F548BFF3F508BFF3F7F
:103FE0004C92FF3F5093FF3F7047704708B50D4A12
:103FF0000D4B002113614FF4805353614823D3606C
:104000000A4B0B489360182393610A4B136001F02D
:10401000E1FD10B90848FFF76FFFBDE8084000F068
:1040200063BA00BF5094FF3F0095FF3FB494FF3F39
:10403000253F10002EE910003AE9100008B5FFF7FF
:10404000D3FFBDE80840FEF74BBA000010B5FFF7FC
:10405000ADFF0A4B0A499A680A48043A52F8044FDD
:1040600041F8044F8142F9D1074A9A60FFF7BDFF3A
:1040700000F0F4F9BDE81040FFF7B8BF00ED00E034
:10408000FC3FFF3F8C40FF3F0040FF3F02F0A0BFDE
:1040900008B5024C23689847FCE700BFF463FF3F74
:1040A00008B5FFF7F5FFFCE708B505460C4601F03B
:1040B000ADFD6B1E0246042B24D8DFE803F0030D90
:1040C00013191E00204601F089FD224603460121F6
:1040D0000F48FFF711FF19E0234602210D48FFF7B3
:1040E0000BFF13E0234603210B48FFF705FF0DE00C
:1040F00004210A48FFF700FF08E005210848FFF700
:10410000FBFE03E029460748FFF7F6FEFEE700BF87
:1041100056E91000A7E91000FDE9100062EA10005E
:10412000BDEA10001DEB100008B5014610B11320C8
:1041300001F0C2FC002008BD10B5044600F031F8C3
:10414000EFF305832BB9EFF3108313B9EFF311836A
:104150003BB16FF00501002000F016F86FF005008C
:1041600010BD2046DFF804C000DF10BD294110005B
:104170007047704770477047704770477047704787
:104180007047704770477047704770477047704777
:104190007047704770477047704770477047704767
:1041A0007047704770477047704770477047704757
:1041B0007047704770477047704770477047704747
:1041C0007047704770477047704770477047704737
:1041D0007047704770477047704770477047704727
:1041E0007047000070B56348017A0446012900F069
:1041F000BD8011B14FF0FF3009E05F4DA8220830BB
:1042000005F07CFC6B6D472B06D86FF00A00FFF7BA
:10421000B5FF4FF0FF3070BDEA68002AEAD02B8A64
:10422000002BE7D0EE6AA4F85C30AB68296B30460F
:104230006266A36400F08AF908B1C4F888606E6908
:10424000A969304600F082F908B1E66702E0D4F8C7
:104250008830E367EE69296A304600F077F910B1DB
:10426000C4F8806003E0D4F88830C4F880306E6A07
:10427000A96A304600F06AF910B1C4F8846003E01E
:10428000D4F88830C4F884306E6B46B1F368B268F5
:104290003168304600F0D5F908B1C4F88C60AE6BD7
:1042A00046B1F368B2683168304600F0CAF908B127
:1042B000C4F89060EE6B46B1F368B268316830467E
:1042C00000F0BFF908B1C4F894602E6C46B1F368F1
:1042D000B2683168304600F0B4F908B1C4F89860AB
:1042E0006E6C46B1F368B2683168304600F0A9F9E7
:1042F00008B1C4F89C60AE6C46B1F368B26831682E
:10430000304600F09EF908B1C4F8A060EE6C46B1EA
:10431000F368B2683168304600F093F908B1C4F828
:10432000A4602D6D45B1EB68AA682968284600F0A5
:1043300088F908B1C4F8A850104AFF2382F8223047
:1043400092F82230D16863F0FF03DB43B3FA83F3C2
:10435000C1F30221C3F120038B4298BF4B1CFE2105
:1043600001FA03F3DBB2D37701232372FFF708FFCF
:10437000002070BDF863FF3F9CEB100000ED00E0F3
:1043800010B5034C207AFFF7FCFE207A10BD00BF69
:10439000F863FF3F38B52A4C237A012B02D06FF027
:1043A00006000BE0236B274D6BB9AA6D1946264812
:1043B00001F080FA206330B94FF0FF30FFF7DEFEE6
:1043C0004FF0FF3038BD6B6E5BB1236D4BB91D4AAA
:1043D0001946D26D1D4801F06DFA194B1865002879
:1043E000EAD01B4801F0DBF80028E5D001F0F4F931
:1043F0002B68DB074CBF0223032383F31488154B80
:104400001B68E36000F0B4FF0028A0610FDB00F13F
:10441000604303F56143FF2283F800234211012327
:1044200000F01F0003FA00F00B4B43F8220000F0ED
:10443000B9FF02232372FFF7A6FE002038BD00BF9C
:10444000F863FF3F9CEB1000A1401000C55C10001A
:104450001C64FF3FA864FF3F00E100E008B5FFF7E0
:104460008EFEEFF305832BB9EFF3108313B9EFF34F
:10447000118333B16FF00500FFF780FE6FF0050088
:1044800008BDDFF820C0EFF3148313F0020F06D14C
:10449000EFF30883203B23F0070383F3098800DF51
:1044A00008BD00BFE541100008B5EFF305832BB947
:1044B000EFF3108313B9EFF3118333B14FF0FF30F3
:1044C000FFF75FFE4FF0FF3008BDEFF31483DB070B
:1044D00003D4BDE80840FFF753BFDFF808C000DF92
:1044E00008BD00BF8143100008B5FFF74BFEEFF396
:1044F00005832BB9EFF3108313B9EFF3118333B1B5
:104500006FF00500FFF73AFE6FF0050008BDFFF7FA
:10451000CBFF022805D00B4B1B6813B15B6803B1BE
:104520009847DFF824C0EFF3148313F0020F06D18D
:10453000EFF30883203B23F0070383F3098800DFB0
:1045400008BD00BF00A5FF3F9543100038B50C46DD
:10455000034630B140EA010212F0070201D11729E7
:1045600006D8184600222146FFF702FE002038BD7B
:10457000A1F10804102519604560251885602250B6
:10458000C2600122FFF7F4FD012038BDF8B518B173
:1045900011B132F0030304D00023FFF7EAFD00203D
:1045A000F8BD0F3121F0070100F108052E68D5F89C
:1045B00004E0731B2EF003041B1B994205D93468D9
:1045C0003546002CF2D12346E7E7436842EA01076B
:1045D0000B444360BEF1000F03D16F6005F1080486
:1045E00005E02B192E515F6003F108042B60234670
:1045F000FFF7BFFD2046F8BD38B500B121B9002254
:10460000FFF7B8FD002038BDA1F1080500F108034F
:104610000022AB4205D01C681A46002CEFD023467E
:10462000F7E75C6824F003054468641B44600AB93A
:104630005A6001E01B6813600122FFF79BFD012017
:1046400038BD2DE9F0410D4617461C460646F8B127
:1046500001B312B323B302FB01F84FF0000E316037
:10466000C0F804E003EB080EF3607361B260C0F8B9
:1046700010E0FFF780FD2346013D03D0DA191A60F0
:104680001346F9E7C7EB080025500120BDE8F0818B
:10469000BDE8F0810846BDE8F0811046BDE8F08134
:1046A0001846BDE8F08138B5054620B90146FFF748
:1046B00063FD284638BD031D026853E8001F8A4287
:1046C00002D8BFF32F8F04E0481C43E8000404B174
:1046D000F3E72B688B420ED905F1140353E8000F62
:1046E00010B9BFF32F8F04E0026843E8002101B145
:1046F000F4E7044600E0002428462146FFF73CFD8D
:10470000204638BD38B528B1C3688B4202D803694A
:10471000994206D36FF00302FFF72FFD6FF00300FD
:1047200038BD031D53E8002F12B9BFF32F8F04E0EB
:10473000541E43E8004505B1F4E782B100F11403CB
:104740001A680A60BFF35F8F53E8002F0C68944229
:10475000F6D143E8001505B1F2E7002401E06FF05F
:1047600002042246FFF709FD204638BD036B30B531
:10477000A3B1CD780024DA78AA4204D25A681C4644
:104780001AB11346F7E71A4623464A608B600AB10E
:10479000916000E0C16223B1596003E04B608B601F
:1047A000C1620163283050E8003F5A1C40E80021F4
:1047B00001B1F8E730BD4B688A680BB19A6000E040
:1047C000C2628A680AB15360704703637047000091
:1047D0002DE9F74F804600B131B96FF00301002099
:1047E000FFF7F1FC00208EE0033121F0030303F119
:1047F0000C090193B9FA89F1B0FA80F30B441F2B2D
:10480000EBDD09FB00FAE2B19468D2F800B016695A
:1048100050693CB1A30702D1D368332B05D86FF0A0
:104820000801DCE7D368002BF9D13EB116F0030391
:1048300001D182455FD96FF00901D0E700285ED031
:10484000F9E793461646314BD3F8A80010B1FFF7AD
:104850002AFF05E001223421D3F88800FFF796FEF5
:10486000044620B96FF00401FFF7ADFC41E026BB20
:104870000125264F00225146D7F88400FFF786FE17
:10488000064690B96FF00401FFF79DFC002DA9D0FA
:10489000D7F8A85021461DB12846FFF733FFA1E7FE
:1048A000D7F88800FFF7A8FE9CE75246002105F0E4
:1048B00025F945F00200C0B200E001200823019A6A
:1048C0002370012363700023A070A3606262A3625F
:1048D000E36223634A463346C4F804B0414604F118
:1048E0000C00FFF7AEFE0A4A084B20469A67FFF716
:1048F0006CFC204607E0002CA5D01846DEE7002C13
:10490000A1D00546B5E703B0BDE8F08FF863FF3FDF
:10491000114A10002DE9F0410E4690461D4604460E
:1049200018B10378082B00D141B920466FF003017C
:10493000FFF749FC6FF00300BDE8F081437823B92D
:104940006FF00201FFF73FFC5CE0836803B35B7824
:10495000832B1DD1FFF73EFC204600F020FE0546CC
:104960000122002100F076FF284600F0F7FE054600
:10497000626A3146806805F09BF8EB680BB183F8FA
:1049800000802046A968FFF72AFC0020BDE8F081DE
:1049900004F10C00FFF787FE0746B8B1626A3146A2
:1049A0000C3005F085F807233B70002501237B7050
:1049B00039462046BD7087F80380FFF7D7FE2046B2
:1049C0003146FFF707FC2846BDE8F081B5B12A461D
:1049D00031462046FFF7FBFB0C4B2046D96900F01F
:1049E000CBFD2946932001F067F8EFF309836FF0C0
:1049F00001009E60C3F80C80BDE8F081314620467E
:104A0000FFF7E9FB6FF00200BDE8F081F863FF3FBC
:104A1000F8B543780446002B7AD08678002E3ED035
:104A2000C5686B78002B73D001460026284605F137
:104A30000C07FFF7C0FE667021463846FFF762FE9E
:104A4000AB68002B64D05B78932B61D13846FFF7BD
:104A50002AFE044600285BD0284600F0A0FD074649
:104A60003246314600F0F6FE384600F077FE074643
:104A70006A6A816804F10C0005F01AF807232370B4
:104A800001236370A670FB6821462846E370FFF798
:104A90006DFEB9682846BDE8F840FFF79BBB856806
:104AA0006B78ABB3AB684BB35B78832B26D1416893
:104AB0002846FFF78FFB284600F071FD0746324677
:104AC000314600F0C7FE384600F048FE06466A6AE6
:104AD00004F10C01806804F0EBFFF3680BB1E2789D
:104AE0001A70B1682846FFF77AFB002363702146ED
:104AF00005F10C00BDE8F840FFF704BE61682846E8
:104B0000FFF768FB21462846BDE8F840FFF72EBEB8
:104B1000F8BD10B500F1280353E8002F12B9BFF318
:104B20002F8F04E0511E43E8001404B1F4E70AB9E2
:104B3000002010BDC06A01230028F9D0821CD2E8F1
:104B40004F1FC2E8443F04B1F9E711F0FF0F01D055
:104B50008068F1E710BD00002DE9F0410D461746D1
:104B60009846044618B10378082B00D141B9204675
:104B70006FF00301FFF727FB6FF00300BDE8F08142
:104B8000437823B96FF00201FFF71DFB3EE0FFF70A
:104B9000C0FF0646E8B101462046FFF70CFE626AF8
:104BA00006F10C01284604F083FF0FB1F3783B7047
:104BB00029462046002504F10C07FFF710FB75700D
:104BC00031463846FFF79EFDA3681BBB0020BDE8B9
:104BD000F081B8F1000F15D0424629462046FFF774
:104BE000FCFA234B2046D96900F0C6FC41468320DD
:104BF00000F062FFEFF309836FF001009D60DF605A
:104C0000BDE8F08129462046FFF7EAFA6FF002007E
:104C1000BDE8F0815B78932BD8D13846FFF743FD90
:104C200006460028D2D0204600F0B9FC07462946A7
:104C3000012200F00FFE384600F090FD0746626A40
:104C4000816806F10C0004F033FF07233370012361
:104C50007370B570FB683146F3702046FFF786FD30
:104C60002046B968FFF7B6FA2846BDE8F08100BFD4
:104C7000F863FF3F70B506460D461446FFF7A4FAE9
:104C8000EFF305832BB9EFF3108313B9EFF311831F
:104C900033B16FF005010020FFF795FA002070BDD9
:104CA000304629462246DFF820C0EFF3148313F084
:104CB000020F06D1EFF30883203B23F0070383F3B1
:104CC000098800DF70BD00BFD14710002DE9F04119
:104CD00004460F4690461D46FFF778FAEFF305832A
:104CE00033B9EFF310831BB9EFF31183002B3CD0E2
:104CF00024B12378082B01D107B145B120466FF0CC
:104D00000301FFF760FA6FF00300BDE8F0816378FC
:104D10002BB96FF002012046FFF755FA21E004F1AC
:104D20000C00FFF7C0FC0646B8B1626A39460C3089
:104D300004F0BEFE07233370012373703046B57054
:104D400086F803807760B46000F0E0FA20463946C8
:104D5000FFF73FFA2846BDE8F08139462046FFF7C5
:104D60003AFA6FF00200BDE8F0812046394642462B
:104D70002B46DFF808C000DFBDE8F08115491000C0
:104D8000F8B504460D4617461E46FFF725FAEFF321
:104D900005832BB9EFF3108313B9EFF31183A3B39A
:104DA00024B12378082B01D105B13EB120466FF024
:104DB0000301FFF708FA6FF00300F8BD63782BB921
:104DC0006FF002012046FFF7FEF91BE02046FFF7D7
:104DD000A0FE064690B100F10C01626A284604F07C
:104DE00067FE0FB1F3783B7029462046FFF7F7F9CD
:104DF0003046F46000F08AFA0020F8BD29462046CB
:104E0000FFF7EEF96FF00200F8BD204629463A465A
:104E10003346DFF808C000DFF8BD00BF594B100073
:104E200070B530B390E86000846864B114F0030397
:104E300002D1C2681B2A0AD86FF008010020FFF7D0
:104E4000B4F9002070BDC368ABB1F5E701230422BB
:104E50002270A370012200236270E6706560A36077
:104E6000E3602361636123762046FFF7A0F92046C3
:104E700070BD054606460A4BD3F89C0010B1FFF7FB
:104E800012FC05E001221C21D3F88800FFF77EFB0D
:104E900004460028DAD16FF00401FFF786F9E6E74F
:104EA000F863FF3FF8B5314B0546DE690F4636B96A
:104EB0006FF00701FFF779F94FF0FF30F8BD10B13F
:104EC0000378042B07D028466FF00301FFF76DF934
:104ED0006FF00300F8BD437813B96FF0020116E0DC
:104EE000047E54B9F36A0121C66043610461F06233
:104EF0000176FFF760F92046F8BDC378DA0710D5D0
:104F0000C26896420DD1FF2C04D16FF00F01FFF75C
:104F10004CF928E0611CC9B20176FFF74CF900207A
:104F2000F8BDEFB19B070CD5EB6896F8202093F9FC
:104F3000200051B2884204DA83F82020E86800F0AB
:104F400049FB39462846FFF734F93146284600F038
:104F500013FB3946532000F0AFFD6FF00100F8BDA0
:104F60002846FFF729F96FF00200F8BDF863FF3F0C
:104F700038B5354B0446DD6935B96FF00701FFF7E9
:104F800014F94FF0FF3038BD10B10378042B07D06F
:104F900020466FF00301FFF708F96FF0030038BDFA
:104FA000437813B96FF0020109E0C3689D4202D053
:104FB0006FF00D0103E0017E31B96FF00E01FFF7D4
:104FC000F4F86FF0020038BD0139C9B20176FFF77D
:104FD000F5F8237E002B34D163690BB122691A6185
:104FE00022690AB1536100E0EB62E3789B0710D5B8
:104FF00095F82130EA6A52B1916831B191F92010E7
:105000005BB28B42B8BF0B46DBB25269F3E785F85F
:105010002030A36893B1204600F0C1FA0546002273
:10502000114600F017FCEB6A012163610023E56083
:1050300023612046EC622176FFF7BDF8002000F0E6
:10504000DBFB002038BD00BFF863FF3F10B504460E
:1050500010B10378042B07D020466FF00301FFF74F
:10506000A4F86FF0030010BD437833B96FF002016C
:10507000FFF79BF86FF0020010BD00234370037E22
:10508000002B32D06369C0680BB122691A612269B2
:105090000AB1536100E0C362E3789A0716D590F82D
:1050A0002130C26A52B1916831B191F920105BB2DE
:1050B0008B42B8BF0B46DBB25269F3E790F8202071
:1050C000934203D080F8203000F084FAA3681BB923
:1050D000002000F091FB08E0204600F060FA00227A
:1050E0006FF0020100F0B6FBF0E7A378DB070BD509
:1050F000084B2146D3F89C0010B1FFF703FB03E0F7
:10510000D3F88800FFF778FA2046FFF759F8002017
:1051100010BD00BFF863FF3F2DE9F04104460026B3
:105120000127FCB1E378D4F814801B0718D5267644
:1051300000212046FFF742F8A3688BB1204600F01B
:105140002EFA05460022114600F084FBEB6AE5606A
:10515000636126610121EC6220462776FFF72BF878
:105160004446DEE7BDE8F08110B50446FFF71EF8BF
:10517000EFF305832BB9EFF3108313B9EFF311832A
:1051800033B16FF005010020FFF70FF8002010BDCC
:105190002046DFF820C0EFF3148313F0020F06D18E
:1051A000EFF30883203B23F0070383F3098800DF34
:1051B00010BD00BF214E100038B504460D46FEF765
:1051C000F7FFEFF305832BB9EFF3108313B9EFF378
:1051D00011833BB120466FF00501FEF7E6FF6FF04B
:1051E000050038BD20462946DFF804C000DF38BD81
:1051F000A54E100010B50446FEF7DFFFEFF3058360
:105200002BB9EFF3108313B9EFF311833BB12046B1
:105210006FF00501FEF7C9FF6FF0050010BD2046D5
:10522000DFF804C000DF10BD714F100010B5044658
:10523000FEF7C5FFEFF305832BB9EFF3108313B926
:10524000EFF311833BB120466FF00501FEF7ADFF90
:105250006FF0050010BD2046DFF804C000DF10BD70
:105260004D50100010B5D0E85F3F5A1C914200D855
:105270000022C0E8542F04B1F5E798B210BD000039
:1052800070B51F4D2C461F4EB5F85C10D6E85F3F39
:1052900013B9BFF32F8F04E05A1EC6E8502F00B198
:1052A000F4E79BB23BB31848FFF7DCFF6B6E53F893
:1052B000200000B30378013B062BE5D801A252F889
:1052C00023F000BFE152100089521000E552100097
:1052D00089521000E9521000ED521000F1521000F6
:1052E000A36E06E0E36E04E0236F02E0636F00E06C
:1052F000A36F9847C7E70020BDE8704000F07CBA74
:10530000F863FF3F5664FF3F5A64FF3F70B5164C89
:105310000546B4F85C1004F15E02D2E85F3F9942A2
:1053200002D8BFF32F8F04E0581CC2E8560F06B115
:10533000F3E79BB28B4210D204F16000FFF792FFBB
:10534000636E43F82050637A23B9084B4FF08052C4
:105350005A6070BD0123E37270BD2946BDE87040FC
:105360000220FEF7A1BE00BFF863FF3F00ED00E0A2
:10537000084B094ADB6852684FF0FF30B3FBF2F389
:10538000064A013B536000239360054BFF2283F8DC
:1053900023207047F863FF3F9CEB100010E000E013
:1053A00000ED00E0014B07221A60704710E000E0BA
:1053B000014B1B68704700BF10E000E038B5FFF7F5
:1053C000F7FF1D4BD3E904019A6D013041F1000153
:1053D000C3E904011D4602B1904700F061F90020C5
:1053E00000F00AFAAA6C144B22B3196C186A8142B5
:1053F00002D018645A6438BD5A6C0AB1013A5A6432
:105400006B6C0D4CB3B9237A022B13D1E56A8DB1C5
:1054100095F9202091F920309A420BD1284600F0CE
:10542000CFF8206C00F0E8F8284600F0D5F9A36C1E
:105430002564636438BD00BFF863FF3F10B5034BBC
:10544000DC692046FEF7A4FE204610BDF863FF3F4E
:1054500008B5FEF7A2FEDFF810C000DF4FF0FF3105
:105460000020FEF791FEFEE7015B100012F0020F34
:1054700010B502F0010222D100F1280382B153E8F5
:10548000000F00EA01028A4203D0BFF32F8F0020F1
:1054900005E020EA010243E8002404B1EFE710BD73
:1054A00053E8000F084203D1BFF32F8F002005E01F
:1054B00020EA010243E8002404B1F1E710BD806A4C
:1054C00001EA00031AB1994218BF002010BD002B59
:1054D00008BF002010BD000010B500234370837882
:1054E00004469A070CD513F0100F016B0E4B04D035
:1054F000D3F88C00FFF706F902E0D86FFFF77CF8CD
:10550000A378DB070ED5084B2146D3F8900018B1DD
:10551000BDE81040FFF7F6B8D3F88800BDE81040AA
:10552000FFF76AB810BD00BFF863FF3F10B504462F
:1055300010B10378012B05D020460021FEF727FE8D
:10554000002010BD4378002BF6D04168FEF71FFE07
:10555000606810BD074A10B5936B002413B11C4658
:105560001B69FBE7C161446103610CB1206110BD9F
:10557000906310BDF863FF3F10B579B1836891F96E
:10558000202033B193F92040944202DB18469B68F7
:10559000F7E7C8608B60816003B1D96010BD836894
:1055A0002BB19A68826002B1D0600022DA6018469E
:1055B000704720B10378012B01D1C068F9E770472B
:1055C000C36833B182689A60826802B1D3600023F5
:1055D000C360704710B5014604462378012B03D100
:1055E000E468002CF9D110BD0846FFF7E9FF20461A
:1055F000BDE81040FFF7C0BF0123014643700148DA
:10560000FFF7BABF1C64FF3F4B1C30B402460C4688
:1056100002D130BCFFF79EBF0C4900204B6B33B169
:10562000DD69AC4203D31846641B1B69F7E7D461FC
:105630005061136108B1026100E04A631BB1D9698E
:105640005A610C1BDC6130BC704700BFF863FF3F40
:10565000C16910B54B1C42690CD11AB90F4B9B6B39
:1056600098421AD1036903B15A6142697AB90B4A67
:10567000936310BD1AB9094B5B6B98420DD1036956
:105680001BB1DC695A612144D96142691AB11361C5
:105690000023436110BD014A536310BDF863FF3F0F
:1056A00038B52D4B5C6B1D46002C54D0E369013B93
:1056B000E361002B4FD16378532B27D008D8332BCD
:1056C0001BD0432B1CD0132B31D1FEF76BFD2EE0EA
:1056D000732B21D007D8632B29D12046FFF769FF10
:1056E000FEF76FFD23E0832B1CD0932B1FD12046A8
:1056F000FFF75FFFFEF76CFD19E0FEF750FD16E0C7
:105700002046FFF756FFFEF74FFD10E02046FFF75B
:1057100050FFFEF74FFD0AE02046FFF74AFFFEF775
:1057200051FD04E02046FFF744FFFEF757FDA36B51
:105730002046196AFEF72FFD2046FFF741FF20465D
:10574000FFF75AFF246924B1E369002BB3D000238B
:1057500063616C6338BD38BDF863FF3F806B2030F8
:105760007047000010B50123094A437090F92010DA
:10577000D36A243233B193F920408C4202DD1A46B9
:105780009B68F7E7C2608360906003B1D86010BD8A
:10579000F863FF3F044B1B682BB11B691BB1034A25
:1057A000126A506C1847704700A5FF3FF863FF3F2F
:1057B000074BD96951B10B6B8A6B934203D21A68BC
:1057C000044B9A4202D00120FEF76EBC704700BF26
:1057D000F863FF3FA52E5AE210B50446022343703A
:1057E000044B1862FFF7E4FF2046BDE81040FEF7C7
:1057F000D3BC00BFF863FF3F10B5154B04461A7ABF
:10580000D96970B9022ADC6A21D101B3FCB194F9DB
:10581000202091F920309A4219DD2046FFF7D0FE72
:1058200008E0022A0ED169B190F9202091F92030C8
:105830009A4207DD0846FFF795FF2046BDE8104075
:10584000FFF7CABF2046BDE81040FFF7D5BE10BD28
:10585000F863FF3F70B504460E461546FEF79BFC05
:10586000A36B20461E62FFF7F3FE20461DB1BDE884
:105870007040FFF7C1BFBDE87040FFF7BDBE38B54F
:1058800043780446332B13D190F82320416AFFF765
:10589000EDFD054660B1014600222046FFF7DAFF24
:1058A0002A4694F82310606ABDE83840FEF778BCB9
:1058B00038BD00002DE9F04F85B003910293814679
:1058C00010B96FF003011EE082B3946802F1100575
:1058D000E0CD3CB1A30702D1D368472B05D86FF0C8
:1058E00008010FE0D368002BF9D12DB1680700D172
:1058F0007EB96FF00A0105E047B17B1E372B06D950
:105900006FF00B010020FEF73FFC56E018273EB178
:1059100002E0002FF1D118277107EAD1472EE8D90C
:105920001368D2F804B00193CCB904E016461546CA
:105930009346182701925A4BD3F8900010B1FEF706
:10594000B2FE05E001224821D3F88800FEF71EFED2
:10595000044638B96FF00401FEF716FC9BE04FF0E7
:10596000000A01E04FF0010A8DBBDFF83481A6B9CF
:105970004C4AD8F88C00566D78B1FEF794FE054677
:1059800040B96FF004010020FEF7FEFBBAF1000FF2
:105990000CD112E04AF0100A17E02A463146D8F836
:1059A0007C00FEF7F3FD054678B9EAE7D8F8905099
:1059B000214625B12846FEF7A5FE00206CE0384BB5
:1059C000D3F88800FEF718FEF7E74AF0020A019BB9
:1059D000012263600023A360E36023616361A3612C
:1059E000E36184F823306362A362E362A6F14003BB
:1059F0002B44A3632C4B22706270FFB2FD2284F80B
:105A000002A084F803B084F8207084F8217084F830
:105A1000222025636663C4F83C902B60214B1B68F1
:105A20005B0711D504352A46B608A6F111034FF0DD
:105A3000CC311BB142F8041B013BFAE706F180466A
:105A4000113E05EB860500E0A56B2B4605F13402FF
:105A5000002143F8041B9342FBD1144B144A6B639F
:105A60004FF08073EB63039BC5F838902B620C4BAF
:105A700020469A66FEF78AFB0E4B1B6833B19B6883
:105A800023B1029920469847606401E0029B636459
:105A90002046FFF7B1FE204605B0BDE8F08F00BFFD
:105AA000F863FF3F9CEB1000A52E5AE25154100002
:105AB0007F58100000A5FF3FF8B5104D0746EC6970
:105AC0000E46CCB12B7A022B04D02046FFF778FD8E
:105AD0000020F8BDE86A80B12046FEF75BFB314646
:105AE00020466770FFF790FD05F12400FFF757FD92
:105AF000FFF772FE0120F8BD2046F8BDF863FF3FB6
:105B000070B51C4DEC69002C32D0E06AFFF704FB45
:105B1000A06930B100221146FFF79CFEA069FEF794
:105B200038FB2B7A134E022B22D1F36A03B3EFF327
:105B30000983A36306F12400FFF731FDFFF74CFE54
:105B40000023F361E378DB0701D5A3691BB120468D
:105B5000FFF7C2FC07E004226270E360F36BA3600E
:105B600003B1DC60EC632046BDE87040FEF716BB75
:105B700070BD00BFF863FF3FF8B507460E461546F7
:105B80001C46FEF702FBEFF305832BB9EFF31083FE
:105B900013B9EFF3118333B16FF005010020FEF765
:105BA000F3FA0020F8BD384631462A462346DFF88E
:105BB00020C0EFF3148414F0020F06D1EFF3088431
:105BC000203C24F0070484F3098800DFF8BD00BFFF
:105BD000B55810000023FFF7CFBF000008B50346FB
:105BE000EFF305822AB9EFF3108212B9EFF31182B5
:105BF0002AB118460021FEF7CAFA002008BDDFF8D6
:105C000008C000DF08BD00BF2D55100008B5EFF338
:105C100005832BB9EFF3108313B9EFF3118323B18D
:105C20000020FEF7B5FA002008BDDFF808C000DF4D
:105C300008BD00BF3D5410000C4A30B5D36C0024A1
:105C400033B11D69A94203D31C46491BDB68F7E742
:105C500001618460C3601BB11D699860691A196194
:105C60000CB1E06030BDD06430BD00BFF863FF3FD1
:105C700070B5134DEC6C14B323690126013B23610D
:105C80002369E3B9E3680BB1A2689A60EB6400236F
:105C90001A4604F11801686DFFF718F818B121468B
:105CA0000320FEF701FAE378012B04D16169204655
:105CB000FFF7C2FF00E06670EC6C002CE0D170BD15
:105CC000F863FF3F0F4B13B51A6E0821586EFEF7AD
:105CD000D1FF0D4C606590B10C4BA3654FF0FF33C5
:105CE00000226946606DFFF74BF80028F6D19DE869
:105CF0000300FEF758FA0198009B9847EEE702B0C0
:105D000010BD00BF9CEB1000F863FF3F715C1000FA
:105D1000FEE700F069BC00F0E3BC00F063B8FEE70A
:105D200001F016B801F02CB800F0F2BEFEE7FEE775
:105D3000FEE7FEE7FEE7431C10B5044605D0002150
:105D400000F096FE0120A04010BD002010BD000014
:105D500038B505460F4B0C46036029710846FFF71E
:105D6000EAFF0D4BA8601A69A10022F480521A6163
:105D70001A6901F1804122F080521A6101F5E03187
:105D80000A78012060F384020A701A6942F0805296
:105D90001A6138BD00C0004000B0014090F9040015
:105DA00000F078BE074A136923F48053136119B9D0
:105DB00003688268DA607047012902BF036882685D
:105DC0009A60704700B00140054A136923F480537C
:105DD00013610368826809B11A6070475A6070479E
:105DE00000B001402DE9F0472C4ADFF8C08013696C
:105DF0002B4E23F48053136100231C46D8F8042053
:105E0000002A46D0D8F804700A220121D8F80400EC
:105E100001FA02F5054224D00A3A072A25D8DFE81C
:105E200002F0042424243A06080A00241DE0022477
:105E30001BE0032419E01B4DDFF86C9005F1200AEC
:105E4000002355F8040F48B1D9F8003001219847D4
:105E5000D9F8003002212868984701235545F0D130
:105E600002E00132122AD1D16BB956F8240060B198
:105E70000D4D01212B6898472B68022156F824000C
:105E80009847002302E0012300E00346C8F8307081
:105E9000B4E7BDE8F0870124E7E700BF00B00140A8
:105EA000B090FF3FBC90FF3FF890FF3F00C0004024
:105EB00010B54C1C02D14FF0FF3010BD01248C40B6
:105EC00001600A394460072932D8DFE801F0043163
:105ED0003131070A0D1023490B6029E021494B603D
:105EE00026E020498B6023E01E49CB6020E01D495D
:105EF0000C690CB90B611BE04C690CB94B6117E0E4
:105F00008C690CB98B6113E0CC690CB9CB610FE0E3
:105F10000C6A0CB90B620BE04C6A0CB94B6207E0DF
:105F20008C6A0CB98B6203E0CC6A002CC3D1CB62C3
:105F30000D490B6923F480530B6141680B4B83605F
:105F4000D9601963996119621961094B00201A60BF
:105F5000084B202283F806234022C3F880211A60D0
:105F600010BD00BFB090FF3F00B0014000C0004036
:105F7000F890FF3F00E100E0064A0021136923F496
:105F800080531361836842685A610268024B43F888
:105F90002210704700B00140B090FF3F82B0002354
:105FA00001930190019B23B100BF019B013B019331
:105FB000F8E702B070470000F8B50646174C002518
:105FC0001227954228D2A760C820FFF7E7FF4B5D54
:105FD000132B0AD110231120A360A360A360A0603B
:105FE000A360A360A060A06001E00135A360C820A9
:105FF000FFF7D4FF1623C820A360FFF7CFFF306858
:106000000368DB06FCD4C820FFF7C8FF33681B68B1
:106010005B07D6D50220F8BD0020F8BD0070004017
:1060200000F028B900F0C6B900F0D7B900F0E3B924
:106030002DE9F3410646019117461C46FFF7F4FF90
:10604000019B02A943F0010341F8043D012206F13E
:106050000C00FFF7B1FF054628BB01467A1E1A4F18
:106060004FF013088C421DD9C7F80880C820FFF7ED
:1060700095FFF3681868800703D418684007F9D5BE
:1060800002257B6801318C4202F8013F84BF102356
:10609000BB60F3681868000611D41B685B07E1D584
:1060A000022500E025B13046FFF7C0FF284608E092
:1060B000089B13B13046FFF7B9FF204601E00325E6
:1060C000F1E702B0BDE8F081007000402DE9F34136
:1060D000054602AE46F8041D05F10C0790461C4625
:1060E000FFF7A2FF314601223846FFF765FF06465B
:1060F00030B9224641463846FFF75EFF064620B1DA
:106100002846FFF793FF304605E0089B13B1284669
:10611000FFF78CFF204602B0BDE8F0817FB5002478
:106120004E4BADF800408DF802401A694C4922F4FC
:1061300080521A618A68204642F00C028A601A690D
:106140002F2122F080521A61464A20269160D160A8
:106150001A69052122F480321A61434A03259160AD
:10616000D1601A69414942F480321A611A6922F0F9
:1061700080021A61A3F5A0331A7C42F080021A74DF
:106180001A7C42F040021A741A7C42F020021A74FF
:1061900000F010F9072320468DF801308DF80060DB
:1061A0008DF80240FFF740FF032269460C20FFF7FD
:1061B00003FF2046FFF73AFF20468DF800608DF878
:1061C00001508DF80240FFF72FFF2A4669460C2048
:1061D000FFF7F2FE2046FFF729FF4FF6FF70FFF7AB
:1061E000DDFE8DF800602046FF268DF801508DF809
:1061F0000260FFF719FF2A4669460C20FFF7DCFE14
:106200002046FFF713FF1A4A01AB516810688DF85A
:10621000016003C31189927A19809A7006238DF860
:1062200000308DF802600020FFF7FEFE01AB191967
:1062300001220C20FFF7C0FE032269460C20FFF765
:10624000BBFE0020FFF7F2FE01344FF6FF70FFF7B0
:10625000A5FE0C2CE7D104B070BD00BF00B001401A
:1062600000C0004000C001400000014040420F005B
:1062700068EC1000F8B50D46044645492846164618
:10628000FDF7BAFC434907463046FDF7B5FC014629
:106290003846FDF793FCE060013004D149223E49C5
:1062A0003E48FDF787FDE3680022DA60E2683C4B78
:1062B0009A423C4A3C4B11690BBF21F0800121F40A
:1062C0000051116111610CBF20224FF48022C3F8EC
:1062D00080211A60E268137C43F040031374E26883
:1062E000137C43F02003137400F07EFB2F4BE26815
:1062F000B0FBF3F0137C8008023860F304031374DE
:10630000E368C0F34710586121492846FDF738FC7F
:1063100030462049FDF734FC2846052100F0BAFB41
:106320003046052100F0B6FB1E4BA8001A6900F1AB
:10633000804022F080521A6100F5E0300778012297
:10634000B10062F3840701F18041077001F5E0318B
:10635000087802FA05F562F3840008701969144898
:1063600041F080511961196902FA06F621F4805151
:10637000196181682E430E4386601A6942F4805287
:106380001A61E268137C43F080031374F8BD00BF08
:1063900084ED1000FCED100073EC1000BFEC100059
:1063A0000070004000B0014000E100E0A086010064
:1063B00000C0004038B505460C4600F015FBB0FBA8
:1063C000F4F0EA688008137C023860F30403137465
:1063D000EB68C0F34710586138BD10B50446C26879
:1063E0001368DB07FCD5012001F058FDE368152296
:1063F0009A60002010BD10B50446C2681368DB0720
:10640000FCD5012001F04AFDE36814229A601B6864
:1064100013F0340F14BF6FF00100002010BD00F026
:1064200091BB08B500F0E0FB08BD00F00FBC00F028
:10643000C5BB00F0CFBB00002DE9F74F8A460646EA
:106440005F49504691461C469DF93080FDF7D4FBCC
:106450005C4905464846FDF7CFFB5B490190204665
:10646000FDF7CAFB594907464046FDF7C5FB019BAE
:10647000834619462846FDF7A1FB5946054638468E
:10648000FDF79CFB01462846FDF798FB3060013084
:1064900004D143224E494F48FDF78CFC4E4D3268E3
:1064A0004E4B20469A422B6947490CBF23F04003CC
:1064B00023F400732B612B69012723F480332B61B4
:1064C000FDF75EFB3E495046FDF75AFB2B6907FA84
:1064D00004F023F480532B61414B07FA08F29968CA
:1064E000024307FA0AF002430A439A60DA6807FA9D
:1064F00009F10A43DA602B69204623F08053A40097
:106500002B61002104F1804400F0C4FA04F5E0346A
:106510000221504600F0BEFA2378B9F1FF3F67F33D
:1065200084032370237967F3840323710BD02549F7
:106530004846FDF725FB0521484600F0ABFA237AD3
:1065400067F384032372B8F1FF3F11D01F4940461F
:10655000FDF716FB0221404600F09CFA237B012246
:1065600062F384031D4A2373137D6FF303031375D2
:10657000194B00241A6942F080521A611A6942F4D8
:1065800080521A611A6942F480321A613368DC6001
:1065900000F02AFA134B0122B0FBF3F033684008F5
:1065A000013898609A62DA62FF22DC615A62102236
:1065B0005A61336825229C61DA6003B0BDE8F08F30
:1065C00074EE100024ED100054ED1000A4EE100045
:1065D000D7EC1000BFEC100000B00140006000409C
:1065E00000C0004040420F0000224FF08043DA60BC
:1065F000024A136801331360704700BFFC90FF3FED
:10660000164BD4211A6922F001021A611A6922F08C
:1066100002021A614FF6FF724FF080431A609960D0
:1066200003F580531A6054229A600D4B0D499A6805
:1066300011649B680C4A02215A640C4B102283F8A7
:106640000023202283F801230122C3F88021C3F80C
:1066500080111A601960064B1A60704700B0014043
:1066600000ED00E0E9651000E166100000E100E0E7
:106670000491FF3F024B1B680BB9FFF7C1BF704786
:106680000491FF3F08B5134B1B680BB9FFF7B8FF28
:1066900011494FF0804201205368C1F88000BFF3D8
:1066A0004F8FBFF36F8F916811F4807F18BF002365
:1066B0000A491FBFD3600B6801330B6018BF5368D2
:1066C0000868054AC3F57F43FF330121116043EA9F
:1066D000004008BD0491FF3F00E100E0FC90FF3F57
:1066E00070B5104C0026104BE6601D68FFF7CAFF1E
:1066F000281AB04207DC238966F3C7132381BDE85B
:106700007040FDF751BB4FF6FF739842A8BF184683
:10671000238966F3C71323812060238943F0800314
:10672000238170BD001000400091FF3F024B1A8989
:106730006FF3C7121A81704700100040014B00220E
:10674000DA607047001000400E4B10B50446186028
:10675000FFF798FF201A002804DC0B4B0222C3F835
:10676000002110BD4FF6FF74A042A8BF2046074B82
:106770001A896FF3C7121A8118601A8942F08002D1
:106780001A8110BD0091FF3F00E100E000100040C1
:106790004FF4FD53DA6D013200F092805A680132F5
:1067A0001EBF5968484A51629B6801331FBF4FF4AE
:1067B000FD539A68444B1A624FF4FD53DA68120C89
:1067C000120412F5803F1EBFD968404AD1621B698E
:1067D0001B0C1B0413F5803F1FBF4FF4FD531A69B8
:1067E0003A4B9A62384B4FF4FD52506BB3F88C1011
:1067F00060F30B21A3F88C10936B1B0C1B0413F597
:10680000803F18BF916B324B18BF5961D16B196132
:10681000116CD960526C120C120412F5803F07D033
:106820004FF4FD52506C2B4A118960F30D211181F8
:106830004FF4FD52916C9960D16C1960106D26492E
:106840000860116AD961516A996191695962D26986
:106850001A624FF420521168013107D0516801319A
:1068600004D010681849486252680A624FF42052F6
:10687000916801311FBF92681449C2F30B02CA62CA
:106880004FF42052916801311FBF92680F49C2F343
:106890000B02CA624FF420521169013105D0106910
:1068A0000C4A118960F30D2111814FF42052516976
:1068B000013107D051699A8A61F303029A8201E09B
:1068C00000207047012070470040014000B00140A7
:1068D000809001400041014000100140284B82B0EF
:1068E0001A7842F001021A705A68D007FCD5254B7D
:1068F0001A886FF345121A8000238DF807309DF82F
:106900000730092B04D89DF807300133DBB2F4E7D8
:106910001B4B1A7842F008021A705A689106FCD58F
:106920005A68D206FCD4174B1A8842F020021A800B
:106930001A886FF304121A8000238DF807309DF82F
:106940000730092B04D89DF807300133DBB2F4E798
:106950000B4B1A7842F004021A705A681007FCD5E3
:106960005968074A4907FBD406490B8843F00803D6
:106970000B804FF0FF3313610023536102B0704767
:1069800000B0014000D00140144A136923F00053C5
:106990001361134B196921F010011961196921F074
:1069A000020119610F4BA02159614FF4C871D960E0
:1069B00019886FF34101198019886FF382011980DA
:1069C000198841F080011980198841F0400119802F
:1069D000136943F000531361704700BF00B00140DA
:1069E00000ED00E000D00140004870470048E80199
:1069F00038B51C4C1C4D1F23C4F88030C4F88031BE
:106A00004FF020636B60194BAB60FFF7C1FEFFF7DF
:106A100065FFFFF7B9FF2023EB77D02285F82230FE
:106A200085F82330E02384F8033384F8043384F8B2
:106A3000053384F8063384F8073384F8092384F88F
:106A40000A2384F80B3384F80C3384F80D3384F86C
:106A50000F3384F80E3384F8103384F8113384F83C
:106A6000123338BD00E100E000ED00E0002010002E
:106A7000074B80001A6900F1804022F4803200F553
:106A800080301A6101601A6942F480321A617047DD
:106A900000B001401D4A8000136900F1804023F0DE
:106AA000805300F5E0301361052929D8DFE801F0B3
:106AB00003070B0F172003786FF345130AE00378E1
:106AC0006FF345130EE003786FF3451313E003787B
:106AD00043F02003037003786FF301030FE00378A2
:106AE00043F0200303700378012262F3010306E000
:106AF000037843F020030370037843F0030303702B
:106B0000024A136943F080531361704700B001409B
:106B10000A498020C1F88000BFF34F8FBFF36F8F09
:106B2000074B03229A611A6922F00C021A6108606D
:106B30005A6912F4E06FFBD1FDF71CB800E100E0E8
:106B400000F0004030B5174B17491A69002422F4B1
:106B500000421A611A78002542F010021A70A3F55B
:106B6000404300221A615A601A60DA609A60C1E9F3
:106B700000455A6103229A6159690C4AC905FBD440
:106B800013690B4943F0030313610A4B9B68D965F2
:106B9000094B8021C3F8801119605369DB05FCD4CF
:106BA00030BD00BF00B001400891FF3F00F0004041
:106BB000116B100000ED00E000E100E0044B8022CA
:106BC000C3F88020BFF34F8FBFF36F8F704700BFB4
:106BD00000E100E0034B03229A615A6912F4C06F8E
:106BE000FBD1704700F0004070B5134B5C681A6829
:106BF0005968013A8C42C2F30E02F7D10F4DA2FB45
:106C00000523D00B40EA4340D90BE5FB04010D46B8
:106C100004460B4BD3E900018D4208BF84421E4657
:106C200004D2EE2207490848FDF7C4F8C6E900453A
:106C30002046294670BD00BF00F0004040420F00D2
:106C40000891FF3F28EF10006BEF1000F8B50646E3
:106C5000FFF7CAFF331A002B2B4F03DC8023C7F842
:106C60000031F8BDB04234464FF0000502D9341C63
:106C700045F10105254A00232046294601F0D8FFA9
:106C80008023C7F88030BFF34F8FBFF36F8F204E44
:106C90007368984207D0F060336923F0040343F02F
:106CA0000803336127E00025E9030023174AE003C6
:106CB00041EA544101F0BCFF3368C0F30E009BB2BF
:106CC00083420BD002D2C21A042A07DD83420AD9BA
:106CD0001B1AC3F5FF437F33042B04DC0A4B8022CD
:106CE000C3F8002107E00A4A9060136923F0080303
:106CF00043F004031361044B80221A60044A536971
:106D000013F4E07FFBD1F8BD00E100E040420F004A
:106D100000F000400C4B70B5064653F821000D46BC
:106D20001C4678B1720603D5084B01211B689847B1
:106D3000F30707D5054B54F825001B680021BDE873
:106D40007040184770BD00BF1091FF3F1891FF3F82
:106D500010B40A494A694B68D4B213F002004B6878
:106D60001CBF02F04000C0B2DB0744BF02F00102CA
:106D700010432040002110BCFFF7CCBF0050004062
:106D800010B40A494A694B68D4B213F002004B6848
:106D90001CBF02F04000C0B2DB0744BF02F001029A
:106DA00010432040012110BCFFF7B4BF0080004019
:106DB0002DE9F04188460446564940461546FCF701
:106DC0001BFF554906462846FCF716FF014630468C
:106DD000FCF7F4FE2060013004D150224F495048A6
:106DE000FCF7E8FF4B494046FCF7CAFE4A492846F3
:106DF000FCF7C6FE22684B4B9A4208D14A4B01224F
:106E00001A6020686168494B03C3A0681860454B4D
:106E10002268474E9A4203F5983305D11A6922F445
:106E200080721A610D2307E042498A4206D11A692D
:106E300022F020021A610323337004E06F223749E5
:106E40003D48FCF7B7FF3D4B4FEA88011A6901F155
:106E5000804122F480521A611A69072022F480329C
:106E60001A611A6922F080521A6101F580321060AD
:106E7000AA0002F1804202F5803701F5E031386066
:106E800002F5E03208602721116001272C4907FA3A
:106E900008F207FA05F58A60CD601A6942F080525F
:106EA0001A611A6942F480321A611A6942F48052F6
:106EB0001A61FFF799FD4FF41653B0FBF3F0236806
:106EC00000098022DA60C2B21A60C0F307200322F0
:106ED0005860DA608F229A609A69DA61114A9342A7
:106EE00007D1114B61681F602068104B03C3A06875
:106EF0001860327853B2002B09DB012102F01F0227
:106F000001FA02F25B090F49603341F82320BDE822
:106F1000F08100BF50EE1000D8ED10008AEF100095
:106F2000D4EF1000008000402091FF3F04A5FF3FF8
:106F30001C91FF3F00500040FAEF100000B00140EC
:106F400000C0004000E100E038B505460C46FFF700
:106F50004BFDB0FBF4F02B6800091A7B42F0800275
:106F60001A73C2B2C0F307201A6058601A7B6FF31D
:106F7000C7121A7338BD0000034B19608168034BB8
:106F800043F82120704700BF1891FF3F1091FF3F49
:106F900003685A69D207FCD51868C0B27047036805
:106FA0005A699206FCD5196070470000064A1369B9
:106FB00023F004031361054B1A886FF300021A8053
:106FC000BFF36F8F30BF704700ED00E000D001408D
:106FD000FFF7ECBF10B49DF90440019410BCFFF71B
:106FE0002BBA000070B5164602680546137B0C46A6
:106FF0006FF300031373A1F10802182A05D8214B7F
:10700000D340DB0701D5032E04D95E221E491F4859
:10701000FCF7D0FE102C05D0202C05D0082C08BF82
:10702000002402E0012400E002242A68137B64F3B8
:10703000871313732A68137B43F020031373721EA4
:10704000022A86BF00221046114B29689EBF98561F
:10705000104B9A560B7B60F304130B7329680B7B60
:1070600062F3C3030B732A68137B43F004031373A7
:107070002B681A7B42F002021A731A7B42F001025B
:107080001A7370BD0101000100F0100047F01000FC
:10709000B2F01000B5F0100038B50D460468FFF7E7
:1070A000A3FC054B29469D42A8BF1946B0FBF1F051
:1070B00041080139A16038BD00093D0003681A6923
:1070C0005007FCD519601A69D107FCD41A699206D9
:1070D000FCD4586870472DE9F047089F80469742D6
:1070E0003D46894616469A46B8BF15460024AC422E
:1070F0000DDAB442B4BF19F80410FF214046FFF77F
:10710000DDFFBC42B8BF0AF804000134EFE72846AF
:10711000BDE8F087024A034B1A60FFF769BC00BF65
:107120000048E801A864FF3F704710B5044600F02E
:10713000FBFD204610BD0000F8B5054604460E468E
:107140001746094B142245F8043B0021284602F05B
:10715000D5FC064B2846A3613A463146FEF760FF50
:10716000034B20461C60F8BDC0F01000A086010053
:107170002491FF3F70B504460D4603681B6898478D
:10718000201DA5612946FEF74DFF044B20461C60DB
:107190002368BDE870405B68184700BF2491FF3F3B
:1071A00070B504460368084D1B6898472B689C42DD
:1071B00004D0A169201DFEF735FF2C60236820460E
:1071C000BDE870405B6818472491FF3FF7B504465F
:1071D0000E4617461D4603681B6898472046FFF772
:1071E000DFFF9DF82030314683F0010300933A46DB
:1071F0002B46201DFEF76AFF236806465B68204683
:107200009847A81B18BF012003B0F0BDF7B504468E
:107210000E4617461D4603681B6898472046FFF731
:10722000BFFF9DF82030314683F0010300933A46BA
:107230002B46201DFEF7FCFE236806465B682046B1
:107240009847A81B18BF012003B0F0BD70B50446D5
:1072500054F8043B05467BB90C4E4FF0FF313068C3
:10726000FDF7AAFF2B6823B914B1204600F01EFFDA
:107270002C603068FDF7BEFF2B68A34204D05B2270
:1072800003490448FCF796FD286870BD7894FF3FD9
:10729000D0F01000FFF0100008B50448FFF7D6FF4B
:1072A000BDE808404FF0FF3100F007BF2891FF3FD5
:1072B00008B50348FFF7CAFFBDE8084000F000BF6B
:1072C0002891FF3F7047000010B50446074B40F877
:1072D000103BFEF751FE04F12C00FBF7A9F804F176
:1072E0001C00FBF7A5F8204610BD00BF1CF11000E4
:1072F00010B50446FFF7E8FF204600F015FD2046D4
:1073000010BD0000F0B504460D46174B85B0036074
:10731000164F0023164E43600372C360036143613E
:1073200083618362836369461C3000970396FBF791
:107330001DFF6846FBF77CF8694604F12C000097B6
:107340000396FBF713FF6846FBF772F82346094ADA
:10735000294604F11000FEF7ABFD201D2946FCF77D
:10736000DEFB204605B0F0BD1CF11000C572100018
:10737000B8E51000A1731000C36810B504462BB91E
:1073800040F20E2204490548FCF714FDE36820464C
:10739000BDE810401B68184724F110004FF11000A1
:1073A000012908B502D0022902D008BD1C3000E036
:1073B0002C30FFF7E1FF08BD03681B69184703681D
:1073C0009B69184703689B6A18474FF0FF30704766
:1073D00011207047704700F051B8A0F13400FFF75A
:1073E000FABF00F04EB8A0F13400FFF7FABF4FF03B
:1073F000FF314C3000F061BEA0F13400FFF7F7BF61
:107400004C3000F05DBEA0F13400FFF7F9BF000082
:1074100010B5044600F03CF8002104F1340000F0FF
:10742000BFFD074B04F14C0003F10802226003F199
:10743000280284336263A36300F038FE204610BD47
:1074400054F110007047704770B50C010319DB69E7
:107450004D1C064600EB05152BB940F20E220549DE
:107460000548FCF7A7FC3444E3692846BDE87040B2
:107470001B68184724F110004FF110000430FFF78B
:1074800087BD10B50C460430FFF789FD204610BDBE
:107490002DE9F0430546044688469146184A85B0D2
:1074A00045F8042B0021174F174E41606960A96011
:1074B00010300362C160C161694600970396FBF713
:1074C00055FE6846FAF7B4FF694604F120000097BC
:1074D0000396FBF74BFE6846FAF7AAFF4A46414679
:1074E0002846FFF765FC216B2846FFF72DFD28464F
:1074F00022460649FFF740FD204605B0BDE8F0836F
:10750000E8F1100045741000B8E51000497410004F
:10751000704710B5044600F007FC204610BD00007F
:1075200070B5044603680C4E9B68984733689C42CC
:107530000BD0251D0023626A216A2846FFF752FD01
:10754000A16A2846FFF7A8FD346023682046BDE8FD
:107550007040DB68184700BF5C91FF3F2DE9F341A5
:10756000054604460E46174698460F4B1C2245F822
:10757000043B0021284602F0C1FA082323620023BD
:1075800063620A4B3A46A3629DF92030314600936C
:1075900028464346FFF71EFD2046FFF7C1FF204661
:1075A00002B0BDE8F08100BF00F2100040420F00C1
:1075B00070B504460E46154603689B689847074B0E
:1075C00020462662656200221A60FFF7A9FF236841
:1075D0002046BDE87040DB68184700BF5C91FF3F64
:1075E00070B504460D4603689B689847064B2046D5
:1075F000A56200221A60FFF793FF23682046BDE8CA
:107600007040DB68184700BF5C91FF3F38B5044607
:107610000D4603689B6898472046FFF781FF29467F
:10762000201DFFF74BFD054623682046DB68984781
:10763000284638BDF7B504460D4616461F46036872
:107640009B6898472046FFF76BFF089B29460093ED
:1076500032463B46201DFFF73EFD05462368204687
:10766000DB689847284603B0F0BD000008B5044821
:10767000FFF7ECFDBDE808404FF0FF3100F01DBD05
:107680006091FF3F08B50348FFF7E0FDBDE8084003
:1076900000F016BD6091FF3F70B5D0E90823D0E936
:1076A0000245064612196B4100F068F8736B06F14B
:1076B00028042BB940F20E2204490548FCF77AFB56
:1076C000736B2046BDE870401B68184724F110001A
:1076D0004FF11000D0B5044616461F46FCF7C2FB1A
:1076E000204600F055F8C4E90867A069FCF74FFB95
:1076F000321847EB0103204600F040F8BDE8D040C7
:10770000FCF7DCBB7FB506466D46FCF7ABFB06F12C
:107710002804304600F03CF80023AC4203930BD021
:107720002046FAF785FE3CB1039B1BB15B686946B6
:1077300020469847039B73632846FAF779FEFCF7C7
:10774000BDFB04B070BD03689B681847094B10B5BA
:10775000002203600023C0E9022300230361436188
:107760000446FCF71DFB0449A061FCF78FFA204694
:1077700010BD00BF34F210004777100007B500902D
:1077800000F108018069FCF7BEFA03B05DF804FB64
:1077900000F108018069FCF7E0BA000010B504466A
:1077A000024B0360FFF7F4FF204610BD34F21000D7
:1077B000036801221B6900211847036800221B6926
:1077C00011461847007B704738B504460D460D4BEF
:1077D000036000234360A16002730B48FFF736FD8E
:1077E0004FF0FF3100F069FC25B1084B1A681C60AE
:1077F000626000E065600448FFF728FD00F060FC6F
:10780000204638BD48F210009891FF3F9491FF3F09
:1078100010B50446124B03601248FFF717FD4FF0F6
:10782000FF3100F04AFCA3686BB10F4A13689C4219
:1078300002D16368136006E05A68944201D013468F
:10784000FAE762685A600748FFF700FD00F038FC6D
:10785000237B13B9201F00F069FA204610BD00BF3A
:1078600048F210009891FF3F9491FF3F10B50446F5
:10787000FFF7CEFF204600F057FA204610BD00006B
:10788000F8B5074610480E46FFF7E0FC4FF0FF3111
:1078900000F013FC0D4B1C6874B1A56855B132465D
:1078A0003946284603F06BFC20B9284603F05FFCFC
:1078B000864201D06468EFE70348FFF7C7FC00F099
:1078C000FFFB2046F8BD00BF9891FF3F9491FF3F1A
:1078D0000020704700207047036870B51B690122C3
:1078E000002105469847041E0EDB2B6802221B6907
:1078F00000212846984706462B6800221B6921462E
:1079000028469847304670BD204670BD00F0E0B96B
:1079100010B50023036043600A7804462F2A13D170
:107920004A788AB1481C1946206023681A782F2AA1
:1079300002D10133236004E01AB101330131236025
:10794000F3E7FFF79DFF6060204610BD00687047B9
:10795000406808B520B1FFF735FF431E5842584133
:1079600008BD10B50446FFF7F3FF10B1606800B121
:10797000043810BD406808B520B1FFF723FFB0FA06
:1079800080F0400908BD10B50446FFF7F3FF10B1C1
:10799000606800B1043810BD4068003018BF012095
:1079A0007047F8B515460C4611B151F8087C00E057
:1079B0000F467DB1284602F05DF8064658B1AF4249
:1079C0003A46214628BF2A4602F072F8204602F0C5
:1079D00059F800E02E463046F8BD38B502FB01F4F8
:1079E000204602F047F8054618B12246002102F071
:1079F00085F8284638BD000038B50D4604461548C0
:107A0000FFF724FC4FF0FF3100F057FB05F10801B0
:107A1000204602F0BFF8104B80B1044699681A68FE
:107A200044F8085B2A440D4419691A600131196150
:107A300059689D608A4205D95A6003E004465A6934
:107A400001325A610348FFF701FC00F039FB204680
:107A500038BD00BFE491FF3FCC91FF3F38B50C46E5
:107A600005460F48FFF7F2FB4FF0FF3100F025FB12
:107A70005CB10C4B54F8080C1A68A4F10801121AF6
:107A80001A601A69013A1A6100E02146284602F09C
:107A90003DF80348FFF7DAFBBDE8384000F010BBC3
:107AA000E491FF3FCC91FF3F08B5084B1B685BB9E1
:107AB000082107480922FFF77BF9BDE808404FF489
:107AC000E1310348FFF740BA08BD00BF2091FF3FF6
:107AD00004A5FF3F022810B501DC002010BD0C4AB0
