:020000040010EA
:10200000000000409998100085981000A1721000FF
:10201000899810008B9810008D9810000000000027
:10202000000000000000000000000000F597100014
:1020300091981000000000005D9810006D9810004D
:10204000A3721000A772100097981000B1721000D0
:10205000AF721000BD721000AB721000B9721000A8
:10206000979810009798100097981000C57210006C
:1020700097981000B5721000C37210009798100066
:1020800097981000C1721000BF721000979810004E
:10209000044B05481B1A062B02D9044B03B1184701
:1020A000704700BFC365FF3FC065FF3F00000000F1
:1020B00005490648091A891001EBD171491002D06F
:1020C000034B03B118477047C065FF3FC065FF3F32
:1020D0000000000010B5064C237843B9FFF7D8FF85
:1020E000044B13B10448AFF300800123237010BDEB
:1020F000C065FF3F000000001820110008B5084B24
:102100001BB108490848AFF300800848036813B9B9
:10211000BDE80840CCE7064B002BF9D09847F7E71D
:1021200000000000C465FF3F18201100C065FF3F9C
:10213000000000007047704738B5064D002404F5D4
:10214000B4702844183C07F003FC14F5C07FF6D1A6
:1021500038BD00BFDC65FF3F10B5044607F056F9F7
:10216000204610BD10B50446403002F0CFFC20469A
:1021700010BD000038B505460446074B45F8283B1E
:1021800006F0A6FD636B13B19B682846984720466E
:1021900006F076FE204638BDC017110010B5044683
:1021A000054A08302060114607F01AFC2268002317
:1021B00063601370204610BD1D1A110010B504464F
:1021C00007F024F9204610BD10B50446FFF7D2FFF2
:1021D000204607F01BF9204610BD0000F0B52D2366
:1021E00085B0174D174C00268DF808300823074698
:1021F0008DF8093002AA296800960223204606F0CD
:10220000B9FA38238DF808303F238DF8093002AA37
:10221000296800960223204606F0ACFA31238DF897
:102220000C30FC238DF80D300096022303AA296898
:10223000204606F09FFA01233B7405B0F0BD00BFB5
:10224000A440FF3F8C67FF3FF0B50D4D85B00D4CAE
:1022500004AA0026322302F8043D074629680096A6
:102260000123204606F086FA0096022302AA296876
:10227000204606F09FFA9DF809307B6005B0F0BD5E
:10228000A440FF3F8C67FF3FF0B50D4D85B00D4C6E
:1022900004AA0026342302F8043D07462968009664
:1022A0000123204606F066FA0096022302AA296856
:1022B000204606F07FFA9DF80930BB6005B0F0BDFE
:1022C000A440FF3F8C67FF3FF0B50D4D85B00D4C2E
:1022D00004AA0026362302F8043D07462968009622
:1022E0000123204606F046FA0096022302AA296836
:1022F000204606F05FFA9DF80930FB6005B0F0BD9E
:10230000A440FF3F8C67FF3F10B50446FFF79CFFDA
:102310002046FFF7B9FF2046BDE81040FFF7D4BFC5
:1023200008B5FFF7F1FFBDE80840322007F028B9F3
:102330001FB50B7804466D2B08464DD1274B9942AB
:1023400004D131238DF80C30FC233AE0244B994220
:1023500004D131238DF80C30FD2332E0214B99421A
:1023600004D131238DF80C30FE232AE01E4B994214
:1023700001D1312316E01D4B99421ED01C4B9942CE
:1023800004D138238DF80C307F231AE0194B994281
:1023900004D138238DF80C30BF2312E0164B99423C
:1023A00004D138238DF80C3003230AE013490BF0D5
:1023B0007CF888B92046FFF711FF38238DF80C30E0
:1023C0003F238DF80D300E490023009303AA02230A
:1023D00009680C4806F0CEF904B010BD200A1100BF
:1023E000240A1100280A11002C0A1100310A1100D8
:1023F000370A1100450A1100510A11005E0A110046
:10240000A440FF3F8C67FF3F024A02600022027433
:10241000704700BF180A110073B54248FFF7BEFEAF
:10242000414A42493F4806F0BCFF414B002203F5B8
:10243000C070194643F8042C43F8083C01F8182BE7
:1024400019615A611A76303383424FF00005F0D19A
:10245000354A3849284606F0A4FF3748FFF79EFE64
:10246000314A3249344806F09CFF3448FFF796FE63
:102470002D4A2E49314806F094FF3148FFF78EFE71
:10248000294A2A492E4806F08CFF2E4807F09CF96D
:10249000254A2D492B4806F084FF2C4C02220321AB
:1024A0002B4806F01DF92B4E1F4A2B49284806F0F1
:1024B00078FF204606F0BCFC266065632046274C6A
:1024C000194A274906F06DFF204606F0B1FC266048
:1024D00065632046234C4FF0FF36134A204906F02F
:1024E00060FF0423062200960521204606F01CFB0F
:1024F000314604F12C00E56284F83050656302F047
:10250000FDFD009620230222032104F1400002F089
:1025100039FA2046044A144902B0BDE8704006F07A
:1025200040BF00BF5C67FF3FA040FF3F939A100091
:10253000E465FF3F392110001868FF3F7467FF3FD3
:102540006068FF3F3068FF3FE3971000E067FF3FA0
:102550008C67FF3FC017110035211000A867FF3FAF
:10256000752110007868FF3F652110000368184747
:1025700008B10B68036070477047000038B5064D1E
:10258000002404F5B4702844183C07F0E1F914F570
:10259000C07FF6D138BD00BFB075FF3F2DE9FF41C8
:1025A000334A344D136801AE01330A2BC1BF0023F7
:1025B0001360314A1360C8BF304A13602B7C3BB9AB
:1025C0002F4930460AF07BFF31462846FFF7B0FE20
:1025D000002428488DF800408DF801408DF8024015
:1025E000FFF792FE2346A446D5F804E0AF68E868FA
:1025F000244DCDF804E0029703904FF0010856F8FF
:10260000232055F82340A2F10A01A1421D4905DC0F
:102610000A32944202DC0DF8038001E00DF803C099
:102620000133032BEBD19DF80040134A134B2CB11F
:102630009DF8014014B19DF802403CB9C1F800E09A
:102640004F60886011680131116002E01968013142
:1026500019601B68022193FBF1F3126893420A4B45
:10266000B4BF012200221A7004B0BDE8F08100BF9F
:10267000A06EFF3FA86EFF3FAC75FF3F4C6BFF3F66
:102680005E0A1100206AFF3F6877FF3F70B586B091
:10269000684602F007F93C4A1368013313603B4B6C
:1026A000197849B100216846197002F015F9012125
:1026B000684602F02FF908E0012468461C7002F019
:1026C00029F92146684602F007F9FFF767FF304B0A
:1026D0001B7833B92F4B1B781BB92F4B1B78002B62
:1026E0004FD002F087FE00212C4804F023FE02F0B8
:1026F000ADFE2A4804F03EFE294C2A4E00BB2A4972
:1027000001A80AF0DCFE0123022201A9274802F0F9
:102710006FFB01252278264901A80AF033FE2B46DB
:10272000022201A92148357002F062FB237843B3ED
:10273000204B1A780AB9204A157000221A7020E03E
:102740001C4B0125184901A81D700AF0B8FE2B4644
:10275000022201A9154802F04BFB2278174901A873
:102760000AF010FE164806F0B3FA00242B460222A7
:1027700001A90E48347002F03BFB0F4B1C70114B4B
:102780001C7006B070BD00BFEC6FFF3F486BFF3F91
:102790000C70FF3F9069FF3F586FFF3F306AFF3F6B
:1027A0006877FF3FF06FFF3F840A1100BC6EFF3F68
:1027B000900A1100A840FF3F1C70FF3F9F0A1100C4
:1027C0002070FF3FA46EFF3F10B5094C90B020462B
:1027D000FFF79AFDE368626800930649A36803A8BF
:1027E0000AF0D0FD03A9044802F01CFB10B010BD94
:1027F000A86EFF3FB00A1100BC6EFF3F10B5044643
:10280000034B40F8043B02F081F9204610BD00BFA5
:10281000700A110010B50446FFF7F0FF204606F0DD
:10282000F5FD204610BD000000F1080373B5044615
:1028300003600D4681B108460AF049FE0F2805EBFA
:10284000000601900BD9002201A9204607F064F888
:10285000019B2060A36002E0074807F037F832468A
:102860002946206807F0BCF82046019B2268002119
:102870006360D15402B070BDC10A110010B50446A6
:1028800006F0D6FA024B204623600023636310BD96
:10289000C017110010B5064C204601F023FA054878
:1028A00000F0BAFE2046BDE81040034901F036BAF8
:1028B0003C6AFF3F8870FF3FEB0A110008B590E8C3
:1028C0000600044802F000FB034B1860143818BFE0
:1028D000012008BDC06DFF3FE86FFF3F10B5014606
:1028E00004460422044802F0EFFA044B18604FF04B
:1028F0002033236010BD00BFC06DFF3FE86FFF3F76
:1029000008B50B4802F034FB80B11422202109489D
:1029100009F09AF814220749054802F04BFB064BD0
:102920000449186005480AF0CAFD012008BD00BF2F
:10293000C06DFF3F516BFF3FE86FFF3F2C69FF3FCA
:10294000C36810B504460BB19B689847204610BD7C
:1029500038B5CB6804460D460BB15B689847EB6809
:102960002046E36038BD00002DE97F43154606464A
:102970006846FFF7EDFF1049284607F0F7FE6C4662
:1029800008F0F8F806F12805A5428046894607D0E8
:102990002846FFF7D5FF1DB169462846FFF7D8FF47
:1029A00042464B46304606F07BF92046FFF7C8FF0B
:1029B00004B0BDE8708300BF00247449F0B54F48EF
:1029C00089B002F099F94E494C4802F02BFA4FF0C9
:1029D000804006F0EDFD494802F03EF9FFF75AFF4E
:1029E0004848FFF7FBFB484B01221A70474C484B05
:1029F000484A6946484800930394FFF7B5FF684684
:102A0000FFF79EFF454B464A69464648464D0093B0
:102A10000394FFF7A9FF6846FFF792FF2F462B7834
:102A200033B9424B1B781BB9414B1B78002BF6D0B6
:102A30004FF4FA7006F0C8FD3E4B3F4A69463F48E6
:102A400000930394FFF790FF6846FFF779FF3B7808
:102A5000CBB13B4B1E784EB102F0CCFC0121394882
:102A600004F068FC02F0F2FC012108E002F0C2FC74
:102A70000121344804F05EFC02F0E8FC31463148A4
:102A800004F06AFCCBE7294B1B78A3B12E4B1A78D4
:102A90008AB92B4A1278002AC1D001222B481A7019
:102AA00001F0F6F84FF4FA7006F08EFD2849274839
:102AB00001F084F91DE01E4B1B78002BAFD0224B98
:102AC0001A78002AABD11E4A1278002AA7D0012218
:102AD0001E481A7001F0DCF84FF4FA7006F074FD2D
:102AE0001C4968460AF0EBFC6A461949174801F090
:102AF000CDF9164801F0F6F891E700BFBC6EFF3F34
:102B0000F10A1100A86EFF3FA840FF3F780A1100AC
:102B10008D261000CDCCCC3E686EFF3FCD3210002C
:102B20003333333FD069FF3F0C70FF3F9069FF3F65
:102B3000586FFF3F592B10000000A0409869FF3FDD
:102B40001C70FF3F1070FF3FA46EFF3F3C6AFF3FC9
:102B5000F50A1100030B110010B5314C9CB031483F
:102B600006F0B6F8204600F095FD204600F02EFE57
:102B700000220221204600F0A1FDD4F88C2115216D
:102B8000204600F09BFD04F26D1101A80AF097FCAD
:102B900001231A4601A9244802F02AF904F24F1130
:102BA00001A80AF08CFC0123022201A91E4802F0B0
:102BB0001FF9642006F008FD04F26D110AA8FFF762
:102BC00033FE04F24F1110A8FFF72EFE0B9B0BB142
:102BD000119BA3B9154B4FF07E521693144B16A9B7
:102BE00010481993FFF7C0FE16A8FFF7A9FE10A81A
:102BF00006F0AEFE0AA806F0ABFE1CB010BD10AB8E
:102C00000AAA0C4904A80AF0BDFB04A916A8FFF7FC
:102C10000BFE16A8FFF752FE16A806F099FED9E79C
:102C20008870FF3F9869FF3FBC6EFF3F592B100033
:102C3000780A11002D0B11002DE9F0430446ADB0C8
:102C4000A64806F045F82146A54802F0EBF82046D4
:102C5000A4490BF08DFAA44D002460B1B4F5967F21
:102C600009D0014628190AF02AFC9E4900200BF0E1
:102C70007FFA1E34F1E79C4C9C4920460AF015FC73
:102C80009B4F06469B4D002873D19B4800F09AFC51
:102C90009A4801F027F8012006F096FC984904F1C3
:102CA0001E000AF002FC08B9012206E0954904F171
:102CB0001E000AF0FAFB28B9324602218E4800F0C5
:102CC0004FFD4BE0904904F11E000AF0EEFB10B9F5
:102CD00001221146F2E78D4904F11E000AF0E5FBDE
:102CE00010B932460121E9E7894904F11E000AF0D2
:102CF000DCFB10B932466321E0E7864904F11E008F
:102D00000AF0D3FB70B9844906A80AF0D8FB06A9DB
:102D100013A8FFF789FD13A8FFF7D0FD13A806F04D
:102D200017FE1BE07D4904F11E000AF0BEFB88B9C6
:102D30007B4904F13C000AF0B8FB38B9794B169591
:102D400013934FF07E5213A977480CE0764805F0B4
:102D5000BFFF75E17549684800F07AFC744A5F4826
:102D60001397169513A9FFF7FFFD13A8FFF7E8FDCA
:102D700066E1704920460AF098FB0646002840F0BC
:102D8000EF805E4800F084FF5B4800F045FC0120C6
:102D900006F01AFC684904F11E000AF086FB0028C0
:102DA00043D1664904F13C000AF07FFB1397169566
:102DB0005F4A13A970B94948FFF7D6FD13A8FFF77A
:102DC000BFFD5F4906A80AF07AFB06A94B4800F050
:102DD000A5FF74E04148FFF7C7FD13A8FFF7B0FD5A
:102DE000EC46D4F85A90D4F85E20D4F8623004F15E
:102DF000660E7634E046DEF80000DEF804100EF1D0
:102E0000080EA8E80300A645C446F3D1BEF800109A
:102E100013A8A8F8001049460AF051FB06AB50224F
:102E200013A9364800F0E0FF49E0464904F11E00CE
:102E30000AF03BFB58B904F13C02434913A80AF0DD
:102E4000A1FA13AA41492D4801F020F837E0404982
:102E500004F11E000AF029FBB8B9354A13A91F482E
:102E600013971695FFF780FD13A8FFF769FD13A9C7
:102E7000224800F093FF13A8FFF730FD01231A4604
:102E800013A9174801F0B4FF19E0324904F11E00FC
:102E90000AF00BFB98B9264A13A910481397169508
:102EA000FFF762FD13A8FFF74BFD2B4906A80AF0B8
:102EB00006FB2A4B13AA06A9104800F057FF1C4A2C
:102EC00013A9064813971695FFF74EFD13A8FFF7B1
:102ED00037FD0A4800F006FFEDE100BFD069FF3F73
:102EE000BC6EFF3F330B1100666BFF3F350B1100CB
:102EF000CD321000780A11008870FF3F3C6AFF3F16
:102F00003A0B1100400B1100470B11004E0B110042
:102F1000560B11005D0B1100610B1100750B1100B8
:102F20004B0B1100592B10009869FF3F7D0B1100CE
:102F30003333333F820B1100870B11008C0B1100D0
:102F4000950B1100A80B1100770C1100F50A110068
:102F5000AC0B1100AF0B1100BD0B11000080BB4486
:102F6000A44920460AF0A1FA0646002840F0A480B1
:102F7000A14906A80AF0A3FA06A9A04800F068FB38
:102F800006A99F4800F0CAFE9E4904F11E000AF0FF
:102F90008CFAB0B99C4A13A99C4813971695FFF771
:102FA000E3FC13A8FFF7CCFC994B9A4813931695B2
:102FB0004FF07C5213A9FFF7D7FC13A8FFF7C0FC12
:102FC00079E1954904F11E000AF06FFA80B98E4A42
:102FD00013A98E4813971695FFF7C6FC13A8FFF7A1
:102FE000AFFC8E4801F038FE8A4805F071FE62E1C0
:102FF0008B4904F11E000AF058FAC8B913A9824A95
:10300000824813971695FFF7AFFC13A8FFF798FCBB
:1030100000231C461A4619468248FFF781F92246CA
:10302000814913A80AF0AEF913A8FFF757FC42E153
:10303000E37F6D2B0AD104F11E017A48FFF778F97E
:1030400013971695704A13A97048B4E7774904F1AD
:103050001E000AF02AFAC8B96B4A13A96B481397E5
:103060001695FFF781FC13A8FFF76AFC70496B48BF
:1030700001F0D8FE6F4B704A13A970481393169550
:10308000FFF772FC13A8FFF75BFC09E16C4904F140
:103090001E000AF00AFA002840F097805A4A13A945
:1030A0005A4813971695FFF75FFC13A8FFF748FCE3
:1030B000624805F00DFEF3E0624920460AF0F5F99A
:1030C000002840F0E380604904F11E000AF0EDF9A9
:1030D00050B94A4800F0A0FA052006F051FA4848D5
:1030E00000F0D6FD594920E0594904F11E000AF0CC
:1030F000DCF950B9424800F0F5FD052006F040FA31
:103100003E4800F05FFA53490FE0534904F11E00B6
:103110000AF0CBF9C0B93A4800F0E4FD052006F00A
:103120002FFA364800F078FA4C4913A80AF0C7F98C
:1031300013A8FFF7D3FB3548334A06A9069709952C
:10314000FFF712FC06A850E0454904F11E000AF002
:10315000ACF950B9434B01261870434B1870434BE0
:103160001870434B1870434B2DE0434904F11E0087
:103170000AF09BF948B93B4B012618703A4B1E7078
:103180003A4B18703A4B18705AE73C4904F11E004C
:103190000AF08BF950B9334A00231370324A0126E2
:1031A0001370324A1670324A137049E73449354871
:1031B0000AF07BF948B92B4B012618702A4B18707E
:1031C0002A4B18702A4B1E703AE72F4906A80AF0BE
:1031D00076F906A9094800F03BFA0C480A4A13A9F7
:1031E00013971695FFF7C0FB13A8FFF7A9FB01265D
:1031F00061E000BFC50B1100CC0B11008870FF3FD0
:103200003C6AFF3F4B0B11003333333FD069FF3F24
:10321000C92710003077FF3F520B1100BC6EFF3FF3
:10322000DF0B1100A86EFF3FE40B1100EC0B110047
:10323000F20B11009D2510009A99193F2070FF3F55
:10324000FB0B11000D0C1100100C11001C0C1100D7
:10325000230C11002F0C1100360C11003D0C110035
:103260004C0C1100506BFF3F9069FF3F0C70FF3F0B
:10327000586FFF3FA840FF3F870B1100540C11000F
:103280005A0C1100846BFF3F020C11000C4913A86B
:1032900006F0EAFC13A8FFF711FB13A806F058FB91
:1032A000084A13A9084813971695FFF75DFB13A862
:1032B000FFF746FB002630462DB0BDE8F08300BF87
:1032C0004C6EFF3F3333333FD069FF3F7FB50F4B29
:1032D0001B78C3B1FFF714FB012814D10C496846D1
:1032E000FFF7A2FA6846FFF7E9FA684606F030FBF6
:1032F0000748FFF7A1FC06486422202107B05DF8CB
:1033000004EB08F0A1BB07B05DF804FBA940FF3F48
:103310002C69FF3F73B574497448FFF785FA744A06
:103320007449724806F03DF8734B002203F5C070F3
:10333000194643F8042C43F8083C01F8182B19618E
:103340005A611A76303383424FF00004F0D1684A54
:103350006A49204606F025F863496948FFF764FA90
:10336000634A6449664806F01CF85F496548FFF700
:103370005BFA5F4A5F49634806F013F85A496248AE
:10338000FFF752FA5A4A5B495F48604D06F009F868
:103390005F4806F019FA4FF0FF36554A5D495C4820
:1033A00005F0FFFF0423062200960521284605F0BC
:1033B000BBFB314605F12C00EC6285F830406C63B4
:1033C00001F09CFE202300960222032105F140001B
:1033D00001F0D8FA464A5049284605F0E2FF4F4826
:1033E00000F0E8FA424A4E494C4805F0DAFF4D48F1
:1033F00000F080FD3E4A4C494A4805F0D2FF1121B9
:103400004A4805F053FA3A4A4949484805F0C9FF85
:103410004848FEF7F9FF364A4749464805F0C1FFDC
:103420004648FFF72BFA324A4549444805F0B9FFB0
:1034300044482F4A00F1080380E818002D4904721F
:1034400005F0AFFF4048FFF719FA294A3C493E48CA
:1034500005F0A7FF3D48112104600471846001F06C
:1034600026FE3B48072104600471846001F01FFEC2
:103470003848FFF703FA1E4A3149364805F091FFF4
:103480003548FFF7FBF91A4A2D49334805F089FF03
:103490003248FFF7F3F9164A2949304805F081FF11
:1034A0002F48FFF7EBF9124A25492D4805F079FF1F
:1034B0002C48FFF7E3F90E4A21492A4805F071FF2D
:1034C0002948FFF7DBF90A4A1D49274805F069FF3B
:1034D000264801F0C1FC064A2549244802B0BDE84F
:1034E000704005F05EBF00BF1D1A11001469FF3F58
:1034F000A040FF3F939A1000B875FF3F7D25100054
:10350000086AFF3F5C6FFF3FF46FFF3FBC6EFF3FF9
:103510005870FF3FE3971000652110008870FF3F4F
:10352000753510003C6AFF3FBD3B10000C6BFF3F40
:1035300071881000A86EFF3F372110003077FF3FE1
:10354000752110004C6EFF3F686EFF3F306AFF3FF1
:103550001070FF3F2070FF3FD069FF3F786FFF3F43
:10356000B06FFF3F9869FF3F7077FF3FC06DFF3F2F
:10357000FD2710007047000038B5064D002404F503
:10358000B4702844183C06F0E3F914F5C07FF6D176
:1035900038BD00BF4478FF3F10B5044605F036FF44
:1035A000204610BD10B50446054A0830206011467B
:1035B00006F016FA2268002363601370204610BDDF
:1035C0001D1A110038B50379054613BB662401F0B6
:1035D00019F828B1013C03D00A2005F0D1FFF6E725
:1035E00001F008FF01210B4803F0A4FE01F02EFFBB
:1035F00001F000FF0021074803F098FE01F026FFCC
:103600000021044803F0A8FE642005F0DDFF01233B
:103610002B7138BD547AFF3F38B505460B4C01F08D
:10362000E9FE0121204603F085FE01F00FFF01F0C5
:10363000E1FE0221204603F079FE01F007FF01219F
:10364000204603F089FE00232B7138BD547AFF3FDA
:1036500038B50C46451D2946204609F026FF40B1E5
:103660002146284609F02BFF2046BDE8384000F0EF
:10367000BDBF38BD10B5044623793BB101F000F859
:1036800004F16900BDE8104000F0E2BF2046FFF7FA
:1036900099FFF1E7037910B504463BB100F090FFC4
:1036A00004F16900BDE8104000F0D2BFFFF78AFFC7
:1036B0002046BDE81040FFF7DDBF0000F0B50F4623
:1036C0005124544306199BB0021906F221260546DF
:1036D000334602F235221F490DA809F053FE012F8F
:1036E00009D11D4801F0B8FA3B463A460DA91A48DF
:1036F00001F07EFB26E0022F0DD12A19334602F29B
:10370000F9121649684609F03DFE694605F2311086
:1037100009F0D5FE16E0152F14D1291901F2F9117F
:10372000684609F0CCFE694605F26D1009F0C7FE47
:103730003146684609F0C3FE694605F24F1009F0AC
:10374000BEFE05E0684600F051FF0DA800F04EFFF8
:103750001BB0F0BD740C1100A877FF3F2D0B1100BA
:10376000022908B508D11AB10F4B1048196813E0A7
:103770004FF48B610E480FE0012903D10D4B0E4829
:10378000196809E063290ED11AB10C4B0C4819686D
:1037900002E00C4B0C48196800F03EFFBDE8084001
:1037A000C82005F011BF08BDAC40FF3F6C52FF3F81
:1037B000B040FF3F6452FF3F3852FF3F9852FF3FF7
:1037C000DC40FF3F6852FF3F9C52FF3F2DE9F04134
:1037D00000F1690500F5CA76A4B0044629463046D2
:1037E00009F063FE002800F0DD802946304609F02C
:1037F00066FE94F86930242B40F0D4800A232946D1
:10380000C4F890310BA809F05AFE68490BA80AF0D9
:10381000AFFC00221146064604F273555120D4F83D
:103820008C3100FB034E0A2B00D80AB1002535E08D
:103830009EF8F8710FB90122F5E70A2B0DD1C4F8F3
:103840008C2104F5FC735133AB4201D10122E6E730
:1038500003F8511CC4F88C11F5E70133C4F88C311E
:10386000DDE73146684609F02AFE504900200AF09B
:103870007FFC0135ADB22FB2022F064611D0032FC7
:103880003ED1D4F88C31512000FB0340694600F250
:103890000D2009F014FE0A2005F072FE002EE0D182
:1038A00080E007AB4FF00008694605A80593CDF806
:1038B00018808DF81C8006F086F93D4A394605A827
:1038C00006F09EF9059905A8053106F0E8F8059976
:1038D00005A80A3106F0E3F8069BD4F88C01093BF1
:1038E000012B4FF051074CD807FB0040059900F21F
:1038F000F91009F0E4FDD4F88C0107FB004048E022
:10390000042F30D107AB0027694605A80593069719
:103910008DF81C7006F057F9059905A806F0BFF858
:10392000059905A8043106F0BAF8214A022105A834
:1039300006F066F9059905A80A3106F0B0F8069B6D
:10394000D4F88C01093B012B4FF0510825D808FB16
:103950000040059900F2212009F0B1FDD4F88C0156
:1039600008FB004015E0052F95D1D4F88C3151208B
:1039700000FB03400122694600F2352009F0C4FD36
:1039800089E707FB004080F8F88105A805F0E0FF13
:1039900081E7012380F8F831F7E708FB004080F861
:1039A000F871F2E724B0BDE8F08100BF330B1100DD
:1039B0007B0C1100024A02600022C0F88C21704783
:1039C0006C0C110073B53548FFF7ECFD344A3549EE
:1039D000324805F0E6FC344B002203F5C07019466E
:1039E00043F8042C43F8083C01F8182B19615A617C
:1039F0001A76303383424FF00004F0D1284A2B4925
:103A0000204605F0CEFC2A48FFF7CCFD244A254984
:103A1000274805F0C6FC2748FFF7C4FD204A214986
:103A2000244805F0BEFC2448FFF7BCFD1C4A1D4994
:103A30002148224D05F0B5FC214805F0C5FE4FF0A8
:103A4000FF36174A1F491E4805F0ABFC0423062227
:103A500000960521284605F067F8314605F12C004F
:103A6000EC6285F830406C6301F048FB202300963F
:103A70000222032105F1400000F084FF084A1249A8
:103A8000284605F08EFC11480C2104600471846006
:103A900002B0BDE8704001F00ABB00BFC479FF3F2F
:103AA000A040FF3F939A10004C78FF3F79351000FB
:103AB000F479FF3FDC79FF3F3C7AFF3FA877FF3F77
:103AC0000C7AFF3FE397100065211000547AFF3F06
:103AD00038B5064D002404F5B4702844183C05F0B0
:103AE00037FF14F5C07FF6D138BD00BF607AFF3FC5
:103AF00010B50446054A08302060114605F070FFF5
:103B00002268002363601370204610BD1D1A110047
:103B100008B52048FFF7ECFF1F4A20491D4805F073
:103B200040FC1F4B002203F5C070194643F8042CDB
:103B300043F8083C01F8182B19615A611A763033A2
:103B40008342F2D1144A1749002005F02AFC164896
:103B5000FFF7CEFF104A1149134805F022FC134825
:103B6000FFF7C6FF0C4A0D49104805F01AFC104833
:103B7000FFF7BEFF084A09490D4805F012FC0D4841
:103B800005F022FEBDE80840034A0B49094805F04C
:103B900008BC00BFE07BFF3FA040FF3F939A1000AE
:103BA000687AFF3FD13A1000107CFF3FF87BFF3F5F
:103BB000587CFF3F287CFF3FE397100070470000D0
:103BC00038B5064D002404F5B4702844183C05F0BF
:103BD000BFFE14F5C07FF6D138BD00BF707CFF3F3B
:103BE00010B5044605F012FC204610BD10B5044681
:103BF000054A08302060114605F0F2FE22680023D5
:103C000063601370204610BD1D1A110070B5054683
:103C1000094B064645F8103B5DB100F13004AC425B
:103C200007D0103CE368002BF9D09B6820469847EA
:103C3000F5E7304670BD00BF8817110010B5044687
:103C40000A4B4C3003F1200240F84C3C7C3340F8E6
:103C5000182C40F8143C05F0C4FD04F1340005F0C4
:103C600039FD2046FFF7D2FF204610BDFC1611009B
:103C7000A0F13400E2E7A0F13800DFE710B5044618
:103C8000FFF7C4FF204605F0C1FB204610BD000031
:103C900038B50379054613BB662400F0B3FC28B1A0
:103CA000013C03D00A2005F06BFCF6E701F0A2FB13
:103CB00001210B4803F03EFB01F0C8FB01F09AFB29
:103CC0000021074803F032FB01F0C0FB002104484B
:103CD00003F042FB642005F077FC01232B7138BD13
:103CE000387EFF3F38B505460B4C01F083FB0121C0
:103CF000204603F01FFB01F0A9FB01F07BFB022132
:103D0000204603F013FB01F0A1FB0121204603F044
:103D100023FB00232B7138BD387EFF3F38B50C469E
:103D2000451D2946204609F0C0FB40B121462846E2
:103D300009F0C5FB2046BDE8384000F057BC38BD4F
:103D400030B50D469BB000F16904214601A809F089
:103D5000B6FB284606F0D0FE06F0B4FC00F0ACFC42
:103D600020461BB0BDE8304000F072BCF8B51E46DE
:103D7000037904460F4615460BB9FFF789FF39460C
:103D80002046FFF7CBFF31462046FFF7D9FF04F16D
:103D900069012846BDE8F84009F091BB10B50C4612
:103DA0000448054905F0A8FC2046BDE8104000F095
:103DB00013BC00BF787EFF3FA40C110000B58BB090
:103DC0000A466846054909F0DDFA6A46044905488D
:103DD00005F092FC0BB05DF804FB00BFA80C1100CD
:103DE000D20C1100787EFF3F70B51E460D4696B08E
:103DF00004A8144605F004F8282220210CA807F096
:103E000023FE4FF020331B4933602A461A4805F041
:103E100073FC04A804F07DFF0CA800F0DDFB17493B
:103E20000CA809F042FBE8B9154800F015FF4FF463
:103E30007A735C4304A804F0C9FF84420EDB04A833
:103E400004F0C4FF0F490246684609F09BFA0123BB
:103E50001A4669460A4800F0CBFFEBE70A490648D4
:103E600005F04AFC064800F0F7FE04A804F07AFFCB
:103E700016B070BDB00C1100787EFF3FBC0C110075
:103E8000087FFF3FBF0C1100C50C110070B50E4636
:103E90001546124C1249204605F02EFC4FF4FA70DC
:103EA00005F06EFB32460F49204605F025FC4FF425
:103EB000FA7005F065FB2A460B49204605F01CFC0C
:103EC0004FF4FA7005F05CFB20461A22074905F012
:103ED00013FCBDE87040064805F06ABB787EFF3FE2
:103EE000D50C1100E00C1100770C1100EE0C110044
:103EF00000004040014B0360704700BF9C0C110064
:103F000010B50446FFF79AFE204605F07FFA2046DA
:103F100010BDA0F13400F3E7A0F13800F0E7000095
:103F200073B53B48FFF762FE3A4A3B49384805F013
:103F300038FA3A4B002203F5C070194643F8042CB6
:103F400043F8083C01F8182B19615A611A7630338E
:103F500083424FF00004F0D12E4A3149204605F04B
:103F600020FA3048FFF742FE2A4A2B492D4805F037
:103F700018FA2D48FFF73AFE264A27492A4805F045
:103F800010FA2A48FFF732FE224A23492748284DD3
:103F900005F007FA274805F017FC4FF0FF361D4AD9
:103FA0002549244805F0FDF9042306220096052141
:103FB000284604F0B9FD314605F12C00EC6285F885
:103FC00030406C6301F09AF820230096022203210E
:103FD00005F1400000F0D6FC0E4A1849284605F0CD
:103FE000E0F94FF4165321460122154804F0E4FC91
:103FF000084A1449124805F0D4F913481021046006
:104000000471846002B0BDE8704001F050B800BF98
:10401000F07DFF3FA040FF3F939A1000787CFF3F68
:10402000C13B1000207EFF3F087EFF3FF07EFF3F38
:10403000087FFF3FC07EFF3FE3971000652110001F
:10404000447EFF3F3D3C1000387EFF3F38B5064DB3
:10405000002404F5B4702844183C05F079FC14F5EC
:10406000C07FF6D138BD00BFA47FFF3F10B5044626
:10407000054A08302060114605F0B2FC2268002392
:1040800063601370204610BD1D1A110038B5274813
:10409000FFF7ECFF264A2749244805F082F9264B12
:1040A000002203F5C070194643F8042C43F8083C7D
:1040B00001F8182B19615A611A76303383424FF098
:1040C0000005F0D11A4A1D49284605F06AF91C4836
:1040D000FFF7CCFF164A1749194805F062F919484D
:1040E000FFF7C4FF124A1349164805F05AF916485B
:1040F000FFF7BCFF0E4A0F49134805F052F9134C65
:10410000134805F061FB0A4A1249114805F049F9C4
:10411000204604F08DFE104B656323602046BDE809
:104120003840034A0D4905F03CB900BF2481FF3FE8
:10413000A040FF3F939A1000AC7FFF3F4D4010001E
:104140009081FF3F3C81FF3FD881FF3F5881FF3F77
:10415000A881FF3FE3971000C017110075211000E0
:1041600038B5064D002404F5B4702844183C05F019
:10417000EFFB14F5C07FF6D138BD00BFE48AFF3FE6
:1041800000F1080373B5044603600D4681B108468B
:1041900009F09DF90F2805EB000601900BD90022CC
:1041A00001A9204605F0B8FB019B2060A36002E056
:1041B000074805F08BFB32462946206805F010FCC5
:1041C0002046019B226800216360D15402B070BD7B
:1041D000C10A110073B570497048FFF7D1FF704AEA
:1041E00070496E4805F0DDF86F4B002203F5C07092
:1041F000194643F8042C43F8083C01F8182B1961C0
:104200005A611A76303383424FF00004F0D1644A89
:104210006649204605F0C5F85F496548FFF7B0FFDD
:104220005F4A6049624805F0BCF85B496148FFF7A6
:10423000A7FF5B4A5B495F4805F0B3F856495E4803
:10424000FFF79EFF564A57495B485C4D05F0A9F8B9
:104250005B4805F0B9FA4FF0FF36514A59495848C2
:1042600005F09FF80423062200960521284604F055
:104270005BFC314605F12C00EC6285F830406C6344
:1042800000F03CFF202300960222032105F14000AC
:1042900000F078FB424A4C49284605F082F84B482A
:1042A000FFF788FB3E4A4A49484805F07AF84948F2
:1042B000FFF720FE3A4A4849464805F072F81121B6
:1042C000464804F0F3FA364A4549444805F069F88F
:1042D0004448FEF799F8324A4349424805F061F8EC
:1042E0004248FEF7CBFA2E4A4149404805F059F8BA
:1042F00040482B4A00F1080380E81800294904725D
:1043000005F04FF83C48FEF7B9FA254A38493A48D3
:1043100005F047F83948112104600471846000F009
:10432000C6FE3748072104600471846000F0BFFEB8
:104330003448FEF7A3FA1A4A2D49324805F031F8FD
:104340003148FEF79BFA164A29492F4805F029F80B
:104350002E48FEF793FA124A25492C4805F021F819
:104360002B48FEF78BFA0E4A2149294805F019F827
:104370002848FEF783FA0A4A1D49264805F011F835
:104380002548FEF77BFA064A1949234802B0BDE8E2
:10439000704005F006B800BF1D1A1100F081FF3F04
:1043A000A040FF3F939A1000EC8AFF3F614110004C
:1043B0007882FF3FA884FF3F3085FF3F0C84FF3F9A
:1043C0009085FF3FE397100065211000C085FF3FF7
:1043D000753510009C82FF3FBD3B10006C83FF3F92
:1043E00071881000F883FF3F37211000688CFF3F71
:1043F00075211000A883FF3FC083FF3F9082FF3FDD
:104400004885FF3F5885FF3F4082FF3FC084FF3F04
:10441000F884FF3F0882FF3FA08CFF3F38B5064D70
:10442000002404F5B4702844183C05F091FA14F502
:10443000C07FF6D138BD00BFD88CFF3F10B5044611
:10444000054A08302060114605F0CAFA22680023A8
:1044500063601370204610BD1D1A110008B5204876
:10446000FFF7ECFF1F4A20491D4804F09AFF1F4B3D
:10447000002203F5C070194643F8042C43F8083CA9
:1044800001F8182B19615A611A7630338342F2D140
:10449000144A1749002004F084FF1648FFF7CEFFA6
:1044A000104A1149134804F07CFF1348FFF7C6FF78
:1044B0000C4A0D49104804F074FF1048FFF7BEFF86
:1044C000084A09490D4804F06CFF0D4805F07CF9D5
:1044D000BDE80840034A0B49094804F062BF00BF29
:1044E000588EFF3FA040FF3F939A1000E08CFF3FA3
:1044F0001D441000888EFF3F708EFF3FD08EFF3F1F
:10450000A08EFF3FE397100038B5064D002404F558
:10451000B4702844183C05F01BFA14F5C07FF6D19E
:1045200038BD00BFE88EFF3F10B50446054A08308D
:104530002060114605F054FA22680023636013706E
:10454000204610BD1D1A110008B50A4804F0C0FB32
:10455000094804F067FA30B1BDE80840074A084945
:10456000084805F0E6B8322220210448BDE808409A
:1045700007F06ABAC096FF3F4C91FF3FC891FF3FDA
:10458000D20C11008091FF3F08B5084804F04AFAA8
:1045900020B1074A0749084805F0CBF80A2005F082
:1045A00013F8BDE80840054804F092BB4C91FF3F6A
:1045B000C891FF3FD20C11008091FF3FC096FF3F92
:1045C000024A0349034805F0B4B800BFC891FF3F51
:1045D000F20C11008091FF3F02460249024805F0AB
:1045E000A8B800BFD20C11008091FF3F08B5024669
:1045F0000249034805F080F8002008BD770C11003F
:104600008091FF3F08B5034804F00CFA003018BF52
:10461000012008BD4C91FF3F70B505460E460024B1
:10462000B44207DC55F824200649074805F064F831
:104630000134F5E70D220549034805F05DF8002037
:1046400070BD00BFFB0C11008091FF3FE90B110012
:10465000014908F034BF00BFC891FF3F884238B518
:1046600004460D460AD0FEF76BF93CB1EB681BB16E
:104670005B68294620469847EB68E360204638BDD2
:104680001FB50A4B0A4C00930A4B694604F12800F7
:104690000393FFF7E3FF0A220023204604F000FB08
:1046A0006846FEF74DF904B010BD00BF8945100003
:1046B000C096FF3F780A110070B5144B8CB018609B
:1046C000044604A804F09CFB04A804F022FB104E4E
:1046D000104D04A804F0A6FB0146204606F0F8F9A8
:1046E00070B169460C4800960395FFF7B7FF0A22A0
:1046F00000230A4804F0D4FA6846FEF721F9E8E7F7
:1047000004A804F02FFB0CB070BD00BFFC63FF3F9A
:1047100049451000780A1100E896FF3FC096FF3F18
:1047200073B53D48FFF700FF3C4A3D493A4804F065
:1047300038FE3C4B002203F5C070194643F8042CA8
:1047400043F8083C01F8182B19615A611A76303386
:1047500083424FF00005F0D1304A3349284604F037
:1047600020FE3248FFF7E0FE2C4A2D492F4804F086
:1047700018FE2F48FFF7D8FE284A29492C4804F094
:1047800010FE2C48FFF7D0FE244A254929482A4C20
:1047900004F007FE294805F017F84FF0FF361F4ACE
:1047A0002749264804F0FDFD042306220096052132
:1047B000204604F0B9F9E56284F83050656331466B
:1047C00004F12C0000F09AFC202300960222032121
:1047D00004F1400000F0D6F820461A4C0F4A1A495E
:1047E00004F0DFFD204604F023FB184B65630B4A01
:1047F00017492046236004F0D4FD29464FF4165390
:104800000122144804F0D8F8044A1349114802B0B0
:10481000BDE8704004F0C5BD0491FF3FA040FF3FDC
:10482000939A1000F08EFF3F094510003491FF3F2E
:104830001C91FF3FA896FF3F6890FF3F7896FF3F8F
:10484000E3971000C096FF3F65211000C0171100CC
:10485000752110004C91FF3F3D3C10000848094A6B
:1048600008B5121A002107F0EFF800F0B7FE07F0C4
:1048700031F802F02BFF00F0A9FE04F094FD00BF18
:10488000C065FF3F54B1FF3F022801DD04F010BDB9
:104890000120704708B5012004F085FD08B5FFF739
:1048A000F9FF000038B50546094C0A49204600F0DA
:1048B0007DF8204600230222012100F0F7F820466F
:1048C00000230322012100F0F1F8284638BD00BF83
:1048D000F896FF3F40420F00012910B50A4606D066
:1048E00002D3022906D010BD0023022209E00023D2
:1048F000032207E000230121054800F0A7F8002368
:10490000032201210248BDE8104000F09FB800BF1B
:10491000F896FF3F012910B50A4606D002D30229B6
:1049200006D010BD0123022209E00B46032207E056
:1049300001231946054800F089F80123032219468E
:10494000BDE81040014800F081B800BFF896FF3F75
:1049500013B5094C4FF0FF330093022220230321AB
:10496000204600F00FF82046044A054902B0BDE891
:10497000104004F016BD00BFF896FF3FA040FF3F77
:104980000D4B100038B504461D4603F0A9FE9DF9F5
:10499000101004F1200003F089FF2046257702491A
:1049A00003F0BCFE204638BD40420F0008B572B689
:1049B00003F0B4FE62B608BD1FB572B600238DF8D1
:1049C0000C108DF80D20017F03AA0093022303F041
:1049D000D1FE62B605B05DF804FB30B585B004AA1F
:1049E000044602F8011D72B60125017F2B46009591
:1049F00003F0C0FE00230093217F2B460DF10E0231
:104A0000204603F0D7FE62B69DF80E0005B030BD1B
:104A1000D3B2072B70B506460D46144604D933228F
:104A20000849094800F08EFC0DB1012D07D1294637
:104A30003046FFF7D2FF204100F0010070BD4FF07B
:104A4000FF3070BDFE0C1100230D1100F8B51C469F
:104A5000D3B2072B06460D46174604D95C221149EE
:104A6000114800F06FFC1DB1012D1AD1032500E0A3
:104A7000022529463046FFF7B0FF3CB1012C01D09A
:104A8000C2B208E004FA07F2024303E00122BA408E
:104A900020EA0202D2B229463046BDE8F840FFF7CC
:104AA0008BBFF8BDFE0C1100230D1100F8B51C469C
:104AB000D3B2072B06460D46174604D97B2211496F
:104AC000114800F03FFC1DB1012D1AD1072500E06F
:104AD000062529463046FFF780FF1CB1012C06D081
:104AE000C2B208E00122BA4020EA020202E004FA5F
:104AF00007F20243D2B229463046BDE8F840FFF73C
:104B00005BBFF8BDFE0C1100230D110010B504466B
:104B1000203003F0ADFE204610BD481E012809D804
:104B2000501E0F2806D802290ABF3F3218701A708B
:104B3000012070470020704710B500F140040123A8
:104B4000022200212046FFF781FF142004F018FD07
:104B5000012004F015FD0023204602221946FFF72C
:104B600075FF142004F00CFDBDE81040012004F096
:104B700007BD10B50446012004F002FD04F1400019
:104B8000012302220021FFF761FFBDE8104014203D
:104B900004F0F6BC38B50C4605464FF4FA7004F044
:104BA000EFFC2CB1012C0AD123460322002102E0A4
:104BB00023462146032205F14000FFF747FF14205A
:104BC00004F0DEFCBDE838404FF4FA7004F0D8BCC5
:104BD00010B504460821002203F0D0FF2046BDE8AE
:104BE0001040014903F0E2BF20A1070010B50446C0
:104BF0000821002203F0C2FF2046BDE81040014911
:104C000003F0D4BF40420F0038B504460D461148AA
:104C10004FF0FF3104F0DFFD2046FFF7D9FF2046BB
:104C2000FFF78AFF20460021FFF7B4FF2946204600
:104C300003F0D2FF2046FFF79CFF012D204604BF62
:104C4000A563E563FFF7D2FFBDE83840014804F0F3
:104C5000C5BD00BF3068FF3F0121FFF7D5BF73B569
:104C60000DF1070304461546FFF757FF50B1A16346
:104C70009DF807102046E56341F08001FFF7C4FF6F
:104C8000002001E04FF0FF3002B070BD10B50446C7
:104C90003021FFF7B9FF022004F096FC20463021B6
:104CA000FFF7B2FF20463021FFF7AEFF2046392143
:104CB000FFF7AAFF20461421FFF7A6FF2046562142
:104CC000FFF7A2FF20466D21FFF79EFF20467021CF
:104CD000FFF79AFF20460C21FFF796FF204606219A
:104CE000FFF792FF20460121FFF78EFFBDE810403D
:104CF0000A2004F069BC000038B5044600F1400504
:104D000028460F49FFF752FE002319462846022283
:104D1000FFF7CCFE0023194603222846FFF7C6FE04
:104D20002046FFF726FF2046FFF752FF2046FFF7F9
:104D3000ADFF01222046BDE838401146FFF78FBF86
:104D400040420F002DE9F041161E04460D4648DD95
:104D5000002946D04FF0FF31244804F03CFD2046A6
:104D6000FFF736FF2046FFF7E7FE01212046FFF759
:104D700011FF2E444FF00108E36B15F8017B102B57
:104D800009DC0A2F07D03946204603F025FFE36BE4
:104D90000133E36317E0A16B012201310229C8BF8F
:104DA0000121A163C4F83C802046FFF758FF20464C
:104DB000FFF70EFF01212046FFF7ECFE2046FFF72C
:104DC000BBFE0A2FDFD1B542D6D12046FFF7D1FE78
:104DD0002046FFF70BFF054804F000FD0020BDE86A
:104DE000F0814FF0FF30BDE8F08100BF3068FF3F39
:104DF00070B5064614460D4611B94FF0FF3070BD30
:104E00001A462146FFF72BFF0028F6D12B465A1BE6
:104E100013F8014B002CFAD129463046FFF792FFD8
:104E2000204670BD70B504460D46FFF715FF0123FF
:104E300029462046BDE870401A46FFF7D9BF002337
:104E40001A4601210430FFF701BE01230022194652
:104E50000430FFF7FBBD000073B504460546184B50
:104E6000022244F8043B1123009303214A232046E5
:104E7000FFF788FD05F160064FF0FF33009306222F
:104E800004230521304603F04FFE00223046202146
:104E900003F074FE30460B4903F088FE00231A46E7
:104EA00001212046FFF702FE2846FFF7CEFF002231
:104EB000204601231146FFF7F9FD284602B070BDD8
:104EC000700A110040420F002DE9F04107461546D7
:104ED0000C4621B95B222049204800F033FA142DFA
:104EE00004D95C221C491E4800F02CFA4FF0FF3117
:104EF0001C4804F070FC07F160063846FFF79FFF7E
:104F00001949304603F068FE0A2004F039FB04EB2F
:104F10000508444508D014F8011B304603F05CFE38
:104F20000A2004F02DFBF4E71049304603F054FE4C
:104F300006460A2004F024FB3846FFF786FF14F8E3
:104F4000013CF6B2B34218BF4FF0FF35054804F0FC
:104F500045FC2846BDE8F0813C0D11004A0D1100CA
:104F6000560D11003068FF3F020000F0040000F011
:104F700038B50546094C4FF0FF31204604F02BFCB4
:104F800000221146281DFFF743FD0546204604F088
:104F900025FCB5FA85F0400938BD00BF3068FF3FF9
:104FA000002208B511460430FFF732FDB0FA80F058
:104FB000400908BD2DE9F74F80469246894621B940
:104FC0007D222A492A4800F0BDF9BAF1140F04D90C
:104FD0007E222649274800F0B5F94FF0FF312648D8
:104FE00004F0F9FB4046FFF7DBFFB0B34D46404607
:104FF00008F16006FFF723FF2049304603F0ECFD7F
:105000000A2004F0BDFA1E4B1E4A09EB0A0B5D454F
:1050100001920093C9EB050412D00021304603F041
:10502000DBFD07460A2004F0ABFA009B9F4207D045
:10503000019A974202D005F8017BE8E74FF0FF3470
:10504000544506D10E49304603F0C6FD0A2004F04F
:1050500097FA4046FFF7F9FE00E00446064804F0E0
:10506000BDFB204603B0BDE8F08F00BF3C0D110032
:105070004A0D1100560D11003068FF3F010000F08D
:10508000040000F0100000F070B50E46044615460E
:1050900002F026F9013609D02046002102F04AF933
:1050A00029462046BDE8704002F040B970BD38B5D1
:1050B0000C4601220546FFF7E7FF0F2C06D12146DB
:1050C0002846BDE838400122FFF7DEBF38BD70B585
:1050D0000E460446154602F003F901360DD0294666
:1050E000204602F039F92046012102F023F920463A
:1050F000BDE87040012102F019B970BD0022FFF730
:10510000E6BF0000014800F0A4B800BF880D110000
:1051100010B50446013001D110BD0C3191F90030B9
:105120005A1C0BD09C42F8D12046896802F078FFC7
:105130002046BDE81040012102F084BF0248BDE8CE
:10514000104000F0A1B900BF900D1100884208B5D1
:105150000AD0431C07D0013106D0044800F094F96E
:105160004FF0FF3008BD084608BD00BFA10D11007B
:1051700091F900305A1C05D0834201D1486870472C
:105180000C31F5E718467047421C10B5044607D0AD
:10519000FFF7EEFF431C044602D1024800F074F909
:1051A000204610BDB20D11000368D0B544685B689D
:1051B000D4E9026798470022B04242EA00023B4627
:1051C00002D2003247F10103C4E90223D0BD2DE928
:1051D00070430646FFF7E8FF71684B68ABB1D1E951
:1051E0000245D3E90023AB4208BFA2420BD3B2EB86
:1051F000040863EB0509B9F1000F08BFB8F1E04FEF
:1052000003D2121B03E0002201E04FF0E0423368BA
:1052100088681B691044BDE870431847436870B53F
:105220001D7C04460E468DB903681B689847636869
:10523000002000210122C3E902011D6020465D60BB
:105240001A74FFF7B1FF2046FFF7C1FF63681E60C5
:1052500070BD036870B5DB680446984763685B6897
:10526000A3B12046FFF7A0FF65686E68D5E902018B
:10527000D6E90023994208BF904207D3F3686B60D8
:105280002B68002BEAD0B0689847E7E72046BDE8D6
:105290007040FFF79CBF2DE9F84305460C461646C3
:1052A0001F46DDF8208000F0A5F82846FFF77CFFB8
:1052B0006968C4E900674B68C4F80880002243B1FC
:1052C000D3E900894F4508BF464502D31A46DB683B
:1052D000F5E7E3600AB94C6000E0D4602846FFF7C8
:1052E00076FFBDE8F84300F0B1B838B505460C4686
:1052F00000F080F86A685368A34206D1DB6828464C
:105300005360FFF764FF06E0134623B1DA68944266
:10531000FAD1E268DA60BDE8384000F097B810B51D
:105320000446FFF741FF6368D3E9020110BD0000A6
:1053300000487047040E11000148FFF78ABF00BF04
:10534000040E110070B504460D46164600F052F8E2
:1053500033462A462146034800F038F8BDE870403D
:1053600000F002B80C0E110008B500F043F89620CA
:1053700004F02AF9962004F027F9F8E730B50D4635
:105380000446A1B000F036F82B462246802168463C
:1053900009F028F9051E03DC00F058F821B030BDF3
:1053A000084B1B6823B909220821074802F0D8FFDF
:1053B00000241DF804100448013403F0C8F8A54285
:1053C000F7D1E9E7609DFF3F44B1FF3F0FB407B558
:1053D00004A951F8040B0191FFF7D0FF03B05DF869
:1053E00004EB04B07047EFF3108000F0010080F090
:1053F0000100704738B5FFF7F6FF054672B60E4C50
:10540000236823B980F001030C4ADBB213702368D0
:10541000013304D145220A490A48FFF793FF236864
:105420002BB125B1492206490748FFF78BFF2368B6
:105430000133236038BD00BF8897FF3F8C97FF3F43
:105440003D0E11006D0E1100930E110010B50A4CA7
:10545000236883B1FFF7C7FF20B15A2207490848E4
:10546000FFF770FF2368013B236023681BB9054BDE
:105470001B7803B962B610BD8897FF3F3D0E11003F
:10548000930E11008C97FF3F0FB413B5084B1A7899
:105490004AB9012405A904981C700191FFF76EFF19
:1054A000204603F080FF02B0BDE8104004B0704712
:1054B0008D97FF3F38B51548154B0B250360154BED
:1054C0001C244560C460836001F016F9124B18601B
:1054D0001248134BC46080E82800124B836001F02F
:1054E0000BF9114B18601148114BC46080E828007B
:1054F000104B836001F000F90F4B186006F0EAF9D9
:10550000BDE838400021084600F060B86CA0FF3FBD
:10551000A70E110040A0FF3FB8A0FF3F5CA0FF3FD7
:10552000B70E1100BCA0FF3FB4A0FF3F7CA0FF3F1F
:10553000C40E1100D8A0FF3F8CA0FF3F094A0A48C3
:10554000C2F180431946B3F5806F28BF4FF48061E4
:105550005B1A016005499818086005490B60054B06
:105560001A60704758B1FF3F9497FF3F9097FF3FF5
:105570008C9EFF3F909FFF3F7047704708B50D4AD4
:105580000D4B002113614FF4805353614823D360C6
:105590000A4B0B489360182393610A4B136001F088
:1055A000E1FD10B90848FFF76FFFBDE8084000F0C3
:1055B00063BA00BF90A0FF3F40A1FF3FF4A0FF3FB0
:1055C000B5541000CE0E1100DA0E110008B5FFF729
:1055D000D3FFBDE80840FDF7F1B9000010B5FFF7B3
:1055E000ADFF0A4B0A499A680A48043A52F8044F38
:1055F00041F8044F8142F9D1074A9A60FFF7BDFF95
:1056000000F0F4F9BDE81040FFF7B8BF00ED00E08E
:10561000FC3FFF3F8C40FF3F0040FF3F02F0B4BF24
:1056200008B5024C23689847FCE700BF0064FF3FC1
:1056300008B5FFF7F5FFFCE708B505460C4601F095
:10564000ADFD6B1E0246042B24D8DFE803F0030DEA
:1056500013191E00204601F089FD22460346012150
:105660000F48FFF711FF19E0234602210D48FFF70D
:105670000BFF13E0234603210B48FFF705FF0DE066
:1056800004210A48FFF700FF08E005210848FFF75A
:10569000FBFE03E029460748FFF7F6FEFEE700BFE2
:1056A000F60E1100470F11009D0F1100021011009E
:1056B0005D101100BD10110008B5014610B1132096
:1056C00001F0C2FC002008BD10B5044600F031F81E
:1056D000EFF305832BB9EFF3108313B9EFF31183C5
:1056E0003BB16FF00501002000F016F86FF00500E7
:1056F00010BD2046DFF804C000DF10BDB956100011
:1057000070477047704770477047704770477047E1
:1057100070477047704770477047704770477047D1
:1057200070477047704770477047704770477047C1
:1057300070477047704770477047704770477047B1
:1057400070477047704770477047704770477047A1
:105750007047704770477047704770477047704791
:105760007047704770477047704770477047704781
:105770007047000070B56348017A0446012900F0C3
:10578000BD8011B14FF0FF3009E05F4DA822083015
:1057900006F05AF96B6D472B06D86FF00A00FFF739
:1057A000B5FF4FF0FF3070BDEA68002AEAD02B8ABF
:1057B000002BE7D0EE6AA4F85C30AB68296B30466A
:1057C0006266A36400F08AF908B1C4F888606E6963
:1057D000A969304600F082F908B1E66702E0D4F822
:1057E0008830E367EE69296A304600F077F910B136
:1057F000C4F8806003E0D4F88830C4F880306E6A62
:10580000A96A304600F06AF910B1C4F8846003E078
:10581000D4F88830C4F884306E6B46B1F368B2684F
:105820003168304600F0D5F908B1C4F88C60AE6B31
:1058300046B1F368B2683168304600F0CAF908B181
:10584000C4F89060EE6B46B1F368B26831683046D8
:1058500000F0BFF908B1C4F894602E6C46B1F3684B
:10586000B2683168304600F0B4F908B1C4F8986005
:105870006E6C46B1F368B2683168304600F0A9F941
:1058800008B1C4F89C60AE6C46B1F368B268316888
:10589000304600F09EF908B1C4F8A060EE6C46B145
:1058A000F368B2683168304600F093F908B1C4F883
:1058B000A4602D6D45B1EB68AA682968284600F000
:1058C00088F908B1C4F8A850104AFF2382F82230A2
:1058D00092F82230D16863F0FF03DB43B3FA83F31D
:1058E000C1F30221C3F120038B4298BF4B1CFE2160
:1058F00001FA03F3DBB2D37701232372FFF708FF2A
:10590000002070BD0864FF3F3C11110000ED00E075
:1059100010B5034C207AFFF7FCFE207A10BD00BFC3
:105920000864FF3F38B52A4C237A012B02D06FF070
:1059300006000BE0236B274D6BB9AA6D194626486C
:1059400001F080FA206330B94FF0FF30FFF7DEFE40
:105950004FF0FF3038BD6B6E5BB1236D4BB91D4A04
:105960001946D26D1D4801F06DFA194B18650028D3
:10597000EAD01B4801F0DBF80028E5D001F0F4F98B
:105980002B68DB074CBF0223032383F31488154BDA
:105990001B68E36000F0B4FF0028A0610FDB00F19A
:1059A000604303F56143FF2283F800234211012382
:1059B00000F01F0003FA00F00B4B43F8220000F048
:1059C000B9FF02232372FFF7A6FE002038BD00BFF7
:1059D0000864FF3F3C111100315610005572100051
:1059E0002C64FF3FB864FF3F00E100E008B5FFF71B
:1059F0008EFEEFF305832BB9EFF3108313B9EFF3AA
:105A0000118333B16FF00500FFF780FE6FF00500E2
:105A100008BDDFF820C0EFF3148313F0020F06D1A6
:105A2000EFF30883203B23F0070383F3098800DFAB
:105A300008BD00BF7557100008B5EFF305832BB9FB
:105A4000EFF3108313B9EFF3118333B14FF0FF304D
:105A5000FFF75FFE4FF0FF3008BDEFF31483DB0765
:105A600003D4BDE80840FFF753BFDFF808C000DFEC
:105A700008BD00BF1159100008B5FFF74BFEEFF34A
:105A800005832BB9EFF3108313B9EFF3118333B10F
:105A90006FF00500FFF73AFE6FF0050008BDFFF755
:105AA000CBFF022805D00B4B1B6813B15B6803B119
:105AB0009847DFF824C0EFF3148313F0020F06D1E8
:105AC000EFF30883203B23F0070383F3098800DF0B
:105AD00008BD00BF40B1FF3F2559100038B50C4646
:105AE000034630B140EA010212F0070201D1172942
:105AF00006D8184600222146FFF702FE002038BDD6
:105B0000A1F1080410251960456025188560225010
:105B1000C2600122FFF7F4FD012038BDF8B518B1CD
:105B200011B132F0030304D00023FFF7EAFD002097
:105B3000F8BD0F3121F0070100F108052E68D5F8F6
:105B400004E0731B2EF003041B1B994205D9346833
:105B50003546002CF2D12346E7E7436842EA0107C5
:105B60000B444360BEF1000F03D16F6005F10804E0
:105B700005E02B192E515F6003F108042B602346CA
:105B8000FFF7BFFD2046F8BD38B500B121B90022AE
:105B9000FFF7B8FD002038BDA1F1080500F10803AA
:105BA0000022AB4205D01C681A46002CEFD02346D9
:105BB000F7E75C6824F003054468641B44600AB995
:105BC0005A6001E01B6813600122FFF79BFD012072
:105BD00038BD2DE9F0410D4617461C460646F8B182
:105BE00001B312B323B302FB01F84FF0000E316092
:105BF000C0F804E003EB080EF3607361B260C0F814
:105C000010E0FFF780FD2346013D03D0DA191A604A
:105C10001346F9E7C7EB080025500120BDE8F081E5
:105C2000BDE8F0810846BDE8F0811046BDE8F0818E
:105C30001846BDE8F08138B5054620B90146FFF7A2
:105C400063FD284638BD031D026853E8001F8A42E1
:105C500002D8BFF32F8F04E0481C43E8000404B1CE
:105C6000F3E72B688B420ED905F1140353E8000FBC
:105C700010B9BFF32F8F04E0026843E8002101B19F
:105C8000F4E7044600E0002428462146FFF73CFDE7
:105C9000204638BD38B528B1C3688B4202D80369A5
:105CA000994206D36FF00302FFF72FFD6FF0030058
:105CB00038BD031D53E8002F12B9BFF32F8F04E046
:105CC000541E43E8004505B1F4E782B100F1140326
:105CD0001A680A60BFF35F8F53E8002F0C68944284
:105CE000F6D143E8001505B1F2E7002401E06FF0BA
:105CF00002042246FFF709FD204638BD036B30B58C
:105D0000A3B1CD780024DA78AA4204D25A681C469E
:105D10001AB11346F7E71A4623464A608B600AB168
:105D2000916000E0C16223B1596003E04B608B6079
:105D3000C1620163283050E8003F5A1C40E800214E
:105D400001B1F8E730BD4B688A680BB19A6000E09A
:105D5000C2628A680AB153607047036370470000EB
:105D60002DE9F74F804600B131B96FF003010020F3
:105D7000FFF7F1FC00208EE0033121F0030303F173
:105D80000C090193B9FA89F1B0FA80F30B441F2B87
:105D9000EBDD09FB00FAE2B19468D2F800B01669B5
:105DA00050693CB1A30702D1D368332B05D86FF0FB
:105DB0000801DCE7D368002BF9D13EB116F00303EC
:105DC00001D182455FD96FF00901D0E700285ED08C
:105DD000F9E793461646314BD3F8A80010B1FFF708
:105DE0002AFF05E001223421D3F88800FFF796FE50
:105DF000044620B96FF00401FFF7ADFC41E026BB7B
:105E00000125264F00225146D7F88400FFF786FE71
:105E1000064690B96FF00401FFF79DFC002DA9D054
:105E2000D7F8A85021461DB12846FFF733FFA1E758
:105E3000D7F88800FFF7A8FE9CE75246002105F03E
:105E400003FE45F00200C0B200E001200823019AE1
:105E50002370012363700023A070A3606262A362B9
:105E6000E36223634A463346C4F804B0414604F172
:105E70000C00FFF7AEFE0A4A084B20469A67FFF770
:105E80006CFC204607E0002CA5D01846DEE7002C6D
:105E9000A1D00546B5E703B0BDE8F08F0864FF3F29
:105EA000A15F10002DE9F0410E4690461D460446C4
:105EB00018B10378082B00D141B920466FF00301D7
:105EC000FFF749FC6FF00300BDE8F081437823B988
:105ED0006FF00201FFF73FFC5CE0836803B35B787F
:105EE000832B1DD1FFF73EFC204600F020FE054627
:105EF0000122002100F076FF284600F0F7FE05465B
:105F0000626A3146806805F079FDEB680BB183F871
:105F100000802046A968FFF72AFC0020BDE8F08138
:105F200004F10C00FFF787FE0746B8B1626A3146FC
:105F30000C3005F063FD07233B70002501237B70C7
:105F400039462046BD7087F80380FFF7D7FE20460C
:105F50003146FFF707FC2846BDE8F081B5B12A4677
:105F600031462046FFF7FBFB0C4B2046D96900F079
:105F7000CBFD2946932001F067F8EFF309836FF01A
:105F800001009E60C3F80C80BDE8F08131462046D8
:105F9000FFF7E9FB6FF00200BDE8F0810864FF3F06
:105FA000F8B543780446002B7AD08678002E3ED090
:105FB000C5686B78002B73D001460026284605F192
:105FC0000C07FFF7C0FE667021463846FFF762FEF9
:105FD000AB68002B64D05B78932B61D13846FFF718
:105FE0002AFE044600285BD0284600F0A0FD0746A4
:105FF0003246314600F0F6FE384600F077FE07469E
:106000006A6A816804F10C0005F0F8FC072323702C
:1060100001236370A670FB6821462846E370FFF7F2
:106020006DFEB9682846BDE8F840FFF79BBB856860
:106030006B78ABB3AB684BB35B78832B26D14168ED
:106040002846FFF78FFB284600F071FD07463246D1
:10605000314600F0C7FE384600F048FE06466A6A40
:1060600004F10C01806805F0C9FCF3680BB1E2781B
:106070001A70B1682846FFF77AFB00236370214647
:1060800005F10C00BDE8F840FFF704BE6168284642
:10609000FFF768FB21462846BDE8F840FFF72EBE13
:1060A000F8BD10B500F1280353E8002F12B9BFF373
:1060B0002F8F04E0511E43E8001404B1F4E70AB93D
:1060C000002010BDC06A01230028F9D0821CD2E84C
:1060D0004F1FC2E8443F04B1F9E711F0FF0F01D0B0
:1060E0008068F1E710BD00002DE9F0410D4617462C
:1060F0009846044618B10378082B00D141B92046D0
:106100006FF00301FFF727FB6FF00300BDE8F0819C
:10611000437823B96FF00201FFF71DFB3EE0FFF764
:10612000C0FF0646E8B101462046FFF70CFE626A52
:1061300006F10C01284605F061FC0FB1F3783B70C5
:1061400029462046002504F10C07FFF710FB757067
:1061500031463846FFF79EFDA3681BBB0020BDE813
:10616000F081B8F1000F15D0424629462046FFF7CE
:10617000FCFA234B2046D96900F0C6FC4146832037
:1061800000F062FFEFF309836FF001009D60DF60B4
:10619000BDE8F08129462046FFF7EAFA6FF00200D9
:1061A000BDE8F0815B78932BD8D13846FFF743FDEB
:1061B00006460028D2D0204600F0B9FC0746294602
:1061C000012200F00FFE384600F090FD0746626A9B
:1061D000816806F10C0005F011FC072333700123E0
:1061E0007370B570FB683146F3702046FFF786FD8B
:1061F0002046B968FFF7B6FA2846BDE8F08100BF2F
:106200000864FF3F70B506460D461446FFF7A4FA32
:10621000EFF305832BB9EFF3108313B9EFF3118379
:1062200033B16FF005010020FFF795FA002070BD33
:10623000304629462246DFF820C0EFF3148313F0DE
:10624000020F06D1EFF30883203B23F0070383F30B
:10625000098800DF70BD00BF615D10002DE9F041CD
:1062600004460F4690461D46FFF778FAEFF3058384
:1062700033B9EFF310831BB9EFF31183002B3CD03C
:1062800024B12378082B01D107B145B120466FF026
:106290000301FFF760FA6FF00300BDE8F081637857
:1062A0002BB96FF002012046FFF755FA21E004F107
:1062B0000C00FFF7C0FC0646B8B1626A39460C30E4
:1062C00005F09CFB07233370012373703046B570D3
:1062D00086F803807760B46000F0E0FA2046394623
:1062E000FFF73FFA2846BDE8F08139462046FFF720
:1062F0003AFA6FF00200BDE8F08120463946424686
:106300002B46DFF808C000DFBDE8F081A55E100075
:10631000F8B504460D4617461E46FFF725FAEFF37B
:1063200005832BB9EFF3108313B9EFF31183A3B3F4
:1063300024B12378082B01D105B13EB120466FF07E
:106340000301FFF708FA6FF00300F8BD63782BB97B
:106350006FF002012046FFF7FEF91BE02046FFF731
:10636000A0FE064690B100F10C01626A284605F0D5
:1063700045FB0FB1F3783B7029462046FFF7F7F94C
:106380003046F46000F08AFA0020F8BD2946204625
:10639000FFF7EEF96FF00200F8BD204629463A46B5
:1063A0003346DFF808C000DFF8BD00BFE960100029
:1063B00070B530B390E86000846864B114F00303F2
:1063C00002D1C2681B2A0AD86FF008010020FFF72B
:1063D000B4F9002070BDC368ABB1F5E70123042216
:1063E0002270A370012200236270E6706560A360D2
:1063F000E3602361636123762046FFF7A0F920461E
:1064000070BD054606460A4BD3F89C0010B1FFF755
:1064100012FC05E001221C21D3F88800FFF77EFB67
:1064200004460028DAD16FF00401FFF786F9E6E7A9
:106430000864FF3FF8B5314B0546DE690F4636B9B3
:106440006FF00701FFF779F94FF0FF30F8BD10B199
:106450000378042B07D028466FF00301FFF76DF98E
:106460006FF00300F8BD437813B96FF0020116E036
:10647000047E54B9F36A0121C66043610461F0628D
:106480000176FFF760F92046F8BDC378DA0710D52A
:10649000C26896420DD1FF2C04D16FF00F01FFF7B7
:1064A0004CF928E0611CC9B20176FFF74CF90020D5
:1064B000F8BDEFB19B070CD5EB6896F8202093F957
:1064C000200051B2884204DA83F82020E86800F006
:1064D00049FB39462846FFF734F93146284600F093
:1064E00013FB3946532000F0AFFD6FF00100F8BDFB
:1064F0002846FFF729F96FF00200F8BD0864FF3F56
:1065000038B5354B0446DD6935B96FF00701FFF743
:1065100014F94FF0FF3038BD10B10378042B07D0C9
:1065200020466FF00301FFF708F96FF0030038BD54
:10653000437813B96FF0020109E0C3689D4202D0AD
:106540006FF00D0103E0017E31B96FF00E01FFF72E
:10655000F4F86FF0020038BD0139C9B20176FFF7D7
:10656000F5F8237E002B34D163690BB122691A61DF
:1065700022690AB1536100E0EB62E3789B0710D512
:1065800095F82130EA6A52B1916831B191F9201041
:106590005BB28B42B8BF0B46DBB25269F3E785F8BA
:1065A0002030A36893B1204600F0C1FA05460022CE
:1065B000114600F017FCEB6A012163610023E560DE
:1065C00023612046EC622176FFF7BDF8002000F041
:1065D000DBFB002038BD00BF0864FF3F10B5044658
:1065E00010B10378042B07D020466FF00301FFF7AA
:1065F000A4F86FF0030010BD437833B96FF00201C7
:10660000FFF79BF86FF0020010BD00234370037E7C
:10661000002B32D06369C0680BB122691A6122690C
:106620000AB1536100E0C362E3789A0716D590F887
:106630002130C26A52B1916831B191F920105BB238
:106640008B42B8BF0B46DBB25269F3E790F82020CB
:10665000934203D080F8203000F084FAA3681BB97D
:10666000002000F091FB08E0204600F060FA0022D4
:106670006FF0020100F0B6FBF0E7A378DB070BD563
:10668000084B2146D3F89C0010B1FFF703FB03E051
:10669000D3F88800FFF778FA2046FFF759F8002072
:1066A00010BD00BF0864FF3F2DE9F04104460026FD
:1066B0000127FCB1E378D4F814801B0718D526769F
:1066C00000212046FFF742F8A3688BB1204600F076
:1066D0002EFA05460022114600F084FBEB6AE560C5
:1066E000636126610121EC6220462776FFF72BF8D3
:1066F0004446DEE7BDE8F08110B50446FFF71EF81A
:10670000EFF305832BB9EFF3108313B9EFF3118384
:1067100033B16FF005010020FFF70FF8002010BD26
:106720002046DFF820C0EFF3148313F0020F06D1E8
:10673000EFF30883203B23F0070383F3098800DF8E
:1067400010BD00BFB163100038B504460D46FEF71A
:10675000F7FFEFF305832BB9EFF3108313B9EFF3D2
:1067600011833BB120466FF00501FEF7E6FF6FF0A5
:10677000050038BD20462946DFF804C000DF38BDDB
:106780003564100010B50446FEF7DFFFEFF3058314
:106790002BB9EFF3108313B9EFF311833BB120460C
:1067A0006FF00501FEF7C9FF6FF0050010BD204630
:1067B000DFF804C000DF10BD0165100010B504460D
:1067C000FEF7C5FFEFF305832BB9EFF3108313B981
:1067D000EFF311833BB120466FF00501FEF7ADFFEB
:1067E0006FF0050010BD2046DFF804C000DF10BDCB
:1067F000DD65100010B5D0E85F3F5A1C914200D80B
:106800000022C0E8542F04B1F5E798B210BD000093
:1068100070B51F4D2C461F4EB5F85C10D6E85F3F93
:1068200013B9BFF32F8F04E05A1EC6E8502F00B1F2
:10683000F4E79BB23BB31848FFF7DCFF6B6E53F8ED
:10684000200000B30378013B062BE5D801A252F8E3
:1068500023F000BF716810001968100075681000FF
:1068600019681000796810007D68100081681000B8
:10687000A36E06E0E36E04E0236F02E0636F00E0C6
:10688000A36F9847C7E70020BDE8704000F07CBACE
:106890000864FF3F6664FF3F6A64FF3F70B5164CB3
:1068A0000546B4F85C1004F15E02D2E85F3F9942FD
:1068B00002D8BFF32F8F04E0581CC2E8560F06B170
:1068C000F3E79BB28B4210D204F16000FFF792FF16
:1068D000636E43F82050637A23B9084B4FF080521F
:1068E0005A6070BD0123E37270BD2946BDE8704057
:1068F0000220FEF7A1BE00BF0864FF3F00ED00E0EC
:10690000084B094ADB6852684FF0FF30B3FBF2F3E3
:10691000064A013B536000239360054BFF2283F836
:10692000232070470864FF3F3C11110010E000E095
:1069300000ED00E0014B07221A60704710E000E014
:10694000014B1B68704700BF10E000E038B5FFF74F
:10695000F7FF1D4BD3E904019A6D013041F10001AD
:10696000C3E904011D4602B1904700F061F900201F
:1069700000F00AFAAA6C144B22B3196C186A81420F
:1069800002D018645A6438BD5A6C0AB1013A5A648C
:106990006B6C0D4CB3B9237A022B13D1E56A8DB120
:1069A00095F9202091F920309A420BD1284600F029
:1069B000CFF8206C00F0E8F8284600F0D5F9A36C79
:1069C0002564636438BD00BF0864FF3F10B5034B06
:1069D000DC692046FEF7A4FE204610BD0864FF3F98
:1069E00008B5FEF7A2FEDFF810C000DF4FF0FF3160
:1069F0000020FEF791FEFEE79170100012F0020FEA
:106A000010B502F0010222D100F1280382B153E84F
:106A1000000F00EA01028A4203D0BFF32F8F00204B
:106A200005E020EA010243E8002404B1EFE710BDCD
:106A300053E8000F084203D1BFF32F8F002005E079
:106A400020EA010243E8002404B1F1E710BD806AA6
:106A500001EA00031AB1994218BF002010BD002BB3
:106A600008BF002010BD000010B5002343708378DC
:106A700004469A070CD513F0100F016B0E4B04D08F
:106A8000D3F88C00FFF706F902E0D86FFFF77CF827
:106A9000A378DB070ED5084B2146D3F8900018B138
:106AA000BDE81040FFF7F6B8D3F88800BDE8104005
:106AB000FFF76AB810BD00BF0864FF3F10B5044679
:106AC00010B10378012B05D020460021FEF727FEE8
:106AD000002010BD4378002BF6D04168FEF71FFE62
:106AE000606810BD074A10B5936B002413B11C46B3
:106AF0001B69FBE7C161446103610CB1206110BDFA
:106B0000906310BD0864FF3F10B579B1836891F9B7
:106B1000202033B193F92040944202DB18469B6851
:106B2000F7E7C8608B60816003B1D96010BD8368EE
:106B30002BB19A68826002B1D0600022DA601846F8
:106B4000704720B10378012B01D1C068F9E7704785
:106B5000C36833B182689A60826802B1D36000234F
:106B6000C360704710B5014604462378012B03D15A
:106B7000E468002CF9D110BD0846FFF7E9FF204674
:106B8000BDE81040FFF7C0BF012301464370014834
:106B9000FFF7BABF2C64FF3F4B1C30B402460C46D3
:106BA00002D130BCFFF79EBF0C4900204B6B33B1C4
:106BB000DD69AC4203D31846641B1B69F7E7D46157
:106BC0005061136108B1026100E04A631BB1D969E9
:106BD0005A610C1BDC6130BC704700BF0864FF3F8A
:106BE000C16910B54B1C42690CD11AB90F4B9B6B94
:106BF00098421AD1036903B15A6142697AB90B4AC2
:106C0000936310BD1AB9094B5B6B98420DD10369B0
:106C10001BB1DC695A612144D96142691AB113611F
:106C20000023436110BD014A536310BD0864FF3F58
:106C300038B52D4B5C6B1D46002C54D0E369013BED
:106C4000E361002B4FD16378532B27D008D8332B27
:106C50001BD0432B1CD0132B31D1FEF76BFD2EE044
:106C6000732B21D007D8632B29D12046FFF769FF6A
:106C7000FEF76FFD23E0832B1CD0932B1FD1204602
:106C8000FFF75FFFFEF76CFD19E0FEF750FD16E021
:106C90002046FFF756FFFEF74FFD10E02046FFF7B6
:106CA00050FFFEF74FFD0AE02046FFF74AFFFEF7D0
:106CB00051FD04E02046FFF744FFFEF757FDA36BAC
:106CC0002046196AFEF72FFD2046FFF741FF2046B8
:106CD000FFF75AFF246924B1E369002BB3D00023E6
:106CE00063616C6338BD38BD0864FF3F806B203042
:106CF0007047000010B50123094A437090F9201035
:106D0000D36A243233B193F920408C4202DD1A4613
:106D10009B68F7E7C2608360906003B1D86010BDE4
:106D20000864FF3F044B1B682BB11B691BB1034A6E
:106D3000126A506C1847704740B1FF3F0864FF3F2C
:106D4000074BD96951B10B6B8A6B934203D21A6816
:106D5000044B9A4202D00120FEF76EBC704700BF80
:106D60000864FF3FA52E5AE210B504460223437083
:106D7000044B1862FFF7E4FF2046BDE81040FEF721
:106D8000D3BC00BF0864FF3F10B5154B04461A7A08
:106D9000D96970B9022ADC6A21D101B3FCB194F936
:106DA000202091F920309A4219DD2046FFF7D0FECD
:106DB00008E0022A0ED169B190F9202091F9203023
:106DC0009A4207DD0846FFF795FF2046BDE81040D0
:106DD000FFF7CABF2046BDE81040FFF7D5BE10BD83
:106DE0000864FF3F70B504460E461546FEF79BFC4F
:106DF000A36B20461E62FFF7F3FE20461DB1BDE8DF
:106E00007040FFF7C1BFBDE87040FFF7BDBE38B5A9
:106E100043780446332B13D190F82320416AFFF7BF
:106E2000EDFD054660B1014600222046FFF7DAFF7E
:106E30002A4694F82310606ABDE83840FEF778BC13
:106E400038BD00002DE9F04F85B0039102938146D3
:106E500010B96FF003011EE082B3946802F11005CF
:106E6000E0CD3CB1A30702D1D368472B05D86FF022
:106E700008010FE0D368002BF9D12DB1680700D1CC
:106E80007EB96FF00A0105E047B17B1E372B06D9AA
:106E90006FF00B010020FEF73FFC56E018273EB1D3
:106EA00002E0002FF1D118277107EAD1472EE8D967
:106EB0001368D2F804B00193CCB904E01646154625
:106EC0009346182701925A4BD3F8900010B1FEF761
:106ED000B2FE05E001224821D3F88800FEF71EFE2D
:106EE000044638B96FF00401FEF716FC9BE04FF042
:106EF000000A01E04FF0010A8DBBDFF83481A6B92A
:106F00004C4AD8F88C00566D78B1FEF794FE0546D1
:106F100040B96FF004010020FEF7FEFBBAF1000F4C
:106F20000CD112E04AF0100A17E02A463146D8F890
:106F30007C00FEF7F3FD054678B9EAE7D8F89050F3
:106F4000214625B12846FEF7A5FE00206CE0384B0F
:106F5000D3F88800FEF718FEF7E74AF0020A019B13
:106F6000012263600023A360E36023616361A36186
:106F7000E36184F823306362A362E362A6F1400315
:106F80002B44A3632C4B22706270FFB2FD2284F865
:106F900002A084F803B084F8207084F8217084F88B
:106FA000222025636663C4F83C902B60214B1B684C
:106FB0005B0711D504352A46B608A6F111034FF038
:106FC000CC311BB142F8041B013BFAE706F18046C5
:106FD000113E05EB860500E0A56B2B4605F134025A
:106FE000002143F8041B9342FBD1144B144A6B63FA
:106FF0004FF08073EB63039BC5F838902B620C4B0A
:1070000020469A66FEF78AFB0E4B1B6833B19B68DD
:1070100023B1029920469847606401E0029B6364B3
:107020002046FFF7B1FE204605B0BDE8F08F00BF57
:107030000864FF3F3C111100A52E5AE2E1691000DF
:107040000F6E100040B1FF3FF8B5104D0746EC69D8
:107050000E46CCB12B7A022B04D02046FFF778FDE8
:107060000020F8BDE86A80B12046FEF75BFB3146A0
:1070700020466770FFF790FD05F12400FFF757FDEC
:10708000FFF772FE0120F8BD2046F8BD0864FF3FFF
:1070900070B51C4DEC69002C32D0E06AFFF704FBA0
:1070A000A06930B100221146FFF79CFEA069FEF7EF
:1070B00038FB2B7A134E022B22D1F36A03B3EFF382
:1070C0000983A36306F12400FFF731FDFFF74CFEAF
:1070D0000023F361E378DB0701D5A3691BB12046E8
:1070E000FFF7C2FC07E004226270E360F36BA36069
:1070F00003B1DC60EC632046BDE87040FEF716BBD0
:1071000070BD00BF0864FF3FF8B507460E46154640
:107110001C46FEF702FBEFF305832BB9EFF3108358
:1071200013B9EFF3118333B16FF005010020FEF7BF
:10713000F3FA0020F8BD384631462A462346DFF8E8
:1071400020C0EFF3148414F0020F06D1EFF308848B
:10715000203C24F0070484F3098800DFF8BD00BF59
:10716000456E10000023FFF7CFBF000008B50346AF
:10717000EFF305822AB9EFF3108212B9EFF311820F
:107180002AB118460021FEF7CAFA002008BDDFF830
:1071900008C000DF08BD00BFBD6A100008B5EFF3EE
:1071A00005832BB9EFF3108313B9EFF3118323B1E8
:1071B0000020FEF7B5FA002008BDDFF808C000DFA8
:1071C00008BD00BFCD6910000C4A30B5D36C002457
:1071D00033B11D69A94203D31C46491BDB68F7E79D
:1071E00001618460C3601BB11D699860691A1961EF
:1071F0000CB1E06030BDD06430BD00BF0864FF3F1B
:1072000070B5134DEC6C14B323690126013B236167
:107210002369E3B9E3680BB1A2689A60EB640023C9
:107220001A4604F11801686DFFF718F818B12146E5
:107230000320FEF701FAE378012B04D161692046AF
:10724000FFF7C2FF00E06670EC6C002CE0D170BD6F
:107250000864FF3F0F4B13B51A6E0821586EFEF7F6
:10726000D1FF0D4C606590B10C4BA3654FF0FF331F
:1072700000226946606DFFF74BF80028F6D19DE8C3
:107280000300FEF758FA0198009B9847EEE702B01A
:1072900010BD00BF3C1111000864FF3F01721000D7
:1072A000FEE700F079BC00F0F3BC00F073B8FEE735
:1072B00001F026B801F03CB800F002BFFEE7FEE79F
:1072C000FEE7FEE7FEE7431C10B5044605D00021AB
:1072D00000F0A6FE0120A04010BD002010BD00005F
:1072E00038B505460F4B0C46036029710846FFF779
:1072F000EAFF0D4BA8601A69A10022F480521A61BE
:107300001A6901F1804122F080521A6101F5E031E1
:107310000A78012060F384020A701A6942F08052F0
:107320001A6138BD00C0004000B0014090F904006F
:1073300000F088BE074A136923F48053136119B91A
:1073400003688268DA607047012902BF03688268B7
:107350009A60704700B00140054A136923F48053D6
:1073600013610368826809B11A6070475A607047F8
:1073700000B00140064A136923F480531361036887
:107380001A6883681A4214BF01200020704700BFAA
:1073900000B001402DE9F0472C4ADFF8C0801369A6
:1073A0002B4E23F48053136100231C46D8F804208D
:1073B000002A46D0D8F804700A220121D8F8040027
:1073C00001FA02F5054224D00A3A072A25D8DFE857
:1073D00002F0042424243A06080A00241DE00224B2
:1073E0001BE0032419E01B4DDFF86C9005F1200A27
:1073F000002355F8040F48B1D9F80030012198470F
:10740000D9F8003002212868984701235545F0D16A
:1074100002E00132122AD1D16BB956F8240060B1D2
:107420000D4D01212B6898472B68022156F8240046
:107430009847002302E0012300E00346C8F83070BB
:10744000B4E7BDE8F0870124E7E700BF00B00140E2
:10745000F09CFF3FFC9CFF3F389DFF3F00C0004079
:1074600010B54C1C02D14FF0FF3010BD01248C40F0
:1074700001600A394460072932D8DFE801F004319D
:107480003131070A0D1023490B6029E021494B6077
:1074900026E020498B6023E01E49CB6020E01D4997
:1074A0000C690CB90B611BE04C690CB94B6117E01E
:1074B0008C690CB98B6113E0CC690CB9CB610FE01E
:1074C0000C6A0CB90B620BE04C6A0CB94B6207E01A
:1074D0008C6A0CB98B6203E0CC6A002CC3D1CB62FE
:1074E0000D490B6923F480530B6141680B4B83609A
:1074F000D9601963996119621961094B00201A60FA
:10750000084B202283F806234022C3F880211A600A
:1075100010BD00BFF09CFF3F00B0014000C0004024
:10752000389DFF3F00E100E0064A0021136923F483
:1075300080531361836842685A610268024B43F8C2
:107540002210704700B00140F09CFF3F82B0002342
:1075500001930190019B23B100BF019B013B01936B
:10756000F8E702B070470000F8B50646174C002552
:107570001227954228D2A760C820FFF7E7FF4B5D8E
:10758000132B0AD110231120A360A360A360A06075
:10759000A360A360A060A06001E00135A360C820E3
:1075A000FFF7D4FF1623C820A360FFF7CFFF306892
:1075B0000368DB06FCD4C820FFF7C8FF33681B68EC
:1075C0005B07D6D50220F8BD0020F8BD0070004052
:1075D00000F028B900F0C6B900F0D7B900F0E3B95F
:1075E0002DE9F3410646019117461C46FFF7F4FFCB
:1075F000019B02A943F0010341F8043D012206F179
:107600000C00FFF7B1FF054628BB01467A1E1A4F52
:107610004FF013088C421DD9C7F80880C820FFF727
:1076200095FFF3681868800703D418684007F9D5F8
:1076300002257B6801318C4202F8013F84BF102390
:10764000BB60F3681868000611D41B685B07E1D5BE
:10765000022500E025B13046FFF7C0FF284608E0CC
:10766000089B13B13046FFF7B9FF204601E0032520
:10767000F1E702B0BDE8F081007000402DE9F34170
:10768000054602AE46F8041D05F10C0790461C465F
:10769000FFF7A2FF314601223846FFF765FF064695
:1076A00030B9224641463846FFF75EFF064620B114
:1076B0002846FFF793FF304605E0089B13B12846A4
:1076C000FFF78CFF204602B0BDE8F0817FB50024B3
:1076D0004E4BADF800408DF802401A694C4922F437
:1076E00080521A618A68204642F00C028A601A6948
:1076F0002F2122F080521A61464A20269160D160E3
:107700001A69052122F480321A61434A03259160E7
:10771000D1601A69414942F480321A611A6922F033
:1077200080021A61A3F5A0331A7C42F080021A7419
:107730001A7C42F040021A741A7C42F020021A7439
:1077400000F010F9072320468DF801308DF8006015
:107750008DF80240FFF740FF032269460C20FFF737
:1077600003FF2046FFF73AFF20468DF800608DF8B2
:1077700001508DF80240FFF72FFF2A4669460C2082
:10778000FFF7F2FE2046FFF729FF4FF6FF70FFF7E5
:10779000DDFE8DF800602046FF268DF801508DF843
:1077A0000260FFF719FF2A4669460C20FFF7DCFE4E
:1077B0002046FFF713FF1A4A01AB516810688DF895
:1077C000016003C31189927A19809A7006238DF89B
:1077D00000308DF802600020FFF7FEFE01AB1919A2
:1077E00001220C20FFF7C0FE032269460C20FFF7A0
:1077F000BBFE0020FFF7F2FE01344FF6FF70FFF7EB
:10780000A5FE0C2CE7D104B070BD00BF00B0014054
:1078100000C0004000C001400000014040420F0095
:1078200008121100F8B50D4604464549284616468B
:10783000FDF7AAFC434907463046FDF7A5FC014683
:107840003846FDF783FCE060013004D149223E490F
:107850003E48FDF777FDE3680022DA60E2683C4BC2
:107860009A423C4A3C4B11690BBF21F0800121F444
:107870000051116111610CBF20224FF48022C3F826
:1078800080211A60E268137C43F040031374E268BD
:10789000137C43F02003137400F07EFB2F4BE2684F
:1078A000B0FBF3F0137C8008023860F30403137418
:1078B000E368C0F34710586121492846FDF728FCCA
:1078C00030462049FDF724FC2846052100F0BAFB8C
:1078D0003046052100F0B6FB1E4BA8001A6900F1E6
:1078E000804022F080521A6100F5E03007780122D2
:1078F000B10062F3840701F18041077001F5E031C6
:10790000087802FA05F562F38400087019691448D2
:1079100041F080511961196902FA06F621F480518B
:10792000196181682E430E4386601A6942F48052C1
:107930001A61E268137C43F080031374F8BD00BF42
:10794000241311009C131100131211005F12110077
:107950000070004000B0014000E100E0A08601009E
:1079600000C0004038B505460C4600F015FBB0FBE2
:10797000F4F0EA688008137C023860F3040313749F
:10798000EB68C0F34710586138BD10B50446C268B3
:107990001368DB07FCD5012001F0F2FDE368152236
:1079A0009A60002010BD10B50446C2681368DB075A
:1079B000FCD5012001F0E4FDE36814229A601B6805
:1079C00013F0340F14BF6FF00100002010BD00F061
:1079D00091BB08B500F0E0FB08BD00F00FBC00F063
:1079E000C5BB00F0CFBB00002DE9F74F8A46064625
:1079F0005F49504691461C469DF93080FDF7C4FB17
:107A00005C4905464846FDF7BFFB5B4901902046AF
:107A1000FDF7BAFB594907464046FDF7B5FB019B08
:107A2000834619462846FDF791FB594605463846D8
:107A3000FDF78CFB01462846FDF788FB30600130DE
:107A400004D143224E494F48FDF77CFC4E4D32682D
:107A50004E4B20469A422B6947490CBF23F0400306
:107A600023F400732B612B69012723F480332B61EE
:107A7000FDF74EFB3E495046FDF74AFB2B6907FADE
:107A800004F023F480532B61414B07FA08F2996804
:107A9000024307FA0AF002430A439A60DA6807FAD7
:107AA00009F10A43DA602B69204623F08053A400D1
:107AB0002B61002104F1804400F0C4FA04F5E034A5
:107AC0000221504600F0BEFA2378B9F1FF3F67F378
:107AD00084032370237967F3840323710BD0254932
