:020000040010EA
:1020000000000040619910004D99100031731000DC
:1020100051991000539910005599100000000000CC
:10202000000000000000000000000000BD9810004B
:1020300059991000000000002599100035991000F2
:1020400033731000377310005F9910004173100054
:102050003F7310004D7310003B7310004973100064
:102060005F9910005F9910005F9910005573100080
:102070005F99100045731000537310005F991000B2
:102080005F991000517310004F7310005F9910009A
:10209000044B05481B1A062B02D9044B03B1184701
:1020A000704700BFC365FF3FC065FF3F00000000F1
:1020B00005490648091A891001EBD171491002D06F
:1020C000034B03B118477047C065FF3FC065FF3F32
:1020D0000000000010B5064C237843B9FFF7D8FF85
:1020E000044B13B10448AFF300800123237010BDEB
:1020F000C065FF3F000000000821110008B5084B33
:102100001BB108490848AFF300800848036813B9B9
:10211000BDE80840CCE7064B002BF9D09847F7E71D
:1021200000000000C465FF3F08211100C065FF3FAB
:10213000000000007047704738B5064D002404F5D4
:10214000B4702844183C07F067FC14F5C07FF6D142
:1021500038BD00BFDC65FF3F10B5044607F0BAF993
:10216000204610BD10B50446403002F017FD204651
:1021700010BD000038B505460446074B45F8283B1E
:1021800006F00AFE636B13B19B6828469847204609
:1021900006F0DAFE204638BDAC18110010B5044632
:1021A000054A08302060114607F07EFC22680023B3
:1021B00063601370204610BD091B110010B5044662
:1021C00007F088F9204610BD10B50446FFF7D2FF8E
:1021D000204607F07FF9204610BD0000F0B52D2302
:1021E00085B0174D174C00268DF808300823074698
:1021F0008DF8093002AA296800960223204606F0CD
:1022000001FB38238DF808303F238DF8093002AAEE
:10221000296800960223204606F0F4FA31238DF84F
:102220000C30FC238DF80D300096022303AA296898
:10223000204606F0E7FA01233B7405B0F0BD00BF6D
:10224000A440FF3F8C67FF3FF0B50D4D85B00D4CAE
:1022500004AA0026322302F8043D074629680096A6
:102260000123204606F0CEFA0096022302AA29682E
:10227000204606F0E7FA9DF809307B6005B0F0BD16
:10228000A440FF3F8C67FF3FF0B50D4D85B00D4C6E
:1022900004AA0026342302F8043D07462968009664
:1022A0000123204606F0AEFA0096022302AA29680E
:1022B000204606F0C7FA9DF80930BB6005B0F0BDB6
:1022C000A440FF3F8C67FF3FF0B50D4D85B00D4C2E
:1022D00004AA0026362302F8043D07462968009622
:1022E0000123204606F08EFA0096022302AA2968EE
:1022F000204606F0A7FA9DF80930FB6005B0F0BD56
:10230000A440FF3F8C67FF3F10B50446FFF79CFFDA
:102310002046FFF7B9FF2046BDE81040FFF7D4BFC5
:1023200008B5FFF7F1FFBDE80840322007F08CB98F
:102330001FB50B7804466D2B08464DD1274B9942AB
:1023400004D131238DF80C30FC233AE0244B994220
:1023500004D131238DF80C30FD2332E0214B99421A
:1023600004D131238DF80C30FE232AE01E4B994214
:1023700001D1312316E01D4B99421ED01C4B9942CE
:1023800004D138238DF80C307F231AE0194B994281
:1023900004D138238DF80C30BF2312E0164B99423C
:1023A00004D138238DF80C3003230AE013490BF0D5
:1023B000E0F888B92046FFF711FF38238DF80C307C
:1023C0003F238DF80D300E490023009303AA02230A
:1023D00009680C4806F016FA04B010BDE80A1100AE
:1023E000EC0A1100F00A1100F40A1100F90A1100B8
:1023F000FF0A11000D0B1100190B1100260B110023
:10240000A440FF3F8C67FF3F024A02600022027433
:10241000704700BFE00A110073B54248FFF7BEFEE7
:10242000414A42493F4807F020F8414B002203F55A
:10243000C070194643F8042C43F8083C01F8182BE7
:1024400019615A611A76303383424FF00005F0D19A
:10245000354A3849284607F008F83748FFF79EFE06
:10246000314A3249344807F000F83448FFF796FE05
:102470002D4A2E49314806F0F8FF3148FFF78EFE0D
:10248000294A2A492E4806F0F0FF2E4807F000FAA4
:10249000254A2D492B4806F0E8FF2C4C0222032147
:1024A0002B4806F065F92B4E1F4A2B49284806F0A9
:1024B000DCFF204606F020FD266065632046274CA1
:1024C000194A274906F0D1FF204606F015FD26607F
:1024D00065632046234C4FF0FF36134A204906F02F
:1024E000C4FF0423062200960521204606F080FB47
:1024F000314604F12C00E56284F83050656302F047
:1025000045FE009620230222032104F1400002F040
:1025100081FA2046044A144902B0BDE8704006F032
:10252000A4BF00BF5C67FF3FA040FF3F5B9B100064
:10253000E465FF3F392110001868FF3F7467FF3FD3
:102540006068FF3F3068FF3FAB981000E067FF3FD7
:102550008C67FF3FAC18110035211000A867FF3FC2
:10256000752110007868FF3F652110000368184747
:1025700008B10B68036070477047000038B5064D1E
:10258000002404F5B4702844183C07F045FA14F50B
:10259000C07FF6D138BD00BF6076FF3F10B5094C53
:1025A00090B02046FFF7B0FEE368626800930649EA
:1025B000A36803A80AF04AFF03A9044802F07AFCC2
:1025C00010B010BD586FFF3F4C0B11006C6FFF3FF8
:1025D00010B50446034B40F8043B02F0DFFA2046F6
:1025E00010BD00BF380B110010B50446FFF7F0FF17
:1025F000204606F06FFF204610BD000000F10803E2
:1026000073B5044603600D4681B108460AF0C3FF66
:102610000F2805EB000601900BD9002201A92046E6
:1026200007F0DEF9019B2060A36002E0074807F095
:10263000B1F932462946206807F036FA2046019B58
:10264000226800216360D15402B070BD5D0B11009F
:1026500010B5044606F050FC024B204623600023D0
:10266000636310BDAC18110010B5064C204601F094
:1026700069FB054801F042F82046BDE810400349D7
:1026800001F07CBBF06AFF3F3871FF3F870B110000
:1026900008B590E80600044802F05EFC034B1860A1
:1026A000143818BF012008BD746EFF3F9870FF3FBB
:1026B00010B5014604460422044802F04DFC044BC8
:1026C00018604FF02033236010BD00BF746EFF3FD1
:1026D0009870FF3F08B50B4802F092FC80B11422BD
:1026E0002021094809F014FA14220749054802F08C
:1026F000A9FC064B0449186005480AF044FF012074
:1027000008BD00BF746EFF3F056CFF3F9870FF3F30
:102710002C69FF3FC36810B504460BB19B6898470E
:10272000204610BD70B50546074B064645F8103BE0
:1027300045B100F13004AC4204D0103C2046FFF714
:10274000E9FFF8E7304670BD7418110010B5044673
:10275000FFF7E8FF204606F0BDFE204610BD000052
:1027600010B504460A4B4C3003F1200240F84C3CB3
:102770007C3340F8182C40F8143C07F096F804F12C
:10278000340007F00BF82046FFF7CCFF204610BDC1
:10279000E8171100A0F13400E2E7A0F13800DFE70C
:1027A00038B5CB6804460D460BB15B689847EB68BB
:1027B0002046E36038BD00002DE97F4315460646FC
:1027C0006846FFF7EDFF1049284608F033F86C46DD
:1027D00008F034FA06F12805A5428046894607D05C
:1027E0002846FFF797FF1DB169462846FFF7D8FF37
:1027F00042464B46304606F0B7FA2046FFF78AFFBE
:1028000004B0BDE8708300BF00247449F0B551489E
:1028100089B002F0B9FA50494E4802F04BFB4FF034
:10282000804006F029FF4B4802F05EFAFFF71CFFDC
:102830004A48FFF7D3FC4A4C4A4B4B4A69464B483F
:1028400000930394FFF7B8FF6846FFF763FF484B18
:10285000484A69464848494E00930394FFF7ACFF45
:102860006846FFF757FF25463746337833B9444B60
:102870001B781BB9434B1B78002BF6D04FF4FA7032
:1028800006F006FF404B414A6946414800930395D4
:10289000FFF792FF6846FFF73DFF3B78CBB13D4B1A
:1028A0001C784CB102F0EEFD01213B4804F08AFD9A
:1028B00002F014FE012108E002F0E4FD0121364897
:1028C00004F080FD02F00AFE2146334804F08CFD3E
:1028D000CBE72B4B1B7813B9304B1B789BB92D4B97
:1028E0001B78002BC1D02D4B01222D481A7001F00E
:1028F000FFF94FF4FA7006F0CBFE6A4629492848E2
:1029000001F08CFA22E01F4B1B78002BADD0214B3D
:102910001B78002BA9D0244C214801F0E9F94FF491
:10292000FA7006F0B5FED4F88C211521204600F08F
:1029300037FF04F26D121D4904F24F1368460AF086
:1029400085FD6A461749164801F0DCFA144801F083
:10295000F9F98AE76C6FFF3F8D0B1100586FFF3F4D
:10296000400B1100B1291000CDCCCC3E186FFF3FB9
:10297000593310003333333F086AFF3FBC70FF3FC9
:10298000C869FF3F0870FF3F912B10000000A04076
:10299000D069FF3FCC70FF3FC070FF3F546FFF3FD7
:1029A000F06AFF3F910B11003871FF3F9F0B110040
:1029B00030B587B0684601F0BDFF2D4A136801337A
:1029C00013602C4B197849B100216846197001F049
:1029D000CBFF0121684601F0E5FF08E001246846CD
:1029E0001C7001F0DFFF2146684601F0BDFF02F0D8
:1029F00049FD0021204804F0E5FC02F06FFD1E486F
:102A000004F000FD1D4DE8B91D4B4FF07C520193C1
:102A10001C4B01A91C480493FFF7CEFE01A8FFF749
:102A200079FE0124194901A80AF0ADFD23460222CE
:102A300001A917482C7002F023FA164B1B78A3B19A
:102A4000154B11E0154901A80AF09DFD0E4806F04E
:102A5000A3F900240123022201A90D482C7002F0E1
:102A60000FFA0D4B1C700E4B1C7007B030BD00BF31
:102A70009C70FF3FFC6BFF3F406AFF3FA070FF3F31
:102A8000A52A1000400B1100D070FF3FA90B1100C8
:102A90006C6FFF3F1878FF3FCC70FF3FB00B110009
:102AA000546FFF3FF0B52D4C8FB02D4806F074F9F0
:102AB00023682C4901332C48236002F0FBF923687A
:102AC00027460A2BC4BF00232360284D284E294CDB
:102AD000C4BF2B603360237C3BB9274906A80AF0AA
:102AE00052FD06A92046FFF723FC2248FFF70CFC05
:102AF000224B201D9C6807C8A2420DBF336883E8A3
:102B000007002B6801330EBF336001332B6033683D
:102B1000022193FBF1F12A6891421949B4BF0120C7
:102B200000200870097806A80191396800911549BC
:102B30000AF08CFC06A90C4802F0BCF9124B4FF0CD
:102B40007C520293114B02A905480593FFF734FE0E
:102B500002A8FFF7DFFD0FB0F0BD00BF506FFF3FD1
:102B6000D070FF3FB90B11006C6FFF3F5C76FF3FE9
:102B7000006CFF3F586FFF3F260B1100646AFF3F58
:102B80001878FF3FC90B1100A52A1000400B110057
:102B900010B5404C9EB0404806F0FEF8204600F0CC
:102BA000EBFD204600F084FE00220221204600F0CA
:102BB000F7FDD4F88C211521204600F0F1FD3749AE
:102BC000374806F0FDFD04F169023649344806F045
:102BD000F7FDD4F8903104F26D120193D4F88C31E2
:102BE000314900932E4804F24F1306F0E9FD04F238
:102BF0006D1103A80AF0C7FC01231A4603A92B484C
:102C000002F03EF904F24F1103A80AF0BCFC0123C4
:102C1000022203A9254802F033F92549204806F08D
:102C2000CFFD642006F034FD04F26D110CA8FFF70F
:102C3000E5FC04F24F1112A8FFF7E0FC0D9B0BB16D
:102C4000139BA3B91B4B4FF07E5218931A4B18A934
:102C500011481B93FFF7B0FD18A8FFF75BFD12A802
:102C600006F0DAFE0CA806F0D7FE1EB010BD04F286
:102C70004F1304F26D12114906A80AF0E7FB06A9EA
:102C800018A8FFF7BBFC18A8FFF702FD18A806F06C
:102C9000C3FED7E73871FF3FD069FF3FEB0B110050
:102CA000A86AFF3F670D1100F70B11006C6FFF3F23
:102CB000081B1100912B1000400B1100120C110089
:102CC000F0B50446ADB09C4806F066F821469B4836
:102CD00002F0F0F820469A490BF0AEFA994D002424
:102CE00060B1B4F5967F09D0014628190AF04BFC73
:102CF000934900200BF0A0FA1E34F1E7914C924961
:102D000020460AF036FC0546002875D18F4800F0B1
:102D1000CBFC8F4801F016F8012006F0B9FC8D4974
:102D200004F11E000AF025FC8B4F8C4E08B90122DD
:102D300006E08B4904F11E000AF01BFC28B92A4664
:102D40000221824800F07EFD4BE0864904F11E001E
:102D50000AF00FFC10B901221146F2E7824904F192
:102D60001E000AF006FC10B92A460121E9E77F4956
:102D700004F11E000AF0FDFB10B92A466321E0E7CA
:102D80007B4904F11E000AF0F4FB70B9794906A8EA
:102D90000AF0F9FB06A913A8FFF730FC13A8FFF708
:102DA00077FC13A806F038FE1BE0734904F11E00FF
:102DB0000AF0DFFB88B9714904F13C000AF0D9FB45
:102DC00038B96F4B169613934FF07E5213A96D4886
:102DD0000CE06C4805F0E0FF2DE26B495B4800F029
:102DE000A9FC6A4A54481397169613A9FFF7E4FC06
:102DF00013A8FFF78FFC1EE2654920460AF0B9FBD5
:102E00000546002840F0FE80514800F071FF4F4811
:102E100000F074FC012006F03BFC5E4904F11E004A
:102E20000AF0A7FB002841D15B4904F13C000AF0FD
:102E3000A0FB494A494B13921693544A13A970B9FF
:102E40003D48FFF7B9FC13A8FFF764FC534906A8F7
:102E50000AF099FB06A93E4800F090FFC2E06F46D9
:102E60003548FFF7A9FC13A8FFF754FC04F16606E8
:102E7000D4F85AC0D4F85E20D4F862307634BE4616
:102E8000306871680836AEE80300A6427746F6D18E
:102E9000318813A8AEF8001061460AF074FB06AB47
:102EA000502213A92A4800F0DBFF9BE03C4904F1C3
:102EB0001E000AF05EFBE8B96F46D4F83CC0226CF5
:102EC000636C04F148065834BE46306871680836B1
:102ED000AEE80300A6427746F6D1318813A8AEF8D3
:102EE000001061460AF04FFB2E4A2F49184801F0A6
:102EF00009F877E02D4904F11E000AF03AFB164F5D
:102F0000164E002854D1214A13A90B481397169640
:102F1000FFF752FC13A8FFF7FDFB13A90C4800F0C4
:102F20006DFF13A8FFF7C4FB01231A4613A903483A
:102F300001F0A6FF56E000BF086AFF3F6C6FFF3F3D
:102F4000180C11001A6CFF3F1A0C11003871FF3F6A
:102F5000F06AFF3F1F0C110059331000400B1100A5
:102F6000250C11002C0C1100330C11003B0C11002E
:102F7000420C1100460C11005A0C1100300C1100CB
:102F8000912B1000D069FF3F620C11003333333FA7
:102F9000670C11006C0C1100710C11007A0C1100FF
:102FA0008D0C1100910C1100910B1100A50C11005A
:102FB000A64904F11E000AF0DCFA98B9A44A13A944
:102FC000A44813971696FFF7F7FB13A8FFF7A2FB89
:102FD000A14906A80AF0D7FAA04B13AA06A9A0484F
:102FE00000F0F4FE9F4B9A4A13939F4B13A9994804
:102FF0001693FFF7E1FB13A8FFF78CFB984800F04E
:10300000A1FE9CE1994920460AF0B3FA954F054686
:10301000954E002840F09780954906A80AF0B3FA2B
:1030200006A9944800F086FB934904F11E000AF0BB
:10303000A0FA88B9864A13A9864813971696FFF70F
:10304000BBFB13A8FFF766FB8C4B169613934FF050
:103050007C5213A98A48F3E08A4904F11E000AF061
:1030600088FA80B97A4A13A97A4813971696FFF717
:10307000A3FB13A8FFF74EFB834801F035FE804801
:1030800005F08AFE5BE1814904F11E000AF071FA45
:10309000C8B913A96E4A6F4813971696FFF78CFBB1
:1030A00013A8FFF737FB00231C461A461946784839
:1030B000FFF736F92246774913A80AF0C7F913A893
:1030C000FFF7F6FA3BE1E37F6D2B05D104F11E011A
:1030D0006F48FFF72DF9AEE06F4904F11E000AF0CA
:1030E00048FAD0B95A4A13A95A4813971696FFF7C7
:1030F00063FB13A8FFF70EFB6849634801F0DAFE93
:10310000674B4FF07C5213A9664813931696FFF74E
:1031100053FB13A8FFF7FEFA06E1634904F11E0012
:103120000AF027FA002840F0E180494A13A94948EB
:1031300013971696FFF740FB13A8FFF7EBFA5948D1
:1031400005F02AFEF0E0594920460AF012FA00285C
:1031500040F0E080564904F11E000AF00AFA50B926
:10316000444800F0CBFA052006F06EFA3C4800F027
:10317000BFFD504920E0504904F11E000AF0F9F962
:1031800050B9374800F0DEFD052006F05DFA3948F9
:1031900000F08AFA49490FE0494904F11E000AF09B
:1031A000E8F9C0B92E4800F0CDFD052006F04CFA34
:1031B000304800F0A3FA434913A80AF0E4F913A831
:1031C000FFF776FA2348224A06A906970996FFF7E1
:1031D000F3FA06A89AE03C4904F11E000AF0C9F986
:1031E000002800F08B80394904F11E000AF0C1F973
:1031F000002800F08380364904F11E000AF0B9F976
:1032000050B9344A00231370334A01251370334AEE
:103210001570334A13700EE0324933480AF0A9F9A9
:10322000002863D12B4B012518702B4B18702B4BAA
:1032300018702B4B1D70064A06481397169613A953
:10324000FFF7BAFA13A8FFF765FA78E0A80C1100A7
:103250003333333F086AFF3FB60C11000080BB4494
:10326000F06AFF3F59331000400B1100BE0C1100F3
:10327000C50C11003871FF3F300C11009D25100066
:10328000E077FF3F370C11006C6FFF3FD80C110047
:10329000586FFF3FDD0C1100E50C1100C00B110051
:1032A000A52A1000D070FF3FEB0C1100FD0C11009F
:1032B000000D11000C0D1100130D11001F0D110058
:1032C000260D11002D0D11003C0D11006C0C11008C
:1032D000440D1100046CFF3FC869FF3FBC70FF3F05
:1032E0000870FF3F4A0D1100386CFF3F154906A8D2
:1032F0000AF049F906A9144800F01CFA1348144AC8
:1033000013A913971696FFF757FA13A8FFF702FAB7
:10331000012514E00F4913A806F00AFD13A8FFF7D2
:10332000B7F913A806F078FB094A13A907481397C1
:103330001696FFF741FA13A8FFF7ECF900E02846CC
:103340002DB0F0BDF20C11003871FF3F086AFF3F4D
:103350003333333F006FFF3F7FB50F4B1B78C3B153
:10336000FFF7B8F9012814D10C496846FFF746F970
:103370006846FFF78DF9684606F04EFB0748FFF7F1
:103380009FFC06486422202107B05DF804EB08F09A
:10339000BFBB07B05DF804FBA840FF3F2C69FF3FAF
:1033A00010B50446FFF7DCF9204606F093F82046F6
:1033B00010BDA0F13400F3E7A0F13800F0E7000001
:1033C00073B57F497F48FFF719F97F4A7F497D48E8
:1033D00006F04BF87E4B002203F5C070194643F807
:1033E000042C43F8083C01F8182B19615A611A762D
:1033F000303383424FF00004F0D1734A75492046C0
:1034000006F033F86E497448FFF7F8F86E4A6F49D2
:10341000714806F02AF86A497048FFF7EFF86A4ADF
:103420006A496E4806F021F865496D48FFF7E6F8ED
:10343000654A66496A486B4D06F017F86A4806F017
:1034400027FA4FF0FF36604A6849674806F00DF8E2
:103450000423062200960521284605F0C9FB3146C3
:1034600005F12C00EC6285F830406C6301F08EFEB3
:10347000202300960222032105F1400001F0CAFA40
:10348000514A5B49284605F0F0FF5A4800F004FB1A
:103490004D4A5949574805F0E8FF584800F066FD85
:1034A000494A5749554805F0E0FF1121554805F0B4
:1034B00045FA454A5449534805F0D7FF5348FEF7AB
:1034C000A3FF414A5249514805F0CFFF5148FFF749
:1034D000BFF83D4A50494F4805F0C7FF4F483A4AA8
:1034E00000F1080380E818003849047205F0BDFFB8
:1034F0004B48FFF7ADF8344A4749494805F0B5FF56
:103500004848112104600471846001F018FE4648A7
:10351000072104600471846001F011FE4348FFF745
:1035200097F8294A3C49414805F09FFF4048FFF77A
:103530008FF8254A38493E4805F097FF3D48FFF788
:1035400087F8214A34493B4805F08FFF3A48FFF796
:103550007FF81D4A3049384805F087FF3748FFF7A4
:1035600077F8194A2C49354805F07FFF3448FFF7B2
:103570006FF8154A2849324805F077FF3148FFF7C0
:1035800067F8114A24492F4805F06FFF4FF4E133E3
:1035900000930922234608212B4805F055FA0A4AD0
:1035A0002A49294805F061FF294801F09DFC064A97
:1035B0002849274802B0BDE8704005F056BF00BF5B
:1035C000091B11001469FF3FA040FF3F5B9B1000E7
:1035D0006876FF3F7D2510004C6AFF3F0C70FF3F6F
:1035E000A470FF3F6C6FFF3F0871FF3FAB98100066
:1035F000652110003871FF3F59361000F06AFF3F17
:10360000A13C1000C06BFF3F01891000586FFF3FC5
:1036100037211000E077FF3F75211000006FFF3F5A
:10362000186FFF3F406AFF3FC070FF3FD070FF3F01
:10363000086AFF3F2870FF3F6070FF3FD069FF3F7F
:103640009069FF3F2078FF3F746AFF3F61271000B9
:10365000746EFF3FD12510007047000038B5064D4D
:10366000002404F5B4702844183C06F0D5F914F58C
:10367000C07FF6D138BD00BFF478FF3F10B50446D7
:1036800005F028FF204610BD10B50446054A083055
:103690002060114606F008FA226800236360137068
:1036A000204610BD091B110038B50379054613BB30
:1036B000662400F0EFFF28B1013C03D00A2005F09A
:1036C000C3FFF6E701F0DEFE01210B4803F07AFEAE
:1036D00001F004FF01F0D6FE0021074803F06EFE62
:1036E00001F0FCFE0021044803F07EFE642005F09A
:1036F000CFFF01232B7138BD047BFF3F38B5054652
:103700000B4C01F0BFFE0121204603F05BFE01F0EF
:10371000E5FE01F0B7FE0221204603F04FFE01F066
:10372000DDFE0121204603F05FFE00232B7138BD32
:10373000047BFF3F38B50C46451D2946204609F05D
:1037400018FF40B12146284609F01DFF2046BDE87C
:10375000384000F093BF38BD10B5044623793BB123
:1037600000F0D6FF04F16900BDE8104000F0B8BFDA
:103770002046FFF799FFF1E7037910B504463BB106
:1037800000F066FF04F16900BDE8104000F0A8BF3A
:10379000FFF78AFF2046BDE81040FFF7DDBF0000BD
:1037A000F0B50F465124544306199BB0021906F296
:1037B00021260546334602F235221F490DA809F09D
:1037C00045FE012F09D11D4801F08EFA3B463A46CD
:1037D0000DA91A4801F054FB26E0022F0DD12A1939
:1037E000334602F2F9121649684609F02FFE69467F
:1037F00005F2311009F0C7FE16E0152F14D1291972
:1038000001F2F911684609F0BEFE694605F26D1035
:1038100009F0B9FE3146684609F0B5FE694605F281
:103820004F1009F0B0FE05E0684600F027FF0DA834
:1038300000F024FF1BB0F0BD640D11005878FF3F6D
:10384000120C1100022908B508D11AB10F4B10480B
:10385000196813E04FF48B610E480FE0012903D182
:103860000D4B0E48196809E063290ED11AB10C4BB3
:103870000C48196802E00C4B0C48196800F014FF62
:10388000BDE80840C82005F003BF08BDAC40FF3FBD
:103890006C52FF3FB040FF3F6452FF3F3852FF3F42
:1038A0009852FF3FDC40FF3F6852FF3F9C52FF3F72
:1038B0002DE9F04100F1690500F5CA76A4B004468F
:1038C0002946304609F055FE002800F0DD802946E3
:1038D000304609F058FE94F86930242B40F0D4802B
:1038E0000A232946C4F890310BA809F04CFE684918
:1038F0000BA80AF0A1FC00221146064604F27355FB
:103900005120D4F88C3100FB034E0A2B00D80AB1A9
:10391000002535E09EF8F8710FB90122F5E70A2B72
:103920000DD1C4F88C2104F5FC735133AB4201D1A5
:103930000122E6E703F8511CC4F88C11F5E70133C6
:10394000C4F88C31DDE73146684609F01CFE504969
:1039500000200AF071FC0135ADB22FB2022F0646ED
:1039600011D0032F3ED1D4F88C31512000FB0340FD
:10397000694600F20D2009F006FE0A2005F064FEFB
:10398000002EE0D180E007AB4FF00008694605A8A3
:103990000593CDF818808DF81C8006F078F93D4A23
:1039A000394605A806F090F9059905A8053106F0F5
:1039B000DAF8059905A80A3106F0D5F8069BD4F87F
:1039C0008C01093B012B4FF051074CD807FB0040FD
:1039D000059900F2F91009F0D6FDD4F88C0107FB27
:1039E000004048E0042F30D107AB0027694605A806
:1039F000059306978DF81C7006F049F9059905A8FE
:103A000006F0B1F8059905A8043106F0ACF8214A92
:103A1000022105A806F058F9059905A80A3106F013
:103A2000A2F8069BD4F88C01093B012B4FF05108FA
:103A300025D808FB0040059900F2212009F0A3FDDC
:103A4000D4F88C0108FB004015E0052F95D1D4F87F
:103A50008C31512000FB03400122694600F23520E1
:103A600009F0B6FD89E707FB004080F8F88105A85A
:103A700005F0D2FF81E7012380F8F831F7E708FB72
:103A8000004080F8F871F2E724B0BDE8F08100BF93
:103A9000180C11006B0D1100024A02600022C0F8E0
:103AA0008C2170475C0D110073B53548FFF7ECFDB4
:103AB000344A3549324805F0D8FC344B002203F52E
:103AC000C070194643F8042C43F8083C01F8182B41
:103AD00019615A611A76303383424FF00004F0D1F5
:103AE000284A2B49204605F0C0FC2A48FFF7CCFDA8
:103AF000244A2549274805F0B8FC2748FFF7C4FDAC
:103B0000204A2149244805F0B0FC2448FFF7BCFDB9
:103B10001C4A1D492148224D05F0A7FC214805F00B
:103B2000B7FE4FF0FF36174A1F491E4805F09DFCAF
:103B30000423062200960521284605F059F831464F
:103B400005F12C00EC6285F830406C6301F01EFB3F
:103B5000202300960222032105F1400000F05AFFC5
:103B6000084A1249284605F080FC11480C210460DF
:103B70000471846002B0BDE8704001F0E0BA00BF9B
:103B8000747AFF3FA040FF3F5B9B1000FC78FF3F33
:103B90005D361000A47AFF3F8C7AFF3FEC7AFF3F3E
:103BA0005878FF3FBC7AFF3FAB98100065211000AA
:103BB000047BFF3F38B5064D002404F5B47028445B
:103BC000183C05F029FF14F5C07FF6D138BD00BFC1
:103BD000107BFF3F10B50446054A083020601146AF
:103BE00005F062FF2268002363601370204610BD59
:103BF000091B110008B52048FFF7ECFF1F4A2049B8
:103C00001D4805F032FC1F4B002203F5C070194619
:103C100043F8042C43F8083C01F8182B19615A6149
:103C20001A7630338342F2D1144A1749002005F046
:103C30001CFC1648FFF7CEFF104A1149134805F047
:103C400014FC1348FFF7C6FF0C4A0D49104805F055
:103C50000CFC1048FFF7BEFF084A09490D4805F063
:103C600004FC0D4805F014FEBDE80840034A0B496A
:103C7000094805F0FABB00BF907CFF3FA040FF3F22
:103C80005B9B1000187BFF3FB53B1000C07CFF3FE3
:103C9000A87CFF3F087DFF3FD87CFF3FAB9810001A
:103CA0007047000038B5064D002404F5B470284470
:103CB000183C05F0B1FE14F5C07FF6D138BD00BF49
:103CC000207DFF3F10B5044605F004FC204610BDE2
:103CD00010B50446054A08302060114605F0E4FEA0
:103CE0002268002363601370204610BD091B110079
:103CF00038B50379054613BB662400F0CBFC28B128
:103D0000013C03D00A2005F09FFCF6E701F0BAFB66
:103D100001210B4803F056FB01F0E0FB01F0B2FB80
:103D20000021074803F04AFB01F0D8FB00210448BA
:103D300003F05AFB642005F0ABFC01232B7138BD66
:103D4000E87EFF3F38B505460B4C01F09BFB012197
:103D5000204603F037FB01F0C1FB01F093FB022189
:103D6000204603F02BFB01F0B9FB0121204603F0B4
:103D70003BFB00232B7138BDE87EFF3F38B50C4676
:103D8000451D2946204609F0F4FB40B1214628464E
:103D900009F0F9FB2046BDE8384000F06FBC38BDA3
:103DA00030B50D469BB000F16904214601A809F029
:103DB000EAFB284606F004FF06F0E8FC00F0C4FC2D
:103DC00020461BB0BDE8304000F08ABCF8B51E4666
:103DD000037904460F4615460BB9FFF789FF3946AC
:103DE0002046FFF7CBFF31462046FFF7D9FF04F10D
:103DF00069012846BDE8F84009F0C5BB10B50C467E
:103E00000448054905F0DCFC2046BDE8104000F000
:103E10002BBC00BF287FFF3F940D110010B5144646
:103E20008AB00A4668460B4909F010FB6A460A49FF
:103E30000A4805F0C5FC28222021684607F068FEE4
:103E4000684600F011FC6946204609F09CFB0AB068
:103E500010BD00BF980D1100BE0D1100287FFF3F5F
:103E600070B51E460D4696B004A8144605F02CF811
:103E7000282220210CA807F04BFE4FF020331B49CD
:103E800033602A461A4805F09BFC04A804F0A5FFFD
:103E90000CA800F0E9FB17490CA809F06AFBE8B987
:103EA000154800F021FF4FF47A735C4304A804F036
:103EB000F1FF84420EDB04A804F0ECFF0F49024638
:103EC000684609F0C3FA01231A4669460A4800F019
:103ED000D7FFEBE70A49064805F072FC064800F0F8
:103EE00003FF04A804F0A2FF16B070BD9C0D1100E2
:103EF000287FFF3FA80D1100B87FFF3FAB0D1100D9
:103F0000B10D110070B50E461546124C12492046EF
:103F100005F056FC4FF4FA7005F096FB32460F4957
:103F2000204605F04DFC4FF4FA7005F08DFB2A4653
:103F30000B49204605F044FC4FF4FA7005F084FB71
:103F400020461A22074905F03BFCBDE870400648B0
:103F500005F092BB287FFF3FC10D1100CC0D110071
:103F6000670D1100DA0D110000004040014B0360A5
:103F7000704700BF8C0D110073B53B48FFF7A8FEDA
:103F80003A4A3B49384805F070FA3A4B002203F5AB
:103F9000C070194643F8042C43F8083C01F8182B6C
:103FA00019615A611A76303383424FF00004F0D120
:103FB0002E4A3149204605F058FA3048FFF788FE6E
:103FC0002A4A2B492D4805F050FA2D48FFF780FE6C
:103FD000264A27492A4805F048FA2A48FFF778FE7A
:103FE000224A23492748284D05F03FFA274805F083
:103FF0004FFC4FF0FF361D4A2549244805F035FA9D
:104000000423062200960521284604F0F1FD3146DE
:1040100005F12C00EC6285F830406C6301F0B6F8D5
:10402000202300960222032105F1400000F0F2FC5B
:104030000E4A1849284605F018FA4FF4165321463F
:104040000122154804F01CFD084A1449124805F0E5
:104050000CFA1348102104600471846002B0BDE8BA
:10406000704001F06CB800BFA07EFF3FA040FF3F52
:104070005B9B1000287DFF3FA53C1000D07EFF3FDA
:10408000B87EFF3FA07FFF3FB87FFF3F707FFF3FBD
:10409000AB98100065211000F47EFF3F61271000EF
:1040A000E87EFF3F38B5064D002404F5B47028447F
:1040B000183C05F0B1FC14F5C07FF6D138BD00BF47
:1040C0005480FF3F10B50446054A08302060114671
:1040D00005F0EAFC2268002363601370204610BDDF
:1040E000091B110038B52748FFF7ECFF264A27497E
:1040F000244805F0BAF9264B002203F5C070194692
:1041000043F8042C43F8083C01F8182B19615A6154
:104110001A76303383424FF00005F0D11A4A1D4918
:10412000284605F0A2F91C48FFF7CCFF164A1749AC
:10413000194805F09AF91948FFF7C4FF124A1349C4
:10414000164805F092F91648FFF7BCFF0E4A0F49D2
:10415000134805F08AF9134C134805F099FB0A4AF5
:104160001249114805F081F9204604F0C5FE104BB4
:10417000656323602046BDE83840034A0D4905F0D9
:1041800074B900BFD481FF3FA040FF3F5B9B10008C
:104190005C80FF3FA54010004082FF3FEC81FF3F65
:1041A0008882FF3F0882FF3F5882FF3FAB98100094
:1041B000AC1811007521100038B5064D002404F527
:1041C000B4702844183C05F027FC14F5C07FF6D1E4
:1041D00038BD00BF4C8CFF3F00F1080373B50446A7
:1041E00003600D4681B1084609F0D5F90F2805EBAB
:1041F000000601900BD9002201A9204605F0F0FB32
:10420000019B2060A36002E0074805F0C3FB324633
:104210002946206805F048FC2046019B22680021C1
:104220006360D15402B070BD5D0B110073B57B4962
:104230007B48FFF7D1FF7B4A7B49794805F015F9A8
:104240007A4B002203F5C070194643F8042C43F85A
:10425000083C01F8182B19615A611A7630338342F1
:104260004FF00004F0D16F4A7149204605F0FDF887
:104270006A497048FFF7B0FF6A4A6B496D4805F01C
:10428000F4F866496C48FFF7A7FF664A66496A4832
:1042900005F0EBF861496948FFF79EFF614A624902
:1042A0006648674D05F0E1F8664805F0F1FA4FF011
:1042B000FF365C4A6449634805F0D7F804230622B8
:1042C00000960521284604F093FC314605F12C00A8
:1042D000EC6285F830406C6300F058FF20230096B4
:1042E0000222032105F1400000F094FB4D4A57499A
:1042F000284605F0BAF85648FFF7CEFB494A55491B
:10430000534805F0B2F85448FFF730FE454A534988
:10431000514805F0AAF81121514804F00FFB414A19
:1043200050494F4805F0A1F84F48FEF76DF83D4A57
:104330004E494D4805F099F84D48FEF789F9394A3C
:104340004C494B4805F091F84B48364A00F10803B8
:1043500080E818003449047205F087F84748FEF7F2
:1043600077F9304A4349454805F07FF84448112120
:1043700004600471846000F0E2FE4248072104609A
:104380000471846000F0DBFE3F48FEF761F9254AC6
:1043900038493D4805F069F83C48FEF759F9214A8B
:1043A00034493A4805F061F83948FEF751F91D4A99
:1043B0003049374805F059F83648FEF749F9194AA7
:1043C0002C49344805F051F83348FEF741F9154AB5
:1043D0002849314805F049F83048FEF739F9114AC3
:1043E00024492E4805F041F82D48FEF731F90D4AD1
:1043F00020492B4805F039F84FF4E13300930922A6
:1044000023460821274804F01FFB064A2649254871
:1044100002B0BDE8704005F028B800BF091B1100CC
:10442000A082FF3FA040FF3F5B9B1000548CFF3FEA
:10443000B94110003483FF3F1086FF3F9886FF3F4D
:104440007485FF3FF886FF3FAB9810006521100090
:104450002887FF3F59361000C883FF3FA13C10005A
:104460009884FF3F018910006085FF3F37211000CD
:10447000D08DFF3F752110001085FF3F2885FF3F3D
:104480002883FF3FB086FF3FC086FF3FF082FF3F9B
:104490002886FF3F6086FF3FB882FF3FD884FF3FFA
:1044A000088EFF3F4C83FF3F6127100038B5064D53
:1044B000002404F5B4702844183C05F0ADFA14F556
:1044C000C07FF6D138BD00BF408EFF3F10B5044617
:1044D000054A08302060114605F0E6FA22680023FC
:1044E00063601370204610BD091B110008B52048F9
:1044F000FFF7ECFF1F4A20491D4804F0B6FF1F4B91
:10450000002203F5C070194643F8042C43F8083C18
:1045100001F8182B19615A611A7630338342F2D1AF
:10452000144A1749002004F0A0FF1648FFF7CEFFF9
:10453000104A1149134804F098FF1348FFF7C6FFCB
:104540000C4A0D49104804F090FF1048FFF7BEFFD9
:10455000084A09490D4804F088FF0D4805F098F90C
:10456000BDE80840034A0B49094804F07EBF00BF7C
:10457000C08FFF3FA040FF3F5B9B1000488EFF3F76
:10458000AD441000F08FFF3FD88FFF3F3890FF3FC2
:104590000890FF3FAB98100038B5064D002404F595
:1045A000B4702844183C05F037FA14F5C07FF6D1F2
:1045B00038BD00BF5090FF3F10B50446054A083093
:1045C0002060114605F070FA2268002363601370C2
:1045D000204610BD091B110008B50A4804F0DCFB99
:1045E000094804F083FA30B1BDE80840074A084999
:1045F000084805F002B9322220210448BDE80840ED
:1046000007F086BA2898FF3FB492FF3F3093FF3FF0
:10461000BE0D1100E892FF3F08B5084804F066FAA5
:1046200020B1074A0749084805F0E7F80A2005F0D5
:104630002FF8BDE80840054804F0AEBBB492FF3F38
:104640003093FF3FBE0D1100E892FF3F2898FF3FD7
:10465000024A0349034805F0D0B800BF3093FF3F3A
:10466000DE0D1100E892FF3F02460249024805F0C4
:10467000C4B800BFBE0D1100E892FF3F08B5024666
:104680000249034805F09CF8002008BD670D1100A1
:10469000E892FF3F08B5034804F028FA003018BF3D
:1046A000012008BDB492FF3F70B505460E460024B8
:1046B000B44207DC55F824200649074805F080F885
:1046C0000134F5E70D220549034805F079F800208B
:1046D00070BD00BFE70D1100E892FF3FE20C110032
:1046E000014908F050BF00BF3093FF3F884238B502
:1046F00004460D460AD0FEF70DF83CB1EB681BB13D
:104700005B68294620469847EB68E360204638BD41
:104710001FB50A4B0A4C00930A4B694604F1280066
:104720000393FFF7E3FF0A220023204604F01CFB5B
:104730006846FDF7EFFF04B010BD00BF194610003A
:104740002898FF3F400B110070B5144B8CB01860D7
:10475000044604A804F0B8FB04A804F03EFB104E85
:10476000104D04A804F0C2FB0146204606F014FADE
:1047700070B169460C4800960395FFF7B7FF0A220F
:1047800000230A4804F0F0FA6846FDF7C3FFE8E7A3
:1047900004A804F04BFB0CB070BD00BFFC63FF3FEE
:1047A000D9451000400B11005098FF3F2898FF3F5B
:1047B00073B53D48FFF700FF3C4A3D493A4804F0D5
:1047C00054FE3C4B002203F5C070194643F8042CFC
:1047D00043F8083C01F8182B19615A611A763033F6
:1047E00083424FF00005F0D1304A3349284604F0A7
:1047F0003CFE3248FFF7E0FE2C4A2D492F4804F0DA
:1048000034FE2F48FFF7D8FE284A29492C4804F0E7
:104810002CFE2C48FFF7D0FE244A254929482A4C73
:1048200004F023FE294805F033F84FF0FF361F4A05
:104830002749264804F019FE042306220096052184
:10484000204604F0D5F9E56284F8305065633146BE
:1048500004F12C0000F09AFC202300960222032190
:1048600004F1400000F0D6F820461A4C0F4A1A49CD
:1048700004F0FBFD204604F03FFB184B65630B4A38
:1048800017492046236004F0F0FD29464FF41653E3
:104890000122144804F0F4F8044A1349114802B004
:1048A000BDE8704004F0E1BD6C92FF3FA040FF3FC7
:1048B0005B9B10005890FF3F994510009C92FF3F72
:1048C0008492FF3F1098FF3FD091FF3FE097FF3F5A
:1048D000AB9810002898FF3F65211000AC1811001C
:1048E00075211000B492FF3F612710000848094A63
:1048F00008B5121A002107F00BF900F0B7FE07F017
:104900004DF802F02BFF00F0A9FE04F0B0FD00BF4F
:10491000C065FF3FBCB2FF3F022801DD04F02CBDA3
:104920000120704708B5012004F0A1FD08B5FFF78C
:10493000F9FF000038B50546094C0A49204600F049
:104940007DF8204600230222012100F0F7F82046DE
:1049500000230322012100F0F1F8284638BD00BFF2
:104960006098FF3F40420F00012910B50A4606D06B
:1049700002D3022906D010BD0023022209E0002341
:10498000032207E000230121054800F0A7F80023D7
:10499000032201210248BDE8104000F09FB800BF8B
:1049A0006098FF3F012910B50A4606D002D30229BC
:1049B00006D010BD0123022209E00B46032207E0C6
:1049C00001231946054800F089F8012303221946FE
:1049D000BDE81040014800F081B800BF6098FF3F7B
:1049E00013B5094C4FF0FF3300930222202303211B
:1049F000204600F00FF82046044A054902B0BDE801
:104A0000104004F032BD00BF6098FF3FA040FF3F60
:104A10009D4B100038B504461D4603F0A9FE9DF9D4
:104A2000101004F1200003F089FF20462577024989
:104A300003F0BCFE204638BD40420F0008B572B6F8
:104A400003F0B4FE62B608BD1FB572B600238DF840
:104A50000C108DF80D20017F03AA0093022303F0B0
:104A6000D1FE62B605B05DF804FB30B585B004AA8E
:104A7000044602F8011D72B60125017F2B46009500
:104A800003F0C0FE00230093217F2B460DF10E02A0
:104A9000204603F0D7FE62B69DF80E0005B030BD8B
:104AA000D3B2072B70B506460D46144604D93322FF
:104AB0000849094800F08EFC0DB1012D07D12946A7
:104AC0003046FFF7D2FF204100F0010070BD4FF0EB
:104AD000FF3070BDEA0D11000F0E1100F8B51C4635
:104AE000D3B2072B06460D46174604D95C2211495E
:104AF000114800F06FFC1DB1012D1AD1032500E013
:104B0000022529463046FFF7B0FF3CB1012C01D009
:104B1000C2B208E004FA07F2024303E00122BA40FD
:104B200020EA0202D2B229463046BDE8F840FFF73B
:104B30008BBFF8BDEA0D11000F0E1100F8B51C4631
:104B4000D3B2072B06460D46174604D97B221149DE
:104B5000114800F03FFC1DB1012D1AD1072500E0DE
:104B6000062529463046FFF780FF1CB1012C06D0F0
:104B7000C2B208E00122BA4020EA020202E004FACE
:104B800007F20243D2B229463046BDE8F840FFF7AB
:104B90005BBFF8BDEA0D11000F0E110010B5044601
:104BA000203003F0ADFE204610BD481E012809D874
:104BB000501E0F2806D802290ABF3F3218701A70FB
:104BC000012070470020704710B500F14004012318
:104BD000022200212046FFF781FF142004F034FD5B
:104BE000012004F031FD0023204602221946FFF780
:104BF00075FF142004F028FDBDE81040012004F0EA
:104C000023BD10B50446012004F01EFD04F1400050
:104C1000012302220021FFF761FFBDE810401420AC
:104C200004F012BD38B50C4605464FF4FA7004F096
:104C30000BFD2CB1012C0AD123460322002102E0F6
:104C400023462146032205F14000FFF747FF1420C9
:104C500004F0FAFCBDE838404FF4FA7004F0F4BCFC
:104C600010B504460821002203F0ECFF2046BDE801
:104C70001040014903F0FEBF20A1070010B5044613
:104C80000821002203F0DEFF2046BDE81040014964
:104C900003F0F0BF40420F0038B504460D461148FE
:104CA0004FF0FF3104F0FBFD2046FFF7D9FF20460F
:104CB000FFF78AFF20460021FFF7B4FF2946204670
:104CC00003F0EEFF2046FFF79CFF012D204604BFB6
:104CD000A563E563FFF7D2FFBDE83840014804F063
:104CE000E1BD00BF3068FF3F0121FFF7D5BF73B5BD
:104CF0000DF1070304461546FFF757FF50B1A163B6
:104D00009DF807102046E56341F08001FFF7C4FFDE
:104D1000002001E04FF0FF3002B070BD10B5044636
:104D20003021FFF7B9FF022004F0B2FC2046302109
:104D3000FFF7B2FF20463021FFF7AEFF20463921B2
:104D4000FFF7AAFF20461421FFF7A6FF20465621B1
:104D5000FFF7A2FF20466D21FFF79EFF204670213E
:104D6000FFF79AFF20460C21FFF796FF2046062109
:104D7000FFF792FF20460121FFF78EFFBDE81040AC
:104D80000A2004F085BC000038B5044600F1400557
:104D900028460F49FFF752FE0023194628460222F3
:104DA000FFF7CCFE0023194603222846FFF7C6FE74
:104DB0002046FFF726FF2046FFF752FF2046FFF769
:104DC000ADFF01222046BDE838401146FFF78FBFF6
:104DD00040420F002DE9F041161E04460D4648DD05
:104DE000002946D04FF0FF31244804F058FD2046FA
:104DF000FFF736FF2046FFF7E7FE01212046FFF7C9
:104E000011FF2E444FF00108E36B15F8017B102BC6
:104E100009DC0A2F07D03946204603F041FFE36B37
:104E20000133E36317E0A16B012201310229C8BFFE
:104E30000121A163C4F83C802046FFF758FF2046BB
:104E4000FFF70EFF01212046FFF7ECFE2046FFF79B
:104E5000BBFE0A2FDFD1B542D6D12046FFF7D1FEE7
:104E60002046FFF70BFF054804F01CFD0020BDE8BD
:104E7000F0814FF0FF30BDE8F08100BF3068FF3FA8
:104E800070B5064614460D4611B94FF0FF3070BD9F
:104E90001A462146FFF72BFF0028F6D12B465A1B56
:104EA00013F8014B002CFAD129463046FFF792FF48
:104EB000204670BD70B504460D46FFF715FF01236F
:104EC00029462046BDE870401A46FFF7D9BF0023A7
:104ED0001A4601210430FFF701BE012300221946C2
:104EE0000430FFF7FBBD000073B504460546184BC0
:104EF000022244F8043B1123009303214A23204655
:104F0000FFF788FD05F160064FF0FF33009306229E
:104F100004230521304603F06BFE00223046202199
:104F200003F090FE30460B4903F0A4FE00231A461E
:104F300001212046FFF702FE2846FFF7CEFF0022A0
:104F4000204601231146FFF7F9FD284602B070BD47
:104F5000380B110040420F002DE9F041074615467D
:104F60000C4621B95B222049204800F033FA142D69
:104F700004D95C221C491E4800F02CFA4FF0FF3186
:104F80001C4804F08CFC07F160063846FFF79FFFD1
:104F90001949304603F084FE0A2004F055FB04EB67
:104FA0000508444508D014F8011B304603F078FE8C
:104FB0000A2004F049FBF4E71049304603F070FE84
:104FC00006460A2004F040FB3846FFF786FF14F837
:104FD000013CF6B2B34218BF4FF0FF35054804F06C
:104FE00061FC2846BDE8F081280E1100360E110044
:104FF000420E11003068FF3F020000F0040000F094
:1050000038B50546094C4FF0FF31204604F047FC07
:1050100000221146281DFFF743FD0546204604F0F7
:1050200041FCB5FA85F0400938BD00BF3068FF3F4C
:10503000002208B511460430FFF732FDB0FA80F0C7
:10504000400908BD2DE9F74F80469246894621B9AF
:105050007D222A492A4800F0BDF9BAF1140F04D97B
:105060007E222649274800F0B5F94FF0FF31264847
:1050700004F015FC4046FFF7DBFFB0B34D46404659
:1050800008F16006FFF723FF2049304603F008FED1
:105090000A2004F0D9FA1E4B1E4A09EB0A0B5D45A3
:1050A00001920093C9EB050412D00021304603F0B1
:1050B000F7FD07460A2004F0C7FA009B9F4207D07D
:1050C000019A974202D005F8017BE8E74FF0FF34E0
:1050D000544506D10E49304603F0E2FD0A2004F0A3
:1050E000B3FA4046FFF7F9FE00E00446064804F034
:1050F000D9FB204603B0BDE8F08F00BF280E110099
:10510000360E1100420E11003068FF3F010000F022
:10511000040000F0100000F070B50E46044615467D
:1051200002F026F9013609D02046002102F04AF9A2
:1051300029462046BDE8704002F040B970BD38B540
:105140000C4601220546FFF7E7FF0F2C06D121464A
:105150002846BDE838400122FFF7DEBF38BD70B5F4
:105160000E460446154602F003F901360DD02946D5
:10517000204602F039F92046012102F023F92046A9
:10518000BDE87040012102F019B970BD0022FFF79F
:10519000E6BF0000014800F0A4B800BF740E110083
:1051A00010B50446013001D110BD0C3191F9003029
:1051B0005A1C0BD09C42F8D12046896802F078FF37
:1051C0002046BDE81040012102F084BF0248BDE83E
:1051D000104000F0A1B900BF7C0E1100884208B554
:1051E0000AD0431C07D0013106D0044800F094F9DE
:1051F0004FF0FF3008BD084608BD00BF8D0E1100FE
:1052000091F900305A1C05D0834201D1486870479B
:105210000C31F5E718467047421C10B5044607D01C
:10522000FFF7EEFF431C044602D1024800F074F978
:10523000204610BD9E0E11000368D0B544685B681F
:10524000D4E9026798470022B04242EA00023B4696
:1052500002D2003247F10103C4E90223D0BD2DE997
:1052600070430646FFF7E8FF71684B68ABB1D1E9C0
:105270000245D3E90023AB4208BFA2420BD3B2EBF5
:10528000040863EB0509B9F1000F08BFB8F1E04F5E
:1052900003D2121B03E0002201E04FF0E04233682A
:1052A00088681B691044BDE870431847436870B5AF
:1052B0001D7C04460E468DB903681B6898476368D9
:1052C000002000210122C3E902011D6020465D602B
:1052D0001A74FFF7B1FF2046FFF7C1FF63681E6035
:1052E00070BD036870B5DB680446984763685B6807
:1052F000A3B12046FFF7A0FF65686E68D5E90201FB
:10530000D6E90023994208BF904207D3F3686B6047
:105310002B68002BEAD0B0689847E7E72046BDE845
:105320007040FFF79CBF2DE9F84305460C46164632
:105330001F46DDF8208000F0A5F82846FFF77CFF27
:105340006968C4E900674B68C4F80880002243B16B
:10535000D3E900894F4508BF464502D31A46DB68AA
:10536000F5E7E3600AB94C6000E0D4602846FFF737
:1053700076FFBDE8F84300F0B1B838B505460C46F5
:1053800000F080F86A685368A34206D1DB682846BB
:105390005360FFF764FF06E0134623B1DA689442D6
:1053A000FAD1E268DA60BDE8384000F097B810B58D
:1053B0000446FFF741FF6368D3E9020110BD000016
:1053C00000487047F00E11000148FFF78ABF00BF88
:1053D000F00E110070B504460D46164600F052F866
:1053E00033462A462146034800F038F8BDE87040AD
:1053F00000F002B8F80E110008B500F043F896204E
:1054000004F046F9962004F043F9F8E730B50D466C
:105410000446A1B000F036F82B46224680216846AB
:1054200009F044F9051E03DC00F058F821B030BD46
:10543000084B1B6823B909220821074802F0D8FF4E
:1054400000241DF804100448013403F0C8F8A542F4
:10545000F7D1E9E7C89EFF3FACB2FF3F0FB407B5F5
:1054600004A951F8040B0191FFF7D0FF03B05DF8D8
:1054700004EB04B07047EFF3108000F0010080F0FF
:105480000100704738B5FFF7F6FF054672B60E4CBF
:10549000236823B980F001030C4ADBB21370236840
:1054A000013304D145220A490A48FFF793FF2368D4
:1054B0002BB125B1492206490748FFF78BFF236826
:1054C0000133236038BD00BFF098FF3FF498FF3FE1
:1054D000290F1100590F11007F0F110010B50A4C50
:1054E000236883B1FFF7C7FF20B15A220749084854
:1054F000FFF770FF2368013B236023681BB9054B4E
:105500001B7803B962B610BDF098FF3F290F110058
:105510007F0F1100F498FF3F0FB413B5084B1A78B2
:105520004AB9012405A904981C700191FFF76EFF88
:10553000204603F09CFF02B0BDE8104004B0704765
:10554000F598FF3F38B51548154B0B250360154BF3
:105550001C244560C460836001F016F9124B18608A
:105560001248134BC46080E82800124B836001F09E
:105570000BF9114B18601148114BC46080E82800EA
:10558000104B836001F000F90F4B186006F006FA2B
:10559000BDE838400021084600F060B8D4A1FF3FC4
:1055A000930F1100A8A1FF3F20A2FF3FC4A1FF3F1E
:1055B000A30F110024A2FF3F1CA2FF3FE4A1FF3F65
:1055C000B00F110040A2FF3FF4A1FF3F094A0A4873
:1055D000C2F180431946B3F5806F28BF4FF4806154
:1055E0005B1A016005499818086005490B60054B76
:1055F0001A607047C0B2FF3FFC98FF3FF898FF3F2A
:10560000F49FFF3FF8A0FF3F7047704708B50D4A71
:105610000D4B002113614FF4805353614823D36035
:105620000A4B0B489360182393610A4B136001F0F7
:10563000E1FD10B90848FFF76FFFBDE8084000F032
:1056400063BA00BFF8A1FF3FA8A2FF3F5CA2FF3FE3
:1056500045551000BA0F1100C60F110008B5FFF72D
:10566000D3FFBDE80840FDF7D1B8000010B5FFF743
:10567000ADFF0A4B0A499A680A48043A52F8044FA7
:1056800041F8044F8142F9D1074A9A60FFF7BDFF04
:1056900000F0F4F9BDE81040FFF7B8BF00ED00E0FE
:1056A000FC3FFF3F8C40FF3F0040FF3F02F0B4BF94
:1056B00008B5024C23689847FCE700BF0064FF3F31
:1056C00008B5FFF7F5FFFCE708B505460C4601F005
:1056D000ADFD6B1E0246042B24D8DFE803F0030D5A
:1056E00013191E00204601F089FD224603460121C0
:1056F0000F48FFF711FF19E0234602210D48FFF77D
:105700000BFF13E0234603210B48FFF705FF0DE0D5
:1057100004210A48FFF700FF08E005210848FFF7C9
:10572000FBFE03E029460748FFF7F6FEFEE700BF51
:10573000E20F11003310110089101100EE1011005A
:1057400049111100A911110008B5014610B113202B
:1057500001F0C2FC002008BD10B5044600F031F88D
:10576000EFF305832BB9EFF3108313B9EFF3118334
:105770003BB16FF00501002000F016F86FF0050056
:1057800010BD2046DFF804C000DF10BD49571000EF
:105790007047704770477047704770477047704751
:1057A0007047704770477047704770477047704741
:1057B0007047704770477047704770477047704731
:1057C0007047704770477047704770477047704721
:1057D0007047704770477047704770477047704711
:1057E0007047704770477047704770477047704701
:1057F00070477047704770477047704770477047F1
:105800007047000070B56348017A0446012900F032
:10581000BD8011B14FF0FF3009E05F4DA822083084
:1058200006F076F96B6D472B06D86FF00A00FFF78C
:10583000B5FF4FF0FF3070BDEA68002AEAD02B8A2E
:10584000002BE7D0EE6AA4F85C30AB68296B3046D9
:105850006266A36400F08AF908B1C4F888606E69D2
:10586000A969304600F082F908B1E66702E0D4F891
:105870008830E367EE69296A304600F077F910B1A5
:10588000C4F8806003E0D4F88830C4F880306E6AD1
:10589000A96A304600F06AF910B1C4F8846003E0E8
:1058A000D4F88830C4F884306E6B46B1F368B268BF
:1058B0003168304600F0D5F908B1C4F88C60AE6BA1
:1058C00046B1F368B2683168304600F0CAF908B1F1
:1058D000C4F89060EE6B46B1F368B2683168304648
:1058E00000F0BFF908B1C4F894602E6C46B1F368BB
:1058F000B2683168304600F0B4F908B1C4F8986075
:105900006E6C46B1F368B2683168304600F0A9F9B0
:1059100008B1C4F89C60AE6C46B1F368B2683168F7
:10592000304600F09EF908B1C4F8A060EE6C46B1B4
:10593000F368B2683168304600F093F908B1C4F8F2
:10594000A4602D6D45B1EB68AA682968284600F06F
:1059500088F908B1C4F8A850104AFF2382F8223011
:1059600092F82230D16863F0FF03DB43B3FA83F38C
:10597000C1F30221C3F120038B4298BF4B1CFE21CF
:1059800001FA03F3DBB2D37701232372FFF708FF99
:10599000002070BD0864FF3F2812110000ED00E0F8
:1059A00010B5034C207AFFF7FCFE207A10BD00BF33
:1059B0000864FF3F38B52A4C237A012B02D06FF0E0
:1059C00006000BE0236B274D6BB9AA6D19462648DC
:1059D00001F080FA206330B94FF0FF30FFF7DEFEB0
:1059E0004FF0FF3038BD6B6E5BB1236D4BB91D4A74
:1059F0001946D26D1D4801F06DFA194B1865002843
:105A0000EAD01B4801F0DBF80028E5D001F0F4F9FA
:105A10002B68DB074CBF0223032383F31488154B49
:105A20001B68E36000F0B4FF0028A0610FDB00F109
:105A3000604303F56143FF2283F8002342110123F1
:105A400000F01F0003FA00F00B4B43F8220000F0B7
:105A5000B9FF02232372FFF7A6FE002038BD00BF66
:105A60000864FF3F28121100C1561000E5721000B3
:105A70002C64FF3FB864FF3F00E100E008B5FFF78A
:105A80008EFEEFF305832BB9EFF3108313B9EFF319
:105A9000118333B16FF00500FFF780FE6FF0050052
:105AA00008BDDFF820C0EFF3148313F0020F06D116
:105AB000EFF30883203B23F0070383F3098800DF1B
:105AC00008BD00BF0558100008B5EFF305832BB9DA
:105AD000EFF3108313B9EFF3118333B14FF0FF30BD
:105AE000FFF75FFE4FF0FF3008BDEFF31483DB07D5
:105AF00003D4BDE80840FFF753BFDFF808C000DF5C
:105B000008BD00BFA159100008B5FFF74BFEEFF329
:105B100005832BB9EFF3108313B9EFF3118333B17E
:105B20006FF00500FFF73AFE6FF0050008BDFFF7C4
:105B3000CBFF022805D00B4B1B6813B15B6803B188
:105B40009847DFF824C0EFF3148313F0020F06D157
:105B5000EFF30883203B23F0070383F3098800DF7A
:105B600008BD00BFA8B2FF3FB559100038B50C46BC
:105B7000034630B140EA010212F0070201D11729B1
:105B800006D8184600222146FFF702FE002038BD45
:105B9000A1F1080410251960456025188560225080
:105BA000C2600122FFF7F4FD012038BDF8B518B13D
:105BB00011B132F0030304D00023FFF7EAFD002007
:105BC000F8BD0F3121F0070100F108052E68D5F866
:105BD00004E0731B2EF003041B1B994205D93468A3
:105BE0003546002CF2D12346E7E7436842EA010735
:105BF0000B444360BEF1000F03D16F6005F1080450
:105C000005E02B192E515F6003F108042B60234639
:105C1000FFF7BFFD2046F8BD38B500B121B900221D
:105C2000FFF7B8FD002038BDA1F1080500F1080319
:105C30000022AB4205D01C681A46002CEFD0234648
:105C4000F7E75C6824F003054468641B44600AB904
:105C50005A6001E01B6813600122FFF79BFD0120E1
:105C600038BD2DE9F0410D4617461C460646F8B1F1
:105C700001B312B323B302FB01F84FF0000E316001
:105C8000C0F804E003EB080EF3607361B260C0F883
:105C900010E0FFF780FD2346013D03D0DA191A60BA
:105CA0001346F9E7C7EB080025500120BDE8F08155
:105CB000BDE8F0810846BDE8F0811046BDE8F081FE
:105CC0001846BDE8F08138B5054620B90146FFF712
:105CD00063FD284638BD031D026853E8001F8A4251
:105CE00002D8BFF32F8F04E0481C43E8000404B13E
:105CF000F3E72B688B420ED905F1140353E8000F2C
:105D000010B9BFF32F8F04E0026843E8002101B10E
:105D1000F4E7044600E0002428462146FFF73CFD56
:105D2000204638BD38B528B1C3688B4202D8036914
:105D3000994206D36FF00302FFF72FFD6FF00300C7
:105D400038BD031D53E8002F12B9BFF32F8F04E0B5
:105D5000541E43E8004505B1F4E782B100F1140395
:105D60001A680A60BFF35F8F53E8002F0C689442F3
:105D7000F6D143E8001505B1F2E7002401E06FF029
:105D800002042246FFF709FD204638BD036B30B5FB
:105D9000A3B1CD780024DA78AA4204D25A681C460E
:105DA0001AB11346F7E71A4623464A608B600AB1D8
:105DB000916000E0C16223B1596003E04B608B60E9
:105DC000C1620163283050E8003F5A1C40E80021BE
:105DD00001B1F8E730BD4B688A680BB19A6000E00A
:105DE000C2628A680AB1536070470363704700005B
:105DF0002DE9F74F804600B131B96FF00301002063
:105E0000FFF7F1FC00208EE0033121F0030303F1E2
:105E10000C090193B9FA89F1B0FA80F30B441F2BF6
:105E2000EBDD09FB00FAE2B19468D2F800B0166924
:105E300050693CB1A30702D1D368332B05D86FF06A
:105E40000801DCE7D368002BF9D13EB116F003035B
:105E500001D182455FD96FF00901D0E700285ED0FB
:105E6000F9E793461646314BD3F8A80010B1FFF777
:105E70002AFF05E001223421D3F88800FFF796FEBF
:105E8000044620B96FF00401FFF7ADFC41E026BBEA
:105E90000125264F00225146D7F88400FFF786FEE1
:105EA000064690B96FF00401FFF79DFC002DA9D0C4
:105EB000D7F8A85021461DB12846FFF733FFA1E7C8
:105EC000D7F88800FFF7A8FE9CE75246002105F0AE
:105ED0001FFE45F00200C0B200E001200823019A35
:105EE0002370012363700023A070A3606262A36229
:105EF000E36223634A463346C4F804B0414604F1E2
:105F00000C00FFF7AEFE0A4A084B20469A67FFF7DF
:105F10006CFC204607E0002CA5D01846DEE7002CDC
:105F2000A1D00546B5E703B0BDE8F08F0864FF3F98
:105F3000316010002DE9F0410E4690461D460446A2
:105F400018B10378082B00D141B920466FF0030146
:105F5000FFF749FC6FF00300BDE8F081437823B9F7
:105F60006FF00201FFF73FFC5CE0836803B35B78EE
:105F7000832B1DD1FFF73EFC204600F020FE054696
:105F80000122002100F076FF284600F0F7FE0546CA
:105F9000626A3146806805F095FDEB680BB183F8C5
:105FA00000802046A968FFF72AFC0020BDE8F081A8
:105FB00004F10C00FFF787FE0746B8B1626A31466C
:105FC0000C3005F07FFD07233B70002501237B701B
:105FD00039462046BD7087F80380FFF7D7FE20467C
:105FE0003146FFF707FC2846BDE8F081B5B12A46E7
:105FF00031462046FFF7FBFB0C4B2046D96900F0E9
:10600000CBFD2946932001F067F8EFF309836FF089
:1060100001009E60C3F80C80BDE8F0813146204647
:10602000FFF7E9FB6FF00200BDE8F0810864FF3F75
:10603000F8B543780446002B7AD08678002E3ED0FF
:10604000C5686B78002B73D001460026284605F101
:106050000C07FFF7C0FE667021463846FFF762FE68
:10606000AB68002B64D05B78932B61D13846FFF787
:106070002AFE044600285BD0284600F0A0FD074613
:106080003246314600F0F6FE384600F077FE07460D
:106090006A6A816804F10C0005F014FD072323707F
:1060A00001236370A670FB6821462846E370FFF762
:1060B0006DFEB9682846BDE8F840FFF79BBB8568D0
:1060C0006B78ABB3AB684BB35B78832B26D141685D
:1060D0002846FFF78FFB284600F071FD0746324641
:1060E000314600F0C7FE384600F048FE06466A6AB0
:1060F00004F10C01806805F0E5FCF3680BB1E2786F
:106100001A70B1682846FFF77AFB002363702146B6
:1061100005F10C00BDE8F840FFF704BE61682846B1
:10612000FFF768FB21462846BDE8F840FFF72EBE82
:10613000F8BD10B500F1280353E8002F12B9BFF3E2
:106140002F8F04E0511E43E8001404B1F4E70AB9AC
:10615000002010BDC06A01230028F9D0821CD2E8BB
:106160004F1FC2E8443F04B1F9E711F0FF0F01D01F
:106170008068F1E710BD00002DE9F0410D4617469B
:106180009846044618B10378082B00D141B920463F
:106190006FF00301FFF727FB6FF00300BDE8F0810C
:1061A000437823B96FF00201FFF71DFB3EE0FFF7D4
:1061B000C0FF0646E8B101462046FFF70CFE626AC2
:1061C00006F10C01284605F07DFC0FB1F3783B7019
:1061D00029462046002504F10C07FFF710FB7570D7
:1061E00031463846FFF79EFDA3681BBB0020BDE883
:1061F000F081B8F1000F15D0424629462046FFF73E
:10620000FCFA234B2046D96900F0C6FC41468320A6
:1062100000F062FFEFF309836FF001009D60DF6023
:10622000BDE8F08129462046FFF7EAFA6FF0020048
:10623000BDE8F0815B78932BD8D13846FFF743FD5A
:1062400006460028D2D0204600F0B9FC0746294671
:10625000012200F00FFE384600F090FD0746626A0A
:10626000816806F10C0005F02DFC07233370012333
:106270007370B570FB683146F3702046FFF786FDFA
:106280002046B968FFF7B6FA2846BDE8F08100BF9E
:106290000864FF3F70B506460D461446FFF7A4FAA2
:1062A000EFF305832BB9EFF3108313B9EFF31183E9
:1062B00033B16FF005010020FFF795FA002070BDA3
:1062C000304629462246DFF820C0EFF3148313F04E
:1062D000020F06D1EFF30883203B23F0070383F37B
:1062E000098800DF70BD00BFF15D10002DE9F041AD
:1062F00004460F4690461D46FFF778FAEFF30583F4
:1063000033B9EFF310831BB9EFF31183002B3CD0AB
:1063100024B12378082B01D107B145B120466FF095
:106320000301FFF760FA6FF00300BDE8F0816378C6
:106330002BB96FF002012046FFF755FA21E004F176
:106340000C00FFF7C0FC0646B8B1626A39460C3053
:1063500005F0B8FB07233370012373703046B57026
:1063600086F803807760B46000F0E0FA2046394692
:10637000FFF73FFA2846BDE8F08139462046FFF78F
:106380003AFA6FF00200BDE8F081204639464246F5
:106390002B46DFF808C000DFBDE8F081355F100054
:1063A000F8B504460D4617461E46FFF725FAEFF3EB
:1063B00005832BB9EFF3108313B9EFF31183A3B364
:1063C00024B12378082B01D105B13EB120466FF0EE
:1063D0000301FFF708FA6FF00300F8BD63782BB9EB
:1063E0006FF002012046FFF7FEF91BE02046FFF7A1
:1063F000A0FE064690B100F10C01626A284605F045
:1064000061FB0FB1F3783B7029462046FFF7F7F99F
:106410003046F46000F08AFA0020F8BD2946204694
:10642000FFF7EEF96FF00200F8BD204629463A4624
:106430003346DFF808C000DFF8BD00BF7961100007
:1064400070B530B390E86000846864B114F0030361
:1064500002D1C2681B2A0AD86FF008010020FFF79A
:10646000B4F9002070BDC368ABB1F5E70123042285
:106470002270A370012200236270E6706560A36041
:10648000E3602361636123762046FFF7A0F920468D
:1064900070BD054606460A4BD3F89C0010B1FFF7C5
:1064A00012FC05E001221C21D3F88800FFF77EFBD7
:1064B00004460028DAD16FF00401FFF786F9E6E719
:1064C0000864FF3FF8B5314B0546DE690F4636B923
:1064D0006FF00701FFF779F94FF0FF30F8BD10B109
:1064E0000378042B07D028466FF00301FFF76DF9FE
:1064F0006FF00300F8BD437813B96FF0020116E0A6
:10650000047E54B9F36A0121C66043610461F062FC
:106510000176FFF760F92046F8BDC378DA0710D599
:10652000C26896420DD1FF2C04D16FF00F01FFF726
:106530004CF928E0611CC9B20176FFF74CF9002044
:10654000F8BDEFB19B070CD5EB6896F8202093F9C6
:10655000200051B2884204DA83F82020E86800F075
:1065600049FB39462846FFF734F93146284600F002
:1065700013FB3946532000F0AFFD6FF00100F8BD6A
:106580002846FFF729F96FF00200F8BD0864FF3FC5
:1065900038B5354B0446DD6935B96FF00701FFF7B3
:1065A00014F94FF0FF3038BD10B10378042B07D039
:1065B00020466FF00301FFF708F96FF0030038BDC4
:1065C000437813B96FF0020109E0C3689D4202D01D
:1065D0006FF00D0103E0017E31B96FF00E01FFF79E
:1065E000F4F86FF0020038BD0139C9B20176FFF747
:1065F000F5F8237E002B34D163690BB122691A614F
:1066000022690AB1536100E0EB62E3789B0710D581
:1066100095F82130EA6A52B1916831B191F92010B0
:106620005BB28B42B8BF0B46DBB25269F3E785F829
:106630002030A36893B1204600F0C1FA054600223D
:10664000114600F017FCEB6A012163610023E5604D
:1066500023612046EC622176FFF7BDF8002000F0B0
:10666000DBFB002038BD00BF0864FF3F10B50446C7
:1066700010B10378042B07D020466FF00301FFF719
:10668000A4F86FF0030010BD437833B96FF0020136
:10669000FFF79BF86FF0020010BD00234370037EEC
:1066A000002B32D06369C0680BB122691A6122697C
:1066B0000AB1536100E0C362E3789A0716D590F8F7
:1066C0002130C26A52B1916831B191F920105BB2A8
:1066D0008B42B8BF0B46DBB25269F3E790F820203B
:1066E000934203D080F8203000F084FAA3681BB9ED
:1066F000002000F091FB08E0204600F060FA002244
:106700006FF0020100F0B6FBF0E7A378DB070BD5D2
:10671000084B2146D3F89C0010B1FFF703FB03E0C0
:10672000D3F88800FFF778FA2046FFF759F80020E1
:1067300010BD00BF0864FF3F2DE9F041044600266C
:106740000127FCB1E378D4F814801B0718D526760E
:1067500000212046FFF742F8A3688BB1204600F0E5
:106760002EFA05460022114600F084FBEB6AE56034
:10677000636126610121EC6220462776FFF72BF842
:106780004446DEE7BDE8F08110B50446FFF71EF889
:10679000EFF305832BB9EFF3108313B9EFF31183F4
:1067A00033B16FF005010020FFF70FF8002010BD96
:1067B0002046DFF820C0EFF3148313F0020F06D158
:1067C000EFF30883203B23F0070383F3098800DFFE
:1067D00010BD00BF4164100038B504460D46FEF7F9
:1067E000F7FFEFF305832BB9EFF3108313B9EFF342
:1067F00011833BB120466FF00501FEF7E6FF6FF015
:10680000050038BD20462946DFF804C000DF38BD4A
:10681000C564100010B50446FEF7DFFFEFF30583F3
:106820002BB9EFF3108313B9EFF311833BB120467B
:106830006FF00501FEF7C9FF6FF0050010BD20469F
:10684000DFF804C000DF10BD9165100010B50446EC
:10685000FEF7C5FFEFF305832BB9EFF3108313B9F0
:10686000EFF311833BB120466FF00501FEF7ADFF5A
:106870006FF0050010BD2046DFF804C000DF10BD3A
:106880006D66100010B5D0E85F3F5A1C914200D8E9
:106890000022C0E8542F04B1F5E798B210BD000003
:1068A00070B51F4D2C461F4EB5F85C10D6E85F3F03
:1068B00013B9BFF32F8F04E05A1EC6E8502F00B162
:1068C000F4E79BB23BB31848FFF7DCFF6B6E53F85D
:1068D000200000B30378013B062BE5D801A252F853
:1068E00023F000BF01691000A968100005691000BD
:1068F000A9681000096910000D69100011691000E5
:10690000A36E06E0E36E04E0236F02E0636F00E035
:10691000A36F9847C7E70020BDE8704000F07CBA3D
:106920000864FF3F6664FF3F6A64FF3F70B5164C22
:106930000546B4F85C1004F15E02D2E85F3F99426C
:1069400002D8BFF32F8F04E0581CC2E8560F06B1DF
:10695000F3E79BB28B4210D204F16000FFF792FF85
:10696000636E43F82050637A23B9084B4FF080528E
:106970005A6070BD0123E37270BD2946BDE87040C6
:106980000220FEF7A1BE00BF0864FF3F00ED00E05B
:10699000084B094ADB6852684FF0FF30B3FBF2F353
:1069A000064A013B536000239360054BFF2283F8A6
:1069B000232070470864FF3F2812110010E000E018
:1069C00000ED00E0014B07221A60704710E000E084
:1069D000014B1B68704700BF10E000E038B5FFF7BF
:1069E000F7FF1D4BD3E904019A6D013041F100011D
:1069F000C3E904011D4602B1904700F061F900208F
:106A000000F00AFAAA6C144B22B3196C186A81427E
:106A100002D018645A6438BD5A6C0AB1013A5A64FB
:106A20006B6C0D4CB3B9237A022B13D1E56A8DB18F
:106A300095F9202091F920309A420BD1284600F098
:106A4000CFF8206C00F0E8F8284600F0D5F9A36CE8
:106A50002564636438BD00BF0864FF3F10B5034B75
:106A6000DC692046FEF7A4FE204610BD0864FF3F07
:106A700008B5FEF7A2FEDFF810C000DF4FF0FF31CF
:106A80000020FEF791FEFEE72171100012F0020FC8
:106A900010B502F0010222D100F1280382B153E8BF
:106AA000000F00EA01028A4203D0BFF32F8F0020BB
:106AB00005E020EA010243E8002404B1EFE710BD3D
:106AC00053E8000F084203D1BFF32F8F002005E0E9
:106AD00020EA010243E8002404B1F1E710BD806A16
:106AE00001EA00031AB1994218BF002010BD002B23
:106AF00008BF002010BD000010B50023437083784C
:106B000004469A070CD513F0100F016B0E4B04D0FE
:106B1000D3F88C00FFF706F902E0D86FFFF77CF896
:106B2000A378DB070ED5084B2146D3F8900018B1A7
:106B3000BDE81040FFF7F6B8D3F88800BDE8104074
:106B4000FFF76AB810BD00BF0864FF3F10B50446E8
:106B500010B10378012B05D020460021FEF727FE57
:106B6000002010BD4378002BF6D04168FEF71FFED1
:106B7000606810BD074A10B5936B002413B11C4622
:106B80001B69FBE7C161446103610CB1206110BD69
:106B9000906310BD0864FF3F10B579B1836891F927
:106BA000202033B193F92040944202DB18469B68C1
:106BB000F7E7C8608B60816003B1D96010BD83685E
:106BC0002BB19A68826002B1D0600022DA60184668
:106BD000704720B10378012B01D1C068F9E77047F5
:106BE000C36833B182689A60826802B1D3600023BF
:106BF000C360704710B5014604462378012B03D1CA
:106C0000E468002CF9D110BD0846FFF7E9FF2046E3
:106C1000BDE81040FFF7C0BF0123014643700148A3
:106C2000FFF7BABF2C64FF3F4B1C30B402460C4642
:106C300002D130BCFFF79EBF0C4900204B6B33B133
:106C4000DD69AC4203D31846641B1B69F7E7D461C6
:106C50005061136108B1026100E04A631BB1D96958
:106C60005A610C1BDC6130BC704700BF0864FF3FF9
:106C7000C16910B54B1C42690CD11AB90F4B9B6B03
:106C800098421AD1036903B15A6142697AB90B4A31
:106C9000936310BD1AB9094B5B6B98420DD1036920
:106CA0001BB1DC695A612144D96142691AB113618F
:106CB0000023436110BD014A536310BD0864FF3FC8
:106CC00038B52D4B5C6B1D46002C54D0E369013B5D
:106CD000E361002B4FD16378532B27D008D8332B97
:106CE0001BD0432B1CD0132B31D1FEF76BFD2EE0B4
:106CF000732B21D007D8632B29D12046FFF769FFDA
:106D0000FEF76FFD23E0832B1CD0932B1FD1204671
:106D1000FFF75FFFFEF76CFD19E0FEF750FD16E090
:106D20002046FFF756FFFEF74FFD10E02046FFF725
:106D300050FFFEF74FFD0AE02046FFF74AFFFEF73F
:106D400051FD04E02046FFF744FFFEF757FDA36B1B
:106D50002046196AFEF72FFD2046FFF741FF204627
:106D6000FFF75AFF246924B1E369002BB3D0002355
:106D700063616C6338BD38BD0864FF3F806B2030B1
:106D80007047000010B50123094A437090F92010A4
:106D9000D36A243233B193F920408C4202DD1A4683
:106DA0009B68F7E7C2608360906003B1D86010BD54
:106DB0000864FF3F044B1B682BB11B691BB1034ADE
:106DC000126A506C18477047A8B2FF3F0864FF3F33
:106DD000074BD96951B10B6B8A6B934203D21A6886
:106DE000044B9A4202D00120FEF76EBC704700BFF0
:106DF0000864FF3FA52E5AE210B5044602234370F3
:106E0000044B1862FFF7E4FF2046BDE81040FEF790
:106E1000D3BC00BF0864FF3F10B5154B04461A7A77
:106E2000D96970B9022ADC6A21D101B3FCB194F9A5
:106E3000202091F920309A4219DD2046FFF7D0FE3C
:106E400008E0022A0ED169B190F9202091F9203092
:106E50009A4207DD0846FFF795FF2046BDE810403F
:106E6000FFF7CABF2046BDE81040FFF7D5BE10BDF2
:106E70000864FF3F70B504460E461546FEF79BFCBE
:106E8000A36B20461E62FFF7F3FE20461DB1BDE84E
:106E90007040FFF7C1BFBDE87040FFF7BDBE38B519
:106EA00043780446332B13D190F82320416AFFF72F
:106EB000EDFD054660B1014600222046FFF7DAFFEE
:106EC0002A4694F82310606ABDE83840FEF778BC83
:106ED00038BD00002DE9F04F85B003910293814643
:106EE00010B96FF003011EE082B3946802F110053F
:106EF000E0CD3CB1A30702D1D368472B05D86FF092
:106F000008010FE0D368002BF9D12DB1680700D13B
:106F10007EB96FF00A0105E047B17B1E372B06D919
:106F20006FF00B010020FEF73FFC56E018273EB142
:106F300002E0002FF1D118277107EAD1472EE8D9D6
:106F40001368D2F804B00193CCB904E01646154694
:106F50009346182701925A4BD3F8900010B1FEF7D0
:106F6000B2FE05E001224821D3F88800FEF71EFE9C
:106F7000044638B96FF00401FEF716FC9BE04FF0B1
:106F8000000A01E04FF0010A8DBBDFF83481A6B999
:106F90004C4AD8F88C00566D78B1FEF794FE054641
:106FA00040B96FF004010020FEF7FEFBBAF1000FBC
:106FB0000CD112E04AF0100A17E02A463146D8F800
:106FC0007C00FEF7F3FD054678B9EAE7D8F8905063
:106FD000214625B12846FEF7A5FE00206CE0384B7F
:106FE000D3F88800FEF718FEF7E74AF0020A019B83
:106FF000012263600023A360E36023616361A361F6
:10700000E36184F823306362A362E362A6F1400384
:107010002B44A3632C4B22706270FFB2FD2284F8D4
:1070200002A084F803B084F8207084F8217084F8FA
:10703000222025636663C4F83C902B60214B1B68BB
:107040005B0711D504352A46B608A6F111034FF0A7
:10705000CC311BB142F8041B013BFAE706F1804634
:10706000113E05EB860500E0A56B2B4605F13402C9
:10707000002143F8041B9342FBD1144B144A6B6369
:107080004FF08073EB63039BC5F838902B620C4B79
:1070900020469A66FEF78AFB0E4B1B6833B19B684D
:1070A00023B1029920469847606401E0029B636423
:1070B0002046FFF7B1FE204605B0BDE8F08F00BFC7
:1070C0000864FF3F28121100A52E5AE2716A1000D1
:1070D0009F6E1000A8B2FF3FF8B5104D0746EC694F
:1070E0000E46CCB12B7A022B04D02046FFF778FD58
:1070F0000020F8BDE86A80B12046FEF75BFB314610
:1071000020466770FFF790FD05F12400FFF757FD5B
:10711000FFF772FE0120F8BD2046F8BD0864FF3F6E
:1071200070B51C4DEC69002C32D0E06AFFF704FB0F
:10713000A06930B100221146FFF79CFEA069FEF75E
:1071400038FB2B7A134E022B22D1F36A03B3EFF3F1
:107150000983A36306F12400FFF731FDFFF74CFE1E
:107160000023F361E378DB0701D5A3691BB1204657
:10717000FFF7C2FC07E004226270E360F36BA360D8
:1071800003B1DC60EC632046BDE87040FEF716BB3F
:1071900070BD00BF0864FF3FF8B507460E461546B0
:1071A0001C46FEF702FBEFF305832BB9EFF31083C8
:1071B00013B9EFF3118333B16FF005010020FEF72F
:1071C000F3FA0020F8BD384631462A462346DFF858
:1071D00020C0EFF3148414F0020F06D1EFF30884FB
:1071E000203C24F0070484F3098800DFF8BD00BFC9
:1071F000D56E10000023FFF7CFBF000008B503468F
:10720000EFF305822AB9EFF3108212B9EFF311827E
:107210002AB118460021FEF7CAFA002008BDDFF89F
:1072200008C000DF08BD00BF4D6B100008B5EFF3CC
:1072300005832BB9EFF3108313B9EFF3118323B157
:107240000020FEF7B5FA002008BDDFF808C000DF17
:1072500008BD00BF5D6A10000C4A30B5D36C002435
:1072600033B11D69A94203D31C46491BDB68F7E70C
:1072700001618460C3601BB11D699860691A19615E
:107280000CB1E06030BDD06430BD00BF0864FF3F8A
:1072900070B5134DEC6C14B323690126013B2361D7
:1072A0002369E3B9E3680BB1A2689A60EB64002339
:1072B0001A4604F11801686DFFF718F818B1214655
:1072C0000320FEF701FAE378012B04D1616920461F
:1072D000FFF7C2FF00E06670EC6C002CE0D170BDDF
:1072E0000864FF3F0F4B13B51A6E0821586EFEF766
:1072F000D1FF0D4C606590B10C4BA3654FF0FF338F
:1073000000226946606DFFF74BF80028F6D19DE832
:107310000300FEF758FA0198009B9847EEE702B089
:1073200010BD00BF281211000864FF3F91721000C9
:10733000FEE700F079BC00F0F3BC00F073B8FEE7A4
:1073400001F026B801F03CB800F002BFFEE7FEE70E
:10735000FEE7FEE7FEE7431C10B5044605D000211A
:1073600000F0A6FE0120A04010BD002010BD0000CE
:1073700038B505460F4B0C46036029710846FFF7E8
:10738000EAFF0D4BA8601A69A10022F480521A612D
:107390001A6901F1804122F080521A6101F5E03151
:1073A0000A78012060F384020A701A6942F0805260
:1073B0001A6138BD00C0004000B0014090F90400DF
:1073C00000F088BE074A136923F48053136119B98A
:1073D00003688268DA607047012902BF0368826827
:1073E0009A60704700B00140054A136923F4805346
:1073F00013610368826809B11A6070475A60704768
:1074000000B00140064A136923F4805313610368F6
:107410001A6883681A4214BF01200020704700BF19
:1074200000B001402DE9F0472C4ADFF8C080136915
:107430002B4E23F48053136100231C46D8F80420FC
:10744000002A46D0D8F804700A220121D8F8040096
:1074500001FA02F5054224D00A3A072A25D8DFE8C6
:1074600002F0042424243A06080A00241DE0022421
:107470001BE0032419E01B4DDFF86C9005F1200A96
:10748000002355F8040F48B1D9F80030012198477E
:10749000D9F8003002212868984701235545F0D1DA
:1074A00002E00132122AD1D16BB956F8240060B142
:1074B0000D4D01212B6898472B68022156F82400B6
:1074C0009847002302E0012300E00346C8F830702B
:1074D000B4E7BDE8F0870124E7E700BF00B0014052
:1074E000589EFF3F649EFF3FA09EFF3F00C00040AC
:1074F00010B54C1C02D14FF0FF3010BD01248C4060
:1075000001600A394460072932D8DFE801F004310C
:107510003131070A0D1023490B6029E021494B60E6
:1075200026E020498B6023E01E49CB6020E01D4906
:107530000C690CB90B611BE04C690CB94B6117E08D
:107540008C690CB98B6113E0CC690CB9CB610FE08D
:107550000C6A0CB90B620BE04C6A0CB94B6207E089
:107560008C6A0CB98B6203E0CC6A002CC3D1CB626D
:107570000D490B6923F480530B6141680B4B836009
:10758000D9601963996119621961094B00201A6069
:10759000084B202283F806234022C3F880211A607A
:1075A00010BD00BF589EFF3F00B0014000C000402A
:1075B000A09EFF3F00E100E0064A0021136923F48A
:1075C00080531361836842685A610268024B43F832
:1075D0002210704700B00140589EFF3F82B0002348
:1075E00001930190019B23B100BF019B013B0193DB
:1075F000F8E702B070470000F8B50646174C0025C2
:107600001227954228D2A760C820FFF7E7FF4B5DFD
:10761000132B0AD110231120A360A360A360A060E4
:10762000A360A360A060A06001E00135A360C82052
:10763000FFF7D4FF1623C820A360FFF7CFFF306801
:107640000368DB06FCD4C820FFF7C8FF33681B685B
:107650005B07D6D50220F8BD0020F8BD00700040C1
:1076600000F028B900F0C6B900F0D7B900F0E3B9CE
:107670002DE9F3410646019117461C46FFF7F4FF3A
:10768000019B02A943F0010341F8043D012206F1E8
:107690000C00FFF7B1FF054628BB01467A1E1A4FC2
:1076A0004FF013088C421DD9C7F80880C820FFF797
:1076B00095FFF3681868800703D418684007F9D568
:1076C00002257B6801318C4202F8013F84BF102300
:1076D000BB60F3681868000611D41B685B07E1D52E
:1076E000022500E025B13046FFF7C0FF284608E03C
:1076F000089B13B13046FFF7B9FF204601E0032590
:10770000F1E702B0BDE8F081007000402DE9F341DF
:10771000054602AE46F8041D05F10C0790461C46CE
:10772000FFF7A2FF314601223846FFF765FF064604
:1077300030B9224641463846FFF75EFF064620B183
:107740002846FFF793FF304605E0089B13B1284613
:10775000FFF78CFF204602B0BDE8F0817FB5002422
:107760004E4BADF800408DF802401A694C4922F4A6
:1077700080521A618A68204642F00C028A601A69B7
:107780002F2122F080521A61464A20269160D16052
:107790001A69052122F480321A61434A0325916057
:1077A000D1601A69414942F480321A611A6922F0A3
:1077B00080021A61A3F5A0331A7C42F080021A7489
:1077C0001A7C42F040021A741A7C42F020021A74A9
:1077D00000F010F9072320468DF801308DF8006085
:1077E0008DF80240FFF740FF032269460C20FFF7A7
:1077F00003FF2046FFF73AFF20468DF800608DF822
:1078000001508DF80240FFF72FFF2A4669460C20F1
:10781000FFF7F2FE2046FFF729FF4FF6FF70FFF754
:10782000DDFE8DF800602046FF268DF801508DF8B2
:107830000260FFF719FF2A4669460C20FFF7DCFEBD
:107840002046FFF713FF1A4A01AB516810688DF804
:10785000016003C31189927A19809A7006238DF80A
:1078600000308DF802600020FFF7FEFE01AB191911
:1078700001220C20FFF7C0FE032269460C20FFF70F
:10788000BBFE0020FFF7F2FE01344FF6FF70FFF75A
:10789000A5FE0C2CE7D104B070BD00BF00B00140C4
:1078A00000C0004000C001400000014040420F0005
:1078B000F4121100F8B50D4604464549284616460F
:1078C000FDF7AAFC434907463046FDF7A5FC0146F3
:1078D0003846FDF783FCE060013004D149223E497F
:1078E0003E48FDF777FDE3680022DA60E2683C4B32
:1078F0009A423C4A3C4B11690BBF21F0800121F4B4
:107900000051116111610CBF20224FF48022C3F895
:1079100080211A60E268137C43F040031374E2682C
:10792000137C43F02003137400F07EFB2F4BE268BE
:10793000B0FBF3F0137C8008023860F30403137487
:10794000E368C0F34710586121492846FDF728FC39
:1079500030462049FDF724FC2846052100F0BAFBFB
:107960003046052100F0B6FB1E4BA8001A6900F155
:10797000804022F080521A6100F5E0300778012241
:10798000B10062F3840701F18041077001F5E03135
:10799000087802FA05F562F3840008701969144842
:1079A00041F080511961196902FA06F621F48051FB
:1079B000196181682E430E4386601A6942F4805231
:1079C0001A61E268137C43F080031374F8BD00BFB2
:1079D0001014110088141100FF1211004B13110034
:1079E0000070004000B0014000E100E0A08601000E
:1079F00000C0004038B505460C4600F015FBB0FB52
:107A0000F4F0EA688008137C023860F3040313740E
:107A1000EB68C0F34710586138BD10B50446C26822
:107A20001368DB07FCD5012001F00EFEE368152288
:107A30009A60002010BD10B50446C2681368DB07C9
:107A4000FCD5012001F000FEE36814229A601B6857
:107A500013F0340F14BF6FF00100002010BD00F0D0
:107A600091BB08B500F0E0FB08BD00F00FBC00F0D2
:107A7000C5BB00F0CFBB00002DE9F74F8A46064694
:107A80005F49504691461C469DF93080FDF7C4FB86
:107A90005C4905464846FDF7BFFB5B49019020461F
:107AA000FDF7BAFB594907464046FDF7B5FB019B78
:107AB000834619462846FDF791FB59460546384648
:107AC000FDF78CFB01462846FDF788FB306001304E
:107AD00004D143224E494F48FDF77CFC4E4D32689D
