:020000040010EA
:10200000000000406D63100059631000A1481000EB
:102010005D6310005F63100061631000000000004A
:10202000000000000000000000000000C962100075
:102030006563100000000000316310004163100070
:10204000A3481000A74810006B631000B1481000AF
:10205000AF481000BD481000AB481000B948100050
:102060006B6310006B6310006B631000C5481000B9
:102070006B631000B5481000C34810006B6310007C
:102080006B631000C1481000BF4810006B63100064
:10209000044B05481B1A062B02D9044B03B1184701
:1020A000704700BF2342FF3F2042FF3F0000000077
:1020B00005490648091A891001EBD171491002D06F
:1020C000034B03B1184770472042FF3F2042FF3FB8
:1020D0000000000010B5064C237843B9FFF7D8FF85
:1020E000044B13B10448AFF300800123237010BDEB
:1020F0002042FF3F000000001CBB100008B5084B49
:102100001BB108490848AFF300800848036813B9B9
:10211000BDE80840CCE7064B002BF9D09847F7E71D
:10212000000000002442FF3F1CBB10002042FF3F84
:102130000000000038B5064D002404F5B4702844B2
:10214000183C04F031F914F5C07FF6D138BD00BF5A
:102150009C42FF3F10B50446403000F069F920462C
:1021600010BD000010B50446054A08302060114635
:1021700004F02BF92268002363601370204610BD21
:10218000E4AE1000044808B500F048FA03490248DC
:1021900000F0DAFAFEE700BF4C44FF3FC0AD10008C
:1021A00073B53148FFF7DEFF304A31492E4804F05D
:1021B0001EF8304B002203F5C070194643F8042C7A
:1021C00043F8083C01F8182B19615A611A7630332C
:1021D00098424FF00005F0D1244A2749284604F0E0
:1021E00006F82648FFF7BEFF204A2149234803F09E
:1021F000FEFF2348FFF7B6FF1C4A1D49204803F0A5
:10220000F6FF2048FFF7AEFF184A19491D481E4C3B
:1022100003F0EDFF1D4804F041F84FF0FF36134A7C
:102220001B491A4803F0E3FF042306220096052108
:10223000204603F095FE314604F12C00E56284F857
:102240003050656300F0C7FA009620230222032174
:1022500004F1400000F03EF82046044A0D4902B067
:10226000BDE8704003F0C3BF6C42FF3FA040FF3F9A
:10227000D5631000A442FF3F352110003444FF3FD6
:102280008442FF3F1C44FF3F4C44FF3F3C42FF3F22
:10229000B7621000552110000848094A08B5121A03
:1022A000002104F023FE00F099FC04F0B1FD02F0DF
:1022B000FDFC00F08BFC03F09CFF00BF2042FF3FC1
:1022C000745DFF3F0368184708B10B6803607047EF
:1022D0007047000038B504461D4603F0C9FC9DF95F
:1022E000101004F1200003F0BBFD204625770249C1
:1022F00003F0DCFC204638BD40420F0008B572B642
:1023000003F0D4FC62B608BD1FB572B600238DF889
:102310000C108DF80D20017F03AA0093022303F017
:10232000F1FC62B605B05DF804FB30B585B004AAD7
:10233000044602F8011D72B60125017F2B46009567
:1023400003F0E0FC00230093217F2B460DF10E02E9
:10235000204603F0F7FC62B69DF80E0005B030BDD4
:10236000F8B51C46D3B2072B06460D46174604D9CE
:102370005C221149114800F0E5FA1DB1012D1AD176
:10238000032500E0022529463046FFF7CEFF3CB189
:10239000012C01D0C2B208E004FA07F2024303E0C4
:1023A0000122BA4020EA0202D2B229463046BDE8F4
:1023B000F840FFF7A9BFF8BDDCAD100001AE10007A
:1023C000F8B51C46D3B2072B06460D46174604D96E
:1023D0007B221149114800F0B5FA1DB1012D1AD127
:1023E000072500E0062529463046FFF79EFF1CB171
:1023F000012C06D0C2B208E00122BA4020EA020253
:1024000002E004FA07F20243D2B229463046BDE8A0
:10241000F840FFF779BFF8BDDCAD100001AE100049
:10242000C36810B504460BB19B689847204610BDA1
:1024300010B50446203003F0E3FC204610BD481ED2
:10244000012809D8501E0F2806D802290ABF3F329A
:1024500018701A70012070470020704710B500F105
:1024600040040123022200212046FFF779FF1420B7
:1024700003F0C8FE012003F0C5FE0023204602221F
:102480001946FFF76DFF142003F0BCFEBDE81040B5
:10249000012003F0B7BE10B50446012003F0B2FEE0
:1024A00004F14000012302220021FFF759FFBDE89B
:1024B0001040142003F0A6BE38B50C4605464FF474
:1024C000FA7003F09FFE2CB1012C0AD1234603229F
:1024D000002102E023462146032205F14000FFF7D8
:1024E0003FFF142003F08EFEBDE838404FF4FA7031
:1024F00003F088BE10B504460821002203F05AFDFF
:102500002046BDE81040014903F06CBD20A1070042
:1025100010B504460821002203F04CFD2046BDE81A
:102520001040014903F05EBD40420F0038B504463B
:102530000D4611484FF0FF3103F0B7FE2046FFF77C
:10254000D9FF2046FFF78AFF20460021FFF7B4FF9E
:102550002946204603F05CFD2046FFF79CFF012D35
:10256000204604BFA563E563FFF7D2FFBDE838400E
:10257000014803F09DBE00BF3C42FF3F0121FFF731
:10258000D5BF73B50DF1070304461546FFF757FF96
:1025900050B1A1639DF807102046E56341F080012A
:1025A000FFF7C4FF002001E04FF0FF3002B070BD24
:1025B00010B504463021FFF7B9FF022003F03AFEC0
:1025C00020463021FFF7B2FF20463021FFF7AEFF53
:1025D00020463921FFF7AAFF20461421FFF7A6FF66
:1025E00020465621FFF7A2FF20466D21FFF79EFFF0
:1025F00020467021FFF79AFF20460C21FFF796FF37
:1026000020460621FFF792FF20460121FFF78EFFAB
:10261000BDE810400A2003F00DBE000038B50446A6
:1026200000F1400528460F49FFF768FE00231946D0
:1026300028460222FFF7C4FE00231946032228463B
:10264000FFF7BEFE2046FFF726FF2046FFF752FFAA
:102650002046FFF7ADFF01222046BDE83840114675
:10266000FFF78FBF40420F002DE9F041161E0446D0
:102670000D4648DD002946D04FF0FF31244803F0D5
:1026800014FE2046FFF736FF2046FFF7E7FE012144
:102690002046FFF711FF2E444FF00108E36B15F8B9
:1026A000017B102B09DC0A2F07D03946204603F0A6
:1026B000AFFCE36B0133E36317E0A16B012201314F
:1026C0000229C8BF0121A163C4F83C802046FFF75E
:1026D00058FF2046FFF70EFF01212046FFF7ECFED2
:1026E0002046FFF7BBFE0A2FDFD1B542D6D12046E8
:1026F000FFF7D1FE2046FFF70BFF054803F0D8FD9A
:102700000020BDE8F0814FF0FF30BDE8F08100BF50
:102710003C42FF3F70B5064614460D4611B94FF0D6
:10272000FF3070BD1A462146FFF72BFF0028F6D177
:102730002B465A1B13F8014B002CFAD12946304680
:10274000FFF792FF204670BD70B504460D46FFF7B7
:1027500015FF012329462046BDE870401A46FFF7C1
:10276000D9BF70B50E460446154602F0B9F80136D9
:1027700009D02046002102F0DDF829462046BDE8B8
:10278000704002F0D3B870BD38B50C460122054642
:10279000FFF7E7FF0F2C06D121462846BDE8384059
:1027A0000122FFF7DEBF38BD70B50E460446154660
:1027B00002F096F801360DD02946204602F0CCF8FA
:1027C0002046012102F0B6F82046BDE87040012104
:1027D00002F0ACB870BD0022FFF7E6BF014800F080
:1027E00089B800BF30AE100010B50446013001D1E9
:1027F00010BD0C3191F900305A1C0BD09C42F8D11D
:102800002046896802F0FCFE2046BDE81040012108
:1028100002F008BF0248BDE8104000F035B900BF23
:1028200038AE1000884208B50AD0431C07D00131E9
:1028300006D0044800F028F94FF0FF3008BD0846E4
:1028400008BD00BF49AE100091F900305A1C05D0F8
:10285000834201D1486870470C31F5E7184670474C
:10286000421C10B5044607D0FFF7EEFF431C044698
:1028700002D1024800F008F9204610BD5AAE1000FF
:102880000368D0B544685B68D4E9026798470022C2
:10289000B04242EA00023B4602D2003247F1010355
:1028A000C4E90223D0BD2DE970430646FFF7E8FFD7
:1028B00071684B68ABB1D1E90245D3E90023AB4263
:1028C00008BFA2420BD3B2EB040863EB0509B9F1D0
:1028D000000F08BFB8F1E04F03D2121B03E0002243
:1028E00001E04FF0E042336888681B691044BDE89E
:1028F00070431847036870B5DB68044698476368FF
:102900005B68A3B12046FFF7BBFF65686E68D5E939
:102910000201D6E90023994208BF904207D3F36829
:102920006B602B68002BEAD0B0689847E7E7204639
:10293000BDE87040FFF7B7BF0148FFF7DBBF00BF3E
:10294000ACAE100070B504460D46164600F052F8C5
:1029500033462A462146034800F038F8BDE8704067
:1029600000F002B8B4AE100008B500F043F89620AD
:1029700003F060FC962003F05DFCF8E730B50D46EF
:102980000446A1B000F036F82B4622468021684666
:1029900006F0DCF8051E03DC00F058F821B030BD6D
:1029A000084B1B6823B909220821074802F0C8FF19
:1029B00000241DF804100448013403F08DF8A542EA
:1029C000F7D1E9E7F04AFF3F645DFF3F0FB407B579
:1029D00004A951F8040B0191FFF7D0FF03B05DF893
:1029E00004EB04B07047EFF3108000F0010080F0BA
:1029F0000100704738B5FFF7F6FF054672B60E4C7A
:102A0000236823B980F001030C4ADBB213702368FA
:102A1000013304D145220A490A48FFF793FF23688E
:102A20002BB125B1492206490748FFF78BFF2368E0
:102A30000133236038BD00BF1845FF3F1C45FF3FF1
:102A4000E5AE100015AF10003BAF100010B50A4CFA
:102A5000236883B1FFF7C7FF20B15A22074908480E
:102A6000FFF770FF2368013B236023681BB9054B08
:102A70001B7803B962B610BD1845FF3FE5AE1000E4
:102A80003BAF10001C45FF3F0FB413B5084B1A783D
:102A90004AB9012405A904981C700191FFF76EFF43
:102AA000204603F0A6FB02B0BDE8104004B070471A
:102AB0001D45FF3F38B51548154B0B250360154BD9
:102AC0001C244560C460836001F016F9124B186045
:102AD0001248134BC46080E82800124B836001F059
:102AE0000BF9114B18601148114BC46080E82800A5
:102AF000104B836001F000F90F4B186004F088F967
:102B0000BDE838400021084600F060B81C5DFF3F7A
:102B10004FAF1000E45CFF3FE05CFF3FD05CFF3F45
:102B20005FAF1000005DFF3FA84CFF3F505DFF3FCF
:102B30006CAF1000B45CFF3FB05CFF3F094A0A482D
:102B4000C2F180431946B3F5806F28BF4FF480610E
:102B50005B1A016005499818086005490B60054B30
:102B60001A607047785DFF3F2445FF3F2045FF3FD7
:102B7000B04BFF3FB44BFF3F7047704708B50D4A5D
:102B80000D4B002113614FF4805353614823D360F0
:102B90000A4B0B489360182393610A4B136001F0B2
:102BA000E1FD10B90848FFF76FFFBDE8084000F0ED
:102BB00063BA00BF2C5DFF3FB04CFF3F604CFF3F4E
:102BC000B52A100076AF100082AF100008B5FFF7ED
:102BD000D3FFBDE80840FFF7D5BA000010B5FFF7F6
:102BE000ADFF0A4B0A499A680A48043A52F8044F62
:102BF00041F8044F8142F9D1074A9A60FFF7BDFFBF
:102C000000F0F4F9BDE81040FFF7B8BF00ED00E0B8
:102C1000FC3FFF3F8C40FF3F0040FF3F02F074BF8E
:102C200008B5024C23689847FCE700BFA440FF3F6B
:102C300008B5FFF7F5FFFCE708B505460C4601F0BF
:102C4000ADFD6B1E0246042B24D8DFE803F0030D14
:102C500013191E00204601F089FD2246034601217A
:102C60000F48FFF711FF19E0234602210D48FFF737
:102C70000BFF13E0234603210B48FFF705FF0DE090
:102C800004210A48FFF700FF08E005210848FFF784
:102C9000FBFE03E029460748FFF7F6FEFEE700BF0C
:102CA0009EAF1000EFAF100045B01000AAB01000AA
:102CB00005B1100065B1100008B5014610B1132030
:102CC00001F0C2FC002008BD10B5044600F031F848
:102CD000EFF305832BB9EFF3108313B9EFF31183EF
:102CE0003BB16FF00501002000F016F86FF0050011
:102CF00010BD2046DFF804C000DF10BDB92C100065
:102D0000704770477047704770477047704770470B
:102D100070477047704770477047704770477047FB
:102D200070477047704770477047704770477047EB
:102D300070477047704770477047704770477047DB
:102D400070477047704770477047704770477047CB
:102D500070477047704770477047704770477047BB
:102D600070477047704770477047704770477047AB
:102D70007047000070B56348017A0446012900F0ED
:102D8000BD8011B14FF0FF3009E05F4DA82208303F
:102D900004F0ACF86B6D472B06D86FF00A00FFF714
:102DA000B5FF4FF0FF3070BDEA68002AEAD02B8AE9
:102DB000002BE7D0EE6AA4F85C30AB68296B304694
:102DC0006266A36400F08AF908B1C4F888606E698D
:102DD000A969304600F082F908B1E66702E0D4F84C
:102DE0008830E367EE69296A304600F077F910B160
:102DF000C4F8806003E0D4F88830C4F880306E6A8C
:102E0000A96A304600F06AF910B1C4F8846003E0A2
:102E1000D4F88830C4F884306E6B46B1F368B26879
:102E20003168304600F0D5F908B1C4F88C60AE6B5B
:102E300046B1F368B2683168304600F0CAF908B1AB
:102E4000C4F89060EE6B46B1F368B2683168304602
:102E500000F0BFF908B1C4F894602E6C46B1F36875
:102E6000B2683168304600F0B4F908B1C4F898602F
:102E70006E6C46B1F368B2683168304600F0A9F96B
:102E800008B1C4F89C60AE6C46B1F368B2683168B2
:102E9000304600F09EF908B1C4F8A060EE6C46B16F
:102EA000F368B2683168304600F093F908B1C4F8AD
:102EB000A4602D6D45B1EB68AA682968284600F02A
:102EC00088F908B1C4F8A850104AFF2382F82230CC
:102ED00092F82230D16863F0FF03DB43B3FA83F347
:102EE000C1F30221C3F120038B4298BF4B1CFE218A
:102EF00001FA03F3DBB2D37701232372FFF708FF54
:102F0000002070BDA840FF3FE4B1100000ED00E0DC
:102F100010B5034C207AFFF7FCFE207A10BD00BFED
:102F2000A840FF3F38B52A4C237A012B02D06FF01E
:102F300006000BE0236B274D6BB9AA6D1946264896
:102F400001F080FA206330B94FF0FF30FFF7DEFE6A
:102F50004FF0FF3038BD6B6E5BB1236D4BB91D4A2E
:102F60001946D26D1D4801F06DFA194B18650028FD
:102F7000EAD01B4801F0DBF80028E5D001F0F4F9B5
:102F80002B68DB074CBF0223032383F31488154B04
:102F90001B68E36000F0B4FF0028A0610FDB00F1C4
:102FA000604303F56143FF2283F8002342110123AC
:102FB00000F01F0003FA00F00B4B43F8220000F072
:102FC000B9FF02232372FFF7A6FE002038BD00BF21
:102FD000A840FF3FE4B11000312C1000554810000C
:102FE000CC40FF3F5841FF3F00E100E008B5FFF74C
:102FF0008EFEEFF305832BB9EFF3108313B9EFF3D4
:10300000118333B16FF00500FFF780FE6FF005000C
:1030100008BDDFF820C0EFF3148313F0020F06D1D0
:10302000EFF30883203B23F0070383F3098800DFD5
:1030300008BD00BF752D100008B5EFF305832BB94F
:10304000EFF3108313B9EFF3118333B14FF0FF3077
:10305000FFF75FFE4FF0FF3008BDEFF31483DB078F
:1030600003D4BDE80840FFF753BFDFF808C000DF16
:1030700008BD00BF112F100008B5FFF74BFEEFF39E
:1030800005832BB9EFF3108313B9EFF3118333B139
:103090006FF00500FFF73AFE6FF0050008BDFFF77F
:1030A000CBFF022805D00B4B1B6813B15B6803B143
:1030B0009847DFF824C0EFF3148313F0020F06D112
:1030C000EFF30883203B23F0070383F3098800DF35
:1030D00008BD00BF605DFF3F252F100038B50C46CE
:1030E000034630B140EA010212F0070201D117296C
:1030F00006D8184600222146FFF702FE002038BD00
:10310000A1F108041025196045602518856022503A
:10311000C2600122FFF7F4FD012038BDF8B518B1F7
:1031200011B132F0030304D00023FFF7EAFD0020C1
:10313000F8BD0F3121F0070100F108052E68D5F820
:1031400004E0731B2EF003041B1B994205D934685D
:103150003546002CF2D12346E7E7436842EA0107EF
:103160000B444360BEF1000F03D16F6005F108040A
:1031700005E02B192E515F6003F108042B602346F4
:10318000FFF7BFFD2046F8BD38B500B121B90022D8
:10319000FFF7B8FD002038BDA1F1080500F10803D4
:1031A0000022AB4205D01C681A46002CEFD0234603
:1031B000F7E75C6824F003054468641B44600AB9BF
:1031C0005A6001E01B6813600122FFF79BFD01209C
:1031D00038BD2DE9F0410D4617461C460646F8B1AC
:1031E00001B312B323B302FB01F84FF0000E3160BC
:1031F000C0F804E003EB080EF3607361B260C0F83E
:1032000010E0FFF780FD2346013D03D0DA191A6074
:103210001346F9E7C7EB080025500120BDE8F0810F
:10322000BDE8F0810846BDE8F0811046BDE8F081B8
:103230001846BDE8F08138B5054620B90146FFF7CC
:1032400063FD284638BD031D026853E8001F8A420B
:1032500002D8BFF32F8F04E0481C43E8000404B1F8
:10326000F3E72B688B420ED905F1140353E8000FE6
:1032700010B9BFF32F8F04E0026843E8002101B1C9
:10328000F4E7044600E0002428462146FFF73CFD11
:10329000204638BD38B528B1C3688B4202D80369CF
:1032A000994206D36FF00302FFF72FFD6FF0030082
:1032B00038BD031D53E8002F12B9BFF32F8F04E070
:1032C000541E43E8004505B1F4E782B100F1140350
:1032D0001A680A60BFF35F8F53E8002F0C689442AE
:1032E000F6D143E8001505B1F2E7002401E06FF0E4
:1032F00002042246FFF709FD204638BD036B30B5B6
:10330000A3B1CD780024DA78AA4204D25A681C46C8
:103310001AB11346F7E71A4623464A608B600AB192
:10332000916000E0C16223B1596003E04B608B60A3
:10333000C1620163283050E8003F5A1C40E8002178
:1033400001B1F8E730BD4B688A680BB19A6000E0C4
:10335000C2628A680AB15360704703637047000015
:103360002DE9F74F804600B131B96FF0030100201D
:10337000FFF7F1FC00208EE0033121F0030303F19D
:103380000C090193B9FA89F1B0FA80F30B441F2BB1
:10339000EBDD09FB00FAE2B19468D2F800B01669DF
:1033A00050693CB1A30702D1D368332B05D86FF025
:1033B0000801DCE7D368002BF9D13EB116F0030316
:1033C00001D182455FD96FF00901D0E700285ED0B6
:1033D000F9E793461646314BD3F8A80010B1FFF732
:1033E0002AFF05E001223421D3F88800FFF796FE7A
:1033F000044620B96FF00401FFF7ADFC41E026BBA5
:103400000125264F00225146D7F88400FFF786FE9B
:10341000064690B96FF00401FFF79DFC002DA9D07E
:10342000D7F8A85021461DB12846FFF733FFA1E782
:10343000D7F88800FFF7A8FE9CE75246002103F06A
:1034400055FD45F00200C0B200E001200823019ABA
:103450002370012363700023A070A3606262A362E3
:10346000E36223634A463346C4F804B0414604F19C
:103470000C00FFF7AEFE0A4A084B20469A67FFF79A
:103480006CFC204607E0002CA5D01846DEE7002C97
:10349000A1D00546B5E703B0BDE8F08FA840FF3FD7
:1034A000A13510002DE9F0410E4690461D46044618
:1034B00018B10378082B00D141B920466FF0030101
:1034C000FFF749FC6FF00300BDE8F081437823B9B2
:1034D0006FF00201FFF73FFC5CE0836803B35B78A9
:1034E000832B1DD1FFF73EFC204600F020FE054651
:1034F0000122002100F076FF284600F0F7FE054685
:10350000626A3146806803F0CBFCEB680BB183F84C
:1035100000802046A968FFF72AFC0020BDE8F08162
:1035200004F10C00FFF787FE0746B8B1626A314626
:103530000C3003F0B5FC07233B70002501237B70A2
:1035400039462046BD7087F80380FFF7D7FE204636
:103550003146FFF707FC2846BDE8F081B5B12A46A1
:1035600031462046FFF7FBFB0C4B2046D96900F0A3
:10357000CBFD2946932001F067F8EFF309836FF044
:1035800001009E60C3F80C80BDE8F0813146204602
:10359000FFF7E9FB6FF00200BDE8F081A840FF3FB4
:1035A000F8B543780446002B7AD08678002E3ED0BA
:1035B000C5686B78002B73D001460026284605F1BC
:1035C0000C07FFF7C0FE667021463846FFF762FE23
:1035D000AB68002B64D05B78932B61D13846FFF742
:1035E0002AFE044600285BD0284600F0A0FD0746CE
:1035F0003246314600F0F6FE384600F077FE0746C8
:103600006A6A816804F10C0003F04AFC0723237006
:1036100001236370A670FB6821462846E370FFF71C
:103620006DFEB9682846BDE8F840FFF79BBB85688A
:103630006B78ABB3AB684BB35B78832B26D1416817
:103640002846FFF78FFB284600F071FD07463246FB
:10365000314600F0C7FE384600F048FE06466A6A6A
:1036600004F10C01806803F01BFCF3680BB1E278F5
:103670001A70B1682846FFF77AFB00236370214671
:1036800005F10C00BDE8F840FFF704BE616828466C
:10369000FFF768FB21462846BDE8F840FFF72EBE3D
:1036A000F8BD10B500F1280353E8002F12B9BFF39D
:1036B0002F8F04E0511E43E8001404B1F4E70AB967
:1036C000002010BDC06A01230028F9D0821CD2E876
:1036D0004F1FC2E8443F04B1F9E711F0FF0F01D0DA
:1036E0008068F1E710BD00002DE9F0410D46174656
:1036F0009846044618B10378082B00D141B92046FA
:103700006FF00301FFF727FB6FF00300BDE8F081C6
:10371000437823B96FF00201FFF71DFB3EE0FFF78E
:10372000C0FF0646E8B101462046FFF70CFE626A7C
:1037300006F10C01284603F0B3FB0FB1F3783B70A0
:1037400029462046002504F10C07FFF710FB757091
:1037500031463846FFF79EFDA3681BBB0020BDE83D
:10376000F081B8F1000F15D0424629462046FFF7F8
:10377000FCFA234B2046D96900F0C6FC4146832061
:1037800000F062FFEFF309836FF001009D60DF60DE
:10379000BDE8F08129462046FFF7EAFA6FF0020003
:1037A000BDE8F0815B78932BD8D13846FFF743FD15
:1037B00006460028D2D0204600F0B9FC074629462C
:1037C000012200F00FFE384600F090FD0746626AC5
:1037D000816806F10C0003F063FB072333700123BB
:1037E0007370B570FB683146F3702046FFF786FDB5
:1037F0002046B968FFF7B6FA2846BDE8F08100BF59
:10380000A840FF3F70B506460D461446FFF7A4FAE0
:10381000EFF305832BB9EFF3108313B9EFF31183A3
:1038200033B16FF005010020FFF795FA002070BD5D
:10383000304629462246DFF820C0EFF3148313F008
:10384000020F06D1EFF30883203B23F0070383F335
:10385000098800DF70BD00BF613310002DE9F04121
:1038600004460F4690461D46FFF778FAEFF30583AE
:1038700033B9EFF310831BB9EFF31183002B3CD066
:1038800024B12378082B01D107B145B120466FF050
:103890000301FFF760FA6FF00300BDE8F081637881
:1038A0002BB96FF002012046FFF755FA21E004F131
:1038B0000C00FFF7C0FC0646B8B1626A39460C300E
:1038C00003F0EEFA07233370012373703046B570AE
:1038D00086F803807760B46000F0E0FA204639464D
:1038E000FFF73FFA2846BDE8F08139462046FFF74A
:1038F0003AFA6FF00200BDE8F081204639464246B0
:103900002B46DFF808C000DFBDE8F081A5341000C9
:10391000F8B504460D4617461E46FFF725FAEFF3A5
:1039200005832BB9EFF3108313B9EFF31183A3B31E
:1039300024B12378082B01D105B13EB120466FF0A8
:103940000301FFF708FA6FF00300F8BD63782BB9A5
:103950006FF002012046FFF7FEF91BE02046FFF75B
:10396000A0FE064690B100F10C01626A284603F001
:1039700097FA0FB1F3783B7029462046FFF7F7F925
:103980003046F46000F08AFA0020F8BD294620464F
:10399000FFF7EEF96FF00200F8BD204629463A46DF
:1039A0003346DFF808C000DFF8BD00BFE93610007D
:1039B00070B530B390E86000846864B114F003031C
:1039C00002D1C2681B2A0AD86FF008010020FFF755
:1039D000B4F9002070BDC368ABB1F5E70123042240
:1039E0002270A370012200236270E6706560A360FC
:1039F000E3602361636123762046FFF7A0F9204648
:103A000070BD054606460A4BD3F89C0010B1FFF77F
:103A100012FC05E001221C21D3F88800FFF77EFB91
:103A200004460028DAD16FF00401FFF786F9E6E7D3
:103A3000A840FF3FF8B5314B0546DE690F4636B961
:103A40006FF00701FFF779F94FF0FF30F8BD10B1C3
:103A50000378042B07D028466FF00301FFF76DF9B8
:103A60006FF00300F8BD437813B96FF0020116E060
:103A7000047E54B9F36A0121C66043610461F062B7
:103A80000176FFF760F92046F8BDC378DA0710D554
:103A9000C26896420DD1FF2C04D16FF00F01FFF7E1
:103AA0004CF928E0611CC9B20176FFF74CF90020FF
:103AB000F8BDEFB19B070CD5EB6896F8202093F981
:103AC000200051B2884204DA83F82020E86800F030
:103AD00049FB39462846FFF734F93146284600F0BD
:103AE00013FB3946532000F0AFFD6FF00100F8BD25
:103AF0002846FFF729F96FF00200F8BDA840FF3F04
:103B000038B5354B0446DD6935B96FF00701FFF76D
:103B100014F94FF0FF3038BD10B10378042B07D0F3
:103B200020466FF00301FFF708F96FF0030038BD7E
:103B3000437813B96FF0020109E0C3689D4202D0D7
:103B40006FF00D0103E0017E31B96FF00E01FFF758
:103B5000F4F86FF0020038BD0139C9B20176FFF701
:103B6000F5F8237E002B34D163690BB122691A6109
:103B700022690AB1536100E0EB62E3789B0710D53C
:103B800095F82130EA6A52B1916831B191F920106B
:103B90005BB28B42B8BF0B46DBB25269F3E785F8E4
:103BA0002030A36893B1204600F0C1FA05460022F8
:103BB000114600F017FCEB6A012163610023E56008
:103BC00023612046EC622176FFF7BDF8002000F06B
:103BD000DBFB002038BD00BFA840FF3F10B5044606
:103BE00010B10378042B07D020466FF00301FFF7D4
:103BF000A4F86FF0030010BD437833B96FF00201F1
:103C0000FFF79BF86FF0020010BD00234370037EA6
:103C1000002B32D06369C0680BB122691A61226936
:103C20000AB1536100E0C362E3789A0716D590F8B1
:103C30002130C26A52B1916831B191F920105BB262
:103C40008B42B8BF0B46DBB25269F3E790F82020F5
:103C5000934203D080F8203000F084FAA3681BB9A7
:103C6000002000F091FB08E0204600F060FA0022FE
:103C70006FF0020100F0B6FBF0E7A378DB070BD58D
:103C8000084B2146D3F89C0010B1FFF703FB03E07B
:103C9000D3F88800FFF778FA2046FFF759F800209C
:103CA00010BD00BFA840FF3F2DE9F04104460026AB
:103CB0000127FCB1E378D4F814801B0718D52676C9
:103CC00000212046FFF742F8A3688BB1204600F0A0
:103CD0002EFA05460022114600F084FBEB6AE560EF
:103CE000636126610121EC6220462776FFF72BF8FD
:103CF0004446DEE7BDE8F08110B50446FFF71EF844
:103D0000EFF305832BB9EFF3108313B9EFF31183AE
:103D100033B16FF005010020FFF70FF8002010BD50
:103D20002046DFF820C0EFF3148313F0020F06D112
:103D3000EFF30883203B23F0070383F3098800DFB8
:103D400010BD00BFB139100038B504460D46FEF76E
:103D5000F7FFEFF305832BB9EFF3108313B9EFF3FC
:103D600011833BB120466FF00501FEF7E6FF6FF0CF
:103D7000050038BD20462946DFF804C000DF38BD05
:103D8000353A100010B50446FEF7DFFFEFF3058368
:103D90002BB9EFF3108313B9EFF311833BB1204636
:103DA0006FF00501FEF7C9FF6FF0050010BD20465A
:103DB000DFF804C000DF10BD013B100010B5044661
:103DC000FEF7C5FFEFF305832BB9EFF3108313B9AB
:103DD000EFF311833BB120466FF00501FEF7ADFF15
:103DE0006FF0050010BD2046DFF804C000DF10BDF5
:103DF000DD3B100010B5D0E85F3F5A1C914200D85F
:103E00000022C0E8542F04B1F5E798B210BD0000BD
:103E100070B51F4D2C461F4EB5F85C10D6E85F3FBD
:103E200013B9BFF32F8F04E05A1EC6E8502F00B11C
:103E3000F4E79BB23BB31848FFF7DCFF6B6E53F817
:103E4000200000B30378013B062BE5D801A252F80D
:103E500023F000BF713E1000193E1000753E1000A7
:103E6000193E1000793E10007D3E1000813E10008A
:103E7000A36E06E0E36E04E0236F02E0636F00E0F0
:103E8000A36F9847C7E70020BDE8704000F07CBAF8
:103E9000A840FF3F0641FF3F0A41FF3F70B5164C67
:103EA0000546B4F85C1004F15E02D2E85F3F994227
:103EB00002D8BFF32F8F04E0581CC2E8560F06B19A
:103EC000F3E79BB28B4210D204F16000FFF792FF40
:103ED000636E43F82050637A23B9084B4FF0805249
:103EE0005A6070BD0123E37270BD2946BDE8704081
:103EF0000220FEF7A1BE00BFA840FF3F00ED00E09A
:103F0000084B094ADB6852684FF0FF30B3FBF2F30D
:103F1000064A013B536000239360054BFF2283F860
:103F200023207047A840FF3FE4B1100010E000E0FC
:103F300000ED00E0014B07221A60704710E000E03E
:103F4000014B1B68704700BF10E000E038B5FFF779
:103F5000F7FF1D4BD3E904019A6D013041F10001D7
:103F6000C3E904011D4602B1904700F061F9002049
:103F700000F00AFAAA6C144B22B3196C186A814239
:103F800002D018645A6438BD5A6C0AB1013A5A64B6
:103F90006B6C0D4CB3B9237A022B13D1E56A8DB14A
:103FA00095F9202091F920309A420BD1284600F053
:103FB000CFF8206C00F0E8F8284600F0D5F9A36CA3
:103FC0002564636438BD00BFA840FF3F10B5034BB4
:103FD000DC692046FEF7A4FE204610BDA840FF3F46
:103FE00008B5FEF7A2FEDFF810C000DF4FF0FF318A
:103FF0000020FEF791FEFEE79146100012F0020F3E
:1040000010B502F0010222D100F1280382B153E879
:10401000000F00EA01028A4203D0BFF32F8F002075
:1040200005E020EA010243E8002404B1EFE710BDF7
:1040300053E8000F084203D1BFF32F8F002005E0A3
:1040400020EA010243E8002404B1F1E710BD806AD0
:1040500001EA00031AB1994218BF002010BD002BDD
:1040600008BF002010BD000010B500234370837806
:1040700004469A070CD513F0100F016B0E4B04D0B9
:10408000D3F88C00FFF706F902E0D86FFFF77CF851
:10409000A378DB070ED5084B2146D3F8900018B162
:1040A000BDE81040FFF7F6B8D3F88800BDE810402F
:1040B000FFF76AB810BD00BFA840FF3F10B5044627
:1040C00010B10378012B05D020460021FEF727FE12
:1040D000002010BD4378002BF6D04168FEF71FFE8C
:1040E000606810BD074A10B5936B002413B11C46DD
:1040F0001B69FBE7C161446103610CB1206110BD24
:10410000906310BDA840FF3F10B579B1836891F965
:10411000202033B193F92040944202DB18469B687B
:10412000F7E7C8608B60816003B1D96010BD836818
:104130002BB19A68826002B1D0600022DA60184622
:10414000704720B10378012B01D1C068F9E77047AF
:10415000C36833B182689A60826802B1D360002379
:10416000C360704710B5014604462378012B03D184
:10417000E468002CF9D110BD0846FFF7E9FF20469E
:10418000BDE81040FFF7C0BF01230146437001485E
:10419000FFF7BABFCC40FF3F4B1C30B402460C4681
:1041A00002D130BCFFF79EBF0C4900204B6B33B1EE
:1041B000DD69AC4203D31846641B1B69F7E7D46181
:1041C0005061136108B1026100E04A631BB1D96913
:1041D0005A610C1BDC6130BC704700BFA840FF3F38
:1041E000C16910B54B1C42690CD11AB90F4B9B6BBE
:1041F00098421AD1036903B15A6142697AB90B4AEC
:10420000936310BD1AB9094B5B6B98420DD10369DA
:104210001BB1DC695A612144D96142691AB1136149
:104220000023436110BD014A536310BDA840FF3F06
:1042300038B52D4B5C6B1D46002C54D0E369013B17
:10424000E361002B4FD16378532B27D008D8332B51
:104250001BD0432B1CD0132B31D1FEF76BFD2EE06E
:10426000732B21D007D8632B29D12046FFF769FF94
:10427000FEF76FFD23E0832B1CD0932B1FD120462C
:10428000FFF75FFFFEF76CFD19E0FEF750FD16E04B
:104290002046FFF756FFFEF74FFD10E02046FFF7E0
:1042A00050FFFEF74FFD0AE02046FFF74AFFFEF7FA
:1042B00051FD04E02046FFF744FFFEF757FDA36BD6
:1042C0002046196AFEF72FFD2046FFF741FF2046E2
:1042D000FFF75AFF246924B1E369002BB3D0002310
:1042E00063616C6338BD38BDA840FF3F806B2030F0
:1042F0007047000010B50123094A437090F920105F
:10430000D36A243233B193F920408C4202DD1A463D
:104310009B68F7E7C2608360906003B1D86010BD0E
:10432000A840FF3F044B1B682BB11B691BB1034A1C
:10433000126A506C18477047605DFF3FA840FF3F0E
:10434000074BD96951B10B6B8A6B934203D21A6840
:10435000044B9A4202D00120FEF76EBC704700BFAA
:10436000A840FF3FA52E5AE210B504460223437031
:10437000044B1862FFF7E4FF2046BDE81040FEF74B
:10438000D3BC00BFA840FF3F10B5154B04461A7AB6
:10439000D96970B9022ADC6A21D101B3FCB194F960
:1043A000202091F920309A4219DD2046FFF7D0FEF7
:1043B00008E0022A0ED169B190F9202091F920304D
:1043C0009A4207DD0846FFF795FF2046BDE81040FA
:1043D000FFF7CABF2046BDE81040FFF7D5BE10BDAD
:1043E000A840FF3F70B504460E461546FEF79BFCFD
:1043F000A36B20461E62FFF7F3FE20461DB1BDE809
:104400007040FFF7C1BFBDE87040FFF7BDBE38B5D3
:1044100043780446332B13D190F82320416AFFF7E9
:10442000EDFD054660B1014600222046FFF7DAFFA8
:104430002A4694F82310606ABDE83840FEF778BC3D
:1044400038BD00002DE9F04F85B0039102938146FD
:1044500010B96FF003011EE082B3946802F11005F9
:10446000E0CD3CB1A30702D1D368472B05D86FF04C
:1044700008010FE0D368002BF9D12DB1680700D1F6
:104480007EB96FF00A0105E047B17B1E372B06D9D4
:104490006FF00B010020FEF73FFC56E018273EB1FD
:1044A00002E0002FF1D118277107EAD1472EE8D991
:1044B0001368D2F804B00193CCB904E0164615464F
:1044C0009346182701925A4BD3F8900010B1FEF78B
:1044D000B2FE05E001224821D3F88800FEF71EFE57
:1044E000044638B96FF00401FEF716FC9BE04FF06C
:1044F000000A01E04FF0010A8DBBDFF83481A6B954
:104500004C4AD8F88C00566D78B1FEF794FE0546FB
:1045100040B96FF004010020FEF7FEFBBAF1000F76
:104520000CD112E04AF0100A17E02A463146D8F8BA
:104530007C00FEF7F3FD054678B9EAE7D8F890501D
:10454000214625B12846FEF7A5FE00206CE0384B39
:10455000D3F88800FEF718FEF7E74AF0020A019B3D
:10456000012263600023A360E36023616361A361B0
:10457000E36184F823306362A362E362A6F140033F
:104580002B44A3632C4B22706270FFB2FD2284F88F
:1045900002A084F803B084F8207084F8217084F8B5
:1045A000222025636663C4F83C902B60214B1B6876
:1045B0005B0711D504352A46B608A6F111034FF062
:1045C000CC311BB142F8041B013BFAE706F18046EF
:1045D000113E05EB860500E0A56B2B4605F1340284
:1045E000002143F8041B9342FBD1144B144A6B6324
:1045F0004FF08073EB63039BC5F838902B620C4B34
:1046000020469A66FEF78AFB0E4B1B6833B19B6807
:1046100023B1029920469847606401E0029B6364DD
:104620002046FFF7B1FE204605B0BDE8F08F00BF81
:10463000A840FF3FE4B11000A52E5AE2E13F100070
:104640000F441000605DFF3FF8B5104D0746EC6960
:104650000E46CCB12B7A022B04D02046FFF778FD12
:104660000020F8BDE86A80B12046FEF75BFB3146CA
:1046700020466770FFF790FD05F12400FFF757FD16
:10468000FFF772FE0120F8BD2046F8BDA840FF3FAD
:1046900070B51C4DEC69002C32D0E06AFFF704FBCA
:1046A000A06930B100221146FFF79CFEA069FEF719
:1046B00038FB2B7A134E022B22D1F36A03B3EFF3AC
:1046C0000983A36306F12400FFF731FDFFF74CFED9
:1046D0000023F361E378DB0701D5A3691BB1204612
:1046E000FFF7C2FC07E004226270E360F36BA36093
:1046F00003B1DC60EC632046BDE87040FEF716BBFA
:1047000070BD00BFA840FF3FF8B507460E461546EE
:104710001C46FEF702FBEFF305832BB9EFF3108382
:1047200013B9EFF3118333B16FF005010020FEF7E9
:10473000F3FA0020F8BD384631462A462346DFF812
:1047400020C0EFF3148414F0020F06D1EFF30884B5
:10475000203C24F0070484F3098800DFF8BD00BF83
:10476000454410000023FFF7CFBF000008B5034603
:10477000EFF305822AB9EFF3108212B9EFF3118239
:104780002AB118460021FEF7CAFA002008BDDFF85A
:1047900008C000DF08BD00BFBD40100008B5EFF342
:1047A00005832BB9EFF3108313B9EFF3118323B112
:1047B0000020FEF7B5FA002008BDDFF808C000DFD2
:1047C00008BD00BFCD3F10000C4A30B5D36C0024AB
:1047D00033B11D69A94203D31C46491BDB68F7E7C7
:1047E00001618460C3601BB11D699860691A196119
:1047F0000CB1E06030BDD06430BD00BFA840FF3FC9
:1048000070B5134DEC6C14B323690126013B236191
:104810002369E3B9E3680BB1A2689A60EB640023F3
:104820001A4604F11801686DFFF718F818B121460F
:104830000320FEF701FAE378012B04D161692046D9
:10484000FFF7C2FF00E06670EC6C002CE0D170BD99
:10485000A840FF3F0F4B13B51A6E0821586EFEF7A4
:10486000D1FF0D4C606590B10C4BA3654FF0FF3349
:1048700000226946606DFFF74BF80028F6D19DE8ED
:104880000300FEF758FA0198009B9847EEE702B044
:1048900010BD00BFE4B11000A840FF3F0148100068
:1048A000FEE700F069BC00F0E3BC00F063B8FEE78F
:1048B00001F016B801F02CB800F0F2BEFEE7FEE7FA
:1048C000FEE7FEE7FEE7431C10B5044605D00021D5
:1048D00000F096FE0120A04010BD002010BD000099
:1048E00038B505460F4B0C46036029710846FFF7A3
:1048F000EAFF0D4BA8601A69A10022F480521A61E8
:104900001A6901F1804122F080521A6101F5E0310B
:104910000A78012060F384020A701A6942F080521A
:104920001A6138BD00C0004000B0014090F9040099
:1049300000F078BE074A136923F48053136119B954
:1049400003688268DA607047012902BF03688268E1
:104950009A60704700B00140054A136923F4805300
:1049600013610368826809B11A6070475A60704722
:1049700000B001402DE9F0472C4ADFF8C0801369F0
:104980002B4E23F48053136100231C46D8F80420D7
:10499000002A46D0D8F804700A220121D8F8040071
:1049A00001FA02F5054224D00A3A072A25D8DFE8A1
:1049B00002F0042424243A06080A00241DE00224FC
:1049C0001BE0032419E01B4DDFF86C9005F1200A71
:1049D000002355F8040F48B1D9F800300121984759
:1049E000D9F8003002212868984701235545F0D1B5
:1049F00002E00132122AD1D16BB956F8240060B11D
:104A00000D4D01212B6898472B68022156F8240090
:104A10009847002302E0012300E00346C8F8307005
:104A2000B4E7BDE8F0870124E7E700BF00B001402C
:104A3000804AFF3F8C4AFF3FC84AFF3F00C000400A
:104A400010B54C1C02D14FF0FF3010BD01248C403A
:104A500001600A394460072932D8DFE801F00431E7
:104A60003131070A0D1023490B6029E021494B60C1
:104A700026E020498B6023E01E49CB6020E01D49E1
:104A80000C690CB90B611BE04C690CB94B6117E068
:104A90008C690CB98B6113E0CC690CB9CB610FE068
:104AA0000C6A0CB90B620BE04C6A0CB94B6207E064
:104AB0008C6A0CB98B6203E0CC6A002CC3D1CB6248
:104AC0000D490B6923F480530B6141680B4B8360E4
:104AD000D9601963996119621961094B00201A6044
:104AE000084B202283F806234022C3F880211A6055
:104AF00010BD00BF804AFF3F00B0014000C0004031
:104B0000C84AFF3F00E100E0064A0021136923F490
:104B100080531361836842685A610268024B43F80C
:104B20002210704700B00140804AFF3F82B000234E
:104B300001930190019B23B100BF019B013B0193B5
:104B4000F8E702B070470000F8B50646174C00259C
:104B50001227954228D2A760C820FFF7E7FF4B5DD8
:104B6000132B0AD110231120A360A360A360A060BF
:104B7000A360A360A060A06001E00135A360C8202D
:104B8000FFF7D4FF1623C820A360FFF7CFFF3068DC
:104B90000368DB06FCD4C820FFF7C8FF33681B6836
:104BA0005B07D6D50220F8BD0020F8BD007000409C
:104BB00000F028B900F0C6B900F0D7B900F0E3B9A9
:104BC0002DE9F3410646019117461C46FFF7F4FF15
:104BD000019B02A943F0010341F8043D012206F1C3
:104BE0000C00FFF7B1FF054628BB01467A1E1A4F9D
:104BF0004FF013088C421DD9C7F80880C820FFF772
:104C000095FFF3681868800703D418684007F9D542
:104C100002257B6801318C4202F8013F84BF1023DA
:104C2000BB60F3681868000611D41B685B07E1D508
:104C3000022500E025B13046FFF7C0FF284608E016
:104C4000089B13B13046FFF7B9FF204601E003256A
:104C5000F1E702B0BDE8F081007000402DE9F341BA
:104C6000054602AE46F8041D05F10C0790461C46A9
:104C7000FFF7A2FF314601223846FFF765FF0646DF
:104C800030B9224641463846FFF75EFF064620B15E
:104C90002846FFF793FF304605E0089B13B12846EE
:104CA000FFF78CFF204602B0BDE8F0817FB50024FD
:104CB0004E4BADF800408DF802401A694C4922F481
:104CC00080521A618A68204642F00C028A601A6992
:104CD0002F2122F080521A61464A20269160D1602D
:104CE0001A69052122F480321A61434A0325916032
:104CF000D1601A69414942F480321A611A6922F07E
:104D000080021A61A3F5A0331A7C42F080021A7463
:104D10001A7C42F040021A741A7C42F020021A7483
:104D200000F010F9072320468DF801308DF800605F
:104D30008DF80240FFF740FF032269460C20FFF781
:104D400003FF2046FFF73AFF20468DF800608DF8FC
:104D500001508DF80240FFF72FFF2A4669460C20CC
:104D6000FFF7F2FE2046FFF729FF4FF6FF70FFF72F
:104D7000DDFE8DF800602046FF268DF801508DF88D
:104D80000260FFF719FF2A4669460C20FFF7DCFE98
:104D90002046FFF713FF1A4A01AB516810688DF8DF
:104DA000016003C31189927A19809A7006238DF8E5
:104DB00000308DF802600020FFF7FEFE01AB1919EC
:104DC00001220C20FFF7C0FE032269460C20FFF7EA
:104DD000BBFE0020FFF7F2FE01344FF6FF70FFF735
:104DE000A5FE0C2CE7D104B070BD00BF00B001409F
:104DF00000C0004000C001400000014040420F00E0
:104E0000B0B21000F8B50D4604464549284616468E
:104E1000FDF726FD434907463046FDF721FD0146D3
:104E20003846FDF7FFFCE060013004D149223E49DD
:104E30003E48FDF787FDE3680022DA60E2683C4BFC
:104E40009A423C4A3C4B11690BBF21F0800121F48E
:104E50000051116111610CBF20224FF48022C3F870
:104E600080211A60E268137C43F040031374E26807
:104E7000137C43F02003137400F07EFB2F4BE26899
:104E8000B0FBF3F0137C8008023860F30403137462
:104E9000E368C0F34710586121492846FDF7A4FC98
:104EA00030462049FDF7A0FC2846052100F0BAFB5A
:104EB0003046052100F0B6FB1E4BA8001A6900F130
:104EC000804022F080521A6100F5E030077801221C
:104ED000B10062F3840701F18041077001F5E03110
:104EE000087802FA05F562F384000870196914481D
:104EF00041F080511961196902FA06F621F48051D6
:104F0000196181682E430E4386601A6942F480520B
:104F10001A61E268137C43F080031374F8BD00BF8C
:104F2000CCB3100044B41000BBB2100007B31000A3
:104F30000070004000B0014000E100E0A0860100E8
:104F400000C0004038B505460C4600F015FBB0FB2C
:104F5000F4F0EA688008137C023860F304031374E9
:104F6000EB68C0F34710586138BD10B50446C268FD
:104F70001368DB07FCD5012001F044F9E368152232
:104F80009A60002010BD10B50446C2681368DB07A4
:104F9000FCD5012001F036F9E36814229A601B6801
:104FA00013F0340F14BF6FF00100002010BD00F0AB
:104FB00091BB08B500F0E0FB08BD00F00FBC00F0AD
:104FC000C5BB00F0CFBB00002DE9F74F8A4606466F
:104FD0005F49504691461C469DF93080FDF740FCE4
:104FE0005C4905464846FDF73BFC5B49019020467D
:104FF000FDF736FC594907464046FDF731FC019B59
:10500000834619462846FDF70DFC594605463846A5
:10501000FDF708FC01462846FDF704FC306001302E
:1050200004D143224E494F48FDF78CFC4E4D326867
:105030004E4B20469A422B6947490CBF23F0400350
:1050400023F400732B612B69012723F480332B6138
:10505000FDF7CAFB3E495046FDF7C6FB2B6907FA30
:1050600004F023F480532B61414B07FA08F299684E
:10507000024307FA0AF002430A439A60DA6807FA21
:1050800009F10A43DA602B69204623F08053A4001B
:105090002B61002104F1804400F0C4FA04F5E034EF
:1050A0000221504600F0BEFA2378B9F1FF3F67F3C2
:1050B00084032370237967F3840323710BD025497C
:1050C0004846FDF791FB0521484600F0ABFA237AEC
:1050D00067F384032372B8F1FF3F11D01F494046A4
:1050E000FDF782FB0221404600F09CFA237B01225F
:1050F00062F384031D4A2373137D6FF30303137557
:10510000194B00241A6942F080521A611A6942F45C
:1051100080521A611A6942F480321A613368DC6085
:1051200000F02AFA134B0122B0FBF3F03368400879
:10513000013898609A62DA62FF22DC615A621022BA
:105140005A61336825229C61DA6003B0BDE8F08FB4
:10515000BCB410006CB310009CB31000ECB4100091
:105160001FB3100007B3100000B001400060004002
:1051700000C0004040420F0000224FF08043DA6040
:10518000024A136801331360704700BFCC4AFF3FE7
:10519000164BD4211A6922F001021A611A6922F011
:1051A00002021A614FF6FF724FF080431A60996055
:1051B00003F580531A6054229A600D4B0D499A688A
:1051C00011649B680C4A02215A640C4B102283F82C
:1051D0000023202283F801230122C3F88021C3F891
:1051E00080111A601960064B1A60704700B00140C8
:1051F00000ED00E0795110007152100000E100E074
:10520000D44AFF3F024B1B680BB9FFF7C1BF704781
:10521000D44AFF3F08B5134B1B680BB9FFF7B8FF23
:1052200011494FF0804201205368C1F88000BFF35C
:105230004F8FBFF36F8F916811F4807F18BF0023E9
:105240000A491FBFD3600B6801330B6018BF536856
:105250000868054AC3F57F43FF330121116043EA23
:10526000004008BDD44AFF3F00E100E0CC4AFF3FC8
:1052700070B5104C0026104BE6601D68FFF7CAFFA2
:10528000281AB04207DC238966F3C7132381BDE8DF
:105290007040FDF751BB4FF6FF739842A8BF184608
:1052A000238966F3C71323812060238943F0800399
:1052B000238170BD00100040D04AFF3F024B1A8985
:1052C0006FF3C7121A81704700100040014B002293
:1052D000DA607047001000400E4B10B504461860AD
:1052E000FFF798FF201A002804DC0B4B0222C3F8BA
:1052F000002110BD4FF6FF74A042A8BF2046074B07
:105300001A896FF3C7121A8118601A8942F0800255
:105310001A8110BDD04AFF3F00E100E000100040BC
:105320004FF4FD53DA6D013200F092805A68013279
:105330001EBF5968484A51629B6801331FBF4FF432
:10534000FD539A68444B1A624FF4FD53DA68120C0D
:10535000120412F5803F1EBFD968404AD1621B6912
:105360001B0C1B0413F5803F1FBF4FF4FD531A693C
:105370003A4B9A62384B4FF4FD52506BB3F88C1095
:1053800060F30B21A3F88C10936B1B0C1B0413F51B
:10539000803F18BF916B324B18BF5961D16B1961B7
:1053A000116CD960526C120C120412F5803F07D0B8
:1053B0004FF4FD52506C2B4A118960F30D2111817D
:1053C0004FF4FD52916C9960D16C1960106D2649B3
:1053D0000860116AD961516A996191695962D2690B
:1053E0001A624FF420521168013107D0516801311F
:1053F00004D010681849486252680A624FF420527B
:10540000916801311FBF92681449C2F30B02CA624E
:105410004FF42052916801311FBF92680F49C2F3C7
:105420000B02CA624FF420521169013105D0106994
:105430000C4A118960F30D2111814FF420525169FA
:10544000013107D051699A8A61F303029A8201E01F
:1054500000207047012070470040014000B001402B
:10546000809001400041014000100140284B82B073
:105470001A7842F001021A705A68D007FCD5254B01
:105480001A886FF345121A8000238DF807309DF8B3
:105490000730092B04D89DF807300133DBB2F4E75D
:1054A0001B4B1A7842F008021A705A689106FCD514
:1054B0005A68D206FCD4174B1A8842F020021A8090
:1054C0001A886FF304121A8000238DF807309DF8B4
:1054D0000730092B04D89DF807300133DBB2F4E71D
:1054E0000B4B1A7842F004021A705A681007FCD568
:1054F0005968074A4907FBD406490B8843F008035B
:105500000B804FF0FF3313610023536102B07047EB
:1055100000B0014000D00140144A136923F0005349
:105520001361134B196921F010011961196921F0F8
:10553000020119610F4BA02159614FF4C871D96064
:1055400019886FF34101198019886FF3820119805E
:10555000198841F080011980198841F040011980B3
:10556000136943F000531361704700BF00B001405E
:1055700000ED00E000D00140004870470048E8011D
:1055800038B51C4C1C4D1F23C4F88030C4F8803142
:105590004FF020636B60194BAB60FFF7C1FEFFF764
:1055A00065FFFFF7B9FF2023EB77D02285F8223083
:1055B00085F82330E02384F8033384F8043384F837
:1055C000053384F8063384F8073384F8092384F814
:1055D0000A2384F80B3384F80C3384F80D3384F8F1
:1055E0000F3384F80E3384F8103384F8113384F8C1
:1055F000123338BD00E100E000ED00E000201000B3
:10560000074B80001A6900F1804022F4803200F5D7
:1056100080301A6101601A6942F480321A61704761
:1056200000B001401D4A8000136900F1804023F062
:10563000805300F5E0301361052929D8DFE801F037
:1056400003070B0F172003786FF345130AE0037865
:105650006FF345130EE003786FF3451313E00378FF
:1056600043F02003037003786FF301030FE0037826
:1056700043F0200303700378012262F3010306E084
:10568000037843F020030370037843F003030370AF
:10569000024A136943F080531361704700B0014020
:1056A0000A498020C1F88000BFF34F8FBFF36F8F8E
:1056B000074B03229A611A6922F00C021A610860F2
:1056C0005A6912F4E06FFBD1FDF788B800E100E001
:1056D00000F0004030B5174B17491A69002422F436
:1056E00000421A611A78002542F010021A70A3F5E0
:1056F000404300221A615A601A60DA609A60C1E978
:1057000000455A6103229A6159690C4AC905FBD4C4
:1057100013690B4943F0030313610A4B9B68D96576
:10572000094B8021C3F8801119605369DB05FCD453
:1057300030BD00BF00B00140D84AFF3F00F000403C
:10574000A156100000ED00E000E100E0044B8022D3
:10575000C3F88020BFF34F8FBFF36F8F704700BF38
:1057600000E100E0034B03229A615A6912F4C06F12
:10577000FBD1704700F0004070B5134B5C681A68AD
:105780005968013A8C42C2F30E02F7D10F4DA2FBC9
:105790000523D00B40EA4340D90BE5FB04010D463D
:1057A00004460B4BD3E900018D4208BF84421E46DC
:1057B00004D2EE2207490848FDF7C4F8C6E90045BF
:1057C0002046294670BD00BF00F0004040420F0057
:1057D000D84AFF3F70B51000B3B51000F8B50646C3
:1057E000FFF7CAFF331A002B2B4F03DC8023C7F8C7
:1057F0000031F8BDB04234464FF0000502D9341CE8
:1058000045F10105254A00232046294601F070F99B
:105810008023C7F88030BFF34F8FBFF36F8F204EC8
:105820007368984207D0F060336923F0040343F0B3
:105830000803336127E00025E9030023174AE0034A
:1058400041EA544101F054F93368C0F30E009BB2B1
:1058500083420BD002D2C21A042A07DD83420AD93E
:105860001B1AC3F5FF437F33042B04DC0A4B802251
:10587000C3F8002107E00A4A9060136923F0080387
:1058800043F004031361044B80221A60044A5369F5
:1058900013F4E07FFBD1F8BD00E100E040420F00CF
:1058A00000F000400C4B70B5064653F821000D4641
:1058B0001C4678B1720603D5084B01211B68984736
:1058C000F30707D5054B54F825001B680021BDE8F8
:1058D0007040184770BD00BFE04AFF3FE84AFF3FF5
:1058E00010B40A494A694B68D4B213F002004B68FD
:1058F0001CBF02F04000C0B2DB0744BF02F001024F
:1059000010432040002110BCFFF7CCBF00500040E6
:1059100010B40A494A694B68D4B213F002004B68CC
:105920001CBF02F04000C0B2DB0744BF02F001021E
:1059300010432040012110BCFFF7B4BF008000409D
:105940002DE9F04188460446564940461546FCF785
:1059500087FF554906462846FCF782FF0146304638
:10596000FCF760FF2060013004D150224F495048BD
:10597000FCF7E8FF4B494046FCF736FF4A4928460A
:10598000FCF732FF22684B4B9A4208D14A4B012266
:105990001A6020686168494B03C3A0681860454BD2
:1059A0002268474E9A4203F5983305D11A6922F4CA
:1059B00080721A610D2307E042498A4206D11A69B2
:1059C00022F020021A610323337004E06F2237496A
:1059D0003D48FCF7B7FF3D4B4FEA88011A6901F1DA
:1059E000804122F480521A611A69072022F4803221
:1059F0001A611A6922F080521A6101F58032106032
:105A0000AA0002F1804202F5803701F5E0313860EA
:105A100002F5E03208602721116001272C4907FABE
:105A200008F207FA05F58A60CD601A6942F08052E3
:105A30001A611A6942F480321A611A6942F480527A
:105A40001A61FFF799FD4FF41653B0FBF3F023688A
:105A500000098022DA60C2B21A60C0F30720032274
:105A60005860DA608F229A609A69DA61114A93422B
:105A700007D1114B61681F602068104B03C3A068F9
:105A80001860327853B2002B09DB012102F01F02AB
:105A900001FA02F25B090F49603341F82320BDE8A7
:105AA000F08100BF98B4100020B41000D2B51000EF
:105AB0001CB6100000800040F04AFF3F645DFF3FCD
:105AC000EC4AFF3F0050004042B6100000B00140D9
:105AD00000C0004000E100E003685A699206FCD56E
:105AE00019607047064A136923F004031361054BDC
:105AF0001A886FF300021A80BFF36F8F30BF7047B0
:105B000000ED00E000D00140FFF7ECBF10B49DF9BC
:105B10000440019410BCFFF757BA000070B5164658
:105B200002680546137B0C466FF300031373A1F163
:105B30000802182A05D8214BD340DB0701D5032ED4
:105B400004D95E221E491F48FCF7FCFE102C05D02C
:105B5000202C05D0082C08BF002402E0012400E01E
:105B600002242A68137B64F3871313732A68137B58
:105B700043F020031373721E022A86BF00221046D0
:105B8000114B29689EBF9856104B9A560B7B60F3B9
:105B900004130B7329680B7B62F3C3030B732A682E
:105BA000137B43F0040313732B681A7B42F0020249
:105BB0001A731A7B42F001021A7370BD01010001D1
:105BC00048B610008FB61000FAB61000FDB61000EF
:105BD00038B50D460468FFF7CFFC054B29469D42BA
:105BE000A8BF1946B0FBF1F041080139A16038BDEA
:105BF00000093D0003681A695007FCD519601A694D
:105C0000D107FCD41A699206FCD4586870472DE974
:105C1000F047089F804697423D46894616469A4679
:105C2000B8BF15460024AC420DDAB442B4BF19F82F
:105C30000410FF214046FFF7DDFFBC42B8BF0AF861
:105C400004000134EFE72846BDE8F087024A034B21
:105C50001A60FFF795BC00BF0048E8015841FF3FBC
:105C6000704710B5044600F0CBFA204610BD000086
:105C7000F8B5054604460E461746094B142245F86A
:105C8000043B0021284601F031F9064B2846A36168
:105C90003A463146FEF78CFF034B20461C60F8BDA8
:105CA00008B71000A0860100F44AFF3F70B5044613
:105CB0000D4603681B689847201DA5612946FEF71D
:105CC00079FF044B20461C602368BDE870405B6888
:105CD000184700BFF44AFF3F70B504460368084DFB
:105CE0001B6898472B689C4204D0A169201DFEF7D1
:105CF00061FF2C6023682046BDE870405B68184750
:105D0000F44AFF3FF7B504460E4617461D460368A2
:105D10001B6898472046FFF7DFFF9DF8203031468B
:105D200083F0010300933A462B46201DFEF796FFB1
:105D3000236806465B6820469847A81B18BF0120C9
:105D400003B0F0BDF7B504460E4617461D4603687E
:105D50001B6898472046FFF7BFFF9DF8203031466B
:105D600083F0010300933A462B46201DFEF728FFDF
:105D7000236806465B6820469847A81B18BF012089
:105D800003B0F0BD70B5044654F8043B05467BB93A
:105D90000C4E4FF0FF313068FDF7D6FF2B6823B96A
:105DA00014B1204600F07AFA2C603068FDF7EAFF63
:105DB0002B68A34204D05B2203490448FCF7C2FDD0
:105DC000286870BDE05CFF3F18B7100047B71000AF
:105DD00008B50448FFF7D6FFBDE808404FF0FF3193
:105DE00000F063BAF84AFF3F08B50348FFF7CAFF5F
:105DF000BDE8084000F05CBAF84AFF3F7047000079
:105E000010B50446074B40F8103BFEF77DFE04F149
:105E10002C00FCF705FB04F11C00FCF701FB2046FD
:105E200010BD00BF64B7100010B50446FFF7E8FFCF
:105E3000204600F0E5F9204610BD884238B50446FA
:105E40000D460AD0FCF7ECFA3CB1EB681BB15B687D
:105E5000294620469847EB68E360204638BD00009D
:105E6000F0B504460D46174B85B00360164F00236E
:105E7000164E43600372C3600361436183618362B2
:105E8000836369461C3000970396FFF7D6FF684688
:105E9000FCF7C6FA694604F12C0000970396FFF759
:105EA000CCFF6846FCF7BCFA2346094A294604F1B0
:105EB0001000FEF7C5FD201D2946FCF765FC2046B5
:105EC00005B0F0BD64B71000FD5D1000D0AD10004E
:105ED000FD5E1000C36810B504462BB940F20E22D7
:105EE00004490548FCF72EFDE3682046BDE8104054
:105EF0001B6818476CB7100097B71000012908B548
:105F000002D0022902D008BD1C3000E02C30FFF77F
:105F1000E1FF08BD704710B5044600F071F9204656
:105F200010BD000070B5044603680C4E9B6898478E
:105F300033689C420BD0251D0023626A216A2846E3
:105F4000FFF7ECFDA16A2846FFF742FE34602368A4
:105F50002046BDE87040DB68184700BF2C4BFF3F70
:105F60002DE9F341054604460E46174698460F4B69
:105F70001C2245F8043B0021284600F0B7FF082307
:105F80002362002363620A4B3A46A3629DF92030E4
:105F90003146009328464346FFF7B8FD2046FFF7F9
:105FA000C1FF204602B0BDE8F08100BFA4B71000D9
:105FB00040420F0070B504460E46154603689B68C4
:105FC0009847074B20462662656200221A60FFF759
:105FD000A9FF23682046BDE87040DB68184700BF72
:105FE0002C4BFF3F70B504460D4603689B689847ED
:105FF000064B2046A56200221A60FFF793FF236834
:106000002046BDE87040DB68184700BF2C4BFF3FBF
:1060100038B504460D4603689B6898472046FFF74D
:1060200081FF2946201DFFF7E5FD05462368204630
:10603000DB689847284638BDF7B504460D46164636
:106040001F4603689B6898472046FFF76BFF089B35
:106050002946009332463B46201DFFF7D8FD0546F2
:1060600023682046DB689847284603B0F0BD00004F
:1060700008B50448FFF786FEBDE808404FF0FF3141
:1060800000F013B9304BFF3F08B50348FFF77AFE25
:10609000BDE8084000F00CB9304BFF3FF8B515469D
:1060A0000C4611B151F8087C00E00F467DB128463E
:1060B00000F0D8FE064658B1AF423A46214628BF06
:1060C0002A4600F0EDFE204600F0D4FE00E02E4609
:1060D0003046F8BD38B502FB01F4204600F0C2FEA0
:1060E000054618B12246002100F000FF284638BDC1
:1060F00038B50D4604461548FFF744FE4FF0FF3112
:1061000000F0D3F805F10801204600F03BFF104BEA
:1061100080B1044699681A6844F8085B2A440D4423
:1061200019691A600131196159689D608A4205D95F
:106130005A6003E004465A6901325A610348FFF786
:1061400021FE00F0B5F8204638BD00BF7C4BFF3F74
:10615000644BFF3F38B50C4605460F48FFF712FE6B
:106160004FF0FF3100F0A1F85CB10C4B54F8080C73
:106170001A68A4F10801121A1A601A69013A1A6120
:1061800000E02146284600F0B9FE0348FFF7FAFD7B
:10619000BDE8384000F08CB87C4BFF3F644BFF3FBC
:1061A0000C4A10B513681844EFF30881884205D3F0
:1061B000094B0C221A604FF0FF3010BD07490968E7
:1061C00021B1074C246821448842F1D2106018465E
:1061D00010BD00BF5C41FF3F705DFF3FB04BFF3F14
:1061E000B44BFF3F08B508B1FCF7BEFBFEE701204A
:1061F000704708B5FFF7F6FF08B100F03BBE7047E7
:10620000FFF7FABF70B505464FF47A74FFF702F84E
:1062100095FBF4F4002C064602DDFCF7E4FB28B9FC
:10622000FEF7F8FF801BA842FAD370BD204600F0AD
:1062300049F8F5E74FF47A735843FFF7E3BF0000DE
:10624000F8B504460D4600F114071C220021261D56
:10625000384600F04BFE10220021304600F046FE8A
:106260000B4BE760002D08BF1D461C2323610B2349
:106270006560A3603046FDF73FFD206030B9BDE8A2
:10628000F840312203490448FCF75CBBF8BD00BF6D
:10629000BCB71000D5B71000FBB7100010B504460E
:1062A0000021FFF7CDFF204610BD0068FDF74CBD73
:1062B0000068FDF767BD10B504460068FDF77EFD78
:1062C000204610BDFCF700BDEFF30980816911F88D
:1062D000021C01BB01B590E80F10E047BDE800507B
:1062E0008CE803001A4B93E80600914208BF704700
:1062F00019B12CE9F00FC1F838C0FEF713F8144BB0
:1063000093E806001A60906BB0E8F00F80F30988FC
:106310006FF0020E704710B50E4A1368994206D806
:1063200052F821400FC8A047EFF30984206010BD48
:1063300010B5FDF76DFDBDE81040EFF3098CD1E716
:1063400010B5FDF703FEBDE81040EFF3098CC9E777
:10635000C440FF3F70B21000FEE7FEE7FEE7FEE735
:10636000FEE7FEE7FEE7FEE7FEE7FEE70749084A2D
:10637000084B9B1A05DD00240859105104349C4237
:10638000FADB0548804705480047000028BB10009D
:10639000A040FF3F2042FF3F4D5C100099221000BB
:1063A0000AB100F07DBD7047034653F8080B9842D0
:1063B00001D0FFF725BF7047012A10B502D10A7836
:1063C000027010BDFFF7ECFF10BD08B5521AFFF7C1
:1063D000F3FF08BD10B50446FFF7E6FF204610BDE9
:1063E000244B1A68D0075CBF01221A60224B1A683E
:1063F000D1075CBF01221A60204B1A68D2075CBF2C
:1064000001221A601E4B1A68D0075CBF01221A6075
:106410001C4B1A68D1075CBF01221A601A4B1A681C
:10642000D2075CBF01221A60184B1A68D0075CBF04
:1064300001221A60164B1A68D1075CBF01221A604C
:10644000144B1A68D2075CBF01221A60124B1A68FB
:10645000D0075CBF01221A60104B1A68D1075CBFDD
:1064600001221A600E4B1A68D2075CBF01221A6023
:10647000704700BFE44BFF3FE04BFF3FDC4BFF3F6B
:10648000D84BFF3FD44BFF3FD04BFF3FCC4BFF3FA0
:10649000C84BFF3FC44BFF3FC04BFF3FBC4BFF3FD0
:1064A000B84BFF3F184B1A68D1075CBF01221A6036
:1064B000164B1A68D2075CBF01221A60144B1A6887
:1064C000D0075CBF01221A60124B1A68D1075CBF6B
:1064D00001221A60104B1A68D2075CBF01221A60B1
:1064E0000E4B1A68D0075CBF01221A600C4B1A6869
:1064F000D1075CBF01221A600A4B1A68D2075CBF41
:1065000001221A60704700BF044CFF3F004CFF3F60
:10651000FC4BFF3FF84BFF3FF44BFF3FF04BFF3F7F
:10652000EC4BFF3FE84BFF3F244B1A68D0075CBFA2
:1065300001221A60224B1A68D1075CBF01221A603F
:10654000204B1A68D2075CBF01221A601E4B1A68E2
:10655000D0075CBF01221A601C4B1A68D1075CBFD0
:1065600001221A601A4B1A68D2075CBF01221A6016
:10657000184B1A68D0075CBF01221A60164B1A68C4
:10658000D1075CBF01221A60144B1A68D2075CBFA6
:1065900001221A60124B1A68D0075CBF01221A60F0
:1065A000104B1A68D1075CBF01221A600E4B1A68A3
:1065B000D2075CBF01221A60704700BF344CFF3F16
:1065C000304CFF3F2C4CFF3F284CFF3F244CFF3FFB
:1065D000204CFF3F1C4CFF3F184CFF3F144CFF3F2B
:1065E000104CFF3F0C4CFF3F084CFF3F184B1A6804
:1065F000D1075CBF01221A60164B1A68D2075CBF34
:1066000001221A60144B1A68D0075CBF01221A607D
:10661000124B1A68D1075CBF01221A60104B1A682E
:10662000D2075CBF01221A600E4B1A68D0075CBF0C
:1066300001221A600C4B1A68D1075CBF01221A6054
:106640000A4B1A68D2075CBF01221A60704700BF6C
:10665000544CFF3F504CFF3F4C4CFF3F484CFF3FDA
:10666000444CFF3F404CFF3F3C4CFF3F384CFF3F0A
:1066700081F0004102E000BF83F0004330B54FEAF3
:1066800041044FEA430594EA050F08BF90EA020F60
:106690001FBF54EA000C55EA020C7FEA645C7FEAF3
:1066A000655C00F0E2804FEA5454D4EB5555B8BF16
:1066B0006D420CDD2C4480EA020281EA030382EA87
:1066C000000083EA010180EA020281EA0303362D19
:1066D00088BF30BD11F0004F4FEA01314FF4801CEC
:1066E0004CEA113102D0404261EB410113F0004FFE
:1066F0004FEA03334CEA133302D0524263EB4303B5
:1067000094EA050F00F0A780A4F10104D5F1200E52
:106710000DDB02FA0EFC22FA05F2801841F10001AD
:1067200003FA0EF2801843FA05F359410EE0A5F181
:1067300020050EF1200E012A03FA0EFC28BF4CF0B2
:10674000020C43FA05F3C01851EBE37101F0004568
:1067500007D54FF0000EDCF1000C7EEB00006EEB75
:106760000101B1F5801F1BD3B1F5001F0CD34908FF
:106770005FEA30004FEA3C0C04F101044FEA445256
:1067800012F5800F80F09A80BCF1004F08BF5FEADD
:10679000500C50F1000041EB045141EA050130BDBD
:1067A0005FEA4C0C404141EB010111F4801FA4F160
:1067B0000104E9D191F0000F04BF01460020B1FAB5
:1067C00081F308BF2033A3F10B03B3F120020CDAED
:1067D0000C3208DD02F1140CC2F10C0201FA0CF0CB
:1067E00021FA02F10CE002F11402D8BFC2F1200C30
:1067F00001FA02F120FA0CFCDCBF41EA0C019040E6
:10680000E41AA2BF01EB0451294330BD6FEA04042E
:106810001F3C1CDA0C340EDC04F11404C4F1200219
:1068200020FA04F001FA02F340EA030021FA04F32B
:1068300045EA030130BDC4F10C04C4F1200220FA82
:1068400002F001FA04F340EA0300294630BD21FAC0
:1068500004F0294630BD94F0000F83F4801306BF86
:1068600081F480110134013D4EE77FEA645C18BF7A
:106870007FEA655C29D094EA050F08BF90EA020F11
:1068800005D054EA000C04BF1946104630BD91EA09
:10689000030F1EBF0021002030BD5FEA545C05D10C
:1068A0004000494128BF41F0004130BD14F580044B
:1068B0003CBF01F5801130BD01F0004545F0FE41BF
:1068C00041F470014FF0000030BD7FEA645C1ABFF4
:1068D000194610467FEA655C1CBF0B46024650EA2B
:1068E000013406BF52EA033591EA030F41F4002157
:1068F00030BD00BF90F0000F04BF0021704730B5DD
:106900004FF4806404F132044FF000054FF00001B1
:1069100050E700BF90F0000F04BF0021704730B572
:106920004FF4806404F1320410F0004548BF404247
:106930004FF000013EE700BF42004FEAE2014FEA9C
:1069400031014FEA02701FBF12F07F4393F07F4F77
:1069500081F06051704792F0000F14BF93F07F4FA9
:10696000704730B54FF4607401F0004521F00041EC
:1069700020E700BF50EA010208BF704730B54FF072
:1069800000050AE050EA010208BF704730B511F077
:10699000004502D5404261EB41014FF4806404F1AF
:1069A00032045FEA915C3FF4DCAE4FF003025FEA31
:1069B000DC0C18BF03325FEADC0C18BF033202EBB9
:1069C000DC02C2F1200300FA03FC20FA02F001FA13
:1069D00003FE40EA0E0021FA02F11444C1E600BFB2
:1069E0004FF0FF3C06E000BF4FF0010C02E000BF9B
:1069F0004FF0010C4DF804CD4FEA410C7FEA6C5C7E
:106A00004FEA430C18BF7FEA6C5C1BD001B050EA20
:106A1000410C0CBF52EA430C91EA030F02BF90EA0B
:106A2000020F0020704710F1000F91EA030F58BFCA
:106A3000994208BF90422CBFD8176FEAE37040F02C
:106A4000010070474FEA410C7FEA6C5C02D150EACA
:106A5000013C07D14FEA430C7FEA6C5CD6D152EA85
:106A6000033CD3D05DF8040B704700BF844610464A
:106A700062468C461946634600E000BF01B5FFF749
:106A8000B7FF002848BF10F1000F01BD4DF808ED19
:106A9000FFF7F4FF0CBF012000205DF808FB00BFEA
:106AA0004DF808EDFFF7EAFF34BF012000205DF844
:106AB00008FB00BF4DF808EDFFF7E0FF94BF012091
:106AC00000205DF808FB00BF4DF808EDFFF7CEFF92
:106AD00094BF012000205DF808FB00BF4DF808EDD1
:106AE000FFF7C4FF34BF012000205DF808FB00BFA2
:106AF00053B94AB9002908BF00281CBF4FF0FF3125
:106B00004FF0FF3000F082B9ADF1080C6DE904CE12
:106B100000F006F8DDF804E0DDE9022304B0704778
:106B20002DE9F04F8C460C460546099E002B4FD1AF
:106B30008A4217466BD9B2FA82FEBEF1000F0BD023
:106B4000CEF1200520FA05F501FA0EF345EA030C13
:106B500002FA0EF700FA0EF5390CBCFBF1F0BAB2EE
:106B600001FB10C300FB02F84FEA154C4CEA03444A
:106B7000A04509D9E41900F1FF3380F02881A04530
:106B800040F2258102383C44C8EB0404B4FBF1F325
:106B900001FB134C03FB02F2ACB244EA0C418A4203
:106BA00009D9C91903F1FF3480F00F818A4240F2FC
:106BB0000C81023B39448A1A43EA00400021002E2E
:106BC00063D022FA0EF2002386E80C00BDE8F08FB5
:106BD0008B4207D9002E56D0002186E811000846C6
:106BE000BDE8F08FB3FA83F1002940F09380A3420F
:106BF00002D3824200F2FE80851A64EB03039C46B6
:106C00000120002E41D086E82010BDE8F08F12B997
:106C10000127B7FBF2F7B7FA87FEBEF1000F36D1B6
:106C2000E41B4FEA17481FFA87F90121B4FBF8F378
:106C300008FB134409FB03F24FEA154C4CEA0444E9
:106C4000A24207D9E41903F1FF3002D2A24200F2B6
:106C5000D3800346A41AB4FBF8F008FB104809FBE4
:106C600000F9ACB244EA0842914507D9D21900F1C3
:106C7000FF3402D2914500F2BA802046C9EB0202ED
:106C800040EA03409BE731463046BDE8F08F07FA03
:106C90000EF7CEF1200C24FA0CF34FEA1748B3FBA1
:106CA000F8FA1FFA87F908FB1A3520FA0CFC04FAE7
:106CB0000EF40AFB09FB4CEA040C4FEA1C4242EAC0
:106CC00005439B4500FA0EF50AD9DB190AF1FF329C
:106CD00080F08B809B4540F28880AAF1020A3B44F9
:106CE000CBEB0303B3FBF8F008FB103300FB09F414
:106CF0001FFA8CFC4CEA03439C4207D9DB1900F1D4
:106D0000FF326ED29C426CD902383B441C1B40EAD5
:106D10000A418BE7C1F1200E8B4022FA0EFC4CEAAF
:106D2000030C24FA0EF74FEA1C49B7FBF9FA1FFAD5
:106D30008CF309FB1A7720FA0EF88C400AFB03F556
:106D400048EA04044FEA144848EA0747BD4202FAF9
:106D500001F200FA01FB09D917EB0C070AF1FF3029
:106D600041D2BD423FD9AAF1020A67447F1BB7FB5B
:106D7000F9F509FB157705FB03F3A4B244EA0747CD
:106D8000BB4208D917EB0C0705F1FF3027D2BB42F5
:106D900025D9023D674445EA0A40A0FB0289FF1A53
:106DA0004F4545464C4614D329D066B3BBEB05038B
:106DB00067EB040707FA0EFECB40CF404EEA030311
:106DC00086E888000021BDE8F08F2346F3E61846E8
:106DD000DAE6B8EB020569EB0C040138E5E7054695
:106DE000D9E7104692E78246C0E7924678E7023834
:106DF0003A4443E7084604E7023B3C442AE7C345DC
:106E0000E7D33C46D1E73146BDE8F08F704700BF7D
:106E10000E4B70B51E460E4C0025E41AA410A54278
:106E200004D056F8253098470135F8E703F0BCFF49
:106E3000084B094C1E46E41AA4100025A54204D0B4
:106E400056F8253098470135F8E770BD0042FF3FFE
:106E50000042FF3F0042FF3F1842FF3F004870479B
:106E6000C841FF3F024B01461868FFF741B900BF18
:106E7000C441FF3F024B01461868FFF76BB900BFE2
:106E8000C441FF3F10B5C9B202449042034605D049
:106E90001C7801308C42F8D1184610BD002010BD7E
:106EA00010B5431E0A44914204D011F8014B03F877
:106EB000014FF8E710BD884210B501EB020301D87D
:106EC000421E0BE09842FBD28118D21AD34204D062
:106ED00013F8014D01F8014DF8E710BD994204D0B7
:106EE00011F8014B02F8014FF8E710BD03460244C8
:106EF000934202D003F8011BFAE7704730B500292E
:106F00003CD051F8042C0B1F1D49002AB8BF9B1818
:106F10000A680C4612B95A600B6030BD9A420DD90E
:106F200019685818824201BF106852680918196020
:106F30005A60236030BD994203D80A46516800293F
:106F4000F9D1146815199D420AD11B682344D01841
:106F50008142136012D10868034413604B680CE04F
:106F600002D90C23036030BD18681C18A14201BF70
:106F70000C684968001918605960536030BD00BF43
:106F80005C4CFF3F70B5CD1C25F0030508350C2D7A
:106F900038BF0C25002D064603DA0C233360002091
:106FA00070BDA942F9D81F4B1C681A462146A1B1F1
:106FB0000B685B1B0ED40B2B03D90B60CC18CD5088
:106FC0001EE08C420BBF63684B681360636018BFA0
:106FD0000C4615E00C464968E9E7134C23681BB9D9
:106FE000304600F08BFE20602946304600F086FED9
:106FF000431CD2D0C41C24F00304A0420AD1256053
:1070000004F10B00231D20F00700C31A09D05A42D7
:10701000E25070BD211A304600F070FE0130EED112
:10702000BBE770BD5C4CFF3F584CFF3F2DE9F0477C
:1070300088B0149F002B1E461299B8BF03F100437D
:1070400027F02007B6BF1E4600232D23462F1446E7
:10705000109DDDF84CA00B7003D0452F03D10135F6
:1070600001E0032300E0022307AA049206AA039288
:107070008DE828042246334601F002FE472F804661
:1070800002D1119BDB0728D5462F08EB050911D14A
:1070900098F80030302B0AD10022002320463146D8
:1070A000FFF7F4FC18B9C5F10105CAF80050DAF889
:1070B000003099440022002320463146FFF7E6FCC9
:1070C00008B9302202E0CDF81C9006E0079B9945F4
:1070D00003D9591C07911A70F8E74046079B159A87
:1070E000C8EB0303136008B0BDE8F087034673B52F
:1070F0000029B8BF494203F8022BB4BF2D222B222E
:10710000092942701ADD0DF1070216460A2591FB86
:10711000F5F405FB1411092C01F1300102F8011DF1
:107120002146F4DC3031541E02F8011CB4421A46E8
:107130000AD214F8012B03F8012BF7E71A46302482
:10714000214402F8024B5970101A02B070BD0000C1
:107150002DE9F04F8FB00C4616461F46DDF86080D3
:107160000546FFF77BFED0F800B0584600F0FEFD64
:1071700000230C93D8F800300890073323F007035E
:1071800003F1080294F81890C8F80020D3E900230E
:10719000C4E91223D4E9120100F088FD012819D1B5
:1071A000D4E9120100220023FFF77AFC10B12D234D
:1071B00084F843309A4B9B4AB9F1470F8CBF9046F5
:1071C000984603232361236823F0040323604FF0D0
:1071D000000A93E0D4E9120100F068FD236848B981
:1071E000914A9249B9F1470F8CBF884690460322D5
:1071F0002261E9E7D4F804E0D4E91201BEF1FF3FCF
:1072000001D106220AE0B9F1670F02D0B9F1470FA8
:1072100005D1BEF1000F40F0B6810122626000226C
:1072200043F4806306920CAA2360059201930BAA93
:10723000636803920DF12B020292009302460B4603
:10724000CDF810902846FFF7F1FE09F0DF03472B39
:10725000804609D10B9BD81C02DB6268934230DD6B
:10726000A9F102095FFA89F9B9F1650F0B9912D8F2
:1072700001394A4604F150000B91FFF737FF0C9A91
:1072800082468318012A236102DC2268D1072FD5A8
:10729000013323612CE0B9F1660F14D10029636832
:1072A00007DD216113B92268D2071DD501330B44D4
:1072B00019E013B92268D00701D5023313E0012386
:1072C00011E04FF067090B9B0C9A934205DB226893
:1072D0002361D10708D5013305E0002BD4BFC3F1EA
:1072E00002030123134423610B9B4FF0000AA365A3
:1072F0009DF82B3013B12D2384F84330009733468B
:107300000DAA2146284600F059F9013002D14FF06C
:10731000FF3050E123685A0501D4236965E0B9F1D3
:10732000650F40F2D580D4E9120100220023FFF757
:10733000ADFB78B301233E4A31462846B8470130B9
:10734000E5D00C9B0B9A9A420BDB2368D80708D434
:1073500023689B0740F111814FF0000804F11909DF
:1073600006E1089B5A4631462846B8470130CED040
:107370004FF0000804F11A090C9B013B9845E7DA2D
:1073800001234A4631462846B8470130BFD008F1AC
:107390000108F1E70B9B002B29DC0123244A31462D
:1073A0002846B8470130B2D00B9B23B90C9B13B9C8
:1073B0002368D907CCD5089B5A4631462846B8479A
:1073C0000130A4D04FF0000904F11A0A0B9B5B4274
:1073D000994509DA0123524631462846B84701301B
:1073E00095D009F10109F1E70C9B4246A7E00C9A00
:1073F000A36D9A42A8BF1A46002A914607DC04F101
:107400001A034FF0000A29EAE97909931CE01346B0
:10741000314642462846B8470130F0D177E700BFF1
:1074200068B910006CB9100070B9100074B9100080
:1074300078B910000123099A31462846B84701302F
:107440003FF465AF0AF1010AA36DC9EB030292454F
:10745000F0DB08EB03090B9A0C9B9A420FDB2368C5
:10746000DA070CD40C9B0B9A9844C9EB08089B1ABA
:107470009845A8BF9846B8F1000F08DC0FE0089BBC
:107480005A4631462846B8470130EBD13FE74346DC
:107490004A4631462846B84701303FF438AF4FF0EE
:1074A000000928EAE87804F11A0A09E001235246A3
:1074B00031462846B84701303FF429AF09F10109A8
:1074C0000B9A0C9B9B1AC8EB03039945EEDB3FE735
:1074D0000C9A012A01DCDB0738D5012342463146EC
:1074E0002846B84701303FF412AF089B5A46314650
:1074F0002846B84701303FF40AAFD4E91201002210
:107500000023FFF7C3FA20B14FF0000804F11A0975
:107510000EE00C9B08F10102013B19E001234A46F1
:1075200031462846B84701303FF4F1AE08F1010872
:107530000C9B013B9845F1DB534604F15002314668
:107540002846B84701307FF403AFE0E64246012306
:1075500031462846B8470130EED1D8E601234A46E5
:1075600031462846B84701303FF4D1AE08F1010852
:10757000E3680D9A9B1A9845F0DBE0680D9B9842F2
:10758000B8BF184617E0002206920CAA05920BAA73
:1075900043F4806303920DF12B0223600292019366
:1075A0000246CDF81090CDF800E00B462846FFF7D4
:1075B0003DFD80464EE60FB0BDE8F08F2DE9F04767
:1075C00091461F460A698B6806469342B8BF134628
:1075D000C9F8003091F843200C46DDF8208012B144
:1075E0000133C9F800302368990642BFD9F800304A
:1075F0000233C9F80030256815F0060510D104F1F2
:10760000190A07E00123524639463046C047013087
:107610001AD00135E368D9F800209B1A9D42F1DBAE
:1076200094F843302268003318BF012392060FD527
:10763000E118302081F843005A1C94F84510224488
:10764000023382F8431003E04FF0FF30BDE8F087CB
:1076500004F1430239463046C0470130F4D0226875
:10766000D9F80050E36802F00602042A08BF5D1B47
:107670002269A3680CBF25EAE57500259342C4BFC3
:107680009B1AED184FF000091A344D4509D001231B
:10769000224639463046C0470130D5D009F10109AC
:1076A000F3E70020BDE8F0872DE9F04317460A7E96
:1076B00085B06E2A984606460C460C9B01F1430E97
:1076C00000F0AE8011D8632A22D009D8002A00F039
:1076D000BB80582A40F0CA8081F84520834955E094
:1076E000642A1ED0692A1CD0C0E0732A00F0B08042
:1076F00009D86F2A2ED0702A40F0B8800A6842F06C
:1077000020020A603EE0752A24D0782A3AD0ADE003
:107710001A6801F14205111D1960136884F842309E
:10772000A8E021681A6811F0800F02D0111D1960BD
:1077300008E011F0400F02F10401196002D0B2F923
:10774000003000E01368002B3CDA2D225B4284F805
:10775000432037E021681A6811F0800F02D0111D14
:10776000196007E011F0400F02F10401196001D027
:10777000138800E01368227E5C496F2A14BF0A2236
:1077800008221BE078225A4984F8452022681868AC
:1077900012F0800F00F104051D6003D1550601D5DC
:1077A000038800E00368D00744BF42F02002226053
:1077B0001BB9226822F0200222601022002084F8E7
:1077C000430001E049490A226568002DA56008DBF5
:1077D000206820F0040020602BB9002D7DD1754673
:1077E0000CE0002B79D07546B3FBF2F002FB1033AE
:1077F000CB5C05F8013D03460028F5D1082A0BD1E2
:107800002368DA0708D5236962689A42DEBF30230D
:1078100005F8013C05F1FF35C5EB0E0323612EE0B1
:1078200008681A6810F0800F496903D0101D1860AD
:10783000136808E010F0400F02F1040018601368AC
:1078400001D0198000E0196000232361754616E01D
:107850001A68111D19601568002162682846FFF733
:1078600011FB08B1401B6060636804E004F142054D
:1078700084F8422001232361002384F84330CDF8AB
:1078800000803B4603AA21463046FFF797FE0130B1
:1078900002D14FF0FF3026E023692A4639463046B0
:1078A000C0470130F5D023689B0710D5002504F1AF
:1078B000190907E001234A4639463046C0470130DE
:1078C000E7D00135E368039A9B1A9D42F2DBE0683A
:1078D000039B9842B8BF184605E00B7804F14205B7
:1078E00084F842308AE705B0BDE8F0837AB9100029
:1078F0008BB910002DE9F04F9A468B6816465A1E38
:10790000B2F5AE7F88BF6FF4AE7287B082BF9B18AE
:10791000019340F25D13884696BF00238B6001936C
:107920000B684FF0000B43F4F06348F81C3B07462C
:107930000C4645465A46D946CDF810B0CDF80CB0A5
:10794000CDF808B0A168002900F0E58033681B7805
:10795000492B70D016D8392B0DD8312B40D22D2B76
:1079600046D002D82B2B43D0D5E02E2B00F09280AE
:10797000302B23D0CFE0452B00F09580462B77D0DD
:10798000412B0CE0652B00F08E800AD8542B75D06B
:1079900002D84E2B34D0BEE0592B75D0612B46D087
:1079A000B9E06E2B2CD004D8662B61D0692B42D065
:1079B000B1E0742B62D0792B66D0ACE0206810F473
:1079C000807F0DD0019B20F08000206009F101092B
:1079D000002B00F08780013B01310193A16081E021
:1079E00012EB0B0F40F09780216821F4C07105E085
:1079F0002168080640F18F8021F0800121606FE04E
:107A00006AB9B9F1000F0CD1216801F4E060B0F55A
:107A1000E06F06D121F4F0612160012260E0022ACA
:107A20005DD0BBF1010F1ED0BBF1040F1AE0012A9B
:107A300071D1022254E0BBF1000F0ED1B9F1000F59
:107A40006CD1216801F4E060B0F5E06F6AD121F4F7
:107A5000F06121604FF0010B42E0BBF1030F02D057
:107A6000BBF1050F57D10BF1010B5FFA8BFB37E030
:107A7000BBF1020F4FD14FF0030B31E0BBF1060F0A
:107A800049D14FF0070B2BE0BBF1070F43D14FF06B
:107A9000080B25E0216888053DD521F4207121607F
:107AA000CDF808901CE0216801F4A060B0F5806F6B
:107AB00004D048052FD5B9F1000F33D0880558BF41
:107AC000029821F4F06158BFC0EB090041F4C07185
:107AD0005CBF0390049521604FF0000900E0032291
